:02000004C0D06A
:10000000F0B58DB062B601F0F1FF1D4E01256A0218
:1000100000241A48214602F097F8B02230462146C3
:1000200002F092F802AF384604F06CFF388580B2D7
:10003000002806D01028E9D001F0B4FF00200DB050
:10004000F0BD02A801F0D5FF02F070FA0D4803F0F0
:1000500071F98078012809D001AE7470B570094833
:1000600003F068F90322314603F0A6F9012004F0F9
:10007000A3FC00F04BFE01F04DFCC046A81B002085
:100080003C180020405CD0C0F0B5D9B01D461446E5
:100090000F460146A52F79D230A83A4602F05DF806
:1000A0000022002F09D00022D0B230A9085C00281D
:1000B00003D1521CD0B2B842F6D304950194780013
:1000C0000392D5B2BD42029004462AD2029C039EFE
:1000D00005970694F0B20021B8420FD205990F1A85
:1000E00030A90C1800210902207808433A2104F0B5
:1000F00079FD20707F1E641C002FF4D130A8425D72
:1001000025487844405C069C641EE1B207AB585415
:10011000701C002A00D03046C5B2059FBD4206467D
:10012000D7D3E1B2029FB9420DD21C48784400787F
:10013000049B039E07AA515C814206D1641CE1B274
:10014000B942F7D301E0049B039E300610D0144857
:1001500078440078254621463246491ECBB207AC8A
:10016000E054521EFF231A42F7D12C46A41B049BD5
:10017000E0B2391ACEB2B3420BD307A909180198DD
:10018000324601F0EAFF304659B0F0BD022002F0DD
:1001900098F8032002F095F8AA4E0000804E000067
:1001A0005C4E0000F0B51D6800248D4223D846192E
:1001B0005660AF1D1F602E4626368E421BD8C719CB
:1001C00097601E602F4646378F4214D88619D66036
:1001D0001F602E4666368E420DD8C71917611E6005
:1001E0008E4208D8805D107567351D600124034874
:1001F0008D4200D00446A0B2F0BDC046126E000091
:10020000F0B583B000920D46064601AF00243C7065
:100210003A4600F089FB3A780292014337204002C7
:10022000002906D1009A147002AB30462946FFF728
:10023000B9FF03B0F0BD70B514460D460646002068
:10024000A0612070201D112104F008FE30462946CF
:100250002246FFF7D5FF70BDF0B583B001920C4682
:10026000064602AF00253D703A4600F05DFB0143B3
:1002700037204002002901D0054616E03978019B5D
:100280001D70A14211D872185A608A1DA2420CD862
:10029000B2189A600A462632A24206D8B25C1A7395
:1002A000273111300125A142E6D1A8B203B0F0BD3B
:1002B00080B5002313615360936013731370FFF7CD
:1002C000CBFF80BDF0B58BB01F4614460D460646E9
:1002D00039680023A94212D870186060881D386000
:1002E000A8420CD8325C05942274C81D3860374C83
:1002F0000A2A01D9204603E00494A84203D91846EB
:1003000080B20BB0F0BD345C0598447408460830E8
:10031000039038600498401C0A2CF1D80398A84236
:100320001846EDD80398335C059883740931396019
:100330000498801C0A2BE3D8002009900890684696
:10034000476008A90160059B20333046294600F02C
:100350003FF80128D4D10020079003900690059B18
:100360005A7C6846476006A90160C033304629467A
:1003700000F02EF80128C3D1059B9A7C684647609F
:1003800006A901600B2040011B183046294600F0E9
:100390001FF80128B4D10699089A01208A4206461E
:1003A00000D9039E079D099BAB42049C00D903988A
:1003B000AB4200D00646E01D002EA1D1501AAB4141
:1003C00005998861CB6101209AE7C046016E000063
:1003D000F0B58BB01C46054601200692002A42D09B
:1003E00001901198109A04922246083202920990C4
:1003F000036800271F480890079705910395284632
:100400000AAD079A2A70C018C91A0822082900DB09
:1004100011462A4600F088FA03C4099E32682B78F8
:100420005BB2D218326005460D43089BDB1C083CCA
:10043000002D1BD0049E28CE083E18184D4121C621
:100440001346203305998B420FD8039DA8183A0113
:10045000029EB0500998036010347F1C06988742B2
:10046000CDDB019B02E0034600E0089B98B20BB095
:10047000F0BDC046046E0000F0B583B014460D46D2
:10048000064601AF0020387030463A4600F04CFA7C
:1004900002463878029002235A400A43372040022D
:1004A000002A06D1237002AB304629462246FFF7C8
:1004B00009FF03B0F0BDF0B581B00446201D0F2147
:1004C00004F0CCFC9F20C0430646A719C42100229B
:1004D0007A50C023FA50C8257A511036F5D1164605
:1004E00007469F377743E7197A50FA507A51103E02
:1004F0003746A037F4D10B20400120180A210022F2
:100500000260426082601030491EF8D101B0F0BD37
:1005100070B514460D4606462046FFF7CCFF304620
:1005200029462246FFF7A8FF70BD0000B0B503467C
:100530001F2A24D91878412808D021281ED1481C08
:1005400009332022194601F008FEB0BD1A7A7F2037
:10055000C0436D30C4B28020A2420FD01A46483248
:100560000024151B2D780D55641C202CF9D1282250
:100570009A5CD20702D0CA7F0243CA77B0BD014855
:1005800001F09FFEED600000F0B581B00346202A27
:100590002DD9012008701878412808D0212824D1AD
:1005A000481C09332022194601F0D7FD1DE01A7AB4
:1005B0007F20C0436D30C4B28020A24215D01A46BD
:1005C00048320024E443254626466E4357197F7877
:1005D0008F556D1E2E462136F6D128229A5CD20701
:1005E00003D020228B5C03438B5401B0F0BD014843
:1005F00001F067FEED600000F0B59BB00091014690
:100600005000134A7A44105A09AD2880A81C2026AD
:10061000324601F0A2FD222113AF28463A46334666
:1006200002F0F8FE01AC384631462246334602F06D
:10063000F1FE284622300422214601F08EFD2621BB
:1006400034232846009AFFF71FFD1BB0F0BDC046BB
:10065000E2490000F0B59DB0019106460524022054
:10066000042A00D00446002A09D0042A21D1E5B288
:100670000AA8294979442A4601F06FFD20E050007C
:1006800024497944085A0AA90091088071680836FB
:1006900015AF202530463A462B4602F0BBFE02221B
:1006A00000980243384629462B4602F0B3FEE5B2D5
:1006B0000EE0500019497944085A0AA90880E5B2A9
:1006C0000AA8401972680836314601F046FD15AF98
:1006D0002024294621430AAE30463A46234602F0FA
:1006E00099FE384602AF21463A46234602F092FE72
:1006F000701920300422394601F02FFD284624309D
:10070000C1B23235EBB23046019AFFF7BDFC1DB0E5
:10071000F0BDC046644900007A490000304900003D
:10072000F0B583B014460D46064601200290012D17
:100730000AD13078302807D10020022B71D3302025
:1007400020700020607066E0089FAF4227D2EA1B4D
:10075000A91C0020994264D80021002A0BD0304601
:1007600001921146234602781A70401C491E5B1CF8
:100770000029F8D10199002F084602D02E2060549C
:10078000481CA94249D2221873186E1A45191F78BD
:100790001770521C5B1C761EF9D1691A1DE0791B7B
:1007A000FA1C00209A423CD8302020702E20607025
:1007B0000220002905D0A01C302204F055FBB81CF3
:1007C000401B002D29D021182A4633780B70491C74
:1007D000521E761C002AF8D1411900236354884226
:1007E00019D2255C002B024600D01A460023302D7A
:1007F00000D01A46401C81421346F2D1002A0AD08A
:100800000020A054A118C2438A5C491E2E2A029AD5
:1008100006D1087004E0029803E0029A00212154F6
:10082000104603B0F0BD0000F0B595B002930392FE
:100830000790084300270028019746D00023012590
:1008400008951C461E460F460A22284621461C468D
:1008500004F0EEF9234605460C46079885420898B1
:1008600000D9184639468C42089A00D91A468C425B
:1008700000D010463246561C0028E4D1132E4CD826
:100880000027002E21D00020C743059104920A22A0
:100890000892002306932846214604F0A9F905464C
:1008A0000C46079805992A46234604F0A1F9089AB0
:1008B000069B04F09DF93020104310A9C919487017
:1008C0007F1C0498B842E2D1374610AD0198E85534
:1008D00009AC13A10422204601F03FFC0820694620
:1008E0000860221D192328463946FFF719FF2046C4
:1008F00004F02AFB0299491E884205D209A9039CEB
:10090000204604F019FB02E00020039C20702046E2
:1009100004F01AFB80B215B0F0BD012001F0D1FC4B
:100920004643542000000000F0B581B00091044619
:1009300000210846002C17D0002A15D0002515707C
:1009400028462946EEB2A75D6D1C1570430EC901FD
:1009500019437F233B40C0011843EBB2009FBB42C9
:1009600002D2A357002BEDDB01B0F0BD70B50546F8
:100970006878012400281FD0411E104A1268012403
:1009800000238A4200D01C468A4215D17D263101BF
:1009900001280FD002280FD10721284601F07AFF45
:1009A000F60080190649884204D30721284601F041
:1009B00071FF811903484161204670BD381800203D
:1009C000B80B00003C180020F0B583B004466078F6
:1009D0000125002800D13CE17D26F10002919E4FC7
:1009E0003968421E012591420CD0012200230128C2
:1009F000154600D81D46002900D10A461540002D95
:100A000000D126E1122808D0022806D0012800D003
:100A10001FE19948029941611BE190483822214623
:100A200001F09BFB39684B1E142000270A2913DDB7
:100A30000F291CDD122936DC102954D0112900D1D0
:100A4000D8E0122900D0F2E08549096A082711236D
:100A5000002900D080E0D2E0052913DC02292BDD3B
:100A6000032947D004294BD005294FD0DFE00C29BA
:100A700027DD0D2900D1B3E00E294DD00F2900D17B
:100A8000B3E0D4E0072929DD08294CD0092900D199
:100A90009CE00A2900D0CAE07149096904270923AA
:100AA000002959D197E0132900D1A8E0142941D099
:100AB000152900D1B0E0BAE0012942D002294BD07B
:100AC000B5E00B2900D186E00C2900D0AFE06449E5
:100AD000496905270B2300293ED181E0062935D03D
:100AE00007296ED0A3E05E49C96907270F230029B3
:100AF00032D17FE05A494A680223002A06D083E0B7
:100B00005749496801270323002925D154498A6898
:100B10000423002A78D154E05149896906270D231E
:100B2000002919D161E04E49C9680327072300292C
:100B300012D14BE04A49496A0927132300290BD1F6
:100B40006AE047480268002A5ED105E044498968A6
:100B500002270523002934D0B8004149085800284D
:100B60002DD04148002538222946019301F0ECFAA6
:100B7000B8003B49085880683C49CA5D3A49FFF7CC
:100B80003BFD3B4F20223846294601F0DDFA0A2280
:100B90003846354D294601F0E0FA38460A3035A18D
:100BA000022201F0DAFA284604F0CEF92818011FD3
:100BB0000C370422384601F0D0FA01982CE0184690
:100BC0002AE02749CA680623002A1DD124490A6958
:100BD0000823002A18D122494A690A23002A13D17E
:100BE0001F498A690C23002A0ED11D49CA690E23A8
:100BF000002A09D11A490A6A1023002A04D1184987
:100C00004A6A1223002A07D051681068154A1F4605
:100C10002023FFF709FE3846C00018497944081818
:100C2000617889083C220A4080580C49C8610B4D04
:100C30000721284601F02EFE029C0019010930010F
:100C40007D2904D30548072101F024FE00190A4933
:100C50004861284603B0F0BD381800203C19002038
:100C600074190020EC180020001800209C190020A6
:100C70000C1900202E2E00003C1800200449000012
:100C8000F0B581B0054668780124002832D0431EB3
:100C90001A490A68012400269A4200D034469A4232
:100CA00028D17D23DE001B01154F022814DD032807
:100CB00003D004280DD005281CD10721284601F0B7
:100CC000E9FD8019B84204D30721284601F0E2FD6E
:100CD00087190C4847610DE0012805D0022809D189
:100CE00009480078002802D00648436102E0501C01
:100CF00008600024204601B0F0BDC046381800202E
:100D0000B80B00003C180020A619002080B504494B
:100D10000020087003497944024602F06DF880BD56
:100D2000A71900201246000010B500F01BF80A4970
:100D300090220A54091800244C70801C81B2202093
:100D400001F00EFE0548047005497944204622460C
:100D500002F052F8204610BD341E0020A7190020D2
:100D6000DE450000F0B581B0174C626817490A7083
:100D7000481C0D462146083101F0EFF96668AF19AD
:100D800025464C35284604F0DFF87870B71C0F482C
:100D9000C619284604F0D8F802463046294601F024
:100DA000DCF9284604F0D0F8C519A420205C0028FE
:100DB00007D00648401984342022214601F0CDF99D
:100DC0002035284601B0F0BDA8190020341E0020AF
:100DD00080B50E49884214D00D49884213D10D4880
:100DE00069210170852141702020022101F0B8FDA8
:100DF00009490020087009497944024601F0FCFFC6
:100E000001E0FFF791FF002080BDC0460200008096
:100E100001000080341E0020A7190020304500008A
:100E2000F0B5A3B02F4B5A78002468460460191D12
:100E30001F462120079013AE334602F057FB412096
:100E400006902022089209AD31462B4602F0FAFAAC
:100E500040223046214601F077F91F200001385822
:100E600069464C61972252000A611F4A2332CA60C8
:100E70008C6011C13B462C330126052228463146A1
:100E800002F010FB0746069816492A46334602F040
:100E9000F1FA28222846214601F056F9380A079A25
:100EA0001149885422200F540E480D46FFF76CFB61
:100EB0003846233080B2902129543846243080B2FD
:100EC0002C542537B9B2089801F04AFD0748047040
:100ED000074979442046224601F08EFF204623B080
:100EE000F0BDC046A8190020341E0020A71900201C
:100EF00056440000F0B5A3B02F4B5A780024684642
:100F00000460191D1D462120089013AE334602F0DF
:100F1000EDFA412006902022079209AF31463B4668
:100F200002F090FA40223046214601F00DF91F20D0
:100F30000001285869464C61FF2230320A611F4A7D
:100F40002232CA608C6011C12B462C330125052248
:100F50003846294602F0A6FA0646069816493A4649
:100F60002B4602F087FA28223846214601F0ECF899
:100F7000300A079D1149485508980E540E480F46EF
:100F80002A46FFF7D3FA3046223080B290213954F6
:100F90003046233080B23C542436B1B2284601F0AA
:100FA000DFFC07480470074979442046224601F0D7
:100FB00023FF204623B0F0BDA8190020341E0020D6
:100FC000A71900208043000080B50E49884214D044
:100FD0000D49884213D10D48692101708521417066
:100FE0002020022101F0BCFC0949002008700949B9
:100FF0007944024601F000FF01E0FFF711FF0020F5
:1010000080BDC0460200008001000080341E002028
:10101000A71900203843000080B50E49884214D03B
:101020000D49884213D10D48692101708521417015
:101030002020022101F094FC094900200870094990
:101040007944024601F0D8FE01E0FFF753FF00208B
:1010500080BDC0460200008001000080341E0020D8
:10106000A7190020E8420000B0B505460F2028402F
:101070000024012813D0022813D1002908D00A48DF
:1010800002F078FA68B2002809DA02F081F906E085
:10109000FF2152310448002202F098FA044620460B
:1010A000B0BD022001F00DF9341E0020F0B5ADB046
:1010B0000F460346511CD520C0011678721ED2B2CD
:1010C0000A2A00D3F8E0022B00D3F2E00693012FA6
:1010D00000D9EEE0339805903298039011A832467B
:1010E0000B781B064C7824041C438B781B0223438B
:1010F000CC781C4310C0091D521EF1D112980490E7
:101100003F20C2006F480024214601F01DF8012F46
:10111000079400D13C46A4216A4A545410468430B6
:10112000012F00D0079869460860212011A925AD3C
:10113000029032462B4602F0D9F9412620241BAFFB
:101140003046294622463B4602F07CF901233046D0
:101150005C493A4602F08EF928223846079E31460D
:1011600000F0F2FF284631462546224600F0ECFF0B
:1011700055490420049A8A42114600D03046C9B22B
:101180000227842900D00746002F0CD0022F01D05F
:10119000042F1ED108AC4B4E304621462E46324617
:1011A000FFF7C4F907E008AC464E30462146029EE0
:1011B0003246FFF7E9F9434D083500214122284620
:1011C00000F0C2FF3F48466028462146324600F004
:1011D000C4FF3C4D2C464C34002638222046314674
:1011E00000F0B2FFFAB228462146FFF733FAFFF7C4
:1011F000B9FD05990860069800285FD0334806704D
:101200006846046037233420042F00D0034630485A
:10121000382430A2214601F077FE3048066030487D
:10122000022101602F4D3148784428600720686012
:101230002F48784428612F487844E86003202876B6
:10124000EE612846183002F07FF9E86101F05AFE9D
:1012500001F098F9AE602868002823D0E869224997
:1012600088421DD11EE0686886421BD202F098F9C0
:10127000002817D1A868E96860432A681018002977
:1012800002D08847002807D0012803D1A86860430E
:101290002968081801F0BCFAA868461CAE602868E6
:1012A0000028E0D1039A10681021014311602DB08D
:1012B000F0BD803001F005F801F003F809200003CB
:1012C00000F0FFFFA819002088888888A71900204F
:1012D0000018002020252E2A732000003818002036
:1012E000A01B00203C180020445010B070410000AA
:1012F0009BFBFFFF31F7FFFF80B501F089FA80BD4E
:1013000080B50B4802F016F801780120002902464A
:1013100000D10A4607490A7000224A7009228A70E1
:10132000C870039804210160100300F0CAFFC04692
:10133000405CD0C0341E0020F0B587B0069317463D
:101340000D9A00241460E1235D00D523DB01802881
:101350000492059147D00193002800D007E1029440
:1013600003952A4636328E4E00253046294600F037
:10137000EBFE3C787470601EC0B20A2830D206982A
:10138000401E791C874B0693AF00F71933460E7841
:1013900036064A78120432438E7836021643CA78EB
:1013A00032431E467A6080B2069BC018091D6D1C30
:1013B000A542E9DB41223270069AD21C02401F236B
:1013C0001B01F25080B2039B984200D9DAE030460C
:1013D0002C3000F0C2FE307A83280598029C15D08C
:1013E000019800F06EFF1F202A4605016C4E7059CF
:1013F000904200D9CAE030182C303946069F3A4650
:1014000000F0ABFE7059C01970510598002800D14A
:10141000B1E01F200101624841582C30624F3A462A
:10142000FFF776F8012800D0A7E0397C5F48002953
:1014300000D1A2E0797CBA7C51180B2900D39EE040
:101440005B48202521462A4600F07EFE5948214669
:101450002A4600F079FE584E2821304603F0FEFC63
:10146000564D02200590286055480460B869F96916
:10147000544A10230693FFF7D7F9787C002810D040
:101480004949C0312A68921C00234F4F1C463B55E6
:10149000A5007151494D2A601031921C641C844290
:1014A000F5DB3746404B987C0028059E13D0464913
:1014B00009190B2252019A18A300FB182C68A41CCE
:1014C0000027CE55BD005A513C4D2C601032A41C53
:1014D0007F1C8742F5DB0C9C3C4E3E4878443060D4
:1014E000072070603C48784430613C487844F060A4
:1014F000032030760025F5613046183002F024F8DC
:10150000F06101F0FFFC01F03DF8B56030680028A3
:1015100024D0F0692E4988421ED11FE070688542B0
:101520001CD202F03DF8002818D1B068F1683825C7
:10153000684332681018002902D08847002807D075
:10154000012803D1B06845433068401901F060F9C3
:10155000B068451CB56030680028DFD12068069966
:101560000843206000200499086007B0F0BD01988E
:10157000803000F0A6FE0920000300F0A2FE0F302C
:1015800000F09FFE0198001D00F09BFE36320448DB
:1015900000211C4600F0D8FD204600F092FEC04617
:1015A000A8190020FCFF0000A81B0020016E00000D
:1015B0000C190020EC18002074190020A01B00203A
:1015C000381800202C1900209C1900203C180020FD
:1015D000445010B0EC400000DFFAFFFFD9F4FFFFE9
:1015E000F0B58DB01D461446139A00230392136084
:1015F000E1225200D523DB018028049145D00193DC
:10160000002800D0C4E0029236326C4F00263846E3
:10161000314600F099FD22787A70501EC0B20A2837
:1016200030D2681E611C664B0593B4003C190D78DE
:101630002D0613463A464F783F042F438D782D02EE
:101640003D43CF782F43676017461A4680B2059B0B
:10165000C018091D761C9642E7DB41223A70059AB4
:10166000D21C02401F231B01FA5080B2029B9842F9
:1016700000D995E038462C3000F06FFD387A842888
:10168000049913D0019800F01CFE1F2006014B4F57
:10169000B859904200D987E038182C3021462A46A4
:1016A00000F05BFDB8594019B8510499022001427D
:1016B00072D0C8070DD11F200101404841582C307D
:1016C00006AAFEF7F5FD012868D13E48202141A277
:1016D0000CE01F200101394841582C3006AAFEF7C2
:1016E000AAFD01285AD13748202137A201F00CFC6D
:1016F000129C3B48002606603A4806603A4D3C483A
:1017000078442860052068603A48784428613A485F
:101710007844E86003202876EE612846183001F00E
:1017200013FFE86101F0EEFB00F02CFFAE602868CB
:10173000002824D0E8692D4988421ED11FE068683E
:1017400086421CD201F02CFF002818D1A868E96855
:10175000382670432A681018002902D088470028CC
:1017600007D0012803D1A86846432868801901F0F2
:101770004FF8A868461CAE6028680028DFD12068B2
:101780001021014321600020039908600DB0F0BDD5
:101790000198803000F095FD0920000300F091FDD4
:1017A0000198001D00F08DFD3632044800211C46D2
:1017B00000F0CAFC204600F084FDC046A8190020B5
:1017C000FCFF00000C1900205369676E204368611C
:1017D000696E3F005369676E20456E7472793F00F1
:1017E000A01B0020381800203C180020445010B0E6
:1017F000504000000BF9FFFF6DF5FFFFF0B58DB015
:101800000C46064602AF384603F07CFB05463D8594
:101810003C48054216D002A8002101850F20000394
:101820002840290ACEB20921090388422BD003217E
:101830004903884221D1012042023348002100F0AF
:1018400083FC20E002A800F0D4FB314A1078E028A5
:1018500047D15078801E0121C84101282BDC002887
:1018600035D001284AD11379D17890786D462E6011
:101870006C60521DFFF760FD0EE0244805400D200E
:10188000C00205432E0A206821490E54206808181A
:1018900045702068801C206000F018FD02A9884275
:1018A00003D100F015FD00F0A4FB02A8008D002874
:1018B00019D10DB0F0BD082817D11379D1789078DF
:1018C0006D462E606C60521DFFF78AFEE4E7D1780A
:1018D00090786B461E605C60521D0023FFF7E6FBAC
:1018E000DAE73720400200F0ECFC022806D1684617
:1018F0004460002001460346FFF702FD6D20000210
:1019000000F0DFFCFFFF0000A81B0020FF07000025
:10191000341E0020F0B58FB000260E960D960C9662
:10192000324F304C0BA806806D46284603F0EAFA89
:1019300028852B49084215D069460E850F210903D9
:10194000014009221203914223D003225203914203
:1019500022D10BA90880012042020021204600F07C
:10196000F3FB20E0684600F044FB0D980E90002544
:101970000D950C980E99C0B289B200F0F1FF0E904F
:101980000C950E98002828D00CA80DA9FFF736FF5B
:1019900014E00BA9088006E0134908400D21C90294
:1019A00001430BA801800B98000A0D9978540B98FD
:1019B0000D99791848700D98801C0D9000F086FCE8
:1019C0006946884203D100F083FC00F012FB6846B0
:1019D000008D0028A6D000F074FC054800F071FCD2
:1019E000FFFF0000A81B0020FF070000341E00209E
:1019F00082690000F0B585B0FD4D2878FD4F0C28B8
:101A000010DD0D2877D00E2800D1B4E0152833D191
:101A1000F948007801282FD1A87900072CD410208C
:101A200000F04FFC052800D1E5E00C2824D1F34C50
:101A3000012020760026E6612046183001F084FD62
:101A4000E06101F05FFAE069ED49884200D144E2CB
:101A5000002800D141E2E749884200D0D2E100F0FD
:101A600091FDA6602068002800D136E2E069E449D3
:101A7000884200D02BE130E2E04C012020760025A6
:101A8000E5612046183001F05FFDE06101F03AFAAF
:101A9000E069B84200D0D2E000F074FDA560206893
:101AA000002800D119E2E069D549884220D114E22A
:101AB0006068854200D310E201F072FD002800D07A
:101AC0000BE2A068E16838256843226810180029F5
:101AD00002D08847002807D0012803D1A0684543D9
:101AE0002068401900F094FEA068451CA56020689D
:101AF0000028DDD1F1E1C14C012020760025E5610F
:101B00002046183001F020FDE06101F0FBF9E069AA
:101B1000BB49884200D1E0E1B649884200D137E1B3
:101B2000002800D1D9E12068002800D1CFE1A068C9
:101B30006168884200D3CAE101F032FD002800D07C
:101B4000C5E1A068E16838256843226810180029BB
:101B500002D08847002807D0012803D1A068454358
:101B60002068401900F054FEA068401CA060216865
:101B70000029DDD1ABE1A14C012525760026E661E7
:101B80002046183001F0E0FCE06101F0BBF9E369A8
:101B9000BB4200D0C1E000F0F5FC0020A06021684D
:101BA000002900D199E1E169FA4A914220D194E1FA
:101BB0006168884200D390E101F0F2FC002800D077
:101BC0008BE1A068E1683825684322681018002975
:101BD00002D08847002807D0012803D1A0684543D8
:101BE0002068401900F014FEA068401CA060216825
:101BF0000029DDD171E1E64C012020760026E66166
:101C00002046183001F0A0FCE06101F07BF9E069AA
:101C1000E049884200D160E1002800D15DE1DB4964
:101C2000884200D028E100F0ADFCA66020680028C2
:101C300000D152E1E069D74988426BD14DE120687B
:101C4000002800D143E1A0686168884200D33EE1EA
:101C500001F0A6FC002800D039E1A068E168382531
:101C6000684322681018002902D08847002807D04E
:101C7000012803D1A06845432068401900F0C8FD41
:101C8000A068401CA06021680029DDD11FE16068C8
:101C9000864200D321E101F083FC002800D01CE142
:101CA000A068E1683825684322681018002902D02E
:101CB0008847002807D0012803D1A0684543206841
:101CC000401900F0A5FDA068461CA6602068002809
:101CD000DDD102E16068864200D3FEE001F060FCE5
:101CE000002800D0F9E0A068E16838256843226840
:101CF0001018002902D08847002807D0012803D1F6
:101D0000A06845432068401900F082FDA068461C89
:101D1000A66020680028DDD1DFE06069002808D0D7
:101D200064216428024600D30A46801A606100D10B
:101D3000DCE09848834200D1CFE0002B00D1CCE01A
:101D40002068002800D1C2E0A0686168884200D302
:101D5000BDE001F025FC002800D0B8E0A068E168F3
:101D60003825684322681018002902D088470028C7
:101D700007D0012803D1A06845432068401900F02E
:101D800047FDA068401CA06021680029DDD19EE0CD
:101D900000F0F8FBA5602068002800D19DE0E06914
:101DA0007C49884220D198E06068854200D394E065
:101DB00001F0F6FB002800D08FE0A068E16838252C
:101DC000684322681018002902D08847002807D0ED
:101DD000012803D1A06845432068401900F018FD90
:101DE000A068451CA56020680028DDD175E0C046CC
:101DF000A81D0020555010B0981F00203C1800204E
:101E0000445010B0A088049020680390EE79AB791C
:101E10006F792A79ED78E1686846056041601202C1
:101E20003A431B0233430398049900F023FC2068D3
:101E300000284CD0A0686168884248D201F0B0FB0D
:101E4000002844D1A068E16838256843226810184A
:101E5000002902D08847002807D0012803D1A068B4
:101E600045432068401900F0D3FCA068401CA060E6
:101E700021680029DFD12AE02069002803D0E97811
:101E8000490800F033FD2068002820D0A068616870
:101E900088421CD201F084FB002818D1A068E168B8
:101EA0003825684322681018002902D08847002886
:101EB00007D0012803D1A06845432068401900F0ED
:101EC000A7FCA068401CA06021680029DFD16068E1
:101ED000A168814201D301F063FB01F061FB00289E
:101EE00001D100F0FBF9012005B0F0BD2948834283
:101EF000F3D0002BF1D028480178284A1068002937
:101F000003D0002801D11560284625490968002919
:101F100000D10EE7401C1F46154602F063FE296003
:101F200000F030FB3B46A6602068002800D100E7A7
:101F3000E0691849884200D1FBE6002800D1F8E6A4
:101F40006068864200D3F4E601F02AFB3B46002895
:101F500000D0EEE6A068E1683825684322681018D2
:101F6000002902D08847002807D0012803D1A068A3
:101F700045432068401900F04BFCA068461CA66051
:101F8000206800283B46DBD1D3E6C046555010B050
:101F90003C180020445010B0A71900203818002029
:101FA000A01B002010B58CB001AC204602F0AAFFA7
:101FB00020850D49084206D101A800F01AF800203A
:101FC000C04301F0ABFA00F081F901A9884203D1C6
:101FD00000F07EF900F00DF801A8008D002801D175
:101FE0000CB010BD00F06DF9FFFF0000002081462D
:101FF0007047814670470000F0B581B000920F46EF
:102000000546484B9F420FD0464C4026204631465D
:1020100002F024FF00984028024600D332462046B2
:10202000394600F09AF83F4B987801280BDC0028DD
:102030002BD0012869D1D81C04211C4601F0D2F90B
:10204000402120462CE0022828D005285DD11879AF
:10205000D97809020143344A1068002481425AD1D8
:10206000324E00988019071F106800281BD01446B4
:10207000394631402E480268914200D907683A46F5
:1020800032402C480068591D31E000249C715C717D
:102090001C71DC7040211846A8473CE021484021D3
:1020A000A847002437E0987959790902014322486A
:1020B000016001684908A8292DD8144601681C4808
:1020C00001601C491D4A0A6059781A7812020A43B5
:1020D0001B490A601B49009A57183946314002686B
:1020E000914200D907683A463240D91D134800F0A2
:1020F00034F837400F480168C91901600C4801687D
:10210000C91B01602068401C20600948016801204B
:102110000224002903D10448002101602046C0B2F6
:1021200001B0F0BD38200020281E0020FFFF000075
:10213000301E0020881F00202C1E0020341E00208E
:102140008C1F0020F9FF010080B50B46002A03D048
:1021500011461A4602F088FE80BDB0B588420DD9FE
:10216000002A14D0491E5242401E0023DB431C4665
:1021700054430D5D0555521CF9D108E0002A06D0E4
:1021800000239CB20D5D05555B1C521EF9D1B0BDFC
:102190000148002101607047281E0020F0B585B07D
:1021A000019300920E460390002E47D0324C00203F
:1021B0002060324932480860324F781D392502903C
:1021C000294602F04BFE304801460868000A387084
:1021D000086878700520B8702068000AF8702068D8
:1021E0003871B1B22068002804910AD03B203B2905
:1021F0000E4600D30646214802461168029815464D
:1022000009E0300A7871BE7139290E4600D32E4696
:102210001A4D2968F81D3246FFF79FFF164C2868B3
:10222000801928602068401C206040213846039AAD
:1022300090470498861B15480642BED10E480024DC
:1022400004608020019D054201D001F0A1F8A8069C
:102250000FD40C4C009D40212046A847C2B2402A12
:10226000F9D803982146FFF7C7FE0228F3D10848A2
:102270000468A0B205B0F0BD281E0020881F002011
:10228000341E0020382000208C1F0020FFFF00009B
:102290002C1E002070B5431E491E52420020C4432C
:1022A000002A0CD0264656438D5D9E5D521CAE42E0
:1022B000F6D00020C1430120AE4200D80846C0B28B
:1022C00070BD80B50146484602F028FE484670477A
:1022D00000204946002900D04869704780B501F0C8
:1022E0005FF900280BD10648602101700021417080
:1022F00002228270C1700171052101F03BF980BD9D
:10230000A81D002010B51348C078032807DC012859
:102310000DD002281DD1104801F08CFF10BD0428FB
:1023200014D0082815D10C4801F082FF10BD0A4CCA
:102330000121204601F077FF204601F054FF0748B5
:102340000078002805D01020FFF7BBFF024801F0FD
:102350006DFF10BDA81D002080200020981F0020C8
:102360007F2101400148405C7047C046991F002012
:1023700080B510480179042908D0022911D001291B
:102380000ED1811D0D4801F030FE80BDC2787F2145
:1023900011404279084B5A54821D084801F053FEFF
:1023A00080BDC2787F211140821D044801F0A5FE46
:1023B00080BDC046A81D0020991F0020802000205D
:1023C000F0B581B014460546FF2C3AD81F4E502078
:1023D0003070E01C0091010A7170B07080200543DC
:1023E000F570202030717471062130461F4601F0CF
:1023F000C1F80098214601F0BDF8781C022820D3CE
:1024000006E0152902D1B07900071CD500F020F8AC
:1024100001F0C6F8002801D1FFF760FF80210022FB
:10242000304601F0D3F831780628EAD11029E8D1F6
:10243000F078A842E5D130790228E2D17079A04243
:10244000DFD101B0F0BD1020FFF73BFFA81D002039
:1024500080B51E48827841780902114300780F2820
:102460000ADC0E2810D00F281DD10020042921D10C
:10247000FFF748FF012080BD102818D0162812D180
:1024800000F032F8012080BD1148016800290AD00F
:1024900002686421632A00D801680268511A016049
:1024A000006800280BD00220FFF7A4FA80BD0020AE
:1024B000062900D280BDFFF75BFF012080BD0548E3
:1024C000002101701020FFF7FCFEC046A81D00206F
:1024D000941F00209F1F002080B50A4601468220DD
:1024E0001423FFF76DFF80BD80B50B4801780029EC
:1024F00010D10A4905220A700A2101700848817822
:10250000427812020A4307490A800A88C11C064819
:10251000FFF723FE80BDC0469F1F0020981F0020AC
:10252000A81D0020A01F0020341E002010B5082088
:1025300000F018FF0A48002404700A4804800A4882
:1025400004800A4804800A4804700A480460FFF7BF
:102550001FFE09480460094804600948046010BD72
:102560009F1F0020A21F0020A01F0020A41F0020EA
:10257000981F0020901F0020A81F0020AC1F0020E3
:10258000B01F00200148002101607047A81F0020F3
:10259000B0B50D460446206B00280CD000F0CAFEF2
:1025A00001462046884700F0C5FE0021002810D0D3
:1025B000012800D00446002D07D02046A84700215E
:1025C000002806D0012800D004462046FEF794FEDD
:1025D00001210846B0BDB0B58EB00C460546686B0B
:1025E00000280CD000F0A6FE01462846884700F0DF
:1025F000A1FE0021002816D0012800D0054668461B
:1026000038222946FFF7A9FD686A0490A86A059058
:10261000002C04D02846A0470021002803D068469B
:10262000FEF76AFE012108460EB0B0BDB0B50D46FA
:102630000446E06A00280CD000F07CFE01462046EB
:10264000884700F077FE0021002810D0012800D034
:102650000446002D07D02046A8470021002806D0B8
:10266000012800D004462046FEF746FE0121084618
:10267000B0BD0000F0B587B0029303920591002928
:1026800077D004900D9801900C98009000253C4B59
:1026900006952F461E4600F083FF002855D13820AE
:1026A0006843049C251833461A680121954200D0DE
:1026B000069906912056002841DA2020285C022144
:1026C000695E0A1A039CA24239DC4118EA8889181B
:1026D000039A8A4233DA04216C5E221A02998A42F2
:1026E0002DDC2018298940180299814227DA1868C0
:1026F000854210D0186800280DD00198002805D018
:102700002846019988473346002818D0186801994F
:10271000FFF73EFF08E00098012809D002280ED1FB
:1027200028460199FFF782FF3346002807D022E0B0
:1027300028460199FFF74FFF334600281ED17F1C22
:10274000FDB205988542A5D300E033460698000601
:102750000FD0186800280CD000F022FF3146002866
:1027600007D108680199FFF713FF002801D0002066
:10277000306007B0F0BD00201860FAE71D60F8E790
:10278000A81F0020F0B589B00C46014602AD1C22FE
:1027900028460192FFF7E1FC2168E98062682A81FE
:1027A000A0681A4F65233B7092B242438BB25343E9
:1027B000D9084E1C0722134200D10E463146009123
:1027C0000426864070181D30010A7970B870032104
:1027D000384600F0CFFE2846019900F0CBFEA068F5
:1027E00038700121384600F0C5FEE06800F0A2FD17
:1027F000B1B200F0BFFE009885B2206900F09AFDEA
:10280000294600F0B7FE09B0F0BDC046A81D002063
:1028100070B5044620787F26064000F0C1FE0028EF
:1028200030D1002E2ED0E06900281DD000F082FDAE
:102830000546052E02D1A07E002824D0284602F0AD
:1028400083FB064612486521017031461C310A0A95
:1028500042708170032100F08DFE1C21204600F0A3
:1028600089FEB1B228460BE00948652101700021BC
:1028700041701C258570032100F07CFE204629460E
:1028800000F078FE70BD20462946FFF77BFF70BD43
:10289000A81D002080B50A46C16900F001F880BD7E
:1028A00070B5164604460025002C1CD02078072859
:1028B00001D0022817D1084600F03CFD002812D0B4
:1028C00002F042FB4643E08886420CD9311A7D2053
:1028D00000014843A17E02F0FFF8A17A4900C9B285
:1028E00064224A431518284670BD0000F0B581B037
:1028F0000446002C2BD0174802688A4203D1164A9E
:1029000013685B1C136006680E43134A1568134F67
:10291000002901D0066004E00023036013607B1CE3
:102920001E430068884201D000201060082D0BD3A0
:102930000321284602F056F9012080073043002980
:1029400000D03046384000E030462946A04701B06C
:10295000F0BDC046AC1F0020B01F0020FFFFFF7F6E
:10296000F0B583B00D4604460F20044207D0204640
:102970002946FEF779FB0546A8B203B0F0BD102644
:102980002640694F002D6FD0002E6DD17D200001B3
:1029900066490860664908780828029717DD092803
:1029A00021D00A2845D10F466808A92800D3B7E0EE
:1029B000624853210170290A41708570032100F09B
:1029C000D9FD5C48294600F0D5FD394639E0072895
:1029D0002DD160487844002220230F462946FFF776
:1029E000DDFB39462DE0E81D01904008A92800D301
:1029F00096E07C20C0430D304E49485548190027C9
:102A000047700298001DAA1C0240481D0D46FFF7A2
:102A1000A4FB052228463946FFF796FB019883B2AE
:102A2000454883212A4601F035F9414909E000284B
:102A300073D020460F462946FEF716FB394600287C
:102A40006BD100250D703E4805803E4805803E480C
:102A500005803E480570A0068ED4FFF73FFC200697
:102A6000029F01D500F094FC002E0CD1600650D4DA
:102A70002F480021017032480180324801803248DD
:102A80000180324801702D4C2E4E2F4F02E0022063
:102A9000FEF7B0FF00F084FD002801D1FFF71EFC17
:102AA0008021002520462A4600F090FDC11EA27814
:102AB00063781B021343994215D1244909780029F0
:102AC00002D0FFF7C5FCE5E721780F2906D01029D1
:102AD00011D01629DBD1FFF707FD11E0042802D140
:102AE000FFF710FCD6E70020114908701449088050
:102AF00030803880CEE7062800D23DE7FFF738FC6B
:102B000030880028C6D01248006808490860358817
:102B100032E70C480088C5192EE70920FFF7D1FBE2
:102B20000220FFF7CEFBC046FBFF0000941F0020F1
:102B30009F1F0020341E0020B41F0020A81D00206D
:102B4000A21F0020A01F0020A41F0020981F00200B
:102B5000901F002001FBFFFFF0B581B007465F4CDE
:102B600025461435382228463946FFF7F6FA2169FA
:102B7000A068002903D088470346A06803E01C2111
:102B80004143226853180026002810D02269411EB4
:102B9000002A0FD00846009737462E461D4690471C
:102BA0002B4635463E46009F0246A06806E030466A
:102BB000324603E01C224A4321688A186168491E94
:102BC000884210D22169401C002908D000951D467A
:102BD0001646884732462B46009D064603E01C21D8
:102BE000414320684618787840280ADC202822DCF7
:102BF000102834D0202867D15969002000296BD1D2
:102C000051E0802822DC412833D042285CD1596928
:102C10000020002960D1D96800295DD16268511E69
:102C2000012A59D0A2688A4256D0F168002953D1AE
:102C30003069206348E0212831D0222844D1194648
:102C400014315A690020002A2FD145E0822835D05E
:102C5000812839D1A1680020002935D13CE0D9680C
:102C60000020002938D02163587E00282CD0E08233
:102C70002AE05969002000292ED1D96800292BD1DA
:102C8000A168002928D06168012925D0D1680029D0
:102C900022D1516900291FD11069206314E05969BC
:102CA0000020002918D01946103108682063187ECA
:102CB000002809D0E0820820A08505E06068A168AE
:102CC000421E0020914207D0E268002A284603D025
:102CD000143418462146904701B0F0BDEC1F002087
:102CE000F0B581B005463B4F3969B868002902D07C
:102CF0008847064603E01C214143386846180124F2
:102D00003548854214DD3548854217D03448854220
:102D10001CD0344885425AD1306800284ED0B4685F
:102D200000F008FB0146FA68204600F065F84DE027
:102D30002D4885420AD02848854248D17968B8682C
:102D40004A1E00240121904205D340E00024E143C3
:102D5000B86800283BD04018B860244800240460BC
:102D6000234DAC602868002831D0E86921498842A9
:102D70002DD000282BD0002420466968884226D216
:102D800000F00EFC002822D1A868E96838267043BC
:102D90002A681018002902D08847002807D0012887
:102DA00003D1A868464328688019FEF7A5FAA868E9
:102DB000401CA86029680029DFD108E0706800285D
:102DC00005D000F0B7FA0146B068884700242046D5
:102DD00001B0F0BDEC1F00200200008002000040A6
:102DE000010000400300008001000080A81F0020B7
:102DF0003C180020445010B0F0B583B002920D464C
:102E00000190374E002000907060002D15D0384999
:102E100079441C2728463A46FFF73CFA00280CD094
:102E2000344C7C447068401C7060784328182146FC
:102E30003A46FFF72FFA0028F4D1019908460130ED
:102E400005D070688842009800D30846B0603560AD
:102E500000250298F0603561224C274878442060B4
:102E60000920606025487844206125487844E06066
:102E700003202076E5612046183000F065FBE06114
:102E800000F040F818480560A5602068002824D0AC
:102E9000E069164988421ED11FE0606885421CD255
:102EA00000F07EFB002818D1A068E168382568434F
:102EB00022681018002902D08847002807D001286E
:102EC00003D1A068454320684019FEF715FAA068B1
:102ED000451CA56020680028DFD103B0F0BDC046C6
:102EE000EC1F00203C180020A81F0020445010B008
:102EF000502C00003E2C00000C2A000077FEFFFF43
:102F0000E9FCFFFF7047000081B0F0B590B01646B5
:102F10000C460A901593022C00D2F0E10A98002882
:102F200000D1ECE1002E00D1E9E100210A980791DF
:102F30002246FFF709F915A80B903078002800D138
:102F4000DDE10799C943651E0591BDE13019315D89
:102F500025290BD103930292431C002020210891C4
:102F60000A21019100900490099056E006460A92C9
:102F70001EE1334608464BE0472B13DC1946303937
:102F80000A2934D2302B089900D11946099D002D09
:102F900000D008990A226A43D218303A099233467F
:102FA00008913AE0672B04DD722B09DD732B46D1C3
:102FB0000AE0622B48DC482B55D10122049201E043
:102FC000682B56D1102201920B9A131D0B930323E9
:102FD00018404D1C1168012800D1CEE0022800D114
:102FE000D0E0032833462846069D16D0E7E02E2B76
:102FF00000D0CAE030782A2800D0C6E07178731C6F
:103000000120482904D0682902D0732900D0BCE0EF
:103010000B990A1D0B920968009102211E46337814
:10302000761C00222D2BA7DC1046F8D0252B2AD0A9
:103030002A2B00D0A9E0307873289AD0A5E0752B10
:1030400023D0782B18D0A0E0632B00D18BE0642B29
:1030500000D09AE00B98011D0B910068C11742182F
:103060004A40C00F16E0582B00D08EE0012004909B
:1030700002E0702B00D088E00B98011D0B910268D4
:103080000020102507E0252071E00B98011D0B9111
:10309000026800200A25069001270A92954212D85C
:1030A000012428460746294601F016FDA04209D111
:1030B000284678430999491E09910A9988423C4655
:1030C000F0D900E027460024E143069B002B00D105
:1030D00019460998019140180899CAB2302A06D1B8
:1030E000002B04D00CA92D230B7000230124811E7A
:1030F0000D290CD8411E0AD00CA82043069301F0DC
:10310000B3FE069B0998001901994018441E002B34
:1031100003D00CA82D210155641C0498002F18D051
:10312000002801D079A000E07CA009900A983946D7
:1031300001F0D2FC294601F055FD0998405C0CA92C
:1031400008553846294601F0C7FC641CBD420746B5
:10315000ECD9039B9C4200D31C460CA9029D284637
:1031600022461F461BE00B98011D0B910068029937
:1031700008700398401E491C15E0009C059A039BAB
:10318000069D24E00878002875D00520039F052FB0
:103190003C4600D30446029D284664A12246FEF721
:1031A000DCFF381B29190A910346002800D1A6E04C
:1031B0003078002805991D4600D085E09FE0059AEB
:1031C0001446039B08194078641C0028FAD1019822
:1031D0001028029844D1002C74D008910A988318C2
:1031E000501B8742394600D8014603914A43029258
:1031F000501C019000202A460A9302995B180990FE
:103200000899085C0F250540000903998918491C95
:10321000022974D30499012903D0002908D13FA1C0
:1032200000E03AA1C0B2085C1870E8B2085C5870BF
:103230000198904263D0921E0A9B9B1C0998401CE7
:10324000A042D9D3099005990698081A874200D858
:1032500007460846784318180A90B818431C1CE023
:103260009C4200D31C46224605461F46FEF775FFCA
:10327000381B29190DE0039B009F9F4200D31F4676
:103280002021029D28463A46FEF75EFF0398C01BA8
:10329000E9190A910346002831D00998A04287D93C
:1032A000041B1D46AC4200D32C4620210A9F384601
:1032B0002246FEF749FF2D1B3F190A972B46002D8A
:1032C0001DD075E70A9073E70F46079C03E030199D
:1032D00040787F1E641CC0B2002801D02528F6D19A
:1032E000AC4200D32C460A9831462246FEF735FF01
:1032F00006952B1B0A980219002B00D026E6002009
:1033000010B0F0BC02BC01B00847C04630313233C7
:10331000343536373839414243444546303132330B
:103320003435363738396162636465664552524FC9
:103330005200000080B50449884204D30349884202
:1033400001D200F005F880BD0000D0C0805CD0C084
:103350007A460249C91C891A401A70475133D0C0B5
:1033600001DF704780B582B0009007486946FFF7DB
:10337000F7FF01AA11600549884201D102B080BD62
:103380000420FEF79EFFC04637010060C601009092
:1033900080B582B0064801A9FFF7E2FF6A461160D6
:1033A0000449884201D102B080BD0420FEF789FFA4
:1033B00000020060F102009080B584B000AB07C34A
:1033C00006486946FFF7CCFF03AA1160044988420A
:1033D00001D104B080BD0420FEF773FF7F030060BD
:1033E000BC03009080B584B001900291074801A908
:1033F000FFF7B6FF03AA11600549884202D103987E
:1034000004B080BD0420FEF75CFFC0462C050060C0
:103410006705009080B586B001AF0FC7074801A9C6
:10342000FFF79EFF05AA11600549884202D1059861
:1034300006B080BD0420FEF744FFC0462C0B0060A0
:10344000A00B009080B586B001AF0FC7074801A957
:10345000FFF786FF05AA11600549884202D1059849
:1034600006B080BD0420FEF72CFFC046EA2B0060AA
:10347000632B009080B586B001AF0FC7074801A944
:10348000FFF76EFF05AA11600549884202D1059831
:1034900006B080BD0420FEF714FFC0462E2C00604D
:1034A000742C009080B58CB001AF0FC70E980590BA
:1034B0000F9806901098079011980890129809900C
:1034C00013980A90074801A9FFF74AFF0BAA116059
:1034D0000549884202D10B980CB080BD0420FEF74C
:1034E000F0FEC0463B330060F633009080B586B0F6
:1034F00000AF0FC70898049006486946FFF730FFF1
:1035000005AA11600449884201D106B080BD04209B
:10351000FEF7D7FEBA5000601E50009080B582B012
:10352000009007486946FFF71BFF01AA1160054993
:10353000884201D102B080BD0420FEF7C2FEC04621
:10354000E15F00606F5F009080B582B00090074837
:103550006946FFF705FF01AA11600549884202D1BB
:10356000019802B080BD0420FEF7ABFE58610060F8
:103570001F61009080B584B001900291064801A9B6
:10358000FFF7EEFE03AA11600449884201D104B09E
:1035900080BD0420FEF795FE1C6E0060F36E009067
:1035A00080B582B0074801A9FFF7DAFE6A461160CC
:1035B0000549884202D1009802B080BD0420FEF780
:1035C00080FEC046CF6F00607F6F009080B584B0F2
:1035D00000AB07C307486946FFF7C2FE03AA1160A4
:1035E0000549884203D103A8008804B080BD0420A7
:1035F000FEF767FED17000602B700090F0B585B0CB
:1036000021490A788321002A02D0244A7A4404E01E
:103610000A9A452A06D8224A7A44022300F03AFB45
:1036200005B0F0BD01AC07C4402004931F5C002F1F
:103630000ED0049E4136002414A5E0B2032101F00F
:10364000D1FA305D695C41403155641CA742F4D128
:1036500045200499085C4630039A82420DD14131DD
:103660000B483A46FEF779FD0A4807800A480621CA
:103670000170092004490870D2E70A4A7A440223FB
:1036800001980299CAE7C0469F1F00205446410096
:10369000341E0020A01F0020981F0020722400006C
:1036A0006824000006240000F0B581B01D460E46D7
:1036B0000446284600F0DEFA012804D168460421B9
:1036C000FFF790FE04E0684604222946FEF745FD18
:1036D000174F082238463146FEF73FFD384608307E
:1036E00069460422FEF739FD022038730020787302
:1036F0000121B973F8733874284600F0BBFA8625A7
:10370000012807D128467930C1B204222046FEF7AD
:103710001BFD04E0694604222046FEF71EFD044A14
:1037200011232046294600F0B5FA01B0F0BDC0468D
:10373000341E0020F0B583B00B4602909879597979
:103740000F02074359781E781546093DA8B2832415
:1037500001941F4C874203D0D21F1440A7421BD1B3
:103760003D46002E08D01B4A7A4402230298019954
:1037700000F090FA03B0F0BD022917DC012920D037
:1037800002291BD1A8B269460860DB1D00210298FE
:103790000A46FFF733FFEDE7E8B28742E1D0D0B247
:1037A00087421546DDD00C4A7A44DEE703290BD068
:1037B000C12903D1094A7A440423D7E70A4A7A4443
:1037C000D3E7074A7A44D0E7064A7A440823CDE78C
:1037D000FFFF000028230000D8220000D6220000AE
:1037E000B8220000BA220000D422000080B581690E
:1037F0008A784B781B0213430A78812A09D0832ADE
:103800000CD0862A0ED1C91C00220346FFF74CFFBC
:1038100080BDCA1C812100F03DFA80BDC91C1A463A
:10382000FFF788FF80BD000070B50D460146012AF4
:1038300011D1094C20462A46FEF78FFC601940261C
:10384000721B00252946FEF77FFC81202146324667
:103850002B46FEF7B5FD70BD3820002081608281C7
:1038600000220277428242778275816170470000B0
:10387000F0B583B00D460446207FC01EC0B20128BB
:1038800058D8A18A628A914226D904230020012DAA
:1038900000D003460290A07D03270126002800D017
:1038A00037461F4340232026012D00D03346DE1B20
:1038B000891AB14200DC0E46F1190191012D06D1A1
:1038C0001D48042221460292FEF747FCA07D0028F5
:1038D0000BD0FF30029915E02CD1002020776082B8
:1038E0006077A075A068A06124E03420205C029B72
:1038F00099B2114A50540120184381B2637D535448
:10390000411C207D89B20C4B5854A169002905D077
:10391000B2B2D819638AC918FEF71FFC608A8019F1
:103920006082A07D401CA075019881B202482A46A1
:10393000FFF77AFF03B0F0BD38200020F0B589B062
:103940001E4604462671207F831E85250895022B7E
:1039500010D2C34806210172042121770021A175EC
:103960000830A06161820120A08208993A31342098
:10397000215463E0042806D100202077608260771C
:10398000A075A068A061079104210020012E00D03D
:10399000014601230D461D43AA4241D30691012E43
:1039A000059209D104222046079904961F46FEF786
:1039B000D4FB059A3B46049E608AAA4900280391DD
:1039C0000ED0012E27D120460E3004222146049627
:1039D0001F46FEF75FFC059A3B46049E00281AD05E
:1039E0000327069908463843824219D3049707985B
:1039F00047180297405608997A3149B288423CDD0F
:103A000097480421017221770021A1750830A06137
:103A10006182A382A9E7022006990843824213D259
:103A20008F48089A0272042121770021A17508307D
:103A3000A0616182A3823A32342022542179204647
:103A4000FFF716FF09B0F0BD607FB04248D1207F7C
:103A5000012852D1012E75D10422079821460292E5
:103A600004961F46FEF716FC3B46049E002869D0CC
:103A70007B48062101720299C5E70193012E049F3C
:103A800012D1207F01281BD121460E31042220466D
:103A9000FEF700FC002807D0029800780899491C1E
:103AA000C9B2884200D0C1E0207F012808D1012E90
:103AB00067D1029800780899491CC9B2884260D140
:103AC0000220069908430799085C495D0D020543E9
:103AD000A089C01E85421BDD61480772042153E0A6
:103AE000089A104608305E490872042020770020AA
:103AF000A0750831A16160829CE7012E00D07FE7AC
:103B00000020207760826077A075A068A06199E7A7
:103B1000029800788128019A03D086283CD0832817
:103B200073D1012E43D150497944042720463A46A7
:103B3000FEF7B0FB002800D18CE04C497944042208
:103B4000204630E00698079A1118105CA27D90423A
:103B500000D055E701930598451B608AA28A121A86
:103B6000954200DB1546039A2A40A3691818491CA0
:103B7000FEF7F3FA608A40196082A07D401CA075B0
:103B80002EE037480421017221770021A175083009
:103B9000A06161820198E7E6012E36D1344979446B
:103BA000042720463A46FEF775FB002852D00598B8
:103BB0000699471AED1CAF42039900DB2F463940A6
:103BC000A0690A460299FEF7C8FA6782A58266775D
:103BD0000020A07520460E3004222146FEF7BDFAD3
:103BE000608A012E019B01D1A18A08E0A18ACA1C2A
:103BF000904204D91A4803210172042103E7884244
:103C00000ED20020A06223771CE71548027204211F
:103C100021770021A1750830A0616182A282A4E60B
:103C2000022020772046FFF7E1FD0BE70C4D042230
:103C300028462146FEF791FA08983A30287100206C
:103C40006871019AAA710620E87108212846FFF7D9
:103C5000EBFDF7E602480B210172277795E7C04696
:103C600038200020FFFF00006C1F00005C1F0000D8
:103C7000FA1E000080B5064979440422FEF70AFBCB
:103C8000014601200022002900D0104680BDC04618
:103C90001C1E000010B50324047700248475826183
:103CA0004482838234228154417FFFF7E1FD10BDBD
:103CB000024900200860024908607047782000200F
:103CC0007C20002010B507484F210170002444706B
:103CD000012181700221C1700421FFF74BFC2046B5
:103CE00010BDC046A81D002070B582B06D464F269D
:103CF0002E7000246C700220A8700320E8702C71D4
:103D000005212846FFF736FC2E706C700120A87044
:103D1000E87004212846FFF72DFC204602B070BD54
:103D200010B582B001A84F21017000244470012118
:103D300081700221C1700421FFF71CFC204602B0F3
:103D400010BD0000B0B582B00E48002404600E48DB
:103D5000046068464F25057044700525857004256C
:103D6000C570012505714171032A02D8D000074CA6
:103D7000C44068468471C3710821FFF7FBFB002033
:103D800002B0B0BD782000207C2000200104030296
:103D900010B582B068464F2202700024447005229C
:103DA00082700422C2700122027141718471C47157
:103DB0000821FFF7DFFB204602B010BDB0B582B08E
:103DC0000D46684650210170002444700321817023
:103DD000C5704021017144710621FFF7CBFB8020A3
:103DE000054201D1074800E0054801687F221540DF
:103DF0000122AA400A430260204602B0B0BDC0467C
:103E0000782000207C20002070B582B00D466846E6
:103E1000502101700024447003218170C5708026F8
:103E2000067144710621FFF7A5FB354201D1074811
:103E300000E0054801687F2215400122AA40914315
:103E40000160204602B070BD782000207C20002058
:103E50008020014201D0064800E0044800687F222B
:103E6000114001228A400240D0B270477C200020DD
:103E70007820002010B582B068464F2202700024DE
:103E80004470022282700322C27001710521FFF783
:103E900071FB204602B010BDB0B582B01C4615467D
:103EA000684650220270E21C130A43708270C1708F
:103EB0002021017144710621FFF75CFB2846214651
:103EC000FFF758FB002002B0B0BD10B582B06846C5
:103ED000502303700024447003238370C170302189
:103EE000017142710621FFF745FB204602B010BD6B
:103EF00070B515460E4604460220002C10D0452011
:103F00008100204600F0AAFF002E01D0F0202650AC
:103F1000DC200121215425702046FFF7C9FE002036
:103F2000C0B270BDB0B50446DC200121215400258B
:103F3000E8002018F4214058002806D04068FFF718
:103F4000F9F902462179204690476D1C032DEFD1E7
:103F50002046FFF7E5FE2046FFF7B4FE0020B0BD87
:103F60000223002A06D00023022803D8C000081824
:103F7000F4214250D8B2704780B5FFF7B5FE00205B
:103F800080BD70B50C46054600262846314600F037
:103F90006FF900280AD0F0002818F4214058006872
:103FA000FFF7C8F90246284621469047761C032EA3
:103FB000EBD1002070BD70B50C46054600262846A2
:103FC000314600F055F900280AD0F0002818F421F5
:103FD00040584068FFF7AEF9024628462146904710
:103FE000761C032EEBD1002070BDB0B504462546EB
:103FF000E835284600F089FBD42001212150EE202D
:10400000205AD8216050E820215C1F200840022857
:1040100008D001280BD000280ED12046294600F0F8
:1040200034F90EE02046294600F0E6FA09E0204681
:10403000294600F0BDFA04E0802001402046FFF749
:10404000BDFE0020B0BDF0B581B000920E46044622
:10405000002E1DD02546DC3500272046394600F0CD
:1040600007F9002810D0F8002018F4214058806982
:10407000002809D02978032906D1FFF75BF9034608
:1040800020463146009A98477F1C032FE5D131E046
:10409000D420205803282DD180202058E16F814260
:1040A0000AD9091AE167814200D301468AB2204643
:1040B000009900F0F3FC1DE02646DC360025204682
:1040C000294600F0D5F800280ED0E8002018F42189
:1040D00040580069002807D03178032904D1FFF740
:1040E00029F90146204688476D1C032DE7D120465B
:1040F00000F0DBFC002001B0F0BDF0B581B00D4652
:104100000446002D1CD02746DC37002620463146C9
:1041100000F0AEF800280FD0F0002018F42140582D
:104120004069002808D03978032905D1FFF702F942
:104130000246204629469047761C032EE6D14FE0E2
:10414000D4202058022844D1E069256AA8420BD91E
:10415000401BE06111210A01A1584919A15082B206
:10416000204600F08DFC34E0A6693046294600F078
:1041700039FDAE420FD300290DD1D8202058274653
:10418000D837864207D20025204629462A4600F025
:1041900077FC3D601DE02646DC360025204629469A
:1041A00000F066F800280ED0E8002018F4214058EE
:1041B000C068002807D03178032904D1FFF7BAF886
:1041C0000146204688476D1C032DE7D1204600F0AC
:1041D00078FCE020205CE034012801D10020207030
:1041E000002001B0F0BDB0B5044680204021215030
:1041F0002162DC200121215400252046294600F0BF
:1042000037F800280AD0E8002018F4214058406808
:10421000FFF790F802462179204690476D1C032D48
:10422000EBD10020B0BD0174002070470020704722
:1042300000207047B0B50446DC20205C032815D16F
:1042400000252046294600F013F800280BD0E8008E
:104250002018F4214058C069002804D0FFF76AF8FC
:104260000146204688476D1C032DEAD10020B0BDD1
:1042700002460020022907D8C8001018F42141582E
:104280000120002900D10846704780B54A78042AE9
:1042900008DD072A0FDC052A14D0062A1BD100F0FE
:1042A00021F81DE0002A10D0012A17D0032A12D1CC
:1042B00000F02FF914E0082A0AD0092A0BD100F0E7
:1042C000B8F80DE000F090F80AE000F000F907E01F
:1042D00000F0E6F804E000F061F901E000F036F9E2
:1042E000002080BDB0B582B00D4604466988080A3A
:1042F000052812DC01281AD0022822D0032835D143
:10430000C8B2022837DC00285ED0012864D0022819
:104310002CD1F0202058C0680CE006281AD00728BD
:1043200021D00F2822D1F0202058C06902E0F020CF
:1043300020580068FEF7FEFF0246207C01A9904746
:1043400030E0F420205800281FD0217C002923D001
:10435000C06A22E0207C002808D1F42020580028E0
:1043600004D0406B19E0207C00280FD0204629465D
:1043700000F014F926E003282AD0042830D00528BC
:10438000F4D1F02020588069D4E70CE0F4202058C4
:104390000028EBD0006B00E0806AFEF7CBFF0146FF
:1043A00001A88847014601A80288002A0AD0E888A7
:1043B000002807D0824200D3024601A8028020468E
:1043C00000F048FB02B0B0BDF02020584068B1E7D3
:1043D000F02020580069ADE7F02020588068A9E758
:1043E000F02020584069A5E770B504468888002869
:1043F0000BD1C888002808D148887F260640DC20D9
:10440000205C2546DC35032803D1204600F0C6F8A1
:1044100070BDDE202654F1B22046FFF72BFD20466A
:1044200000F043FB02200121002E00D10846287035
:1044300070BD70B50D460446AE78022E1DD2DC204C
:10444000215C2046DC30032907D0022915D1002E3B
:1044500022D066600321017009E0002E12D060684E
:10446000864219D0C1B22046FFF7A5FD66602046FE
:104470003146FFF786FD02280ED12046294600F07E
:104480008DF870BD02210170666020463146FFF74D
:1044900092FD204600F009FB204600F006FB70BDAF
:1044A00080B5CA88012A0AD1DC22825C032A09D09D
:1044B000022A04D1002181600146083103E000F0A6
:1044C0006DF880BD011D012200F0C4FA80BDB0B5B9
:1044D0000446DC20205CFE220240022A15D1012085
:1044E000E060E420215825460C350320002905D042
:1044F000204600F0E6FAE16802200843E06002226C
:104500002046294600F0A6FAB0BD204600F046F845
:10451000B0BDB0B50D4604466888012815D1E42029
:1045200001212150287902280CD8C0002018F4213C
:104530004058002806D08068FEF7FCFE0246204660
:1045400029469047204600F0B0FAB0BDB0B50D4600
:104550000446DC20205CFE210140022919D1688834
:1045600001281AD1E42000212150287902280CD8F2
:10457000C0002018F4214058002806D08068FEF7BB
:10458000D9FE0246204629469047204600F08DFA83
:10459000B0BD2046294600F001F8B0BD10B5044674
:1045A0008021FFF70BFC00212046FFF707FC10BD20
:1045B000B0B50D460446DC20205C032816D12879CE
:1045C000022813D8C0002018F421405800280DD02C
:1045D0008068FEF7AFFE0246204629469047E888ED
:1045E000002807D1204600F060FA03E02046294663
:1045F000FFF7D4FF0020B0BD70B50D460446287803
:10460000602101402E7920290FD1022E0DD8F00013
:104610002018F4214058002807D08068FEF78AFE51
:1046200002462046294690476DE06878002817D05A
:1046300001281ED0032866D1DC20205C03281CD171
:104640006888002808D180203043802804D0204684
:104650003146FFF7B3FB2E79022E51D8F00043E02C
:10466000DC20205C032818D0022811D170060AD162
:1046700049E0DC20205C032829D0022808D18020D2
:10468000304380283FD020463146FFF797FB3AE081
:1046900020462946FFF782FF35E02546143520469F
:1046A000743080210E4200D1054620463146FFF786
:1046B000CFFB0121002800D101467F2006403001B8
:1046C000295029180222204600F0C4F91BE068880E
:1046D000002818D1700613D020463146FFF794FB0E
:1046E000287902280CD8C0002018F421405800284E
:1046F00006D08068FEF71EFE0246204629469047F7
:10470000204600F0D2F9002070BD0A7802704A7885
:1047100042708A78CB781B02134343800A794B7925
:104720001B02134383808A79C97909021143C1802E
:104730007047F0B583B00D46044602A800270780F5
:1047400001A80770297860200840002810D0202890
:1047500038D1687801460A39022933D302281CD09F
:1047600003281AD020462946FFF718FF022729E020
:1047700068780B2814D00A280FD0062822D1688820
:10478000000A002721280FD022283A46394616D1A0
:1047900002AE304600F058F80AE001A901220EE00E
:1047A000204600F082F90DE002AE304600F032F80B
:1047B00001463288E888824200D302463280204691
:1047C00000F048F9F8B203B0F0BDF0B581B004468E
:1047D00082210326402532462B46FFF7B3FA0227F3
:1047E0002046394632462B46FFF7ACFA204639467A
:1047F0002A46FFF76AFB002001B0F0BD10B5044661
:104800008221FFF7C5FA02212046FFF7C1FA0020F6
:1048100010BD0000EC21094A515C0922002904D096
:10482000012905D10749794404E00549794401E0AB
:1048300000221146028008467047C04680200020B2
:104840007C12000076120000F0B581B00246EC2028
:104850001349085C222400281AD001281BD11048D3
:1048600081210327402600923A463346FFF76AFA31
:1048700001250B4829463A463346FFF763FA0848B4
:1048800029463246FFF721FB009A0748784404E0A6
:104890000448784401E000242046148001B0F0BDB3
:1048A00080200020411200002512000080B501295F
:1048B00003D103480121FEF7DBFF002080BDC04685
:1048C000B41F0020B0B5144601290DD101254022A6
:1048D0002946FFF7FAFA2846FDF742FD024603484B
:1048E00021462B46FFF72AF80020B0BDB41F002058
:1048F000B0B5144602291BD102214022FFF7E5FA88
:104900000C4D2878002813D10220FDF729FD02461E
:104910000C4878442146FDF76FFB022808D101209E
:104920002870054807210170044800680449088080
:104930000020B0BD981F00209F1F00202C1E0020CB
:10494000A01F0020C3DBFFFF12200880014878442D
:104950007047C0463A12000004200880014878449D
:104960007047C0463C1200000E2008800148784481
:104970007047C046301200000E200880014878447D
:104980007047C0462E1200000A2008800148784473
:104990007047C0462C1200000E2008800148784461
:1049A0007047C0460E1200000E200880014878446F
:1049B0007047C046FE11000070B5044645208500D2
:1049C000164800212A46FDF7BFFB002C22D0134CCD
:1049D0000026204631462A46FDF7B6FB12497944A7
:1049E00020463246FFF784FA104A7A443046214680
:1049F000FFF7B6FA01200E4A7A442146FFF7B0FAD3
:104A0000FF22523206480749FEF728FF2046FFF7EB
:104A1000B3FA70BD0148FFF785FA70BD8020002011
:104A2000B41F0020341E00201A1100002E110000B7
:104A30005811000049210180014878447047C04660
:104A40008A1100000A210180014878447047C0465D
:104A5000C6110000B0B50C46D42102234350826138
:104A6000C261112109014450016A8A4200D30A46F9
:104A700093B2002529462246FFF70EFA2846B0BD1C
:104A8000B0B50C46016A8A4200D30A4693B20025AB
:104A900029462246FFF700FA2846B0BD10B500248B
:104AA0002146FFF712FA204610BD10B5D42104228A
:104AB00042500024214622462346FFF7EDF92046C6
:104AC00010BD10B5D42105224250002421462246B3
:104AD000FFF7FBF9204610BD002243088B4274D338
:104AE00003098B425FD3030A8B4244D3030B8B42EF
:104AF00028D3030C8B420DD3FF22090212BA030CF8
:104B00008B4202D31212090265D0030B8B4219D3D8
:104B100000E0090AC30B8B4201D3CB03C01A5241F8
:104B2000830B8B4201D38B03C01A5241430B8B4240
:104B300001D34B03C01A5241030B8B4201D30B0329
:104B4000C01A5241C30A8B4201D3CB02C01A524150
:104B5000830A8B4201D38B02C01A5241430A8B4213
:104B600001D34B02C01A5241030A8B4201D30B02FC
:104B7000C01A5241CDD2C3098B4201D3CB01C01A16
:104B8000524183098B4201D38B01C01A5241430920
:104B90008B4201D34B01C01A524103098B4201D30E
:104BA0000B01C01A5241C3088B4201D3CB00C01A7B
:104BB000524183088B4201D38B00C01A52414308F3
:104BC0008B4201D34B00C01A5241411A00D2014618
:104BD000524110467047FFE701B5002000F006F88B
:104BE00002BDC0460029F7D076E770477047C0463F
:104BF000002B11D1002A0FD1002900D1002802D0AA
:104C00000021C943081C07B4024802A140180290C1
:104C100003BDC046D9FFFFFF03B4684601B5029843
:104C200000F032F8019B9E4602B00CBC7047C046B3
:104C3000F0B54F464646C0B41604360C99463300CC
:104C400005042C0C070C150C63437E436F4365432E
:104C50001C0CAD1964199C46A64203D980235B0243
:104C6000984647446346250CEF191D044B464A43BA
:104C700043432D0C240464199918C91920000CBC55
:104C800090469946F0BDC046F0B54D46564644465E
:104C90005F46F0B4924683B004000D0099468B4203
:104CA0002FD82CD04946504600F0AEF82900060017
:104CB000200000F0A9F8331A9846203B9B4600D507
:104CC00074E053465A4693401F0053464246934071
:104CD0001E00AF4229D826D05B46A41BBD41002B45
:104CE00000DA79E0002200230092019301235A4662
:104CF00093400193012342469340009319E082427E
:104D0000D0D900220023009201930C9B002B01D0EC
:104D10001C605D600098019903B03CBC90469946C8
:104D2000A246AB46F0BDA342D6D900220023009292
:104D300001934346002BE8D0FB0772081A4346460E
:104D40007B080EE0AB4201D1A2420CD8A41A9D41CF
:104D5000012024196D410021013E24184D41002EEF
:104D600006D0AB42EED9013E24196D41002EF8D198
:104D70005B460098019900196941002B22DB2B004A
:104D80005A46D3402A004446E2401C005B461500C8
:104D9000002B2CDB26009E40330026004746BE40F9
:104DA0003200801A994100900191AEE742462023DB
:104DB0009B1A5246DA40414613004A468A40170081
:104DC0001F4382E7424620239B1A2A0046469A4008
:104DD0002300F3401343D5E74246202300219B1ACA
:104DE0000022009101920122DA40019282E74246BC
:104DF000202326009B1ADE402F00B44697406646CB
:104E00003B003343C9E7C04610B5002903D100F089
:104E100007F8203002E0081C00F002F810BDC04680
:104E20001C2101231B04984201D3000C10391B0ADA
:104E3000984201D3000A08391B09984201D300099E
:104E4000043902A2105C40187047C04604030202F5
:104E500001010101000000000000000010B5002267
:104E600000F002F810BDC046130010B50A0019008A
:104E700000F002F810BDC04670B583073FD0541E45
:104E8000002A3BD0CEB20300032503E0621E002CB3
:104E900034D0140001335A1E16702B42F6D1032C65
:104EA00024D9FF250D402A0215432A0415430F2C4F
:104EB00011D92600103E3609013636011A009B1919
:104EC000156055609560D56010329342F8D10F227D
:104ED0001440032C0AD9261FB6080136B6001A0062
:104EE0009B1920C29342FCD103221440002C05D010
:104EF000C9B21C19197001339C42FBD170BD14005A
:104F00000300CCE7F0C041464A4653465C466D4636
:104F100076467EC02838F0C80020704710307CC824
:104F200090469946A246AB46B54608C82838F0C810
:104F3000081C00D101201847031C0A7801311A709F
:104F40000133002AF9D1704710B5830727D00378C1
:104F5000002B26D00300032102E01A78002A1CD07F
:104F600001330B42F9D119680F4A104C8A188A4351
:104F700022420FD1043319680B4A8A188A4322420D
:104F800008D104331968084A8A188A432242F1D0AA
:104F900000E001331A78002AFBD1181A10BD030073
:104FA000E1E70020FAE7C046FFFEFEFE8080808039
:104FB0003132333435363738394142434445464738
:104FC000484A4B4C4D4E50515253545556575859D0
:104FD0005A6162636465666768696A6B6D6E6F705B
:104FE0007172737475767778797A5FB16478592ABB
:104FF0005DB60345EF9DE00000000000FFFFFF00ED
:10500000E001FEC1FD387F06DF81FFC47FF3FFBCF6
:105010001FE7E7F13FF80778000000000E000000EE
:105020000E00000001000000F84FD0C00050D0C0BA
:1050300000000000FFFFFF00E001FEC1FF38700626
:10504000D8797E9E9FE7E7B901E6C0F13FF807787F
:10505000000000000E0000000E0000000100000033
:105060003050D0C03850D0C000000000FFFFFF001B
:10507000E001FEC1FF78601ED8E7FFF91FF09FBF77
:10508000E7E7F9713EF80778000000000E00000025
:105090000E000000010000006850D0C07050D0C069
:1050A0004D79466163746F6D57616C6C6574002E49
:1050B000636F6D0056657273696F6E00312E312E0D
:1050C000330054686520466163746F6964004175FC
:1050D00074686F72697479006C656467657200400A
:1050E000666163746F69642E6F7267004261636BFF
:1050F00000557365204D465720746F0076696577BB
:105100002077616C6C65740041626F757400517535
:1051100069742061707000436F6E6669726D006122
:10512000646472657373004F7574707574203120F8
:10513000416D6F756E74004F7574707574203120F9
:1051400041646472657373004F75747075742032B6
:1051500020416D6F756E74004F75747075742032D8
:105160002041646472657373004F757470757420A8
:105170003320416D6F756E74004F757470757420B7
:10518000332041646472657373004F757470757475
:10519000203420416D6F756E74004F757470757496
:1051A00020342041646472657373004F75747075A8
:1051B00074203520416D6F756E74004F7574707575
:1051C0007420352041646472657373004F75747088
:1051D0007574203620416D6F756E74004F75747054
:1051E000757420362041646472657373004F757462
:1051F000707574203720416D6F756E74004F757433
:1052000070757420372041646472657373004F7544
:1052100074707574203820416D6F756E74004F7511
:105220007470757420382041646472657373004F24
:105230007574707574203920416D6F756E74004FF0
:1052400075747075742039204164647265737300DD
:105250004F757470757420313020416D6F756E74A8
:10526000004F75747075742031302041646472652C
:1052700073730046656573007472616E7361637465
:10528000696F6E00000000000000000000000000D8
:1052900000000000A050D0C0AF50D0C000000000FF
:1052A00000000000000000000000000000000000FE
:1052B000B450D0C0BC50D0C00000000000000000BE
:1052C000000000000000000000000000C250D0C03C
:1052D000CE50D0C000000000000000000000000020
:1052E0000000000000000000D850D0C0DF50D0C047
:1052F000000000002C53D0C000000000020000009D
:105300001C50D0C0EC50D0C0000000003D28000070
:10531000000000000000000000000000000000008D
:10532000000000000000000000000000000000007D
:1053300000000000000000008C50D0C0F150D0C030
:10534000FC50D0C0210C00008452D0C000000000EE
:1053500000000000000000000851D0C00000000064
:1053600000000000000000001D35D0C0000000005B
:105370005450D0C00E51D0C000000000321D0000BB
:10538000000000000000000000000000000000001D
:10539000000000000000000000000000030000000A
:1053A000000080002000000001000000000000005C
:1053B000FFFFFF00000000000000000000000000F0
:1053C00000000000000000000000000000000000DD
:1053D00000000000050003000C00070007000000AB
:1053E00000000000FFFFFF000000000000000700B9
:1053F00000000000000000000000000000000000AD
:105400000000000000000000000000000500750022
:105410000D0008000600000000000000FFFFFF0074
:105420000000000000000600000000000000000076
:10543000000000000000000000000000000000006C
:1054400000000000070100000C0080000C000000BC
:1054500000000000FFFFFF000000000008800000C7
:105460001751D0C000000000000000000000000044
:105470000000000000000000000000000701000024
:105480001A0080000C00000000000000FFFFFF0079
:1054900000000000088000001F51D0C00000000084
:1054A00000000000000000000000000000000000FC
:1054B00000000000070200000C0080000C0000004B
:1054C00000000000FFFFFF00000000000A80000055
:1054D0006B52D0C00000000000000000000000007F
:1054E000000000000000000000000000070217009C
:1054F0001A0052000C008A0000000000FFFFFF00AD
:105500000000000008801A000018002000000000C1
:10551000000000000000000000000000000000008B
:10552000000000002751D0C0EC1800203751D0C037
:105530000C1900204851D0C0EC1800205851D0C0A0
:105540000C1900206951D0C0EC1800207951D0C04E
:105550000C1900208A51D0C0EC1800209A51D0C0FC
:105560000C190020AB51D0C0EC180020BB51D0C0AA
:105570000C190020CC51D0C0EC180020DC51D0C058
:105580000C190020ED51D0C0EC180020FD51D0C006
:105590000C1900200E52D0C0EC1800201E52D0C0B2
:1055A0000C1900202F52D0C0EC1800203F52D0C060
:1055B0000C1900205052D0C0EC1800206152D0C00D
:1055C0000C1900207352D0C02C19002003000000D9
:1055D000000080002000000001000000000000002A
:1055E000FFFFFF00000000000000000000000000BE
:1055F00000000000000000000000000000000000AB
:1056000000000000050003000C0007000700000078
:1056100000000000FFFFFF00000000000000070086
:10562000000000000000000000000000000000007A
:1056300000000000000000000000000005007500F0
:105640000D0008000600000000000000FFFFFF0042
:105650000000000000000600000000000000000044
:10566000000000000000000000000000000000003A
:1056700000000000070100000C0080002000000076
:1056800000000000FFFFFF00000000000880000095
:105690001751D0C000000000000000000000000012
:1056A00000000000000000000000000007010000F2
:1056B0001A0080002000000000000000FFFFFF0033
:1056C00000000000088000007852D0C000000000F8
:1056D00000000000000000000000000000000000CA
:1056E00000000000070200000C0080002000000005
:1056F00000000000FFFFFF00000000000A80000023
:105700000000000000000000000000000000000099
:105710000000000000000000000000000712170059
:105720001A0052000C008A0000000000FFFFFF007A
:105730000000000008801A000000000000000000C7
:105740000000000000000000000000000000000059
:1057500000000000030000000000800020000000A6
:105760000100000000000000FFFFFF00000000003B
:105770000000000000000000000000000000000029
:105780000000000000000000000000000500030011
:105790000C0007000700000000000000FFFFFF00F2
:1057A00000000000000007000000000000000000F2
:1057B00000000000000000000000000000000000E9
:1057C00000000000050075000D0008000600000044
:1057D00000000000FFFFFF000000000000000600C6
:1057E00000000000000000000000000000000000B9
:1057F00000000000000000000000000007010000A1
:105800000C0080002000000000000000FFFFFF00EF
:1058100000000000088000001751D0C00000000008
:105820000000000000000000000000000000000078
:1058300000000000070100001A00800020000000A6
:1058400000000000FFFFFF000000000008800000D3
:105850000C19002000000000000000000000000003
:1058600000000000000000000000000003800000B5
:105870000000800020000000010000000000000087
:10588000FFFFFF000000000000000000000000001B
:105890000000000000000000000000000000000008
:1058A00000000000058103000E0007000400000056
:1058B00000000000FFFFFF000000000000000B00E0
:1058C00000000000000000000000000000000000D8
:1058D00000000000000000000000000005827600CB
:1058E0000E0007000400000000000000FFFFFF00A2
:1058F0000000000000000C0000000000000000009C
:105900000000000000000000000000000000000097
:105910000000000007410E00030064000C000000BE
:1059200000000000FFFFFF00000000000A800000F0
:105930000000000000000000000000000000000067
:1059400000000000000000000000000007420E0000
:10595000230064000C00000000000000FFFFFF00B7
:10596000000000000A8000000000000000000000AD
:105970000000000000000000000000000000000027
:105980000000000005100E000900000000000000EB
:1059900000000000FFFFFF0000000000000000000A
:1059A00000000000000000000000000000000000F7
:1059B00000000000000000000000000007200E00B2
:1059C000130064000C00000000000000FFFFFF0057
:1059D000000000000880000000000000000000003F
:1059E00000000000000000000000000000000000B7
:1059F0000000000007210E000C0064000C000000F5
:105A000000000000FFFFFF00000000000880000011
:105A10000000000000000000000000000000000086
:105A200000000000000000000000000007220E003F
:105A30001A0064000C00000000000000FFFFFF00DF
:105A400000000000088000000000000000000000CE
:105A50000000000000000000000000000000000046
:105A60000000000000000000000000000000000036
:105A70000000000000000000000000000000000026
:105A80006F00900167006A805532465F5632900081
:105A9000010990006E006D00FFFFFFFF0000000095
:105AA0000921110121012222000000000921110118
:105AB000000122220006D0F10901A101090315000D
:105AC00026FF007508954081080904150026FF008F
:105AD000750895409108C006A0FF0901A1010903BE
