:02000004C0D06A
:10000000F0B58DB062B602F0F1F8284E01256A0213
:1000100000242548214602F099F9B02230462146B5
:1000200002F094F902AF384604F0E2FF388580B25E
:10003000002806D01028E9D002F0B4F800200DB056
:10004000F0BD02A802F0D5F802F072FB184803F0E8
:100050003FFA8078012809D001AE7470B570144859
:1000600003F036FA0322314603F074FA114C0021F2
:100070006022204602F06AF90F48A064E0640F484D
:1000800020652120C00054216052204603F068FD05
:10009000074803F01DFA4178012004F005FD00F047
:1000A00087FE01F037FDC046081C002040180020E4
:1000B000405DD0C0AC1900209C1F0020881E00208D
:1000C000F0B5D9B01D4614460F460146A52F79D28A
:1000D00030A83A4602F043F90022002F09D000224E
:1000E000D0B230A9085C002803D1521CD0B2B8426B
:1000F000F6D30495019478000392D5B2BD420290E4
:1001000004462AD2029C039E05970694F0B2002171
:10011000B8420FD205990F1A30A90C180021090214
:10012000207808433A2104F0D3FD20707F1E641C20
:10013000002FF4D130A8425D25487844405C069CED
:10014000641EE1B207AB5854701C002A00D0304640
:10015000C5B2059FBD420646D7D3E1B2029FB94260
:100160000DD21C4878440078049B039E07AA515C7A
:10017000814206D1641CE1B2B942F7D301E0049B8D
:10018000039E300610D01448784400782546214656
:100190003246491ECBB207ACE054521EFF231A422E
:1001A000F7D12C46A41B049BE0B2391ACEB2B3425D
:1001B0000BD307A909180198324602F0D0F830464F
:1001C00059B0F0BD022002F07EF9032002F07BF965
:1001D0005E4F0000344F0000104F0000F0B51D6866
:1001E00000248D4223D846195660AF1D1F602E464D
:1001F00026368E421BD8C71997601E602F46463799
:100200008F4214D88619D6601F602E4666368E42FD
:100210000DD8C71917611E608E4208D8805D107511
:1002200067351D60012403488D4200D00446A0B20A
:10023000F0BDC046126E0000F0B583B000920D46CE
:10024000064601AF00243C703A4600F071FB3A7854
:100250000292014337204002002906D1009A14700F
:1002600002AB30462946FFF7B9FF03B0F0BD70B5C9
:1002700014460D4606460020A0612070201D112165
:1002800004F062FE304629462246FFF7D5FF70BDD6
:10029000F0B583B001920C46064602AF00253D70D2
:1002A0003A4600F045FB014337204002002901D0C7
:1002B000054616E03978019B1D70A14211D87218CD
:1002C0005A608A1DA2420CD8B2189A600A46263299
:1002D000A24206D8B25C1A73273111300125A1421F
:1002E000E6D1A8B203B0F0BD80B50023136153601E
:1002F000936013731370FFF7CBFF80BDF0B58BB025
:100300001F4614460D46064639680023A94212D8F6
:1003100070186060881D3860A8420CD8325C059463
:100320002274C81D3860374C0A2A01D9204603E0E0
:100330000494A84203D9184680B20BB0F0BD345CD7
:100340000598447408460830039038600498401CAF
:100350000A2CF1D80398A8421846EDD80398335CCC
:1003600005988374093139600498801C0A2BE3D8FE
:100370000020099008906846476008A90160059B25
:1003800020333046294600F03FF80128D4D1002020
:10039000079003900690059B5A7C6846476006A923
:1003A0000160C0333046294600F02EF80128C3D141
:1003B000059B9A7C6846476006A901600B204001B6
:1003C0001B183046294600F01FF80128B4D10699C1
:1003D000089A01208A42064600D9039E079D099B80
:1003E000AB42049C00D90398AB4200D00646E01D06
:1003F000002EA1D1501AAB4105998861CB61012033
:100400009AE7C046016E0000F0B58BB01C46054669
:1004100001200692002A42D001901198109A04926D
:100420002246083202920990036800271F4808906C
:1004300007970591039528460AAD079A2A70C018B8
:10044000C91A0822082900DB11462A4600F070FA72
:1004500003C4099E32682B785BB2D218326005461D
:100460000D43089BDB1C083C002D1BD0049E28CEAE
:10047000083E18184D4121C61346203305998B427A
:100480000FD8039DA8183A01029EB0500998036046
:1004900010347F1C06988742CDDB019B02E00346A7
:1004A00000E0089B98B20BB0F0BDC046046E00009F
:1004B000F0B583B014460D46064601AF00203870F3
:1004C00030463A4600F034FA024638780290022369
:1004D0005A400A4337204002002A06D1237002AB5B
:1004E000304629462246FFF709FF03B0F0BDF0B5BC
:1004F00081B00446201D0F2104F026FD9F20C0433B
:100500000646A719C42100227A50C023FA50C825F4
:100510007A511036F5D1164607469F377743E719CB
:100520007A50FA507A51103E3746A037F4D10B205A
:10053000400120180A2100220260426082601030CF
:10054000491EF8D101B0F0BD70B514460D460646FF
:100550002046FFF7CCFF304629462246FFF7A8FF8A
:1005600070BD0000B0B51F2A1BD90278412A17D1EF
:10057000037A7F22D2436D32D4B28022A3420FD0BD
:100580000346483300241D1B2D780D55641C202C78
:10059000F9D12823C05CC00702D0C87F1043C877B8
:1005A000B0BD014801F08FFFED600000F0B581B0F3
:1005B000202A24D90278412A1FD1037A7F22D243EC
:1005C0006D32D4B28022A34217D001230B700346B0
:1005D00048330024E443254626466E435F197F785E
:1005E0008F556D1E2E462136F6D12823C05CC007DC
:1005F00003D020200B5C13430B5401B0F0BD014825
:1006000001F061FFED600000F0B59BB00091014684
:100610005000134A7A44105A09AD2880A81C20269D
:10062000324601F09CFE222113AF28463A4633465B
:1006300002F0BEFF01AC384631462246334602F096
:10064000B7FF284622300422214601F088FE2621E9
:1006500034232846009AFFF733FD1BB0F0BDC04697
:10066000BE4A0000F0B59DB0019106460524022067
:10067000042A00D00446002A09D0042A21D1E5B278
:100680000AA8294979442A4601F069FE20E0500071
:1006900024497944085A0AA90091088071680836EB
:1006A00015AF202530463A462B4602F081FF022244
:1006B00000980243384629462B4602F079FFE5B2FE
:1006C0000EE0500019497944085A0AA90880E5B299
:1006D0000AA8401972680836314601F040FE15AF8D
:1006E0002024294621430AAE30463A46234602F0EA
:1006F0005FFF384602AF21463A46234602F058FFD4
:10070000701920300422394601F029FE2846243091
:10071000C1B23235EBB23046019AFFF7D1FC1DB0C1
:10072000F0BDC046404A0000564A00000C4A000096
:10073000F0B583B014460D46064601200290012D07
:100740000AD13078302807D10020022B71D3302015
:1007500020700020607066E0089FAF4227D2EA1B3D
:10076000A91C0020994264D80021002A0BD03046F1
:1007700001921146234602781A70401C491E5B1CE8
:100780000029F8D10199002F084602D02E2060548C
:10079000481CA94249D2221873186E1A45191F78AD
:1007A0001770521C5B1C761EF9D1691A1DE0791B6B
:1007B000FA1C00209A423CD8302020702E20607015
:1007C0000220002905D0A01C302204F0C3FBB81C75
:1007D000401B002D29D021182A4633780B70491C64
:1007E000521E761C002AF8D1411900236354884216
:1007F00019D2255C002B024600D01A460023302D6A
:1008000000D01A46401C81421346F2D1002A0AD079
:100810000020A054A118C2438A5C491E2E2A029AC5
:1008200006D1087004E0029803E0029A00212154E6
:10083000104603B0F0BD0000F0B595B002930392EE
:100840000A460790104300210028019147D0002359
:10085000012508951C461E4617460A2228462146B1
:100860001C4604F05BFA234605460C460798854271
:10087000089800D918463A469442089900D9194672
:10088000944200D0084631464E1C0028E4D10B4665
:10089000132E48D80021002E21D00020C7430592F6
:1008A00004930A220892002306932846214604F066
:1008B00015FA05460C46079805992A46234604F082
:1008C0000DFA089A069B04F009FA3020104310A98B
:1008D000C91948707F1C0498B842E2D1314610A86B
:1008E000019A425409AC2271104A099208226B46BF
:1008F0001A60221D1923FFF71BFF204604F09AFB04
:100900000299491E884205D209A9039C204604F099
:1009100089FB02E00020039C2070204604F08AFB43
:1009200080B215B0F0BD012001F0CDFD464354204A
:10093000F0B581B00091044600210846002C17D084
:10094000002A15D00025157028462946EEB2A75D6D
:100950006D1C1570430EC90119437F233B40C00134
:100960001843EBB2009FBB4202D2A357002BEDDB32
:1009700001B0F0BD70B582B00D460446206D002672
:100980000522314601F0E2FC206D401D0C492A464B
:1009900001F0E5FC206D40197C21C9430D31417106
:1009A000206D40198671226D012069460860E81D9E
:1009B00083B28321204603F0FAF802B070BDC0462E
:1009C0009C1F002070B50F4E30700F4D284602F06E
:1009D0007FFD401C01243146224602F0BBFD00266B
:1009E0003046314604F060F8284602F071FD417847
:1009F000204604F059F8054979442046324602F071
:100A0000C9FA70BD00180020405DD0C0D449000074
:100A100080B5074802F05CFD41780120002900D133
:100A2000084604497944002202F0B4FA80BDC04669
:100A3000405DD0C05449000070B505466878012477
:100A400000281FD0411E104A1268012400238A4248
:100A500000D01C468A4215D17D26310101280FD0D5
:100A600002280FD10721284602F016F8F600801957
:100A70000649884204D30721284602F00DF881195F
:100A800003484161204670BD3C180020B80B0000AF
:100A900040180020F0B581B0044660780125002898
:100AA00000D127E17D26F1000091944F3968421E64
:100AB000012591420CD0012200230128154600D8BF
:100AC0001D46002900D10A461540002D00D111E134
:100AD000122808D0022806D0012800D00AE18F4849
:100AE0000099416106E186483822214601F037FC31
:100AF0003A68551E142000210A2A12DD0F2A1BDD38
:100B0000122A35DC102A52D0112A00D1C4E0122A50
:100B100000D0DDE07B490A6A08211125002A7FD137
:100B2000BFE0052A13DC022A2BDD032A46D0042A63
:100B30004AD0052A4ED0CBE00C2A27DD0D2A00D161
:100B4000A0E00E2A4CD00F2A00D1A0E0C0E0072A76
:100B500028DD082A4BD0092A00D189E00A2A00D0D2
:100B6000B6E068490A6904210925002A58D184E0C1
:100B7000132A00D195E0142A40D0152A00D19CE018
:100B8000A6E0012A41D0022A4AD0A1E00B2A74D063
:100B90000C2A00D09CE05B494A6905210B25002AFC
:100BA0003ED16FE0062A35D0072A5CD090E0554947
:100BB000CA6907210F25002A32D16DE051494A68E0
:100BC0000225002A72D105E04E494A680121032519
:100BD000002A25D14B498A680425002A66D142E0C3
:100BE00048498A6906210D25002A19D14FE0454957
:100BF000CA6803210725002A12D139E041494A6A0F
:100C000009211325002A0BD157E03E480268002A2B
:100C10004CD105E03B498A6802210525002A22D0F3
:100C20008800384A1058002846D08068374A525CFD
:100C30003749FFF7E9FC374F0A223846344901F0BB
:100C40008EFB38460A3034A1022201F088FB30487E
:100C500004F0F0F92E490818011F0C370422384619
:100C600001F07DFB28E02749CA680625002A1DD12E
:100C700024490A690825002A18D122494A690A2507
:100C8000002A13D11F498A690C25002A0ED11D495B
:100C9000CA690E25002A09D11A490A6A1025002AB4
:100CA00004D118494A6A1225002A06D051681068F2
:100CB000154A2023FFF7C0FD2846C0001849794493
:100CC0000818617889083C220A4080580C49C8619C
:100CD0000B4D0721284601F0DFFE009C0019010999
:100CE00030017D2904D30648072101F0D5FE001903
:100CF0000A494861284601B0F0BDC0463C180020B2
:100D00004019002078190020F0180020A0190020B8
:100D100001180020101900202E2E0000401800207D
:100D2000024A0000F0B581B0054668780124002829
:100D300032D0431E1A490A68012400269A4200D084
:100D400034469A4228D17D23DE001B01154F02282C
:100D500014DD032803D004280DD005281CD1072159
:100D6000284601F099FE8019B84204D3072128468D
:100D700001F092FE87190C4847610DE0012805D06B
:100D8000022809D109480078002802D006484361AA
:100D900002E0501C08600024204601B0F0BDC046AF
:100DA0003C180020B80B000040180020AA190020B1
:100DB00080B504490020087003497944024602F0D6
:100DC000E9F880BDAB190020F246000010B500F034
:100DD00029F80F4990220A54091800224A70811CF0
:100DE0000C480078002803D00B48FFF7C3FD03E050
:100DF00089B2202001F0B6FE08480024047008499A
:100E000079442046224602F0C5F8204610BDC0466F
:100E10009C1F0020DA220020AC190020AB19002012
:100E2000AC460000F0B581B0174C626817490A70F3
:100E3000481C0D462146083101F091FA6668AF1949
:100E400025464C35284604F0F5F87870B71C0F4855
:100E5000C619284604F0EEF802463046294601F04D
:100E60007EFA284604F0E6F8C519A420205C002884
:100E700007D00648401984342022214601F06FFA39
:100E80002035284601B0F0BD0C1A00209C1F002020
:100E900010B50E4869210170852141700C48007819
:100EA000002804D00B480221FFF764FD03E0202056
:100EB000022101F057FE08480024047007497944D4
:100EC0002046224602F066F8204610BD9C1F0020F6
:100ED000DA220020AC190020AB190020EE450000FA
:100EE00080B50649884205D00549884204D1FFF7FC
:100EF000CFFF01E0FFF76AFF002080BD0200008005
:100F000001000080F0B5A1B032494A78002468465B
:100F10000460091D412611AF304606963B4602F09B
:100F2000B3FB202207AD304639462B4602F058FB72
:100F300040223846214601F009FA1F200001254BC6
:100F4000185869464C61E1220A61234A2332CA607B
:100F50008C6011C12C33012605222846314602F04F
:100F60006FFB074606981B492A46334602F050FBA2
:100F700028222846214601F0E9F9380A212216499B
:100F8000885422200F5413480D46FFF70FFB3846B4
:100F9000233080B2902129543846243080B22C541A
:100FA00025370E480078B9B2002803D00C48FFF767
:100FB000E1FC02E0202001F0D5FD0A480024047085
:100FC000094979442046224601F0E4FF204621B039
:100FD000F0BDC0460C1A00209C1F0020DA22002021
:100FE000AC190020AB190020EA440000F0B5A3B012
:100FF00032494A78002468460460091D412713AD30
:10100000384607972B4602F03FFB2022089209AE94
:1010100038462946334602F0E3FA40222846214664
:1010200001F094F91F200001244B185869464C61C7
:10103000E2220A61224A2232CA608C6011C12C333A
:10104000012705223046394602F0FAFA054607988C
:101050001A4932463B4602F0DBFA28223046214646
:1010600001F074F9280A089A1549885421200D5472
:1010700012480E46FFF776FA2846223080B29021B9
:1010800031542846233080B2345424350D4800783A
:10109000A9B2002803D00C48FFF76CFC02E0202026
:1010A00001F060FD09480024047009497944204694
:1010B000224601F06FFF204623B0F0BD0C1A00203D
:1010C0009C1F0020DA220020AC190020AB19002060
:1010D0000044000010B50E4869210170852141705F
:1010E0000C480078002804D00B480221FFF742FC8E
:1010F00003E02020022101F035FD0848002404709F
:10110000074979442046224601F044FF204610BD9D
:101110009C1F0020DA220020AC190020AB1900200F
:10112000AA43000080B50649884205D00549884297
:1011300004D1FFF7CFFF01E0FFF7E4FE002080BD00
:10114000020000800100008080B50649884205D079
:101150000549884204D1FFF7BDFF01E0FFF746FFD4
:10116000002080BD0200008001000080B0B505466F
:101170000F2028400024012813D0022813D1002971
:1011800008D00A4802F0C4FA68B2002809DA02F06E
:10119000CDF906E0412081000448002202F0E4FA83
:1011A00004462046B0BD022001F08DF99C1F0020AE
:1011B000F0B5ABB00F460346511CD520C0011678E0
:1011C000721ED2B20A2A00D3FDE0022B00D3F7E050
:1011D0000593012F00D9F3E03198049030980190E5
:1011E0000FA832460B781B064C7824041C438B78DE
:1011F0001B022343CC781C4310C0091D521EF1D1A1
:10120000109803903F20C200724D002428462146CA
:1012100001F09CF8012F204600D13846A4216854E3
:101220008435012F00D0254669460D6041250FA960
:1012300023AF284632463B4602F026FA0294202489
:1012400019AE284639462246334602F0C9F9012331
:101250002846604D2946324602F0DAF92822304607
:101260002646029C214601F071F838462146324656
:1012700001F06CF858490420039A8A42114600D0C4
:101280002046C9B20227842900D00746002F17D074
:10129000022F01D0042F29D106AC28462146324620
:1012A000FFF760F94B4D083500214122284601F037
:1012B0004DF8484846602846464D2146324613E0E0
:1012C00006AC2125434821462A46FFF76FF9414ED7
:1012D000083600214122304601F038F83D4845608B
:1012E000304621462A463B4D01F039F82C464C3415
:1012F000FAB228462146FFF7B5F9FFF793FD0499A6
:1013000008600598002860D03448002606706846BA
:10131000046037233420042F00D00346304838249B
:1013200030A2214601F0BEFE30480660304802215E
:101330000160304D314878442860072068603048AB
:10134000784428612F487844E86003202876EE61CD
:101350002846183002F0C6F9E86101F0A1FE01F05C
:1013600013FAAE602868002823D0E8692249884231
:101370001DD11EE0686886421BD202F0DFF900280A
:1013800017D1A868E96860432A681018002902D0BC
:101390008847002807D0012803D1A868604329683E
:1013A000081801F037FBA868461CAE6028680028C2
:1013B000E0D1019A10681021014311602BB0F0BDFB
:1013C000803001F080F801F07EF80920000301F080
:1013D0007AF8C0460C1A002088888888AB1900204B
:1013E0000118002020252E2A732000003C18002020
:1013F000041C002040180020445010B0024200009D
:101400009DFBFFFFEFF6FFFF80B501F003FB80BD02
:1014100080B50B4802F05CF80178012000290246F3
:1014200000D10A4607490A7000224A7009228A70D0
:10143000C870039804210160100301F044F8C0460D
:10144000405DD0C09C1F0020F0B587B006931746C2
:101450000D9A00241460E1235D00D523DB01802870
:101460000492059147D00193002800D007E102942F
:1014700003952A4636328E4E00253046294600F026
:1014800065FF3C787470601EC0B20A2830D206989E
:10149000401E791C874B0693AF00F71933460E7830
:1014A00036064A78120432438E7836021643CA78DA
:1014B00032431E467A6080B2069BC018091D6D1C1F
:1014C000A542E9DB41223270069AD21C02401F235A
:1014D0001B01F25080B2039B984200D9DAE03046FB
:1014E0002C3000F03CFF307A83280598029C15D000
:1014F000019800F0E8FF1F202A4605016C4E705944
:10150000904200D9CAE030182C303946069F3A463E
:1015100000F025FF7059C01970510598002800D1BE
:10152000B1E01F200101624841582C30624F3A4619
:10153000FFF70AF8012800D0A7E0397C5F480029AE
:1015400000D1A2E0797CBA7C51180B2900D39EE02F
:101550005B48202521462A4600F0F8FE59482146DE
:101560002A4600F0F3FE584E2821304603F0ECFCEA
:10157000564D02200590286055480460B869F96905
:10158000544A10230693FFF757F9787C002810D0AF
:101590004949C0312A68921C00234F4F1C463B55D5
:1015A000A5007151494D2A601031921C641C84427F
:1015B000F5DB3746404B987C0028059E13D0464902
:1015C00009190B2252019A18A300FB182C68A41CBD
:1015D0000027CE55BD005A513C4D2C601032A41C42
:1015E0007F1C8742F5DB0C9C3C4E3E4878443060C3
:1015F000072070603C48784430613C487844F06093
:10160000032030760025F5613046183002F06AF884
:10161000F06101F045FD01F0B7F8B56030680028D1
:1016200024D0F0692E4988421ED11FE0706885429F
:101630001CD202F083F8002818D1B068F168382570
:10164000684332681018002902D08847002807D064
:10165000012803D1B06845433068401901F0DAF938
:10166000B068451CB56030680028DFD12068069955
:101670000843206000200499086007B0F0BD01987D
:10168000803000F020FF0920000300F01CFF0F3025
:1016900000F019FF0198001D00F015FF36320448D4
:1016A00000211C4600F052FE204600F00CFFC04610
:1016B0000C1A0020FCFF0000081C0020016E000036
:1016C00010190020F018002078190020041C0020B8
:1016D0003C18002030190020A019002040180020DC
:1016E000445010B07C4100002BFBFFFF95F4FFFF3E
:1016F000F0B583B01C461546E1225200D523DE0129
:1017000080283CD000284DD10196009236322D4ED3
:1017100000273046394600F019FE2A787270501EB4
:10172000C0B20A283BD2601E691C274B0293BC0042
:1017300034190D782D06134632464E7836042E4362
:101740008D782D023543CE782E43666016461A46B4
:1017500080B2029BC018091D7F1C9742E7DB412223
:101760003270029AD21C02401F231B01F25080B239
:10177000009B98420FD90198001D00F0A4FE1F2085
:101780000001104D2B58934210D81B192B5088077D
:1017900014D503B0F0BD2C36304600F0E0FD0198C2
:1017A00000F091FE8036304600F08DFE363205485E
:1017B000002100F0CBFD304600F085FE092000033B
:1017C00000F081FE0C1A0020FCFF0000F0B58DB087
:1017D0001D461446139A002303921360E12252001F
:1017E000D523DB018028049145D00193002800D047
:1017F000C4E0029236326C4F00263846314600F083
:10180000A5FD22787A70501EC0B20A2830D2681E18
:10181000611C664B0593B4003C190D782D061346E8
:101820003A464F783F042F438D782D023D43CF78C1
:101830002F43676017461A4680B2059BC018091DE2
:10184000761C9642E7DB41223A70059AD21C024090
:101850001F231B01FA5080B2029B984200D995E0E9
:1018600038462C3000F07BFD387A8428049913D058
:10187000019800F028FE1F2006014B4FB8599042F6
:1018800000D987E038182C3021462A4600F067FD41
:10189000B8594019B85104990220014272D0C807C2
:1018A0000DD11F200101404841582C3006AAFEF7F7
:1018B0001BFD012868D13E48202141A20CE01F20D9
:1018C0000101394841582C3006AAFEF7D0FC012806
:1018D0005AD13748202137A201F0E4FB129C3B4843
:1018E000002606603A4806603A4D3C487844286035
:1018F000052068603A48784428613A487844E860AE
:1019000003202876EE612846183001F0EBFEE861EE
:1019100001F0C6FB00F038FFAE602868002824D034
:10192000E8692D4988421ED11FE0686886421CD2B2
:1019300001F004FF002818D1A868E9683826704330
:101940002A681018002902D08847002807D00128EB
:1019500003D1A86846432868801901F05BF8A8689D
:10196000461CAE6028680028DFD1206810210143A2
:1019700021600020039908600DB0F0BD019880300F
:1019800000F0A1FD0920000300F09DFD0198001D5D
:1019900000F099FD3632044800211C4600F0D6FCC8
:1019A000204600F090FDC0460C1A0020FCFF00000D
:1019B000101900205369676E20436861696E3F000B
:1019C0005369676E20456E7472793F00041C0020D5
:1019D0003C18002040180020445010B00440000083
:1019E0004FF8FFFF25F4FFFFF0B58DB00C4606461B
:1019F00002AF384603F0FCFA05463D8541480542F2
:101A000016D002A8002101850F2000032840290AD2
:101A1000CEB209210903884228D003214903884214
:101A20001ED1012042023848002100F08FFC1DE049
:101A300002A800F0DEFB364A1078E02850D150783A
:101A4000801E0121C841012828DD082834D009283A
:101A50004AD11379D1789078521DFFF749FE0EE0F4
:101A60002A4805400D20C00205432E0A2068284957
:101A70000E542068081845702068801C206000F013
:101A800027FD02A9884203D100F024FD00F0B1FB3C
:101A900002A8008D002825D10DB0F0BD002815D07A
:101AA00001282AD11379D17890786D462E606C6028
:101AB000521DFFF7C9FCE2E71379D17890786D46A3
:101AC0002E606C60521DFFF781FED8E7D1789078C8
:101AD0006B461E605C60521D0023FFF769FBCEE77A
:101AE0003720400200F0EFFC022806D1684644602F
:101AF000002001460346FFF78BFC6D20000200F03A
:101B0000E2FCC046FFFF0000081C0020FF070000A9
:101B10009C1F0020F0B58FB000260E960D960C96F7
:101B2000324F304C0BA806806D46284603F060FA11
:101B300028852B49084215D069460E850F210903D7
:101B4000014009221203914223D003225203914201
:101B500022D10BA90880012042020021204600F07A
:101B6000F5FB20E0684600F044FB0D980E90002540
:101B70000D950C980E99C0B289B200F0F3FF0E904B
:101B80000C950E98002828D00CA80DA9FFF72CFF63
:101B900014E00BA9088006E0134908400D21C90292
:101BA00001430BA801800B98000A0D9978540B98FB
:101BB0000D99791848700D98801C0D9000F088FCE4
:101BC0006946884203D100F085FC00F012FB6846AC
:101BD000008D0028A6D000F076FC054800F073FCCC
:101BE000FFFF0000081C0020FF0700009C1F0020D2
:101BF00082690000F0B585B0FD4D2878FD4F0C28B6
:101C000010DD0D2877D00E2800D1B4E0152833D18F
:101C1000F948007801282FD1A87900072CD410208A
:101C200000F051FC052800D1E5E00C2824D1F34C4C
:101C3000012020760026E6612046183001F052FD92
:101C4000E06101F02DFAE069ED49884200D144E2FB
:101C5000002800D141E2E749884200D0D2E100F0FB
:101C600093FDA6602068002800D136E2E069E449CF
:101C7000884200D02BE130E2E04C012020760025A4
:101C8000E5612046183001F02DFDE06101F008FA11
:101C9000E069B84200D0D2E000F076FDA56020688F
:101CA000002800D119E2E069D549884220D114E228
:101CB0006068854200D310E201F040FD002800D0AA
:101CC0000BE2A068E16838256843226810180029F3
:101CD00002D08847002807D0012803D1A0684543D7
:101CE0002068401900F096FEA068451CA560206899
:101CF0000028DDD1F1E1C14C012020760025E5610D
:101D00002046183001F0EEFCE06101F0C9F9E0690D
:101D1000BB49884200D1E0E1B649884200D137E1B1
:101D2000002800D1D9E12068002800D1CFE1A068C7
:101D30006168884200D3CAE101F000FD002800D0AC
:101D4000C5E1A068E16838256843226810180029B9
:101D500002D08847002807D0012803D1A068454356
:101D60002068401900F056FEA068401CA060216861
:101D70000029DDD1ABE1A14C012525760026E661E5
:101D80002046183001F0AEFCE06101F089F9E3690A
:101D9000BB4200D0C1E000F0F7FC0020A060216849
:101DA000002900D199E1E169FA4A914220D194E1F8
:101DB0006168884200D390E101F0C0FC002800D0A7
:101DC0008BE1A068E1683825684322681018002973
:101DD00002D08847002807D0012803D1A0684543D6
:101DE0002068401900F016FEA068401CA060216821
:101DF0000029DDD171E1E64C012020760026E66164
:101E00002046183001F06EFCE06101F049F9E0690C
:101E1000E049884200D160E1002800D15DE1DB4962
:101E2000884200D028E100F0AFFCA66020680028BE
:101E300000D152E1E069D74988426BD14DE1206879
:101E4000002800D143E1A0686168884200D33EE1E8
:101E500001F074FC002800D039E1A068E168382561
:101E6000684322681018002902D08847002807D04C
:101E7000012803D1A06845432068401900F0CAFD3D
:101E8000A068401CA06021680029DDD11FE16068C6
:101E9000864200D321E101F051FC002800D01CE172
:101EA000A068E1683825684322681018002902D02C
:101EB0008847002807D0012803D1A068454320683F
:101EC000401900F0A7FDA068461CA6602068002805
:101ED000DDD102E16068864200D3FEE001F02EFC15
:101EE000002800D0F9E0A068E1683825684322683E
:101EF0001018002902D08847002807D0012803D1F4
:101F0000A06845432068401900F084FDA068461C85
:101F1000A66020680028DDD1DFE06069002808D0D5
:101F200064216428024600D30A46801A606100D109
:101F3000DCE09848834200D1CFE0002B00D1CCE018
:101F40002068002800D1C2E0A0686168884200D300
:101F5000BDE001F0F3FB002800D0B8E0A068E16824
:101F60003825684322681018002902D088470028C5
:101F700007D0012803D1A06845432068401900F02C
:101F800049FDA068401CA06021680029DDD19EE0C9
:101F900000F0FAFBA5602068002800D19DE0E06910
:101FA0007C49884220D198E06068854200D394E063
:101FB00001F0C4FB002800D08FE0A068E16838255C
:101FC000684322681018002902D08847002807D0EB
:101FD000012803D1A06845432068401900F01AFD8C
:101FE000A068451CA56020680028DDD175E0C046CA
:101FF000081E0020555010B0B020002040180020CE
:10200000445010B0A088049020680390EE79AB791A
:102010006F792A79ED78E1686846056041601202BF
:102020003A431B0233430398049900F025FC2068CF
:1020300000284CD0A0686168884248D201F07EFB3D
:10204000002844D1A068E168382568432268101848
:10205000002902D08847002807D0012803D1A068B2
:1020600045432068401900F0D5FCA068401CA060E2
:1020700021680029DFD12AE02069002803D0E9780F
:10208000490800F035FD2068002820D0A06861686C
:1020900088421CD201F052FB002818D1A068E168E8
:1020A0003825684322681018002902D08847002884
:1020B00007D0012803D1A06845432068401900F0EB
:1020C000A9FCA068401CA06021680029DFD16068DD
:1020D000A168814201D301F031FB01F02FFB002800
:1020E00001D100F0FDF9012005B0F0BD294883427F
:1020F000F3D0002BF1D028480178284A1068002935
:1021000003D0002801D11560284625490968002917
:1021100000D10EE7401C1F46154602F0D9FD29608C
:1021200000F032FB3B46A6602068002800D100E7A3
:10213000E0691849884200D1FBE6002800D1F8E6A2
:102140006068864200D3F4E601F0F8FA3B460028C6
:1021500000D0EEE6A068E1683825684322681018D0
:10216000002902D08847002807D0012803D1A068A1
:1021700045432068401900F04DFCA068461CA6604D
:10218000206800283B46DBD1D3E6C046555010B04E
:1021900040180020445010B0AB1900203C1800201B
:1021A000041C002010B58CB001AC204602F020FFCA
:1021B00020850D49084206D101A800F01AF8002038
:1021C000C04301F079FA00F083F901A9884203D1F4
:1021D00000F080F900F00DF801A8008D002801D171
:1021E0000CB010BD00F06FF9FFFF00000020814629
:1021F0007047814670470000F0B581B000920F46ED
:102200000546494B9F420FD0474C40262046314659
:1022100002F09AFE00984028024600D3324620463B
:10222000394600F09CF8404B987801280BDC0028D8
:102230002AD001286AD1D81C04211C4601F0A0F93B
:10224000402120462BE0022827D005285ED11879AE
:10225000D97809020143354A1068002481425BD1D4
:10226000334E00988019071F106800281AD039468D
:10227000314030480268914200D907683A463240FE
:102280002D480068591D31E000249C715C711C715F
:10229000DC7040211846A8473EE023484021A8476B
:1022A000002439E0987959790902014323480160F3
:1022B00001684122920091422ED801681D480160B8
:1022C0001D491F4A0A6059781A7812020A431D49AB
:1022D0000A601D49009A57183946314002689142F8
:1022E00000D907683A463240D91D154800F037F842
:1022F000374011480168C91901600E480168C91BBF
:1023000001600A4801460868401C086009480168E5
:1023100001200224002903D1044800210160204645
:10232000C0B201B0F0BDC04618210020901F0020AF
:10233000FFFF0000981F0020A0200020941F002015
:102340009C1F0020A4200020F9FF010080B50B464F
:10235000002A03D011461A4602F0FCFD80BDB0B53C
:1023600088420DD9002A14D0491E5242401E002333
:10237000DB431C4654430D5D0555521CF9D108E062
:10238000002A06D000239CB20D5D05555B1C521E31
:10239000F9D1B0BD0148002101607047901F0020B5
:1023A000F0B585B0019300920E460390002E47D001
:1023B000324C00202060324932480860324F781D8C
:1023C00039250290294602F0BFFD304801460868D1
:1023D000000A3870086878700520B8702068000A14
:1023E000F87020683871B1B22068002804910AD0D2
:1023F0003B203B290E4600D3064621480246116881
:102400000298154609E0300A7871BE7139290E46E6
:1024100000D32E461A4D2968F81D3246FFF79FFF5C
:10242000164C2868801928602068401C20604021D4
:102430003846039A90470498861B15480642BED139
:102440000E48002404608020019D054201D001F067
:102450006DF8A8060FD40C4C009D40212046A847DB
:10246000C2B2402AF9D803982146FFF7C5FE0228D8
:10247000F3D108480468A0B205B0F0BD901F002059
:10248000A02000209C1F002018210020A420002054
:10249000FFFF0000941F002070B5431E491E5242EA
:1024A0000020C443002A0CD0264656438D5D9E5D15
:1024B000521CAE42F6D00020C1430120AE4200D8EB
:1024C0000846C0B270BD80B50146484602F09CFD8A
:1024D0004846704700204946002900D048697047A7
:1024E00080B501F02BF900280BD10648602101705E
:1024F0000021417002228270C1700171052101F03A
:1025000007F980BD081E002010B51348C0780328C5
:1025100007DC01280DD002281DD1104801F048FF2A
:1025200010BD042814D0082815D10C4801F03EFF36
:1025300010BD0A4C0121204601F033FF204601F076
:1025400010FF07480078002805D01020FFF7BBFFD8
:10255000024801F029FF10BD081E0020A421002020
:10256000B02000207F2101400148405C7047C046F8
:10257000B120002080B510480179042908D0022933
:1025800011D001290ED1811D0D4801F0ECFD80BD57
:10259000C2787F2111404279084B5A54821D084865
:1025A00001F00FFE80BDC2787F211140821D0448DA
:1025B00001F061FE80BDC046081E0020B120002051
:1025C000A4210020F0B581B014460546FF2C3AD86E
:1025D0001F4E50203070E01C0091010A7170B070E5
:1025E00080200543F570202030717471062130463B
:1025F0001F4601F08DF80098214601F089F8781CFB
:10260000022820D306E0152902D1B07900071CD595
:1026100000F020F801F092F8002801D1FFF760FFE8
:1026200080210022304601F09FF831780628EAD157
:102630001029E8D1F078A842E5D130790228E2D11A
:102640007079A042DFD101B0F0BD1020FFF73BFF51
:10265000081E002080B51E48827841780902114387
:1026600000780F280ADC0E2810D00F281DD100207A
:10267000042921D1FFF748FF012080BD102818D080
:10268000162812D100F032F8012080BD11480168EF
:1026900000290AD002686421632A00D80168026810
:1026A000511A0160006800280BD00220FFF7A2FA3F
:1026B00080BD0020062900D280BDFFF75BFF01200E
:1026C00080BD0548002101701020FFF7FCFEC046C8
:1026D000081E0020AC200020B720002080B50A464C
:1026E000014682201423FFF76DFF80BD80B50B48A3
:1026F0000178002910D10A4905220A700A210170C7
:1027000008488178427812020A4307490A800A88F9
:10271000C11C0648FFF723FE80BDC046B72000203D
:10272000B0200020081E0020B82000209C1F0020A0
:1027300010B5082000F0E4FE0A48002404700A489E
:1027400004800A4804800A4804800A4804700A4841
:102750000460FFF71FFE0948046009480460094847
:10276000046010BDB7200020BA200020B82000204F
:10277000BC200020B0200020A8200020C020002085
:10278000C4200020C82000200148002101607047BB
:10279000C0200020B0B50D460446206B00280CD0A8
:1027A00000F096FE01462046884700F091FE002189
:1027B000002810D0012800D00446002D07D0204664
:1027C000A8470021002806D0012800D00446204652
:1027D000FEF71AFE01210846B0BDB0B58EB00C461A
:1027E0000546686B00280CD000F072FE01462846B2
:1027F000884700F06DFE0021002816D0012800D087
:102800000546684638222946FFF7A9FD686A049004
:10281000A86A0590002C04D02846A0470021002873
:1028200003D06846FEF7F0FD012108460EB0B0BDAA
:10283000B0B50D460446E06A00280CD000F048FE12
:1028400001462046884700F043FE0021002810D0B2
:10285000012800D00446002D07D02046A8470021BB
:10286000002806D0012800D004462046FEF7CCFD03
:1028700001210846B0BD0000F0B587B00293039275
:102880000591002977D004900D9801900C98009044
:1028900000253C4B06952F461E4600F04FFF0028B2
:1028A00055D138206843049C251833461A68012105
:1028B000954200D0069906912056002841DA202042
:1028C000285C0221695E0A1A039CA24239DC411885
:1028D000EA888918039A8A4233DA04216C5E221A44
:1028E00002998A422DDC20182989401802998142D8
:1028F00027DA1868854210D0186800280DD0019892
:10290000002805D02846019988473346002818D06A
:1029100018680199FFF73EFF08E00098012809D0E8
:1029200002280ED128460199FFF782FF334600287E
:1029300007D022E028460199FFF74FFF33460028D1
:102940001ED17F1CFDB205988542A5D300E0334619
:10295000069800060FD0186800280CD000F0EEFE94
:102960003146002807D108680199FFF713FF0028B6
:1029700001D00020306007B0F0BD00201860FAE7F9
:102980001D60F8E7C0200020F0B589B00C46014674
:1029900002AD1C2228460192FFF7E1FC2168E98084
:1029A00062682A81A0681A4F65233B7092B2424345
:1029B0008BB25343D9084E1C0722134200D10E4656
:1029C000314600910426864070181D30010A797046
:1029D000B8700321384600F09BFE2846019900F0AC
:1029E00097FEA06838700121384600F091FEE0683B
:1029F00000F06EFDB1B200F08BFE009885B2206948
:102A000000F066FD294600F083FE09B0F0BDC04627
:102A1000081E002070B5044620787F26064000F08E
:102A20008DFE002830D1002E2ED0E06900281DD068
:102A300000F04EFD0546052E02D1A07E002824D0D0
:102A4000284602F0F7FA0646124865210170314621
:102A50001C310A0A42708170032100F059FE1C21CA
:102A6000204600F055FEB1B228460BE0094865212A
:102A70000170002141701C258570032100F048FE83
:102A80002046294600F044FE70BD20462946FFF747
:102A90007BFF70BD081E002080B50A46C16900F0AA
:102AA00001F880BD70B5164604460025002C1CD0E8
:102AB0002078072801D0022817D1084600F008FD29
:102AC000002812D002F0B6FA4643E08886420CD9BC
:102AD000311A7D2000014843A17E02F073F8A17AEB
:102AE0004900C9B264224A431518284670BD000047
:102AF000F0B581B00446002C2BD0174802688A42FA
:102B000003D1164A13685B1C136006680E43134A10
:102B10001568134F002901D0066004E0002303600C
:102B200013607B1C1E430068884201D000201060A7
:102B3000082D0BD30321284602F0CAF80120800794
:102B40003043002900D03046384000E03046294666
:102B5000A04701B0F0BDC046C4200020C82000201E
:102B6000FFFFFF7FF0B581B00D4604460F20044201
:102B700007D020462946FEF7F9FA0546A8B201B06B
:102B8000F0BD10262640002D41D0002E3FD17D20E3
:102B900000014D4908604D4F387807280CD00A28AD
:102BA00012D0002805D020462946FEF7DFFA00287B
:102BB0001BD00920FFF787FC4D48784400222023D2
:102BC0002946FFF7EDFB10E0FF200630854278D262
:102BD0003F4853210170290A41708570032100F09C
:102BE00097FD3C48294600F093FD00253D703A488A
:102BF00005803A4805803A4805803A480570A006A5
:102C0000BCD4FFF76DFC200601D500F08FFC002E30
:102C10000CD1600650D42D48002101702E4801804F
:102C20002E4801802E4801802E480170284C2B4EE2
:102C30002B4F02E00220FEF7DDFF00F07FFD0028B1
:102C400001D1FFF74DFC8021002520462A4600F0E7
:102C50008BFDC11EA27863781B021343994215D1E4
:102C600020490978002902D0FFF7F4FCE5E7217834
:102C70000F2906D0102911D01629DBD1FFF736FD18
:102C800011E0042802D1FFF73FFCD6E700200F49EE
:102C900008701149088030803880CEE7062800D2BD
:102CA0006CE7FFF767FC30880028C6D00F48006843
:102CB00005490860358861E7084800880A494518D1
:102CC0005CE70220FFF7FFFBAC200020B7200020CC
:102CD000081E00209C1F0020BA200020B8200020E1
:102CE000BC200020B0200020FBFF0000A820002016
:102CF0001FFBFFFFF0B581B007465F4C254614353A
:102D0000382228463946FFF72AFB2169A0680029A6
:102D100003D088470346A06803E01C214143226892
:102D200053180026002810D02269411E002A0FD017
:102D30000846009737462E461D4690472B46354697
:102D40003E46009F0246A06806E03046324603E059
:102D50001C224A4321688A186168491E884210D2A1
:102D60002169401C002908D000951D461646884759
:102D700032462B46009D064603E01C214143206855
:102D80004618787840280ADC202822DC102834D025
:102D9000202867D15969002000296BD151E0802893
:102DA00022DC412833D042285CD159690020002917
:102DB00060D1D96800295DD16268511E012A59D0BD
:102DC000A2688A4256D0F168002953D13069206345
:102DD00048E0212831D0222844D1194614315A69BB
:102DE0000020002A2FD145E0822835D0812839D112
:102DF000A1680020002935D13CE0D96800200029D5
:102E000038D02163587E00282CD0E0822AE059690E
:102E1000002000292ED1D96800292BD1A1680029D2
:102E200028D06168012925D0D168002922D15169B3
:102E300000291FD11069206314E05969002000297E
:102E400018D01946103108682063187E002809D070
:102E5000E0820820A08505E06068A168421E00208D
:102E6000914207D0E268002A284603D0143418465D
:102E70002146904701B0F0BDCC200020F0B581B0D4
:102E800005463B4F3969B868002902D08847064695
:102E900003E01C2141433868461801243548854227
:102EA00014DD3548854217D0344885421CD034485B
:102EB00085425AD1306800284ED0B46800F008FB33
:102EC0000146FA68204600F065F84DE02D4885423D
:102ED0000AD02848854248D17968B8684A1E00243B
:102EE0000121904205D340E00024E143B868002866
:102EF0003BD04018B860244800240460234DAC60E7
:102F00002868002831D0E869214988422DD000285E
:102F10002BD0002420466968884226D200F00EFC9F
:102F2000002822D1A868E968382670432A6810185A
:102F3000002902D08847002807D0012803D1A868BB
:102F4000464328688019FEF75FFAA868401CA8600D
:102F500029680029DFD108E07068002805D000F05A
:102F6000B7FA0146B06888470024204601B0F0BD9A
:102F7000CC20002002000080020000400100004040
:102F80000300008001000080C020002040180020C5
:102F9000445010B0F0B583B002920D460190374E08
:102FA000002000907060002D15D0384979441C270E
:102FB00028463A46FFF770FA00280CD0344C7C447F
:102FC0007068401C70607843281821463A46FFF725
:102FD00063FA0028F4D101990846013005D07068E1
:102FE0008842009800D30846B060356000250298FA
:102FF000F0603561224C27487844206009206060E9
:1030000025487844206125487844E06003202076F4
:10301000E5612046183000F065FBE06100F040F803
:1030200018480560A5602068002824D0E06916498A
:1030300088421ED11FE0606885421CD200F07EFBF2
:10304000002818D1A068E168382568432268101864
:10305000002902D08847002807D0012803D1A068A2
:10306000454320684019FEF7CFF9A068451CA560CC
:1030700020680028DFD103B0F0BDC046CC2000207E
:1030800040180020C0200020445010B0542C0000F4
:10309000422C0000102A000077FEFFFFE9FCFFFF32
:1030A0007047000081B0F0B590B016460C460A900B
:1030B0001593022C00D2F0E10A98002800D1ECE12F
:1030C000002E00D1E9E100210A9807912246FFF77E
:1030D0003DF915A80B903078002800D1DDE1079963
:1030E000C943651E0591BDE13019315D25290BD11C
:1030F00003930292431C0020202108910A21019190
:1031000000900490099056E006460A921EE133466C
:1031100008464BE0472B13DC194630390A2934D2D4
:10312000302B089900D11946099D002D00D008992F
:103130000A226A43D218303A0992334608913AE09B
:10314000672B04DD722B09DD732B46D10AE0622B5D
:1031500048DC482B55D10122049201E0682B56D15E
:10316000102201920B9A131D0B93032318404D1C40
:103170001168012800D1CEE0022800D1D0E0032858
:1031800033462846069D16D0E7E02E2B00D0CAE035
:1031900030782A2800D0C6E07178731C01204829B5
:1031A00004D0682902D0732900D0BCE00B990A1D15
:1031B0000B920968009102211E463378761C00228A
:1031C0002D2BA7DC1046F8D0252B2AD02A2B00D097
:1031D000A9E0307873289AD0A5E0752B23D0782BFE
:1031E00018D0A0E0632B00D18BE0642B00D09AE0D4
:1031F0000B98011D0B910068C11742184A40C00F7F
:1032000016E0582B00D08EE00120049002E0702BD5
:1032100000D088E00B98011D0B910268002010255A
:1032200007E0252071E00B98011D0B91026800203A
:103230000A25069001270A92954212D801242846B1
:103240000746294601F0BEFCA04209D12846784332
:103250000999491E09910A9988423C46F0D900E033
:1032600027460024E143069B002B00D1194609980C
:10327000019140180899CAB2302A06D1002B04D017
:103280000CA92D230B7000230124811E0D290CD8BD
:10329000411E0AD00CA82043069301F05BFE069B5A
:1032A0000998001901994018441E002B03D00CA85E
:1032B0002D210155641C0498002F18D0002801D03E
:1032C00079A000E07CA009900A98394601F07AFCC8
:1032D000294601F0FDFC0998405C0CA908553846C8
:1032E000294601F06FFC641CBD420746ECD9039BE4
:1032F0009C4200D31C460CA9029D284622461F462C
:103300001BE00B98011D0B9100680299087003984F
:10331000401E491C15E0009C059A039B069D24E075
:103320000878002875D00520039F052F3C4600D360
:103330000446029D284664A12246FFF710F8381B78
:1033400029190A910346002800D1A6E03078002808
:1033500005991D4600D085E09FE0059A1446039B21
:1033600008194078641C0028FAD1019810280298A6
:1033700044D1002C74D008910A988318501B8742BE
:10338000394600D8014603914A430292501C0190ED
:1033900000202A460A9302995B1809900899085C54
:1033A0000F250540000903998918491C022974D387
:1033B0000499012903D0002908D13FA100E03AA1D6
:1033C000C0B2085C1870E8B2085C5870019890426E
:1033D00063D0921E0A9B9B1C0998401CA042D9D323
:1033E000099005990698081A874200D807460846AA
:1033F000784318180A90B818431C1CE09C4200D36C
:103400001C46224605461F46FEF7A9FF381B291910
:103410000DE0039B009F9F4200D31F462021029D89
:1034200028463A46FEF792FF0398C01BE9190A9115
:103430000346002831D00998A04287D9041B1D46B5
:10344000AC4200D32C4620210A9F38462246FEF784
:103450007DFF2D1B3F190A972B46002D1DD075E7C8
:103460000A9073E70F46079C03E0301940787F1EEF
:10347000641CC0B2002801D02528F6D1AC4200D38C
:103480002C460A9831462246FEF769FF06952B1B0B
:103490000A980219002B00D026E6002010B0F0BCDC
:1034A00002BC01B00847C0463031323334353637BC
:1034B000383941424344454630313233343536376A
:1034C00038396162636465664552524F52000000AC
:1034D00080B50449884204D30349884201D200F0F0
:1034E00005F880BD0000D0C0805DD0C07A4602499A
:1034F000C91C891A401A7047ED34D0C001DF7047EB
:1035000080B582B0009007486946FFF7F7FF01AA2F
:1035100011600549884201D102B080BD0420FEF748
:10352000D2FFC04637010060C601009080B582B06E
:10353000064801A9FFF7E2FF6A4611600449884284
:1035400001D102B080BD0420FEF7BDFF0002006083
:10355000F102009080B584B000AB07C3064869460D
:10356000FFF7CCFF03AA11600449884201D104B0DF
:1035700080BD0420FEF7A7FF7F030060BC0300901E
:1035800080B584B001900291074801A9FFF7B6FF0A
:1035900003AA11600549884202D1039804B080BD96
:1035A0000420FEF790FFC0462C05006067050090E0
:1035B00080B586B001AF0FC7074801A9FFF79EFF8E
:1035C00005AA11600549884202D1059806B080BD60
:1035D0000420FEF778FFC0462C0B0060A00B009083
:1035E00080B586B001AF0FC7074801A9FFF786FF76
:1035F00005AA11600549884202D1059806B080BD30
:103600000420FEF760FFC046EA2B0060632B0090A9
:1036100080B586B001AF0FC7074801A9FFF76EFF5D
:1036200005AA11600549884202D1059806B080BDFF
:103630000420FEF748FFC0462E2C0060742C00903A
:1036400080B58CB001AF0FC70E9805900F9806900B
:1036500010980790119808901298099013980A9062
:10366000074801A9FFF74AFF0BAA116005498842E4
:1036700002D10B980CB080BD0420FEF724FFC04699
:103680003B330060F633009080B586B000AF0FC7C3
:103690000898049006486946FFF730FF05AA1160B4
:1036A0000449884201D106B080BD0420FEF70BFF1B
:1036B000BA5000601E50009080B582B0009007485C
:1036C0006946FFF71BFF01AA11600549884201D135
:1036D00002B080BD0420FEF7F6FEC046E15F006048
:1036E0006F5F009080B582B0009007486946FFF791
:1036F00005FF01AA11600549884202D1019802B074
:1037000080BD0420FEF7DFFE586100601F6100905D
:1037100080B584B001900291064801A9FFF7EEFE42
:1037200003AA11600449884201D104B080BD04207D
:10373000FEF7C9FE1C6E0060F36E009080B582B08B
:10374000074801A9FFF7DAFE6A4611600549884279
:1037500002D1009802B080BD0420FEF7B4FEC0463E
:10376000CF6F00607F6F009080B584B000AB07C35F
:1037700007486946FFF7C2FE03AA1160054988425F
:1037800003D103A8008804B080BD0420FEF79BFE8F
:10379000D17000602B700090044800210170044833
:1037A00001220270034801707047C0465821002072
:1037B000592100205A21002070B514460D460646B6
:1037C000012C04D10B4800214022FEF7BFFD09481F
:1037D00031462A46FEF7C3FD07480178002901D08B
:1037E00000210170012C03D102484021FEF776FF31
:1037F00070BDC0465B21002059210020034801789C
:10380000002901D1012101707047C0465A210020D2
:1038100080B582B001228321049B402B04D16B46EA
:103820001A60074A7A4403E06B461A60034A7A44F6
:10383000022300F0BCF902B080BDC046EE230000B8
:10384000FA230000F0B589B00027089707970E9E6D
:1038500001228324402E06D869460A60264A7A440B
:103860000223214640E00425294307292FD105964C
:10387000029203940490402006931C5C002C0DD00F
:10388000069E41361AA5F8B2032101F021FAF05D37
:10389000695C4140F1557F1CBC42F4D1452006993A
:1038A000085C4630059A824216D1413111482246C1
:1038B000FEF755FD08A807A9FEF796F8102008990D
:1038C000014213D107990498FDF754F80EE08A21BC
:1038D000034600F056FA09E0684602990160074A7B
:1038E0007A4402230498039900F061F909B0F0BD0D
:1038F000544641009C1F0020BE23000040230000CE
:1039000080B582B001228321049B002B05D06B4639
:103910001A60064A7A44022304E06B461A60044A9D
:103920007A44082300F043F902B080BD0823000068
:1039300002230000F0B583B01E460F460446304611
:1039400000F068FA0125012806D10B2120462A46FD
:10395000334600F016FA43E0304600F04BFA0128F7
:1039600004D102A80421FFF70BFE04E002A8042200
:103970003146FEF7F4FC206D08223946FEF7EFFCD5
:10398000206D083002A90422FEF7E9FC206D022117
:103990000173206D00214173206D01228273206D1F
:1039A000C173206D0174304600F024FA8626012888
:1039B00007D130467930C1B204222046FEF7C6FC5A
:1039C00004E002A904222046FEF7C9FC0120E076AB
:1039D000226D6846056011232046314600F0E7F865
:1039E00003B0F0BDF0B585B004900B791B044C79A1
:1039F00024021C438B792343274FD21908371446DE
:103A00003C40887802904E780D7801200390832006
:103A1000A34203D0921C3A40934217D1002D05D007
:103A20006946039A0A601E4A7A4414E0032E19D0AC
:103A3000022E20D00146012E049826D19AB2694662
:103A40000A6000210A46FFF7E3FE09E06946039A8F
:103A50000A60124A7A4402230146049800F0A7F84B
:103A600005B0F0BD98B269460860002104980A4686
:103A7000FFF746FFF4E798B26A461060CB1D0022BC
:103A800004980299FFF7DEFEEAE76A46039B13609B
:103A9000044A7A440223E1E7F7FF0000C82100004E
:103AA000022200009A21000010B582B014468A78E4
:103AB0004B781B0213430A78812A09D0832A12D03B
:103AC000862A26D1C91C00222346FFF733FF20E0B7
:103AD00030220024845401226C462260CA1C8121B9
:103AE00000F065F815E03022002484545C22825CEA
:103AF000002A06D001220274C91C1A46FFF772FF81
:103B000007E0027C002AF5D006210022034600F0DF
:103B100038F902B010BD80B5282101224254C17A83
:103B2000012914D13021425C01463031002A0ED0E7
:103B3000426AC36A9A18C262FF23F6339A4206D3D6
:103B400000220A70031D0521012200F01AF980BD30
:103B5000002181720174C27E002A00D0C1767047B4
:103B6000084979444161084979447D229200016203
:103B70004262002181720174C27E002A00D0C176A7
:103B80000183704743FFFFFFABFFFFFF10B5037BCF
:103B900040200024012B00D02046824206D808464F
:103BA00011461A46FFF708FEFFF728FE10BD70B554
:103BB000049C012C01D10325857238250126465528
:103BC000392500264655C26340228652422283523E
:103BD000442281544521445400F002F870BD000095
:103BE000F0B589B004463920205C21465E3102914F
:103BF0002146443101912746403721464231079101
:103C00002146393104910397E17A042200230129E6
:103C100000D01A46060603250123002E00D01D46BB
:103C200015434022344B0893012901D0029A12888F
:103C3000561B3A88079B1B889A1AB24200DC16462C
:103C4000721906923346089A1340059300270129FA
:103C50000CD1E06C00214022FEF778FBE06C0427D9
:103C600021463A46FEF77BFB04980078010602D015
:103C7000C0B2FF300DE0E06C01990978BAB281540E
:103C80000120384387B2E26C07994B78D355471C23
:103C90000878E16CBAB28854E16B0029039F06D022
:103CA000E06C40193A888918059AFEF758FB089885
:103CB00006990140227BE06CFFF77EFD3888811970
:103CC0003980049A1078401C107089B2079A1288C3
:103CD0008A4299D1FFF792FD382100206054452196
:103CE000615C002905D0A0722074E17E002900D01B
:103CF000E07609B0F0BDC046FFFF0000F0B583B02C
:103D00001D4617460E460446002001900290012DE4
:103D100004D102A804223146FEF721FB2573FFF7E8
:103D20003BFD5C20205C002807D0A07AFE210140EA
:103D3000022902D1062100220CE00420012D00D02E
:103D400001980122014611438F4201D2852101E0F1
:103D5000305CC10902AB204600F013F8012D0ED1F2
:103D60003020205C25463035002808D0211D02A8CF
:103D70000422FEF791FB002801D10198287003B0BE
:103D8000F0BDF0B583B0019302920E460446E06C9C
:103D9000002740223946FEF7D9FAE07A01283D464D
:103DA00005D1E06C042501992A46FEF7D8FAE06CAB
:103DB000E9B2BF22425401202843C1B2E26C5754F9
:103DC000401CC0B2310AE26C115403202843C1B236
:103DD000E26C5654401CC2B2E16C2046FFF7D6FE9E
:103DE0000298012803D101212046FFF7B1FE03B05C
:103DF000F0BD000080B5064979440422FEF74CFB73
:103E0000014601200022002900D0104680BDC04696
:103E1000361E000080B5064979440422FEF73CFBBB
:103E2000014601200022002900D0104680BDC04676
:103E30001A1E00000249002008600249086070470D
:103E40009C210020A021002010B507484F210170BF
:103E500000244470012181700221C1700421FFF708
:103E600057FC204610BDC046081E002070B582B029
:103E70006D464F262E7000246C700220A87003201F
:103E8000E8702C7105212846FFF742FC2E706C70FB
:103E90000120A870E87004212846FFF739FC20466D
:103EA00002B070BD10B582B001A84F21017000248E
:103EB0004470012181700221C1700421FFF728FCA8
:103EC000204602B010BD0000B0B582B00E480024FC
:103ED00004600E48046068464F250570447005254F
:103EE00085700425C570012505714171032A02D82A
:103EF000D000074CC44068468471C3710821FFF7A5
:103F000007FC002002B0B0BD9C210020A0210020B1
:103F10000104030210B582B068464F2202700024EB
:103F20004470052282700422C27001220271417124
:103F30008471C4710821FFF7EBFB204602B010BD6D
:103F4000B0B582B00D46684650210170002444701F
:103F500003218170C5704021017144710621FFF772
:103F6000D7FB8020054201D1074800E005480168E1
:103F70007F2215400122AA400A430260204602B077
:103F8000B0BDC0469C210020A021002070B582B0A9
:103F90000D46684650210170002444700321817051
:103FA000C5708026067144710621FFF7B1FB3542CA
:103FB00001D1074800E0054801687F221540012231
:103FC000AA4091430160204602B070BD9C210020B0
:103FD000A02100208020014201D0064800E00448D2
:103FE00000687F22114001228A400240D0B270470F
:103FF000A02100209C21002010B582B068464F22ED
:10400000027000244470022282700322C270017187
:104010000521FFF77DFB204602B010BDB0B582B090
:104020001C461546684650220270E21C130A437073
:104030008270C1702021017144710621FFF768FB75
:1040400028462146FFF764FB002002B0B0BD10B542
:1040500082B06846502303700024447003238370A9
:10406000C1703021017142710621FFF751FB2046DA
:1040700002B010BD70B515460E4604460220002C55
:1040800010D045208100204600F05EFF002E01D0B8
:10409000F0202650DC200121215425702046FFF716
:1040A000C9FE0020C0B270BDB0B50446DC200121BD
:1040B00021540025E8002018F4214058002806D09B
:1040C0004068FFF705FA02462179204690476D1CAB
:1040D000032DEFD12046FFF7E5FE2046FFF7B4FEA3
:1040E0000020B0BD0222002902D0F422815000221B
:1040F000D0B2704780B5FFF7B9FE002080BD70B523
:104100000C46054600262846314600F06FF9002887
:104110000AD0F0002818F42140580068FFF7D8F9B9
:104120000246284621469047761C032EEBD10020FC
:1041300070BD70B50C46054600262846314600F095
:1041400055F900280AD0F0002818F421405840689A
:10415000FFF7BEF90246284621469047761C032EFB
:10416000EBD1002070BDB0B504462546E8352846A1
:1041700000F089FBD42001212150EE20205AD821C3
:104180006050E820215C1F200840022808D0012848
:104190000BD000280ED12046294600F034F90EE05D
:1041A0002046294600F0E6FA09E02046294600F0BC
:1041B000BDFA04E0802001402046FFF7C1FE002048
:1041C000B0BDF0B581B000920E460446002E1DD061
:1041D0002546DC3500272046394600F007F900283F
:1041E00010D0F8002018F42140588069002809D028
:1041F0002978032906D1FFF76BF90346204631469B
:10420000009A98477F1C032FE5D131E0D420205835
:1042100003282DD180202058E16F81420AD9091A44
:10422000E167814200D301468AB22046009900F03E
:10423000ABFC1DE02646DC3600252046294600F072
:10424000D5F800280ED0E8002018F4214058006965
:10425000002807D03178032904D1FFF739F9014646
:10426000204688476D1C032DE7D1204600F093FCC3
:10427000002001B0F0BDF0B581B00D460446002D20
:104280001CD02746DC3700262046314600F0AEF829
:1042900000280FD0F0002018F42140584069002871
:1042A00008D03978032905D1FFF712F902462046D4
:1042B00029469047761C032EE6D14FE0D4202058A3
:1042C000022844D1E069256AA8420BD9401BE0616D
:1042D00011210A01A1584919A15082B2204600F0CB
:1042E00045FC34E0A6693046294600F0F1FCAE42B8
:1042F0000FD300290DD1D82020582746D837864221
:1043000007D20025204629462A4600F02FFC3D60B2
:104310001DE02646DC3600252046294600F066F8DA
:1043200000280ED0E8002018F4214058C06800286A
:1043300007D03178032904D1FFF7CAF80146204697
:1043400088476D1C032DE7D1204600F030FCE020AB
:10435000205CE034012801D100202070002001B051
:10436000F0BDB0B504468020402121502162DC2000
:104370000121215400252046294600F037F8002865
:104380000AD0E8002018F42140584068FFF7A0F850
:1043900002462179204690476D1C032DEBD1002069
:1043A000B0BD0174002070470020704700207047A6
:1043B000B0B50446DC20205C032815D1002520463A
:1043C000294600F013F800280BD0E8002018F4214B
:1043D0004058C069002804D0FFF77AF8014620460B
:1043E00088476D1C032DEAD10020B0BD0246002095
:1043F000022907D8C8001018F421415801200029CB
:1044000000D10846704780B54A78042A08DD072A9B
:104410000FDC052A14D0062A1BD100F021F81DE07C
:10442000002A10D0012A17D0032A12D100F02FF948
:1044300014E0082A0AD0092A0BD100F0B8F80DE0E0
:1044400000F090F80AE000F000F907E000F0E6F86C
:1044500004E000F061F901E000F036F9002080BDD1
:10446000B0B582B00D4604466988080A052812DCFA
:1044700001281AD0022822D0032835D1C8B2022838
:1044800037DC00285ED0012864D002282CD1F0202F
:104490002058C0680CE006281AD0072821D00F2821
:1044A00022D1F0202058C06902E0F0202058006896
:1044B000FFF70EF80246207C01A9904730E0F42077
:1044C000205800281FD0217C002923D0C06A22E078
:1044D000207C002808D1F4202058002804D0406B0C
:1044E00019E0207C00280FD02046294600F014F95E
:1044F00026E003282AD0042830D00528F4D1F02063
:1045000020588069D4E70CE0F42020580028EBD034
:10451000006B00E0806AFEF7DBFF014601A88847D8
:10452000014601A80288002A0AD0E888002807D09E
:10453000824200D3024601A80280204600F000FB20
:1045400002B0B0BDF02020584068B1E7F0202058FC
:104550000069ADE7F02020588068A9E7F0202058D6
:104560004069A5E770B50446888800280BD1C88843
:10457000002808D148887F260640DC20205C25469C
:10458000DC35032803D1204600F0C6F870BDDE20DC
:104590002654F1B22046FFF72FFD204600F0FBFA2B
:1045A00002200121002E00D10846287070BD70B590
:1045B0000D460446AE78022E1DD2DC20215C20463A
:1045C000DC30032907D0022915D1002E22D06660E5
:1045D0000321017009E0002E12D06068864219D0D4
:1045E000C1B22046FFF7A5FD666020463146FFF7C1
:1045F00086FD02280ED12046294600F08DF870BDB8
:1046000002210170666020463146FFF792FD204688
:1046100000F0C1FA204600F0BEFA70BD80B5CA882D
:10462000012A0AD1DC22825C032A09D0022A04D1A1
:10463000002181600146083103E000F06DF880BD83
:10464000011D012200F07CFA80BDB0B50446DC20DB
:10465000205CFE220240022A15D10120E060E42005
:10466000215825460C350320002905D0204600F0AE
:104670009EFAE16802200843E060022220462946B3
:1046800000F05EFAB0BD204600F046F8B0BDB0B50F
:104690000D4604466888012815D1E42001212150E7
:1046A000287902280CD8C0002018F421405800288E
:1046B00006D08068FEF70CFF024620462946904748
:1046C000204600F068FAB0BDB0B50D460446DC20C7
:1046D000205CFE210140022919D1688801281AD1E5
:1046E000E42000212150287902280CD8C00020188D
:1046F000F4214058002806D08068FEF7E9FE024603
:10470000204629469047204600F045FAB0BD204695
:10471000294600F001F8B0BD10B504468021FFF72E
:104720000FFC00212046FFF70BFC10BDB0B50D4675
:104730000446DC20205C032816D12879022813D8EF
:10474000C0002018F421405800280DD08068FEF7E2
:10475000BFFE0246204629469047E888002807D138
:10476000204600F018FA03E020462946FFF7D4FF60
:104770000020B0BD70B50D46044628786021014088
:104780002E7920290FD1022E0DD8F0002018F42107
:104790004058002807D08068FEF79AFE024620465F
:1047A000294690476DE06878002817D001281ED070
:1047B000032866D1DC20205C03281CD168880028EF
:1047C00008D180203043802804D020463146FFF7AE
:1047D000B7FB2E79022E51D8F00043E0DC20205C9C
:1047E000032818D0022811D170060AD149E0DC2034
:1047F000205C032829D0022808D18020304380285B
:104800003FD020463146FFF79BFB3AE02046294641
:10481000FFF782FF35E025461435204674308021AD
:104820000E4200D1054620463146FFF7D3FB012159
:10483000002800D101467F20064030012950291868
:104840000222204600F07CF91BE06888002818D17D
:10485000700613D020463146FFF798FB28790228CE
:104860000CD8C0002018F4214058002806D08068D9
:10487000FEF72EFE0246204629469047204600F0CD
:104880008AF9002070BD0A7802704A7842708A78EE
:10489000CB781B02134343800A794B791B021343E5
:1048A00083808A79C97909021143C1807047F0B5C4
:1048B00083B00D46044602A80027078001A80770B0
:1048C000297860200840002810D0202838D1687846
:1048D00001460A39022933D302281CD003281AD0F2
:1048E00020462946FFF718FF022729E068780B28A1
:1048F00014D00A280FD0062822D16888000A002781
:1049000021280FD022283A46394616D102AE304629
:1049100000F08EF80AE001A901220EE0204600F026
:104920003AF90DE002AE304600F07AF801463288DE
:10493000E888824200D302463280204600F000F927
:10494000F8B203B0F0BDF0B581B004468221032671
:10495000402532462B46FFF7B7FA02272046394654
:1049600032462B46FFF7B0FA204639462A46FFF773
:104970006EFB002001B0F0BD10B504468221FFF7A8
:10498000C9FA02212046FFF7C5FA002010BD000039
:1049900012200880014878447047C0463013000058
:1049A00004200880014878447047C0469E120000E9
:1049B0000E200880014878447047C04680120000ED
:1049C0000E200880014878447047C0468C120000D1
:1049D0000A200880014878447047C04672120000DF
:1049E0000E200880014878447047C04650120000ED
:1049F0000E200880014878447047C04640120000ED
:104A00000A210180014878447047C046B612000070
:104A100029210180014878447047C0466E12000089
:104A200009210180014878447047C0468A1200007D
:104A30002221018000487047B822002070B514463A
:104A4000022540222946FFF702FB10480678284637
:104A5000FDF788FD0246002E05D00D4801232146B2
:104A6000FFF74CF910E00F4878442146FDF7C4FBEE
:104A7000022809D107480121017007480721017068
:104A80000648006806490880002070BDDA22002030
:104A9000AC190020B0200020B7200020941F002077
:104AA000B820002071DCFFFF70B50D4604461C4E97
:104AB0002049794422223046FDF751FC19481A4911
:104AC000002D00D108467070000AB0700120002D42
:104AD00000D128461549087045208500144800215A
:104AE0002A46FDF733FC002C15D0114C0026204639
:104AF00031462A46FDF72AFC0F49794420463246C2
:104B0000FFF7B8FA0D4979442046FFF7EBFA204643
:104B1000FFF7F0FA70BD0648FFF7C6FA70BDC04651
:104B2000B8220020D0F10000A0FF0000DA2200200F
:104B3000A4210020AE110000DE110000F2110000DF
:104B4000B0B50C46D421022343508261C2611121C9
:104B500009014450016A8A4200D30A4693B20025F3
:104B600029462246FFF75AFA2846B0BDB0B50C4692
:104B7000016A8A4200D30A4693B20025294622469A
:104B8000FFF74CFA2846B0BD10B500242146FFF7C8
:104B90005EFA204610BD10B5D421042242500024F4
:104BA000214622462346FFF739FA204610BD10B5AC
:104BB000D42105224250002421462246FFF747FA1D
:104BC000204610BD002243088B4274D303098B4258
:104BD0005FD3030A8B4244D3030B8B4228D3030CCD
:104BE0008B420DD3FF22090212BA030C8B4202D36F
:104BF0001212090265D0030B8B4219D300E0090A97
:104C0000C30B8B4201D3CB03C01A5241830B8B429F
:104C100001D38B03C01A5241430B8B4201D34B0388
:104C2000C01A5241030B8B4201D30B03C01A5241ED
:104C3000C30A8B4201D3CB02C01A5241830A8B4272
:104C400001D38B02C01A5241430A8B4201D34B025B
:104C5000C01A5241030A8B4201D30B02C01A5241BF
:104C6000CDD2C3098B4201D3CB01C01A5241830973
:104C70008B4201D38B01C01A524143098B4201D3AD
:104C80004B01C01A524103098B4201D30B01C01AD8
:104C90005241C3088B4201D3CB00C01A5241830852
:104CA0008B4201D38B00C01A524143088B4201D37F
:104CB0004B00C01A5241411A00D2014652411046DF
:104CC0007047FFE701B5002000F006F802BDC046BE
:104CD0000029F7D076E770477047C046002B11D106
:104CE000002A0FD1002900D1002802D00021C94399
:104CF000081C07B4024802A14018029003BDC04638
:104D0000D9FFFFFF03B4684601B5029800F032F8FE
:104D1000019B9E4602B00CBC7047C046F0B54F46A2
:104D20004646C0B41604360C9946330005042C0CD4
:104D3000070C150C63437E436F4365431C0CAD1990
:104D400064199C46A64203D980235B0298464744D7
:104D50006346250CEF191D044B464A4343432D0C73
:104D6000240464199918C91920000CBC904699466E
:104D7000F0BDC046F0B54D46564644465F46F0B4D9
:104D8000924683B004000D0099468B422FD82CD058
:104D90004946504600F0AEF829000600200000F019
:104DA000A9F8331A9846203B9B4600D574E0534639
:104DB0005A4693401F005346424693401E00AF425E
:104DC00029D826D05B46A41BBD41002B00DA79E030
:104DD000002200230092019301235A46934001933D
:104DE000012342469340009319E08242D0D9002229
:104DF0000023009201930C9B002B01D01C605D608E
:104E00000098019903B03CBC90469946A246AB4637
:104E1000F0BDA342D6D9002200230092019343465D
:104E2000002BE8D0FB0772081A4346467B080EE0C9
:104E3000AB4201D1A2420CD8A41A9D4101202419F1
:104E40006D410021013E24184D41002E06D0AB4299
:104E5000EED9013E24196D41002EF8D15B46009831
:104E6000019900196941002B22DB2B005A46D340DF
:104E70002A004446E2401C005B461500002B2CDB58
:104E800026009E40330026004746BE403200801A6E
:104E9000994100900191AEE7424620239B1A524669
:104EA000DA40414613004A468A4017001F4382E712
:104EB000424620239B1A2A0046469A402300F3408C
:104EC0001343D5E74246202300219B1A002200917C
:104ED00001920122DA40019282E742462023260015
:104EE0009B1ADE402F00B446974066463B00334392
:104EF000C9E7C04610B5002903D100F007F82030FB
:104F000002E0081C00F002F810BDC0461C2101237D
:104F10001B04984201D3000C10391B0A984201D39C
:104F2000000A08391B09984201D30009043902A27A
:104F3000105C40187047C0460403020201010101E1
:104F4000000000000000000010B5002200F002F890
:104F500010BDC046130010B50A00190000F002F899
:104F600010BDC04670B583073FD0541E002A3BD009
:104F7000CEB20300032503E0621E002C34D01400DF
:104F800001335A1E16702B42F6D1032C24D9FF256B
:104F90000D402A0215432A0415430F2C11D926006F
:104FA000103E3609013636011A009B19156055600E
:104FB0009560D56010329342F8D10F221440032C33
:104FC0000AD9261FB6080136B6001A009B1920C25E
:104FD0009342FCD103221440002C05D0C9B21C1905
:104FE000197001339C42FBD170BD14000300CCE763
:104FF000F0C041464A4653465C466D4676467EC002
:105000002838F0C80020704710307CC89046994678
:10501000A246AB46B54608C82838F0C8081C00D1DF
:1050200001201847031C0A7801311A700133002A45
:10503000F9D1704710B5830727D00378002B26D00D
:105040000300032102E01A78002A1CD001330B422E
:10505000F9D119680F4A104C8A188A4322420FD19D
:10506000043319680B4A8A188A43224208D1043350
:105070001968084A8A188A432242F1D000E00133B5
:105080001A78002AFBD1181A10BD0300E1E70020AE
:10509000FAE7C046FFFEFEFE808080803132333466
:1050A000353637383941424344454647484A4B4CE8
:1050B0004D4E505152535455565758595A61626388
:1050C0006465666768696A6B6D6E6F707172737420
:1050D00075767778797A5FB16478592A5DB6034539
:1050E000EF9DE00000000000FFFFFF00E001FEC1B7
:1050F000FD387F06DF81FFC47FF3FFBC1FE7E7F1C8
:105100003FF80778000000000E0000000E000000CD
:1051100001000000E450D0C0EC50D0C000000000FE
:10512000FFFFFF00E001FEC1FF387006D8797E9EC8
:105130009FE7E7B901E6C0F13FF8077800000000FB
:105140000E0000000E000000010000001C51D0C045
:105150002451D0C000000000FFFFFF00E001FEC1AD
:10516000FF38600ED8F3FFFC0FF803BEF3E7FC3105
:105170003FF80778000000000E0000000E0000005D
:10518000010000005451D0C05C51D0C04E6F005996
:1051900065730042726F7773657220737570706FFC
:1051A0007274004261636B004D79466163746F6D88
:1051B00057616C6C6574002E636F6D005665727379
:1051C000696F6E00312E312E30006C656467657238
:1051D0000040666163746F69642E6F726700557377
:1051E00065204D465720746F0076696577206163AE
:1051F000636F756E74730053657474696E677300C2
:1052000041626F757400517569742061707000435C
:105210006F6E6669726D0061646472657373004FCE
:105220007574707574203120416D6F756E74004F08
:1052300075747075742031204164647265737300F5
:105240004F7574707574203220416D6F756E7400E7
:105250004F75747075742032204164647265737385
:10526000004F7574707574203320416D6F756E74C6
:10527000004F7574707574203320416464726573D7
:1052800073004F7574707574203420416D6F756EA6
:1052900074004F75747075742034204164647265B5
:1052A0007373004F7574707574203520416D6F7580
:1052B0006E74004F7574707574203520416464728B
:1052C000657373004F7574707574203620416D6F6F
:1052D000756E74004F757470757420362041646467
:1052E00072657373004F7574707574203720416D4B
:1052F0006F756E74004F757470757420372041643B
:105300006472657373004F75747075742038204132
:105310006D6F756E74004F75747075742038204110
:10532000646472657373004F7574707574203920EE
:10533000416D6F756E74004F7574707574203920EF
:1053400041646472657373004F75747075742031B5
:105350003020416D6F756E74004F757470757420D8
:105360003130204164647265737300466565730073
:105370007472616E73616374696F6E000000000087
:10538000C509D0C000000000000000008C51D0C052
:10539000000000000000000000000000C509D0C0AF
:1053A00001000000000000008F51D0C0000000008C
:1053B00000000000000000000000000000000000ED
:1053C00000000000000000000000000000000000DD
:1053D00000000000110AD0C0000000000000000022
:1053E0009351D0C00000000000000000B054D0C0B5
:1053F00000000000010000000851D0C0A351D0C03F
:10540000000000003D280000000000000000000037
:10541000000000000000000000000000000000008C
:10542000000000000000000000000000000000007C
:1054300000000000A851D0C0B751D0C0000000004B
:10544000000000000000000000000000000000005C
:10545000BC51D0C0C451D0C000000000000000000A
:10546000000000000000000000000000CA51D0C091
:10547000D151D0C000000000B054D0C000000000E6
:10548000020000000851D0C0A351D0C000000000AD
:105490003D280000000000000000000000000000A7
:1054A00000000000000000000000000000000000FC
:1054B0000000000000000000000000007851D0C093
:1054C000DE51D0C0E951D0C0210C0000D053D0C073
:1054D000000000000000000000000000F751D0C0F4
:1054E00000000000000000002454D0C000000000B4
:1054F00000000000000000000052D0C000000000CA
:105500000000000000000000B936D0C0000000001C
:105510004051D0C00652D0C000000000321D000033
:10552000000000000000000000000000000000007B
:105530000000000000000000000000000300000068
:1055400000008000200000000100000000000000BA
:10555000FFFFFF000000000000000000000000004E
:10556000000000000000000000000000000000003B
:1055700000000000050003000C0007000700000009
:1055800000000000FFFFFF00000000000000070017
:10559000000000000000000000000000000000000B
:1055A0000000000000000000000000000500750081
:1055B0000D0008000600000000000000FFFFFF00D3
:1055C00000000000000006000000000000000000D5
:1055D00000000000000000000000000000000000CB
:1055E00000000000070100000C0080000C0000001B
:1055F00000000000FFFFFF00000000000880000026
:105600000F52D0C0000000000000000000000000A9
:105610000000000000000000000000000701000082
:105620001A0080000C00000000000000FFFFFF00D7
:1056300000000000088000001752D0C000000000E9
:10564000000000000000000000000000000000005A
:1056500000000000070200000C0080000C000000A9
:1056600000000000FFFFFF00000000000A800000B3
:105670006353D0C0000000000000000000000000E4
:1056800000000000000000000000000007021700FA
:105690001A0052000C008A0000000000FFFFFF000B
:1056A0000000000008801A0001180020000000001F
:1056B00000000000000000000000000000000000EA
:1056C000000000001F52D0C0F01800202F52D0C0A0
:1056D000101900204052D0C0F01800205052D0C005
:1056E000101900206152D0C0F01800207152D0C0B3
:1056F000101900208252D0C0F01800209252D0C061
:1057000010190020A352D0C0F0180020B352D0C00E
:1057100010190020C452D0C0F0180020D452D0C0BC
:1057200010190020E552D0C0F0180020F552D0C06A
:10573000101900200653D0C0F01800201653D0C016
:10574000101900202753D0C0F01800203753D0C0C4
:10575000101900204853D0C0F01800205953D0C071
:10576000101900206B53D0C0301900200300000036
:105770000000800020000000010000000000000088
:10578000FFFFFF000000000000000000000000001C
:105790000000000000000000000000000000000009
:1057A00000000000050003000C00070007000000D7
:1057B00000000000FFFFFF000000000000000700E5
:1057C00000000000000000000000000000000000D9
:1057D000000000000000000000000000050075004F
:1057E0000D0008000600000000000000FFFFFF00A1
:1057F00000000000000006000000000000000000A3
:105800000000000000000000000000000000000098
:1058100000000000070100000C00800020000000D4
:1058200000000000FFFFFF000000000008800000F3
:105830000F52D0C000000000000000000000000077
:105840000000000000000000000000000701000050
:105850001A0080002000000000000000FFFFFF0091
:1058600000000000088000007053D0C0000000005D
:105870000000000000000000000000000000000028
:1058800000000000070200000C0080002000000063
:1058900000000000FFFFFF00000000000A80000081
:1058A00000000000000000000000000000000000F8
:1058B00000000000000000000000000007121700B8
:1058C0001A0052000C008A0000000000FFFFFF00D9
:1058D0000000000008801A00000000000000000026
:1058E00000000000000000000000000000000000B8
:1058F0000000000003000000000080002000000005
:105900000100000000000000FFFFFF000000000099
:105910000000000000000000000000000000000087
:10592000000000000000000000000000050003006F
:105930000C0007000700000000000000FFFFFF0050
:105940000000000000000700000000000000000050
:105950000000000000000000000000000000000047
:1059600000000000050075000D00080006000000A2
:1059700000000000FFFFFF00000000000000060024
:105980000000000000000000000000000000000017
:1059900000000000000000000000000007010000FF
:1059A0000C0080002000000000000000FFFFFF004E
:1059B00000000000088000000F52D0C0000000006E
:1059C00000000000000000000000000000000000D7
:1059D00000000000070100001A0080002000000005
:1059E00000000000FFFFFF00000000000880000032
:1059F000101900200000000000000000000000005E
:105A00000000000000000000000000000380000013
:105A100000008000200000000100000000000000E5
:105A2000FFFFFF0000000000000000000000000079
:105A30000000000000000000000000000000000066
:105A400000000000058103000E00070004000000B4
:105A500000000000FFFFFF000000000000000B003E
:105A60000000000000000000000000000000000036
:105A70000000000000000000000000000582760029
:105A80000E0007000400000000000000FFFFFF0000
:105A90000000000000000C000000000000000000FA
:105AA00000000000000000000000000000000000F6
:105AB0000000000007410E00030064000C0000001D
:105AC00000000000FFFFFF00000000000A8000004F
:105AD00000000000000000000000000000000000C6
