:02000004C0D06A
:10000000F0B595B062B602F01FFD244E244F7D205E
:1000100085002A460C3200241F48214602F0C2FD0A
:10002000304621462A4602F0BDFDB0223846214620
:1000300002F0B8FD0AAD284605F0A2FD288580B281
:10004000002806D01028E2D002F0DAFC002015B01B
:10005000F0BD0AA802F0FBFC02F096FF114803F085
:10006000D9FE007801280ED001AD01202870284368
:100070000021202202F096FD0A4803F0CBFE212247
:10008000294603F009FF012005F0D4FA0648047060
:1000900000F00AFF02F05EF9A81B0020AC19002056
:1000A00040180020C06BD0C000180020F0B5D9B0B7
:1000B0001D4614460F460146A52F79D230A83A4670
:1000C00002F079FD0022002F09D00022D0B230A921
:1000D000085C002803D1521CD0B2B842F6D3049574
:1000E000019478000392D5B2BD42029004462AD210
:1000F000029C039E05970694F0B20021B8420FD2ED
:1001000005990F1A30A90C1800210902207808431C
:100110003A2105F0A5FB20707F1E641C002FF4D14E
:1001200030A8425D25487844405C069C641EE1B2DC
:1001300007AB5854701C002A00D03046C5B2059F4A
:10014000BD420646D7D3E1B2029FB9420DD21C4848
:1001500078440078049B039E07AA515C814206D133
:10016000641CE1B2B942F7D301E0049B039E300660
:1001700010D0144878440078254621463246491E5E
:10018000CBB207ACE054521EFF231A42F7D12C46E3
:10019000A41B049BE0B2391ACEB2B3420BD307A919
:1001A00009180198324602F006FD304659B0F0BDFC
:1001B000022002F0B4FD032002F0B1FD025B00005A
:1001C000D85A0000B45A0000F0B51D6800248D42D2
:1001D00023D846195660AF1D1F602E4626368E4224
:1001E0001BD8C71997601E602F4646378F4214D818
:1001F0008619D6601F602E4666368E420DD8C71906
:1002000017611E608E4208D8805D107567351D60CD
:10021000012403488D4200D00446A0B2F0BDC04680
:10022000126E0000F0B583B000920D46064601AF95
:1002300000243C703A4600F09DFB3A78029201435C
:1002400037204002002906D1009A147002AB3046D4
:100250002946FFF7B9FF03B0F0BD70B514460D464F
:1002600006460020A0612070201D112105F034FCFD
:10027000304629462246FFF7D5FF70BDF0B583B062
:1002800001920C46064602AF00253D703A4600F04A
:1002900071FB014337204002002901D0054616E0DA
:1002A0003978019B1D70A14211D872185A608A1DBD
:1002B000A2420CD8B2189A600A462632A24206D848
:1002C000B25C1A73273111300125A142E6D1A8B2E0
:1002D00003B0F0BD80B500231361536093601373C6
:1002E0001370FFF7CBFF80BDF0B58BB01F461446EF
:1002F0000D46064639680023A94212D8701860607E
:10030000881D3860A8420CD8325C05942274C81D40
:100310003860374C0A2A01D9204603E00494A842E9
:1003200003D9184680B20BB0F0BD345C0598447414
:1003300008460830039038600498401C0A2CF1D815
:100340000398A8421846EDD80398335C0598837447
:10035000093139600498801C0A2BE3D800200990E9
:1003600008906846476008A90160059B2033304625
:10037000294600F03FF80128D4D1002007900390CF
:100380000690059B5A7C6846476006A90160C03309
:100390003046294600F02EF80128C3D1059B9A7CEF
:1003A0006846476006A901600B2040011B183046D3
:1003B000294600F01FF80128B4D10699089A0120B7
:1003C0008A42064600D9039E079D099BAB42049CC6
:1003D00000D90398AB4200D00646E01D002EA1D103
:1003E000501AAB4105998861CB6101209AE7C0465C
:1003F000016E0000F0B58BB01C4605460120069248
:10040000002A42D001901198109A04922246083294
:1004100002920990036800271F48089007970591EA
:10042000039528460AAD079A2A70C018C91A0822EF
:10043000082900DB11462A4600F09CFA03C4099EF5
:1004400032682B785BB2D218326005460D43089BA8
:10045000DB1C083C002D1BD0049E28CE083E18183B
:100460004D4121C61346203305998B420FD8039D79
:10047000A8183A01029EB0500998036010347F1CFE
:1004800006988742CDDB019B02E0034600E0089B13
:1004900098B20BB0F0BDC046046E0000F0B583B05A
:1004A00014460D46064601AF0020387030463A46E5
:1004B00000F060FA02463878029002235A400A435C
:1004C00037204002002A06D1237002AB304629466D
:1004D0002246FFF709FF03B0F0BDF0B581B0044636
:1004E000201D0F2105F0F8FA9F20C0430646A719EA
:1004F000C42100227A50C023FA50C8257A51103600
:10050000F5D1164607469F377743E7197A50FA50D8
:100510007A51103E3746A037F4D10B204001201805
:100520000A2100220260426082601030491EF8D128
:1005300001B0F0BD70B514460D4606462046FFF7E3
:10054000CCFF304629462246FFF7A8FF70BD0000C9
:10055000B0B503461F2A28D91878412808D0212889
:100560001FD1481C09332022194602F024FBB0BDDC
:100570001A7A7F20C0436D30C4B28020A24210D0CE
:100580001A4648320024151B2D780D55641C202C6A
:10059000F9D128229A5CD20702D0CA7F0243CA77D7
:1005A000B0BDD520C00102F0BAFB014802F0B7FB94
:1005B000ED600000F0B581B00346202A31D901205A
:1005C00008701878412808D0212826D1481C093302
:1005D0002022194602F0EFFA1DE01A7A7F20C0436C
:1005E0006D30C4B28020A24217D01A46483200248F
:1005F000E443254626466E4357197F788F556D1E76
:100600002E462136F6D128229A5CD20703D020222A
:100610008B5C03438B5401B0F0BDD520C00102F0C8
:100620007EFB014802F07BFBED600000F0B59BB063
:1006300000910146042A26D25000154A7A44105AE5
:1006400009AD2880A81C2026324602F0B4FA2221E7
:1006500013AF28463A46334603F07EFC01AC3846D9
:1006600031462246334603F077FC284622300422E6
:10067000214602F0A0FA262134232846009AFFF7EB
:1006800015FD1BB0F0BD014802F049FB02940000CB
:1006900038560000F0B59DB0064605240220042A15
:1006A00000D00446002A019109D0042A21D1E5B2E4
:1006B0000AA82C4979442A4602F07DFA21E050002C
:1006C00027497944085A0AA90091088071680836B8
:1006D00015AF202530463A462B4603F03DFC02225A
:1006E00000980243384629462B4603F035FCE5B214
:1006F0000FE02FD250001C497944085A0AA90880FB
:10070000E5B20AA8401972680836314602F053FA79
:1007100015AF2024294621430AAE30463A462346E7
:1007200003F01AFC384602AF21463A46234603F04E
:1007300013FC701920300422394602F03CFA284696
:100740002430C1B23235EBB23046019AFFF7AEFC2D
:100750001DB0F0BD014802F0E2FAC046029400006C
:10076000B2550000C85500007C550000F0B583B0BC
:1007700014460D46064601200290012D0AD130781C
:10078000302807D10020022B71D3302020700020A8
:10079000607066E0089FAF4227D2EA1BA91C0020C8
:1007A000994264D80021002A0BD0304601921146AC
:1007B000234602781A70401C491E5B1C0029F8D1A0
:1007C0000199002F084602D02E206054481CA942EF
:1007D00049D2221873186E1A45191F781770521CC7
:1007E0005B1C761EF9D1691A1DE0791BFA1C0020EA
:1007F0009A423CD8302020702E20607002200029C0
:1008000005D0A01C302205F06DF9B81C401B002D4E
:1008100029D021182A4633780B70491C521E761CA9
:10082000002AF8D1411900236354884219D2255C6B
:10083000002B024600D01A460023302D00D01A4665
:10084000401C81421346F2D1002A0AD00020A05455
:10085000A118C2438A5C491E2E2A029A06D108704A
:1008600004E0029803E0029A00212154104603B0EC
:10087000F0BD0000F0B595B00293039207900843D5
:1008800000270028019746D00023012508951C4623
:100890001E460F460A22284621461C4605F006F849
:1008A000234605460C4607988542089800D9184605
:1008B00039468C42089A00D91A468C4200D010461C
:1008C0003246561C0028E4D1132E4CD80027002EA7
:1008D00021D00020C743059104920A2208920023E8
:1008E00006932846214604F0C1FF05460C460798AA
:1008F00005992A46234604F0B9FF089A069B04F09E
:10090000B5FF3020104310A9C91948707F1C049806
:10091000B842E2D1374610AD0198E85509AC13A1B1
:100920000422204602F047F9082069460860221D8B
:10093000192328463946FFF719FF204605F042F9EA
:100940000299491E884205D209A9039C204605F058
:1009500031F902E00020039C2070204605F032F9B6
:1009600080B215B0F0BD012002F0D9F94643542001
:1009700000000000F0B581B0009104460021084657
:10098000002C17D0002A15D00025157028462946BE
:10099000EEB2A75D6D1C1570430EC90119437F238C
:1009A0003B40C0011843EBB2009FBB4202D2A357A9
:1009B000002BEDDB01B0F0BD80B5044900200870CC
:1009C00003497944024602F07FFF80BD00180020F1
:1009D0008E56000001480121017070470018002068
:1009E00070B505466878012400281FD0411E104AC2
:1009F0001268012400238A4200D01C468A4215D185
:100A00007D26310101280FD002280FD10721284669
:100A100002F070FCF60080190649884204D30721D1
:100A2000284602F067FC811903484161204670BDE9
:100A30003C180020B80B000040180020F0B583B02F
:100A4000044660780125002800D13CE17D26F100B4
:100A500002919E4F3968421E012591420CD001221D
:100A600000230128154600D81D46002900D10A465A
:100A70001540002D00D126E1122808D0022806D00A
:100A8000012800D01FE19948029941611BE190487B
:100A90003822214602F08FF839684B1E14200027B7
:100AA0000A2913DD0F291CDD122936DC102954D048
:100AB000112900D1D8E0122900D0F2E08549096A55
:100AC00008271123002900D080E0D2E0052913DC9B
:100AD00002292BDD032947D004294BD005294FD00B
:100AE000DFE00C2927DD0D2900D1B3E00E294DD020
:100AF0000F2900D1B3E0D4E0072929DD08294CD023
:100B0000092900D19CE00A2900D0CAE0714909698D
:100B100004270923002959D197E0132900D1A8E01F
:100B2000142941D0152900D1B0E0BAE0012942D002
:100B300002294BD0B5E00B2900D186E00C2900D06A
:100B4000AFE06449496905270B2300293ED181E0C4
:100B5000062935D007296ED0A3E05E49C969072769
:100B60000F23002932D17FE05A494A680223002A24
:100B700006D083E05749496801270323002925D17E
:100B800054498A680423002A78D154E0514989697C
:100B900006270D23002919D161E04E49C9680327B2
:100BA0000723002912D14BE04A49496A0927132338
:100BB00000290BD16AE047480268002A5ED105E0AF
:100BC0004449896802270523002934D0B8004149E7
:100BD000085800282DD04148002538222946019385
:100BE00001F0E0FFB8003B49085880683C49CA5D05
:100BF0003A49FFF71BFD3B4F20223846294601F0BA
:100C0000D1FF0A223846354D294601F0D4FF384637
:100C10000A3035A1022201F0CEFF284604F0D2FFAF
:100C20002818011F0C370422384601F0C4FF019830
:100C30002CE018462AE02749CA680623002A1DD15D
:100C400024490A690823002A18D122494A690A233B
:100C5000002A13D11F498A690C23002A0ED11D498D
:100C6000CA690E23002A09D11A490A6A1023002AE8
:100C700004D118494A6A1223002A07D05168106823
:100C8000154A1F462023FFF7F5FD3846C0001849D6
:100C900079440818617889083C220A4080580C4938
:100CA000C8610B4D0721284602F024FB029C001965
:100CB000010930017D2904D30548072102F01AFB00
:100CC00000190A494861284603B0F0BD3C180020CD
:100CD0004019002078190020F01800200118002089
:100CE000A0190020101900202E2E0000401800200E
:100CF000D4550000F0B581B00546204800780024A6
:100D0000002802D0204601B0F0BD687801240028F8
:100D1000F8D0431E1A490A68012400269A4200D0DE
:100D200034469A42EED17D23DE001B01154F022886
:100D300014DD032803D004280DD00528E2D10721B3
:100D4000284602F0D7FA8019B84204D30721284672
:100D500002F0D0FA87190C484761D3E7012805D083
:100D60000228CFD109480078002802D00648436104
:100D7000C8E7501C08600024C4E7C04600180020E3
:100D80003C180020B80B000040180020AA190020D1
:100D9000F0B581B0054668780124002832D0431EA2
:100DA0001A490A68012400269A4200D034469A4221
:100DB00028D17D23DE001B01154F022814DD0328F6
:100DC00003D004280DD005281CD10721284602F0A5
:100DD00091FA8019B84204D30721284602F08AFA12
:100DE00087190C4847610DE0012805D0022809D178
:100DF00009480078002802D00648436102E0501CF0
:100E000008600024204601B0F0BDC0463C18002018
:100E1000B80B000040180020AA190020F0B581B0DE
:100E2000054668780124002832D0431E1A490A6812
:100E3000012400269A4200D034469A4228D17D23CC
:100E4000DE001B01154F022814DD032803D00428FF
:100E50000DD005281CD10721284602F04BFA801935
:100E6000B84204D30721284602F044FA87190C48F7
:100E700047610DE0012805D0022809D10948007812
:100E8000002802D00648436102E0501C086000249C
:100E9000204601B0F0BDC0463C180020B80B000051
:100EA00040180020AA19002080B5084800210170D0
:100EB00007480078002802D00649794401E0064935
:100EC00079440020024602F0FFFC80BDAB190020EF
:100ED00000180020425100009051000010B500F0B1
:100EE00011F8074990220A54091800244C70801CFC
:100EF00081B2202002F088FAFFF7D6FF204610BD0D
:100F0000341E0020F0B581B01F4C62681F4F3A704C
:100F1000781C2146083101F04EFE65687E194C347C
:100F2000204604F04FFE7070AE1CBD19204604F040
:100F300049FE02462846214601F03DFE204604F0C7
:100F400041FE8419104EA420305C00280AD00F48BE
:100F50000546281931468431202201F02CFE203428
:100F6000294600E00949A520305C002809D00D1968
:100F7000074802F04FFF411C2022284601F01BFECB
:100F80002034204601B0F0BDAC190020341E0020F2
:100F9000C06BD0C080B50B4988420ED00A49884248
:100FA0000DD10A486921017085214170202002215C
:100FB00002F02AFAFFF778FF01E0FFF78FFF002029
:100FC00080BDC0460200008001000080341E002069
:100FD000F0B5A3B02C4B5A78002468460460191D64
:100FE0001F462120079013AE334603F037F8412007
:100FF00006902022089209AD31462B4602F0DAFF16
:1010000040223046214601F0CDFD1F200001385816
:1010100069464C61972252000A611C4A2332CA6019
:101020008C6011C13B462C330126052228463146EF
:1010300002F0F0FF0746069813492A46334602F0AD
:10104000D1FF28222846214601F0ACFD380A079A34
:101050000E49885422200F540B480D46FFF7AAFA78
:101060003846233080B2902129543846243080B24B
:101070002C542537B9B2089802F0C6F9FFF714FFCF
:10108000204623B0F0BDC046AC190020341E00201D
:10109000F0B5A3B02C4B5A78002468460460191DA3
:1010A0001D462120089013AE334602F0D7FF4120A1
:1010B00006902022079209AF31463B4602F07AFFA4
:1010C00040223046214601F06DFD1F2000012858C6
:1010D00069464C61FF2230320A611C4A2232CA60E2
:1010E0008C6011C12B462C33012505223846294638
:1010F00002F090FF0646069813493A462B4602F046
:1011000071FF28223846214601F04CFD300A079D28
:101110000E49485508980E540B480F462A46FFF7CB
:1011200017FA3046223080B29021395430462330AD
:1011300080B23C542436B1B2284602F065F9FFF77C
:10114000B3FE204623B0F0BDAC190020341E0020B1
:10115000F0B5A5B0344B5A78002468460460191DD8
:101160001F462120089015AE334602F077FF41203C
:101170000690202209920BAD31462B4602F01AFF51
:1011800040223046214601F00DFD1F20000107904E
:101190003E46305869464C61FF2230320A61234A8C
:1011A0002232CA600A948C6011C12C3601240522B7
:1011B00028462146334602F02DFF074606981A4975
:1011C0002A46234602F00EFF282228460A9901F0FB
:1011D000E9FC380A099A1549885408980F541248AE
:1011E0000C46FFF7B5F93846223080B2079D0E490C
:1011F0004A5922542337B8B22018314601F0DBFC9B
:1012000009484059C01981B290226254411C89B2E8
:101210000A9D6554801C81B2099802F0F5F8FFF729
:1012200043FE284625B0F0BDAC190020341E002036
:10123000B0B58AB001AD0120287028430C492024A4
:10124000224601F0B8FC0B4802F0E4FD21222946B9
:1012500002F022FE0848902101700025457002210D
:10126000204602F0D1F8FFF71FFE28460AB0B0BDB5
:10127000AC190020C06BD0C0341E002080B50B49D3
:1012800088420ED00A4988420DD10A48692101706E
:10129000852141702020022102F0B6F8FFF704FEFC
:1012A00001E0FFF795FE002080BDC04602000080EF
:1012B00001000080341E002080B50B4988420ED00A
:1012C0000A4988420DD10A4869210170852141707F
:1012D0002020022102F098F8FFF7E6FD01E0FFF779
:1012E000D7FE002080BDC0460200008001000080C3
:1012F000341E002080B50D490978002903D0FFF77E
:1013000027FF002080BD0A498842F8D00949884259
:10131000F7D10948692101708521417020200221FF
:1013200002F072F8FFF7C0FDEBE7C046001800209E
:101330000200008001000080341E002080B50B49AF
:1013400088420ED00A4988420DD10A4869210170AD
:10135000852141702020022102F056F8FFF7A4FDFC
:1013600001E0FFF765FF002080BDC046020000805D
:1013700001000080341E0020B0B50546072028403B
:101380000024012813D0022813D1002908D00A48CC
:1013900002F0D6FE68B2002809DA02F069FD06E024
:1013A000FF2152310448002202F0F6FE0446204696
:1013B000B0BD022001F0B3FC341E0020F0B5ADB08A
:1013C0000C460346511CD520C0011678721ED2B2BD
:1013D0000A2A00D308E1022B00D302E1012C00D934
:1013E000FFE00693339801903298039011A832469B
:1013F0000B781B064D782D041D438B781B022B4365
:10140000CD781D4320C0091D521EF1D112980490C1
:101410007D20820079480025294601F0C3FB012C7C
:10142000079500D12546A421744A555410468430AE
:10143000012C00D0079869460860212011A925AD2C
:10144000029032462B4602F009FE412420271BAEB3
:10145000204629463A46334602F0ACFD0123204699
:1014600066493246059302F0BDFD28223046079EAC
:10147000314601F097FB284631463C463A4601F09A
:1014800091FB5F490420049A8A42114600D03046FD
:10149000C9B20226842900D00646002E18D0022E9A
:1014A00001D0042E29D108AD544F3846294627468D
:1014B0003A46FFF74DF8514C0834002141222046AE
:1014C00001F070FB4D484760204629463A4612E03D
:1014D00008AF4A483946029C2246FFF76BF8474D51
:1014E000083500214122284601F05CFB4348446056
:1014F00028463946224601F05EFB0021042E059A5B
:1015000000D00A46A5203D4D2A542C464C343822A2
:10151000204601F047FBF2B228462146FFF7BAF811
:101520000698002862D03748002707706846046094
:1015300037233420042E00D003463348382433A206
:10154000214602F051FA3348076033480221016016
:10155000324D344878442860072068603248784427
:10156000286132487844E86003202876EF612846F5
:10157000183002F0A1FDE86102F034FA01F024FD18
:1015800001F028FDAF602868002823D0E8692449CD
:1015900088421DD11EE0686887421BD202F0E6FD3A
:1015A000002817D1A868E96860432A681018002944
:1015B00002D08847002807D0012803D1A8686043DB
:1015C0002968081801F054FEA868471CAF60286815
:1015D0000028E0D1039A10681021014311602DB05A
:1015E000F0BD803001F09BFB01F099FBFFF78AFC16
:1015F000019908600920000301F091FBAC1900205B
:1016000088888888AB1900200118002020252E2A00
:10161000732000003C180020A01B00204018002070
:10162000445010B0884B000033FAFFFF79F4FFFFFD
:1016300080B501F01DFE80BDF0B581B00026F443F9
:1016400007980090254627466F430D4802F0E2FBBD
:10165000C05D86196D1E28462130F4D10120002E70
:10166000014600D13146074A117050709070D07019
:101670000420009908600920000301F050FBC046D7
:10168000C06BD0C0341E0020F0B587B01D46069256
:101690000D9A00241460E1235E00D523DB0180282D
:1016A00004920591039345D0002800D00DE10194E8
:1016B000029632463232914E00273046394601F0CA
:1016C00071FA069804787470611EC9B20A2900D3B1
:1016D00010E16B1E411C8A480690BD007519324608
:1016E0000E7836064878000430438E78360206437A
:1016F000C87830431646686098B2069BC318091D27
:101700007F1CA742E9DB0698C21C1A401F2000017B
:10171000325098B2029B984200D9E1E030462C301A
:1017200001F049FA307A8328019C00D0E2E00120E0
:10173000307015E03346714E3078012800D0C4E097
:101740001F200701F0594119994200D9CCE0301807
:101750002C3006992A4601F02EFAF0594019F05122
:101760000598002800D1B4E0644804701F210901E5
:1017700041582C30634F3A46FEF7DCFE012800D07A
:10178000A9E0397C6048002900D1A4E0797CBA7CCA
:1017900051180B2900D3A0E05C48202521462A4699
:1017A00001F000FA5A4821462A4601F0FBF9594E49
:1017B0002821304604F090F9574D0220059028600A
:1017C00056480460B869F969554A10230693FFF733
:1017D00051F8787C002810D04A49C0312A68921C00
:1017E0000023504F1C463B55A50071514A4D2A60BD
:1017F0001031921C641C8442F5DB3746414B987CC7
:101800000028059E13D0474909190B2252019A1846
:10181000A300FB182C68A41C0027CE55BD005A510C
:101820003D4D2C601032A41C7F1C8742F5DB0C9CC4
:101830003D4E3F4878443060072070603D48784412
:1018400030613D487844F060032030760025F56132
:101850003046183002F030FCF06102F0C3F801F0BD
:10186000B3FB01F0B7FBB5603068002824D0F06905
:101870002E4988421ED11FE0706885421CD202F0BA
:1018800075FC002818D1B068F168382568433268C3
:101890001018002902D08847002807D0012803D15A
:1018A000B06845433068401901F0E2FCB068451C5F
:1018B000B56030680028DFD12068069908432060B1
:1018C00000200499086007B0F0BD0398803001F053
:1018D00026FA0920000301F022FA0F3001F01FFA66
:1018E0000398001D01F01BFA3233044800211A4608
:1018F00001F058F9039801F012FAC046AC19002023
:10190000FCFF0000A81B0020016E00001019002041
:10191000F018002078190020A01B00203C1800209F
:1019200030190020A019002040180020445010B0A9
:10193000D84A00003BFAFFFFF5F1FFFFF0B581B098
:10194000202B5CD1079D069E2F482024114622465D
:1019500001F031F92D482EA2214602F045F8304819
:10196000002707602F4807602F4C314878442060DB
:10197000052060602F48784420612F487844E0605B
:1019800003202076E7612046183002F095FBE061E5
:1019900002F028F801F018FB01F01CFBA76020689A
:1019A000002824D0E069214988421ED11FE06068E8
:1019B00087421CD202F0DAFB002818D1A068E16847
:1019C0003827784322681018002902D08847002859
:1019D00007D0012803D1A06847432068C01901F04F
:1019E00047FCA068471CA76020680028DFD130684A
:1019F0001021014331600020286001B0F0BDD520E6
:101A0000C00101F08CF9C046AC190020101900206B
:101A100053746F726520436861696E2049443F00CA
:101A2000A01B00203C18002040180020445010B09B
:101A3000584D0000C3F9FFFF9DF4FFFFF0B583B0E0
:101A40001F4615460E46E1214A00D521CB018028CC
:101A5000029640D001950093002800D0BCE03232BD
:101A6000684D00242846214601F09CF80198007832
:101A70006870411EC9B20A2900D3AAE07F1E6249DC
:101A80000F4200D1A5E00199491C604AA3005D4DB9
:101A9000EB180D782D064E7836042E438D782D02E6
:101AA0003543CE782E435E60BBB29F18091D641C7F
:101AB0008442EBDB53480446A068554B98422046CD
:101AC00000D086E004230370D21C17402C303A4625
:101AD00001F071F813E04B4C2078042800D083E02B
:101AE0001F200601A059C119914200D980E0201899
:101AF0002C3029463A4601F05EF8A059C719029ADF
:101B00001F2001013F484750002A69D0099C002549
:101B1000057040482021454A7A4401F065FF3E485F
:101B200005603E4805603E480078002802D0FFF777
:101B30000FFB4BE0089802903A4F3D4878443860DC
:101B4000052078603B48784438613B487844F86029
:101B500003203876FD613846183002F0ADFAF8619E
:101B600001F040FF01F030FA01F034FABD6038684E
:101B7000002826D0F8692C49884222D0002820D09D
:101B80002846796888421CD202F0F0FA002818D161
:101B9000B868F968382670433A681018002902D0EE
:101BA0008847002807D0012803D1B8684643386821
:101BB000801901F05DFBB868401CB86039680029E5
:101BC000DFD1029A1068102101431160256003B033
:101BD000F0BD009801F0A3F80098803001F09FF864
:101BE0000920000301F09BF88033184601F097F8B4
:101BF0003232044800211C4600F0D4FF204601F098
:101C00008EF8C046AC190020FFFF0000FCFF00006A
:101C10008888888810190020A01B00203C1800200C
:101C20000018002040180020445010B02D4400003F
:101C3000584900006FF7FFFF41F2FFFFF0B5D7B042
:101C40001C46164608912721C90007916B210F02F7
:101C5000802853D0002800D06AE10597B84F0025AE
:101C600038462946079A00F09DFF09A820222946F8
:101C700000F098FF3278BA70511EC9B20A2900D319
:101C800059E1641E761CAF48A900AD4B59181746A0
:101C90003278120673781B041343B27812021A4387
:101CA000F37813433A464B60A1B20C18361D6D1CF5
:101CB0009542E9DB04900121089803910840A04D6A
:101CC000687009A8002120220691029200F06AFFA4
:101CD000A8689D4988422ED09C4988423AD109ADD6
:101CE0009BA10222284600F066FFAA4979441122EE
:101CF0002846934D00F05FFF13202AE090480178BA
:101D0000032900D014E108994A08012111404278C2
:101D1000012A04D140226B460546F83503E0202213
:101D20006B46054698351D605A602C303246234676
:101D300002F0E0F851E009AD86A10322284600F048
:101D40003AFF99497944112228467D4D00F033FF2E
:101D5000142006906878012819D12F462C35284682
:101D600002F012F9069B002B0AD0402069463A4641
:101D7000F8320A604860002109AA284602F0BAF841
:101D8000402069463A46F8320A60486016E02C3531
:101D9000284602F0CBF8069B002B029F08D068462D
:101DA0006749983182C0002109AA284602F0A2F8AA
:101DB000684663490A46983182C017460898410828
:101DC000039801400498C01C04402846324623462C
:101DD00002F090F803203870059F0898800700D41F
:101DE0009AE009AD564C28462146079E324600F03F
:101DF000E2FEBC3600212046324600F0D3FEA87831
:101E00006070201D291D282200F0D5FE6878012869
:101E100007D11F200001402222502C3409A9F8319B
:101E200006E01F200001202222502C3409A99831FD
:101E3000204600F0C0FE0B984349884207D046492F
:101E400088426DD145482021534A7A4402E04348F4
:101E5000202147A201F0C8FD5D9C4948002505608E
:101E600048480560484800783B490B9A8A4204D1AB
:101E7000002802D0FFF76CF94BE05C980890434FC4
:101E80004648784438600520786045487844386191
:101E900044487844F86003203876FD6138461830AD
:101EA00002F00AF9F86101F09DFD01F08DF801F0F2
:101EB00091F8BD603868002826D0F8693449884216
:101EC00022D0002820D02846796888421CD202F00F
:101ED0004DF9002818D1B868F968382670433A6877
:101EE0001018002902D08847002807D0012803D104
:101EF000B86846433868801901F0BAF9B868401CE0
:101F0000B86039680029DFD1089A106810210143B0
:101F10001160256057B0F0BD0920000300F0FFFEFE
:101F20000A49884204D10D4820210DA201F05CFD30
:101F3000384600F0F4FE0598803800F0F0FEC04608
:101F4000AC190020FCFF00008300008084000080AA
:101F500045430000464354008888888810190020B3
:101F60005369676E20772F454320416464720000F7
:101F70005369676E20772F46435420416464720092
:101F8000A01B00203C180020001800204018002052
:101F9000445010B0763F0000FB4000002A4700008C
:101FA00065F4FFFF5FEEFFFF1E3F0000F0B58DB050
:101FB0001D461446139A002303931360E1235E0029
:101FC000D523DB0180280292049145D0009300289C
:101FD00000D0CFE0019632463232754F00263846A7
:101FE000314600F0DFFD20787870411EC9B20A2921
:101FF00000D3C3E06B1E611C6E4A0592B4003C190D
:102000000D782D06024638464F783F042F438D78D1
:102010002D023D43CF782F436760074610469BB2A1
:10202000059A9B18091D761C8642E7DB0598C21CA1
:102030001A401F2000013A5098B2019B984200D9E3
:10204000A3E038462C3000F0B6FD387A842800D062
:1020500094E00220387017E055480078022800D03C
:1020600097E01F2007015248C0594119B14200D9D9
:1020700093E04F490E4630182C3021462A4600F096
:102080009AFDF0594019F05104990220014278D08C
:102090004748039A0270C9070CD11F210901415812
:1020A0002C3006AAFEF716F901286CD142482021EF
:1020B00045A20BE01F21090141582C3006AAFEF76A
:1020C000CCF801285FD13C4820213CA201F08CFCD7
:1020D000129C4048002606603F4806603F4D41483C
:1020E00078442860052068603F48784428613F486C
:1020F0007844E86003202876EE612846183001F025
:10210000DBFFE86101F06EFC00F05EFF00F062FFB3
:10211000AE602868002824D0E869314988421ED181
:102120001FE0686886421CD202F020F8002818D10F
:10213000A868E968382670432A681018002902D078
:102140008847002807D0012803D1A868464328689B
:10215000801901F08DF8A868461CAE602868002838
:10216000DFD120681021014321600020029908601E
:102170000DB0F0BD0098803000F0D1FD009800F067
:10218000CEFD0920000300F0CAFD0098001D00F0FC
:10219000C6FD8033184600F0C2FD323604480021E7
:1021A00032461C4600F0FEFC204600F0B8FDC0465A
:1021B000AC190020FCFF0000101900205369676E65
:1021C00020436861696E3F005369676E20456E74F5
:1021D00072793F00A01B00203C180020401800200E
:1021E000445010B0CC44000007F2FFFF01ECFFFFA9
:1021F000F0B58DB00C46054602AF384603F0C0FC82
:1022000006463E854F48064216D002A800210185A9
:102210000F2000033040310ACDB209210903884262
:102220002DD003214903884223D101204202464890
:10223000002100F0B7FC22E002A800F008FC444AAC
:102240001078E0286DD15078801E0121C8410828FF
:102250002DDC01283BDC002845D001286ED1137904
:10226000D17890786E4635607460521DFFF70CFA95
:102270000EE0364806400D20C0020643350A2068AD
:1022800033490D542068081846702068801C20606F
:1022900000F04AFD02A9884203D100F047FD00F09A
:1022A000D6FB02A8008D00283DD10DB0F0BD092855
:1022B00023D00A282BD00B2840D11379684605601B
:1022C0004460521D00200146FFF738FBE0E7082874
:1022D0002BD11379D17890786E4635607460521D99
:1022E000FFF764FED4E7D17890786B461D605C60A0
:1022F000521D0023FFF762F8CAE71379D17890786E
:102300006E4635607460521DFFF798FCC0E7137984
:10231000D17890786E4635607460521DFFF78EFB61
:10232000B6E73720400200F0FAFC022806D16846E2
:102330004460002001460346FFF77EF96D2000024D
:1023400000F0EDFCFFFF0000A81B0020FF070000CD
:10235000341E0020F0B58FB000260E960D960C9618
:10236000324F304C0BA806806D46284603F008FC1F
:1023700028852B49084215D069460E850F2109038F
:10238000014009221203914223D0032252039142B9
:1023900022D10BA90880012042020021204600F032
:1023A00001FC20E0684600F052FB0D980E900025DD
:1023B0000D950C980E99C0B289B201F025F80E90D7
:1023C0000C950E98002828D00CA80DA9FFF710FF37
:1023D00014E00BA9088006E0134908400D21C9024A
:1023E00001430BA801800B98000A0D9978540B98B3
:1023F0000D99791848700D98801C0D9000F094FC90
:102400006946884203D100F091FC00F020FB684649
:10241000008D0028A6D000F082FC054800F07FFC6B
:10242000FFFF0000A81B0020FF070000341E002053
:1024300082690000F0B585B0F04D2878F04F0C2887
:1024400010DD0D287BD00E2800D1B8E0152835D13D
:10245000EC480078012831D1A87900072ED410204B
:1024600000F05DFC052800D1EBE00C2826D1F94CEA
:10247000012020760026E6612046183001F01CFE7F
:10248000E06101F0AFFAE069F349884200D150E21F
:10249000002800D14DE2EE49884200D0DEE100F094
:1024A00093FD00F097FDA6602068002800D140E26F
:1024B000E069E949884200D031E13AE2E54C012087
:1024C00020760025E5612046183001F0F5FDE06139
:1024D00001F088FAE069B84200D0D8E000F074FD5D
:1024E00000F078FDA5602068002800D121E2E069B5
:1024F000D949884220D11CE26068854200D318E2A5
:1025000001F034FE002800D013E2A068E16838250D
:10251000684322681018002902D08847002807D095
:10252000012803D1A06845432068401900F0A0FEAF
:10253000A068451CA56020680028DDD1F9E1C54CE4
:10254000012020760025E5612046183001F0B4FD19
:10255000E06101F047FAE069BF49884200D1E8E153
:10256000BB49884200D13BE1002800D1E1E120686D
:10257000002800D1D7E1A0686168884200D3D2E189
:1025800001F0F4FD002800D0CDE1A068E168382515
:10259000684322681018002902D08847002807D015
:1025A000012803D1A06845432068401900F060FE6F
:1025B000A068401CA06021680029DDD1B3E1A54CD2
:1025C000012525760026E6612046183001F074FDCD
:1025D000E06101F007FAE369BB4200D0C5E000F01A
:1025E000F3FC00F0F7FC0020A0602168002900D176
:1025F0009FE1E169984A914220D19AE1616888425D
:1026000000D396E101F0B2FD002800D091E1A0686E
:10261000E1683825684322681018002902D08847ED
:10262000002807D0012803D1A0684543206840193D
:1026300000F01EFEA068401CA06021680029DDD1CA
:1026400077E1EA4C012020760026E661204618302A
:1026500001F032FDE06101F0C5F9E069E44988422A
:1026600000D166E1002800D163E1DF49884200D053
:102670002EE100F0A9FC00F0ADFCA6602068002867
:1026800000D156E1E069DA4988426BD151E1206816
:10269000002800D147E1A0686168884200D342E188
:1026A00001F064FD002800D03DE1A068E168382514
:1026B000684322681018002902D08847002807D0F4
:1026C000012803D1A06845432068401900F0D0FDDF
:1026D000A068401CA06021680029DDD123E160686A
:1026E000864200D325E101F041FD002800D020E121
:1026F000A068E1683825684322681018002902D0D4
:102700008847002807D0012803D1A06845432068E6
:10271000401900F0ADFDA068461CA66020680028A6
:10272000DDD106E16068864200D302E101F01EFDC2
:10273000002800D0FDE0A068E168382568432268E1
:102740001018002902D08847002807D0012803D19B
:10275000A06845432068401900F08AFDA068461C27
:10276000A66020680028DDD1E3E06069002808D079
:1027700064216428024600D30A46801A606100D1B1
:10278000E0E09B48834200D1D3E0002B00D1D0E0B1
:102790002068002800D1C6E0A0686168884200D3A4
:1027A000C1E001F0E3FC002800D0BCE0A068E168D3
:1027B0003825684322681018002902D0884700286D
:1027C00007D0012803D1A06845432068401900F0D4
:1027D0004FFDA068401CA06021680029DDD1A2E067
:1027E00000F0F2FB00F0F6FBA5602068002800D1A5
:1027F0009FE0E0697E49884226D19AE0A81D00202A
:10280000555010B0901F00206068854200D390E0C2
:1028100001F0ACFC002800D08BE0A068E16838250E
:10282000684322681018002902D08847002807D082
:10283000012803D1A06845432068401900F018FD25
:10284000A068451CA56020680028DDD171E0C04665
:10285000555010B040180020445010B0A08804908B
:1028600020680390EE79AB796F792A79ED78E16889
:1028700068460560416012023A431B0233430398E5
:10288000049900F027FC206800284CD0A0686168FB
:10289000884248D201F06AFC002844D1A068E1686F
:1028A0003825684322681018002902D0884700287C
:1028B00007D0012803D1A06845432068401900F0E3
:1028C000D7FCA068401CA06021680029DFD12AE065
:1028D0002069002803D0E978490800F037FD206816
:1028E000002820D0A068616888421CD201F03EFC1C
:1028F000002818D1A068E1683825684322681018BC
:10290000002902D08847002807D0012803D1A068F9
:1029100045432068401900F0ABFCA068401CA06053
:1029200021680029DFD16068A168814201D301F0EC
:102930001DFC01F01BFC002801D100F0FDF9012075
:1029400005B0F0BD2A488342F3D0002BF1D02948CE
:102950000178294A1068002903D0002801D11560A8
:10296000284626490968002900D10AE7401C1F466D
:10297000154602F075FF296000F026FB00F02AFBE7
:102980003B46A6602068002800D1FAE6E0691849B5
:10299000884200D1F5E6002800D1F2E66068864260
:1029A00000D3EEE601F0E2FB3B46002800D0E8E66B
:1029B000A068E1683825684322681018002902D011
:1029C0008847002807D0012803D1A0684543206824
:1029D000401900F04DFCA068461CA6602068002845
:1029E0003B46DBD1CDE6C046555010B04018002024
:1029F000445010B0AB1900203C180020A01B002050
:102A000010B58CB001AC204603F0BAF820850D4912
:102A1000084206D101A800F01AF80020C04301F0D6
:102A200035FB00F081F901A9884203D100F07EF95D
:102A300000F00DF801A8008D002801D10CB010BDE8
:102A400000F06DF9FFFF00000020814670478146CD
:102A500070470000F0B581B000920F460546484B24
:102A60009F420FD0464C40262046314603F034F8B2
:102A700000984028024600D332462046394600F0EE
:102A80009AF83F4B987801280BDC00282BD00128BE
:102A900069D1D81C04211C4601F014FA40212046BB
:102AA0002CE0022828D005285DD11879D9780902B0
:102AB0000143344A1068002481425AD1324E0098B2
:102AC0008019071F106800281BD014463946314072
:102AD0002E480268914200D907683A4632402C4895
:102AE0000068591D31E000249C715C711C71DC7020
:102AF00040211846A8473CE021484021A84700242F
:102B000037E0987959790902014322480160016848
:102B10004908A8292DD8144601681C4801601C49A1
:102B20001D4A0A6059781A7812020A431B490A6042
:102B30001B49009A5718394631400268914200D922
:102B400007683A463240D91D134800F034F8374040
:102B50000F480168C91901600C480168C91B016070
:102B60002068401C206009480168012002240029D7
:102B700003D10448002101602046C0B201B0F0BD7D
:102B800038200020281E0020FFFF0000301E0020FB
:102B9000881F00202C1E0020341E00208C1F0020C7
:102BA000F9FF010080B50B46002A03D011461A46F2
:102BB00002F098FF80BDB0B588420DD9002A14D02C
:102BC000491E5242401E0023DB431C4654430D5D08
:102BD0000555521CF9D108E0002A06D000239CB20A
:102BE0000D5D05555B1C521EF9D1B0BD0148002199
:102BF00001607047281E0020F0B581B0294F396868
:102C0000002926D00090284C661D392530462946DB
:102C100002F062FF25480168090A217000686070AF
:102C20000520A070224A1068000AE0701068207128
:102C300011683868002914D014463B253B2800D879
:102C40003D681C48016830462A46FFF7B4FF009AE9
:102C500018E017480021016016480160164801700D
:102C60001DE01646392800D83D683868000A6071B2
:102C70003868A0710F480168E01D2A46FFF79BFFE6
:102C8000009A34460B480168491901603868401BB6
:102C900038602068401C206003484021904701B004
:102CA000F0BDC046301E0020382000208C1F0020C0
:102CB000281E0020881F0020A41F002080B50029A6
:102CC0000BD0064A00231360054A064B1360064AE0
:102CD0001160064A1160FFF78FFF80BD281E00209B
:102CE000881F0020341E0020301E00202C1E0020D3
:102CF00070B5431E491E52420020C443002A0CD026
:102D0000264656438D5D9E5D521CAE42F6D0002095
:102D1000C1430120AE4200D80846C0B270BD80B5A4
:102D20000146484602F038FF4846704700204946B1
:102D3000002900D04869704780B501F017FA0028D3
:102D40000BD106486021017000214170022282707F
:102D5000C1700171052101F0F3F980BDA81D0020AB
:102D600010B51948C078032807DC01280DD00228C7
:102D700026D1164802F076F810BD04281DD0082888
:102D80001ED1124802F06CF810BD104C01212046F3
:102D900002F061F8204602F03EF80D480078002865
:102DA0000FD10C48002406222146FFF7FBFE0A48FB
:102DB0000C222146FFF7F6FE10BD044802F04EF843
:102DC00010BD1020FFF7ABFFA81D002080200020C1
:102DD000901F0020911F0020981F00207F2101409C
:102DE0000148405C7047C046911F002010B515484F
:102DF0000179042917D0022906D0012920D1811D8B
:102E0000124801F00AFF10BDC2787F211140052948
:102E100016D8C9B24A000E4B00249C52821D0B48A2
:102E200001F083FF10BDC2787F211140052907D82A
:102E30004279C9B2044B5A54821D044801F01BFF69
:102E400010BDC046A81D0020911F0020802000203A
:102E5000981F002070B515460E460446FF2D1AD85F
:102E60000D4850210170E91C0A0A427081708021CE
:102E70002143C170202101714571062101F060F9E3
:102E80003046294601F05CF97F20204040007D213A
:102E90000901024A115270BDA81D0020981F002090
:102EA00080B50A46014682201423FFF7D3FF80BD78
:102EB00080B50D480178002915D10C4906220A7009
:102EC0000A2101700A488278417809021143FF22E1
:102ED0005232914200D31146064A11801288C11C19
:102EE0000548FFF768FE80BDA41F0020901F00204A
:102EF000A81D0020A61F0020341E0020B0B51E48CB
:102F0000827841780902114300780F2809DC0E28E5
:102F10000ED00F281FD10020012926D1FFF720FF56
:102F200022E010281BD0162815D1FFF7C1FF1BE0A7
:102F3000002012490A1A5389002B09D06424642BFB
:102F40001D4600D325465B1B53810D4A13420DD00D
:102F5000801C0C28EED10220FFF76CFAB0BD0020D7
:102F6000032902D3FFF742FF0120B0BD054800212D
:102F700001701020FFF7D3FEA81D0020981F00202D
:102F8000FFFF0000A41F002010B5092000F05AFF29
:102F90000748002404700748048007480470FFF7BE
:102FA00025FE06480460064804600648046010BD1B
:102FB000A41F0020A61F0020901F0020A81F002093
:102FC000AC1F0020B01F00200148002101607047A5
:102FD000A81F0020024800210160024801607047DC
:102FE000AC1F0020B01F0020B0B50D460446206B7A
:102FF00000280CD000F00EFF01462046884700F064
:1030000009FF0021002810D0012800D00446002D1F
:1030100007D02046A8470021002806D0012800D06C
:1030200004462046FEF704FB01210846B0BDB0B5BA
:103030008EB00D460446606B00280CD000F0EAFE0E
:1030400001462046884700F0E5FE002100281BD0FD
:10305000012800D00446002D08D02046A8476C4621
:103060000021002810D0012800D004466D463822E7
:1030700028462146FFF79FFD606A0490A06A0590EC
:103080002846FEF7D5FA012108460EB0B0BDB0B50E
:103090000D460446E06A00280CD000F0BBFE014655
:1030A0002046884700F0B6FE0021002810D00128F5
:1030B00000D00446002D07D02046A8470021002854
:1030C00006D0012800D004462046FEF7B1FA0121BF
:1030D0000846B0BDF0B587B0029303920591002970
:1030E00077D004900D9801900C98009000253C4BEF
:1030F00006952F461E4601F039F8002855D1382094
:103100006843049C251833461A680121954200D073
:10311000069906912056002841DA2020285C0221D9
:10312000695E0A1A039CA24239DC4118EA888918B0
:10313000039A8A4233DA04216C5E221A02998A4287
:103140002DDC2018298940180299814227DA186855
:10315000854210D0186800280DD00198002805D0AD
:103160002846019988473346002818D018680199E5
:10317000FFF73AFF08E00098012809D002280ED195
:1031800028460199FFF783FF3346002807D022E045
:1031900028460199FFF74BFF334600281ED17F1CBC
:1031A000FDB205988542A5D300E033460698000697
:1031B0000FD0186800280CD000F0D8FF3146002846
:1031C00007D108680199FFF70FFF002801D0002000
:1031D000306007B0F0BD00201860FAE71D60F8E726
:1031E000A81F0020F0B589B00C46014602AD1C2294
:1031F00028460192FFF7DFFC2168E98062682A8196
:10320000A0681A4F65233B7092B242438BB253437E
:10321000D9084E1C0722134200D10E4631460091B8
:103220000426864070181D30010A7970B870032199
:10323000384600F085FF2846019900F081FFA0681C
:1032400038700121384600F07BFFE06800F0E2FDB5
:10325000B1B200F075FF009885B2206900F0DAFD88
:10326000294600F06DFF09B0F0BDC046A81D002042
:1032700070B5044620787F26064000F077FF0028CE
:1032800030D1002E2ED0E06900281DD000F0C2FD04
:103290000546052E02D1A07E002824D0284602F043
:1032A00091FC064612486521017031461C310A0A1C
:1032B00042708170032100F043FF1C21204600F082
:1032C0003FFFB1B228460BE009486521017000219B
:1032D00041701C258570032100F032FF20462946ED
:1032E00000F02EFF70BD20462946FFF77BFF70BD22
:1032F000A81D002080B50A46C16900F001F880BD14
:1033000070B5164604460025002C1CD020780728EE
:1033100001D0022817D1084600F07CFD002812D009
:1033200002F050FC4643E08886420CD9311A7D20D9
:1033300000014843A17E02F00DFAA17A4900C9B20A
:1033400064224A431518284670BD0000F0B581B0CC
:103350000446002C2BD0174802688A4203D1164A33
:1033600013685B1C136006680E43134A1568134FFD
:10337000002901D0066004E00023036013607B1C79
:103380001E430068884201D000201060082D0BD336
:103390000321284602F064FA012080073043002907
:1033A00000D03046384000E030462946A04701B002
:1033B000F0BDC046AC1F0020B01F0020FFFFFF7F04
:1033C000F0B581B00F4E01243470B11CFF27503787
:1033D0007A1C204600F09CFE054675707A1B771912
:1033E000F91C022000F094FEB8702D187619F470C4
:1033F00000F078FE3071902070710020B071E81DEF
:1034000001B0F0BD341E0020F0B587B002460720A1
:10341000024206D01546E8B2FDF7AEFF80B207B013
:10342000F0BD03906F480190832004906E4C724E63
:10343000154611E004980D306C4908704F70069ADB
:1034400015430221039802422A4605D0E3E7FFF71D
:10345000B7FF01463A463D46102313408FB2002F76
:10346000069273D0002B71D120780828059319DDBE
:1034700009281FD00A2840D15E4808404008A928E2
:1034800000D3ACE053203070380A7070B170032163
:10349000304600F055FE5548394600F051FE0020F8
:1034A00020703AE0072826D15A4878443946FFF779
:1034B00005FC32E0FD1D6808A92800D38FE00498C0
:1034C0000D304A49C855C81900220292427001982D
:1034D000001DBA1C0240481D0F46FFF76CFB052279
:1034E00038460299FFF75EFBABB2414804993A4671
:1034F00001F0E8F911E000286ED0E8B23946FDF796
:103500003BFF002809D067E0FFF716FC802100226E
:10351000304600F041FEFFF7F1FC20780028F3D19F
:1035200000202070354908703549088006998906C1
:1035300000D573E7FFF700FC069A1006059B05D53A
:1035400001201D4600F0A2FD2B46069A002B05D156
:1035500050063CD4002020702849087000202849DB
:10356000088000F003FE002801D1FFF7E5FB80256D
:103570000027304629463A4600F00EFE022806D8BB
:10358000B178727812020A43C01E904209D1FFF747
:10359000B5FC20780028E4D0194800880028E0D045
:1035A00002E000202070DAE70422104815A1FFF79E
:1035B0009FFB002800D14AE704220C4813A1FFF723
:1035C00097FB002800D135E70D48008826E70C4816
:1035D00000880199401821E70920FFF7A0FB02208D
:1035E000FFF79DFBFBFF0000A41F0020341E0020FE
:1035F000B41F0020FEFF0000A81D0020901F002027
:10360000A61F0020B001000000000000B0A70000CD
:1036100000000000F3F9FFFFF0B581B007465F4CF2
:1036200025461435382228463946FFF7C4FA216961
:10363000A068002903D088470346A06803E01C2146
:103640004143226853180026002810D02269411EE9
:10365000002A0FD00846009737462E461D46904751
:103660002B4635463E46009F0246A06806E030469F
:10367000324603E01C224A4321688A186168491EC9
:10368000884210D22169401C002908D000951D46AF
:103690001646884732462B46009D064603E01C210D
:1036A000414320684618787840280ADC202822DC2C
:1036B000102834D0202867D15969002000296BD107
:1036C00051E0802822DC412833D042285CD159695E
:1036D0000020002960D1D96800295DD16268511E9F
:1036E000012A59D0A2688A4256D0F168002953D1E4
:1036F0003069206348E0212831D0222844D119467E
:1037000014315A690020002A2FD145E0822835D093
:10371000812839D1A1680020002935D13CE0D96841
:103720000020002938D02163587E00282CD0E08268
:103730002AE05969002000292ED1D96800292BD10F
:10374000A168002928D06168012925D0D168002905
:1037500022D1516900291FD11069206314E05969F1
:103760000020002918D01946103108682063187EFF
:10377000002809D0E0820820A08505E06068A168E3
:10378000421E0020914207D0E268002A284603D05A
:10379000143418462146904701B0F0BDEC1F0020BC
:1037A000F0B581B005463D4F3969B868002902D0AF
:1037B0008847064603E01C21414338684618012427
:1037C0003748854214DD3748854217D03648854250
:1037D0001CD0364885425ED13068002852D0B4688B
:1037E00000F018FB0146FA68204600F06DF851E041
:1037F0002F4885420AD02A4885424CD17968B8685A
:103800004A1E00240121904205D344E00024E143F4
:10381000B86800283FD04018B860264800240460EB
:103820002548046025480460254DAC6028680028C0
:1038300031D0E869234988422DD000282BD00024BC
:1038400020466968884226D200F090FC002822D1E8
:10385000A868E968382670432A681018002902D041
:103860008847002807D0012803D1A8684643286864
:103870008019FDF7DDFEA868401CA86029680029B2
:10388000DFD108E07068002805D000F0C3FA0146D7
:10389000B06888470024204601B0F0BDEC1F00202E
:1038A0000200008002000040010000400300008090
:1038B00001000080A81F0020AC1F0020B01F0020C6
:1038C00040180020445010B0F0B583B002920D466D
:1038D0000190394E002000907060002D15D03C49B9
:1038E00079441C2728463A46FFF702FA00280CD0F4
:1038F000384C7C447068401C70607843281821461E
:103900003A46FFF7F5F90028F4D10199084601304D
:1039100005D070688842009800D30846B0603560D2
:1039200000250298F0603561244C2B4878442060D3
:103930000920606029487844206129487844E06083
:1039400003202076E5612046183000F0B5FBE061E9
:1039500000F048F81A4805601A4805601A480560E2
:10396000A5602068002824D0E069184988421ED14B
:103970001FE0606885421CD200F0F8FB002818D1D7
:10398000A068E1683825684322681018002902D031
:103990008847002807D0012803D1A0684543206844
:1039A0004019FDF745FEA068451CA5602068002869
:1039B000DFD103B0F0BDC046EC1F0020401800204E
:1039C000A81F0020AC1F0020B01F0020445010B0E2
:1039D000F4300000E2300000B02E000067FEFFFF70
:1039E000D9FCFFFF7047000081B0F0B590B01646DB
:1039F0000C460A901593022C00D2F0E10A98002898
:103A000000D1ECE1002E00D1E9E100210A980791F4
:103A10002246FFF7C7F815A80B903078002800D190
:103A2000DDE10799C943651E0591BDE13019315D9E
:103A300025290BD103930292431C002020210891D9
:103A40000A21019100900490099056E006460A92DE
:103A50001EE1334608464BE0472B13DC194630394C
:103A60000A2934D2302B089900D11946099D002D1E
:103A700000D008990A226A43D218303A0992334694
:103A800008913AE0672B04DD722B09DD732B46D1D8
:103A90000AE0622B48DC482B55D10122049201E058
:103AA000682B56D1102201920B9A131D0B930323FE
:103AB00018404D1C1168012800D1CEE0022800D129
:103AC000D0E0032833462846069D16D0E7E02E2B8B
:103AD00000D0CAE030782A2800D0C6E07178731C84
:103AE0000120482904D0682902D0732900D0BCE005
:103AF0000B990A1D0B920968009102211E4633782A
:103B0000761C00222D2BA7DC1046F8D0252B2AD0BE
:103B10002A2B00D0A9E0307873289AD0A5E0752B25
:103B200023D0782B18D0A0E0632B00D18BE0642B3E
:103B300000D09AE00B98011D0B910068C117421844
:103B40004A40C00F16E0582B00D08EE001200490B0
:103B500002E0702B00D088E00B98011D0B910268E9
:103B60000020102507E0252071E00B98011D0B9126
:103B7000026800200A25069001270A92954212D871
:103B8000012428460746294601F0E4FDA04209D158
:103B9000284678430999491E09910A9988423C466A
:103BA000F0D900E027460024E143069B002B00D11A
:103BB00019460998019140180899CAB2302A06D1CD
:103BC000002B04D00CA92D230B7000230124811E8F
:103BD0000D290CD8411E0AD00CA82043069301F0F1
:103BE00081FF069B0998001901994018441E002B7B
:103BF00003D00CA82D210155641C0498002F18D067
:103C0000002801D079A000E07CA009900A983946EC
:103C100001F0A0FD294601F023FE0998405C0CA9A3
:103C200008553846294601F095FD641CBD420746FB
:103C3000ECD9039B9C4200D31C460CA9029D28464C
:103C400022461F461BE00B98011D0B91006802994C
:103C500008700398401E491C15E0009C059A039BC0
:103C6000069D24E00878002875D00520039F052FC5
:103C70003C4600D30446029D284664A12246FEF736
:103C80009AFF381B29190A910346002800D1A6E0A3
:103C90003078002805991D4600D085E09FE0059A00
:103CA0001446039B08194078641C0028FAD1019837
:103CB0001028029844D1002C74D008910A988318D7
:103CC000501B8742394600D8014603914A4302926D
:103CD000501C019000202A460A9302995B18099013
:103CE0000899085C0F250540000903998918491CAB
:103CF000022974D30499012903D0002908D13FA1D6
:103D000000E03AA1C0B2085C1870E8B2085C5870D4
:103D10000198904263D0921E0A9B9B1C0998401CFC
:103D2000A042D9D3099005990698081A874200D86D
:103D300007460846784318180A90B818431C1CE038
:103D40009C4200D31C46224605461F46FEF733FF21
:103D5000381B29190DE0039B009F9F4200D31F468B
:103D60002021029D28463A46FEF71CFF0398C01BFF
:103D7000E9190A910346002831D00998A04287D951
:103D8000041B1D46AC4200D32C4620210A9F384616
:103D90002246FEF707FF2D1B3F190A972B46002DE1
:103DA0001DD075E70A9073E70F46079C03E03019B2
:103DB00040787F1E641CC0B2002801D02528F6D1AF
:103DC000AC4200D32C460A9831462246FEF7F3FE59
:103DD00006952B1B0A980219002B00D026E600201E
:103DE00010B0F0BC02BC01B00847C04630313233DD
:103DF0003435363738394142434445463031323321
:103E00003435363738396162636465664552524FDE
:103E10005200000080B50449884204D30349884217
:103E200001D200F005F880BD0000D0C0006CD0C009
:103E30007A460249C91C891A401A7047313ED0C0DF
:103E400001DF704780B582B0009007486946FFF7F0
:103E5000F7FF01AA11600549884201D102B080BD77
:103E60000420FEF75CFFC04637010060C6010090E9
:103E700080B582B0064801A9FFF7E2FF6A461160EB
:103E80000449884201D102B080BD0420FEF747FFFB
:103E900000020060F102009080B584B000AB07C35F
:103EA00006486946FFF7CCFF03AA1160044988421F
:103EB00001D104B080BD0420FEF731FF7F03006014
:103EC000BC03009080B584B001900291074801A91D
:103ED000FFF7B6FF03AA11600549884202D1039893
:103EE00004B080BD0420FEF71AFFC0462C05006018
:103EF0006705009080B588B001AF0FC70A9805909C
:103F00000B980690074801A9FFF79AFF07AA1160CE
:103F10000549884202D1079808B080BD0420FEF709
:103F2000FEFEC0463B070060AD07009080B582B042
:103F3000009007486946FFF783FF01AA1160054911
:103F4000884202D1019802B080BD0420FEF7E7FE4E
:103F5000DB0A0060640A009080B586B001AF0FC72D
:103F6000074801A9FFF76CFF05AA116005498842BF
:103F700002D1059806B080BD0420FEF7D0FEC046F1
:103F80002C0B0060A00B009080B582B00090074819
:103F90006946FFF755FF01AA11600549884202D121
:103FA000019802B080BD0420FEF7B9FEC10D00608B
:103FB000EE0D009080B586B001AF0FC7074801A98C
:103FC000FFF73EFF05AA11600549884202D1059816
:103FD00006B080BD0420FEF7A2FEC046EA2E0060B7
:103FE000632E009080B586B001AF0FC7074801A9C6
:103FF000FFF726FF05AA11600549884202D10598FE
:1040000006B080BD0420FEF78AFEC0462E2F006059
:10401000742F009080B58CB001AF0FC70E9805903B
:104020000F98069010980790119808901298099090
:1040300013980A90074801A9FFF702FF0BAA116025
:104040000549884202D10B980CB080BD0420FEF7D0
:1040500066FEC0463B360060F636009080B586B0FE
:1040600000AF0FC70898049006486946FFF7E8FEBE
:1040700005AA11600449884201D106B080BD042020
:10408000FEF74DFEBA5300601E53009080B582B01B
:10409000009007486946FFF7D3FE01AA1160054961
:1040A000884201D102B080BD0420FEF738FEC04630
:1040B000E16200606F62009080B582B000900748B6
:1040C0006946FFF7BDFE01AA11600549884202D189
:1040D000019802B080BD0420FEF721FE5864006004
:1040E0001F64009080B582B0074801A9FFF7A8FEC1
:1040F0006A4611600549884202D1009802B080BD2D
:104100000420FEF70CFEC0466E6800607F680090D9
:1041100080B584B000AB07C307486946FFF790FE3F
:1041200003AA11600549884202D1039804B080BDFA
:104130000420FEF7F4FDC046D47000608770009044
:1041400080B584B001900291064801A9FFF778FE7E
:1041500003AA11600449884201D104B080BD042043
:10416000FEF7DDFD1C720060F372009080B582B036
:10417000074801A9FFF764FE6A46116005498842B5
:1041800002D1009802B080BD0420FEF7C8FDC046F1
:10419000CF7300607F73009080B584B000AB07C31D
:1041A00007486946FFF74CFE03AA1160054988429B
:1041B00003D103A8008804B080BD0420FEF7AFFD42
:1041C000D17400602B740090F0B585B0324A12783B
:1041D0008324002A02D0394A7A4409E00A9A452AFF
:1041E00002D8374A7A4403E0072907D1354A7A448E
:1041F0000223214600F066FB05B0F0BD039201905A
:104200000294402004931F5C002F18D0052F049EB9
:1042100007D13046413021A10522FEF769FD002873
:1042200028D04136002420A5E0B2032101F018FB7C
:10423000305D695C41403155641CA742F4D1452092
:104240000499085C4630039A82420DD141311548E9
:104250003A46FEF7B0FC174807801748072101705F
:1042600009200D490870C7E7174A7A4402230198CC
:104270000299BFE70B4E03223270701C0AA1FEF7B1
:104280009AFC301D09A10422FEF795FC3078431DED
:10429000019802993246ADE7A41F0020F1D000003A
:1042A00000000000341E00205446410090009000A1
:1042B00000000000A61F0020901F00201A28000008
:1042C00010280000082800008E270000F0B581B0FB
:1042D0001D460E460446284600F0E4FA012804D1A3
:1042E00068460421FFF7EEFD04E0684604222946F3
:1042F000FEF761FC174F082238463146FEF75BFC9B
:104300003846083069460422FEF755FC022038730F
:10431000002078730121B973F8733874284600F0CF
:10432000C1FA8625012807D128467930C1B2042276
:104330002046FEF737FC04E0694604222046FEF7DB
:104340003AFC044A11232046294600F0BBFA01B08A
:10435000F0BDC046341E0020F0B585B015460C46B1
:104360000490A07961790E020643A07802906178EA
:104370002778093A90B2832303931F4B864203D0D8
:10438000ED1F2B409E421BD13246002F08D01B4A06
:104390007A4402230498039900F094FA05B0F0BD22
:1043A000022917DC012920D002291BD190B26946CD
:1043B0000860E31D002204980299FFF705FFEDE76E
:1043C000D0B28642E1D0E8B286422A46DDD00C4A1D
:1043D0007A44DEE703290BD0C12903D1094A7A4484
:1043E0000423D7E70A4A7A44D3E7074A7A44D0E756
:1043F000064A7A440823CDE7FFFF00007626000036
:1044000024260000242600000426000008260000C0
:104410002226000080B581698A784B781B021343FD
:104420000A78812A09D0832A0CD0862A0ED1C91C89
:1044300000220346FFF74AFF80BDCA1C812100F01D
:1044400041FA80BDC91C1A46FFF786FF80BD0000F7
:1044500070B50D460146012A11D1094C20462A4665
:10446000FEF7A9FB60194026721B00252946FEF7BE
:1044700099FB8120214632462B46FEF7EBFC70BDAE
:1044800038200020816082810022027742824277B8
:104490008275816170470000F0B583B00D46044617
:1044A000207FC01EC0B201285AD8A18A628A9142D8
:1044B00026D904230020012D00D003460290A07DC0
:1044C00003270126002800D037461F43402320261B
:1044D000012D00D03346DE1B891AB14200DC0E46A6
:1044E000F1190191012D06D11F48042221460292A3
:1044F000FEF761FBA07D00280DD0FF30029917E088
:104500002ED10020207760826077A075A168A1611C
:104510001449087024E03420205C029B99B2124AAE
:1045200050540120184381B2637D5354411C207DB7
:1045300089B20D4B5854A169002905D0B2B2D819DF
:10454000638AC918FEF737FB608A80196082A07DF4
:10455000401CA075019881B203482A46FFF778FFF6
:1045600003B0F0BDA41F002038200020F0B589B0B2
:104570001E4604462671207F831E85250895022B42
:1045800010D2C34806210172042121770021A175B0
:104590000830A06161820120A08208993A3134205C
:1045A000215463E0042806D10020207760826077E0
:1045B000A075A068A061079104210020012E00D001
:1045C000014601230D461D43AA4241D30691012E07
:1045D000059209D104222046079904961F46FEF74A
:1045E000EAFA059A3B46049E608AAA49002803918C
:1045F0000ED0012E27D120460E30042221460496EB
:104600001F46FEF775FB059A3B46049E00281AD00C
:104610000327069908463843824219D3049707981E
:1046200047180297405608997A3149B288423CDDD2
:1046300097480421017221770021A1750830A061FB
:104640006182A382A9E7022006990843824213D21D
:104650008F48089A0272042121770021A175083041
:10466000A0616182A3823A3234202254217920460B
:10467000FFF712FF09B0F0BD607FB04248D1207F44
:10468000012852D1012E75D10422079821460292A9
:1046900004961F46FEF72CFB3B46049E002869D07B
:1046A0007B48062101720299C5E70193012E049F00
:1046B00012D1207F01281BD121460E310422204631
:1046C000FEF716FB002807D0029800780899491CCD
:1046D000C9B2884200D0C1E0207F012808D1012E54
:1046E00067D1029800780899491CC9B2884260D104
:1046F0000220069908430799085C495D0D020543AD
:10470000A089C01E85421BDD61480772042153E069
:10471000089A104608305E4908720420207700206D
:10472000A0750831A16160829CE7012E00D07FE76F
:104730000020207760826077A075A068A06199E76B
:10474000029800788128019A03D086283CD08328DB
:1047500073D1012E43D150497944042720463A466B
:10476000FEF7C6FA002800D18CE04C4979440422B7
:10477000204630E00698079A1118105CA27D9042FE
:1047800000D055E701930598451B608AA28A121A4A
:10479000954200DB1546039A2A40A3691818491C64
:1047A000FEF709FA608A40196082A07D401CA0755E
:1047B0002EE037480421017221770021A1750830CD
:1047C000A06161820198E7E6012E36D1344979442F
:1047D000042720463A46FEF78BFA002852D0059867
:1047E0000699471AED1CAF42039900DB2F4639406A
:1047F000A0690A460299FEF7DEF96782A58266770C
:104800000020A07520460E3004222146FEF7D3F981
:10481000608A012E019B01D1A18A08E0A18ACA1CED
:10482000904204D91A4803210172042103E7884207
:104830000ED20020A06223771CE7154802720421E3
:1048400021770021A1750830A0616182A282A4E6CF
:10485000022020772046FFF7DDFD0BE70C4D0422F8
:1048600028462146FEF7A7F908983A30287100201B
:104870006871019AAA710620E87108212846FFF79D
:10488000E7FDF7E602480B210172277795E7C0465E
:1048900038200020FFFF0000B2220000A22200000A
:1048A0004022000080B5064979440422FEF720FA30
:1048B000014601200022002900D0104680BDC046DC
:1048C0006221000010B503240477002484758261FE
:1048D0004482838234228154417FFFF7DDFD10BD85
:1048E00002490020086002490860704778200020D3
:1048F0007C20002010B507484F210170002444702F
:10490000012181700221C1700421FFF719FC2046AA
:1049100010BDC046A81D002070B582B06D464F2660
:104920002E7000246C700220A8700320E8702C7197
:1049300005212846FFF704FC2E706C700120A8703A
:10494000E87004212846FFF7FBFB204602B070BD4B
:1049500010B582B001A84F210170002444700121DC
:1049600081700221C1700421FFF7EAFB204602B0EA
:1049700010BD0000B0B582B00E48002404600E489F
:10498000046068464F250570447005258570042530
:10499000C570012505714171032A02D8D000074C6A
:1049A000C44068468471C3710821FFF7C9FB002029
:1049B00002B0B0BD782000207C200020010403025A
:1049C00010B582B068464F22027000244470052260
:1049D00082700422C2700122027141718471C4711B
:1049E0000821FFF7ADFB204602B010BDB0B582B084
:1049F0000D466846502101700024447003218170E7
:104A0000C5704021017144710621FFF799FB802098
:104A1000054201D1074800E0054801687F221540A2
:104A20000122AA400A430260204602B0B0BDC0463F
:104A3000782000207C20002070B582B00D466846AA
:104A4000502101700024447003218170C5708026BC
:104A5000067144710621FFF773FB354201D1074807
:104A600000E0054801687F2215400122AA409143D9
:104A70000160204602B070BD782000207C2000201C
:104A80008020014201D0064800E0044800687F22EF
:104A9000114001228A400240D0B270477C200020A1
:104AA0007820002010B582B068464F2202700024A2
:104AB0004470022282700322C27001710521FFF747
:104AC0003FFB204602B010BDB0B582B01C46154673
:104AD000684650220270E21C130A43708270C17053
:104AE0002021017144710621FFF72AFB2846214647
:104AF000FFF726FB002002B0B0BD10B582B06846BB
:104B0000502303700024447003238370C17030214C
:104B1000017142710621FFF713FB204602B010BD60
:104B200070B515460E4604460220002C10D04520D4
:104B30008100204600F0D0FF002E01D0F02026504A
:104B4000DC200121215425702046FFF7C9FE0020FA
:104B5000C0B270BDB0B50446DC200121215400254F
:104B6000E8002018F4214058002806D04068FFF7DC
:104B700051F902462179204690476D1C032DEFD153
:104B80002046FFF7E5FE2046FFF7B4FE0020B0BD4B
:104B90000223002A06D00023022803D8C0000818E8
:104BA000F4214250D8B2704780B5FFF7B5FE00201F
:104BB00080BD70B50C46054600262846314600F0FB
:104BC0006FF900280AD0F0002818F4214058006836
:104BD000FFF720F90246284621469047761C032E0F
:104BE000EBD1002070BD70B50C4605460026284666
:104BF000314600F055F900280AD0F0002818F421B9
:104C000040584068FFF706F902462846214690477B
:104C1000761C032EEBD1002070BDB0B504462546AE
:104C2000E835284600F089FBD42001212150EE20F0
:104C3000205AD8216050E820215C1F20084002281B
:104C400008D001280BD000280ED12046294600F0BC
:104C500034F90EE02046294600F0E6FA09E0204645
:104C6000294600F0BDFA04E0802001402046FFF70D
:104C7000BDFE0020B0BDF0B581B000920E460446E6
:104C8000002E1DD02546DC3500272046394600F091
:104C900007F9002810D0F8002018F4214058806946
:104CA000002809D02978032906D1FFF7B3F8034675
:104CB00020463146009A98477F1C032FE5D131E00A
:104CC000D420205803282DD180202058E16F814224
:104CD0000AD9091AE167814200D301468AB2204607
:104CE000009900F019FD1DE02646DC36002520461F
:104CF000294600F0D5F800280ED0E8002018F4214D
:104D000040580069002807D03178032904D1FFF703
:104D100081F80146204688476D1C032DE7D12046C7
:104D200000F001FD002001B0F0BDF0B581B00D46EE
:104D30000446002D1CD02746DC370026204631468D
:104D400000F0AEF800280FD0F0002018F4214058F1
:104D50004069002808D03978032905D1FFF75AF8AF
:104D60000246204629469047761C032EE6D14FE0A6
:104D7000D4202058022844D1E069256AA8420BD9E2
:104D8000401BE06111210A01A1584919A15082B2CA
:104D9000204600F0B3FC34E0A6693046294600F016
:104DA0005FFDAE420FD300290DD1D82020582746F1
:104DB000D837864207D20025204629462A4600F0E9
:104DC0009DFC3D601DE02646DC3600252046294638
:104DD00000F066F800280ED0E8002018F4214058B2
:104DE000C068002807D03178032904D1FFF712F8F2
:104DF0000146204688476D1C032DE7D1204600F070
:104E00009EFCE020205CE034012801D100202070CD
:104E1000002001B0F0BDB0B50446802040212150F3
:104E20002162DC200121215400252046294600F082
:104E300037F800280AD0E8002018F42140584068CC
:104E4000FEF7E8FF02462179204690476D1C032DAE
:104E5000EBD10020B0BD01740020704700207047E6
:104E600000207047B0B50446DC20205C032815D133
:104E700000252046294600F013F800280BD0E80052
:104E80002018F4214058C069002804D0FEF7C2FF62
:104E90000146204688476D1C032DEAD10020B0BD95
:104EA00002460020022907D8C8001018F4214158F2
:104EB0000120002900D10846704780B54A78042AAD
:104EC00008DD072A0FDC052A14D0062A1BD100F0C2
:104ED00021F81DE0002A10D0012A17D0032A12D190
:104EE00000F02FF914E0082A0AD0092A0BD100F0AB
:104EF000B8F80DE000F090F80AE000F000F907E0E3
:104F000000F0E6F804E000F061F901E000F036F9A5
:104F1000002080BDB0B582B00D4604466988080AFD
:104F2000052812DC01281AD0022822D0032836D105
:104F3000C8B2022838DC00285ED0012864D00228DC
:104F40002DD1F0202058C0680CE006281BD007287F
:104F500022D00F2823D1F0202058C06902E0F02091
:104F600020580068FEF756FF0246207C01A99047B2
:104F700030E0F4202058002100282CD0217C00298A
:104F800022D0C06A21E0207C002808D1F4202058DB
:104F9000002804D0406B18E0207C00280ED020466A
:104FA000294600F013F925E0032829D004282FD042
:104FB0000528F4D1F02020588069D3E7F420205848
:104FC0000028ECD0006B00E0806AFEF723FF01466A
:104FD00001A88847014601A80288002A0AD0E8886B
:104FE000002807D0824200D3024601A80280204652
:104FF00000F06EFB02B0B0BDF02020584068B1E771
:10500000F02020580069ADE7F02020588068A9E71B
:10501000F02020584069A5E770B50446888800282C
:105020000BD1C888002808D148887F260640DC209C
:10503000205C2546DC35032803D1204600F0C6F865
:1050400070BDDE202654F1B22046FFF72BFD20462E
:1050500000F069FB02200121002E00D108462870D3
:1050600070BD70B50D460446AE78022E1DD2DC2010
:10507000215C2046DC30032907D0022915D1002EFF
:1050800022D066600321017009E0002E12D0606812
:10509000864219D0C1B22046FFF7A5FD66602046C2
:1050A0003146FFF786FD02280ED12046294600F042
:1050B0008DF870BD02210170666020463146FFF711
:1050C00092FD204600F02FFB204600F02CFB70BD27
:1050D00080B5CA88012A0AD1DC22825C032A09D061
:1050E000022A04D1002181600146083103E000F06A
:1050F0006DF880BD011D012200F0EAFA80BDB0B557
:105100000446DC20205CFE220240022A15D1012048
:10511000E060E420215825460C350320002905D005
:10512000204600F00CFBE16802200843E060022208
:105130002046294600F0CCFAB0BD204600F046F8E3
:10514000B0BDB0B50D4604466888012815D1E420ED
:1051500001212150287902280CD8C0002018F42100
:105160004058002806D08068FEF754FE02462046CC
:1051700029469047204600F0D6FAB0BDB0B50D469E
:105180000446DC20205CFE210140022919D16888F8
:1051900001281AD1E42000212150287902280CD8B6
:1051A000C0002018F4214058002806D08068FEF77F
:1051B00031FE0246204629469047204600F0B3FAC9
:1051C000B0BD2046294600F001F8B0BD10B5044638
:1051D0008021FFF70BFC00212046FFF707FC10BDE4
:1051E000B0B50D460446DC20205C032816D1287992
:1051F000022813D8C0002018F421405800280DD0F0
:105200008068FEF707FE0246204629469047E88858
:10521000002807D1204600F086FA03E02046294600
:10522000FFF7D4FF0020B0BD70B50D4604462878C6
:10523000602101402E7920290FD1022E0DD8F000D7
:105240002018F4214058002807D08068FEF7E2FDBE
:1052500002462046294690476DE06878002817D01E
:1052600001281ED0032866D1DC20205C03281CD135
:105270006888002808D180203043802804D0204648
:105280003146FFF7B3FB2E79022E51D8F00043E0F0
:10529000DC20205C032818D0022811D170060AD126
:1052A00049E0DC20205C032829D0022808D1802096
:1052B000304380283FD020463146FFF797FB3AE045
:1052C00020462946FFF782FF35E025461435204663
:1052D000743080210E4200D1054620463146FFF74A
:1052E000CFFB0121002800D101467F20064030017C
:1052F000295029180222204600F0EAF91BE06888AC
:10530000002818D1700613D020463146FFF794FBD1
:10531000287902280CD8C0002018F4214058002811
:1053200006D08068FEF776FD024620462946904763
:10533000204600F0F8F9002070BD0A7802704A7823
:1053400042708A78CB781B02134343800A794B79E9
:105350001B02134383808A79C97909021143C180F2
:105360007047F0B583B00D46044602A800270780B9
:1053700001A80770297860200840002810D0202854
:1053800038D1687801460A39022933D302281CD063
:1053900003281AD020462946FFF718FF022729E0E4
:1053A00068780B2814D00A280FD0062822D16888E4
:1053B000000A002721280FD022283A46394616D164
:1053C00002AE304600F058F80AE001A901220EE0D2
:1053D000204600F0A8F90DE002AE304600F032F8A9
:1053E00001463288E888824200D302463280204655
:1053F00000F06EF9F8B203B0F0BDF0B581B004462C
:1054000082210326402532462B46FFF7B3FA0227B6
:105410002046394632462B46FFF7ACFA204639463D
:105420002A46FFF76AFB002001B0F0BD10B5044624
:105430008221FFF7C5FA02212046FFF7C1FA0020BA
:1054400010BD0000EC21094A515C0922002904D05A
:10545000012905D10749794404E00549794401E06F
:1054600000221146028008467047C0468020002076
:10547000C4150000BE150000F0B581B00246EC2056
:105480001349085C222400281AD001281BD1104897
:1054900081210327402600923A463346FFF76AFAF5
:1054A00001250B4829463A463346FFF763FA084878
:1054B00029463246FFF721FB009A0748784404E06A
:1054C0000448784401E000242046148001B0F0BD77
:1054D00080200020891500006D150000F0B581B016
:1054E000044681210326402532462B46FFF742FA27
:1054F00001272046394632462B46FFF73BFA204625
:1055000039462A46FFF7F9FA002001B0F0BD000045
:1055100080B5012903D103480121FEF7BDFF00201A
:1055200080BDC046B41F0020B0B5144601290DD17E
:10553000012540222946FFF7E0FA2846FDF74EFCF8
:105540000246034821462B46FFF710F80020B0BD65
:10555000B41F002080B5022903D103487844FDF729
:105560004BFB002080BDC04641D9FFFFB0B51446BB
:1055700002291BD102214022FFF7BFFA0C4D2878E7
:10558000002813D10220FDF729FC02460C4878447C
:105590002146FDF75FFA022808D10120287005484E
:1055A0000721017004480068044908800020B0BD4C
:1055B000901F0020A41F00202C1E0020A61F0020EA
:1055C0000FD9FFFF12200880014878447047C04679
:1055D0003615000004200880014878447047C04612
:1055E000381500000E200880014878447047C046F6
:1055F0002C1500000E200880014878447047C046F2
:105600002A1500000A200880014878447047C046E7
:10561000281500000E200880014878447047C046D5
:105620000A1500000E200880014878447047C046E3
:10563000FA14000070B50446452085001648002184
:105640002A46FDF7AFFA002C22D0134C0026204644
:1056500031462A46FDF7A6FA1249794420463246D9
:10566000FFF75EFA104A7A4430462146FFF790FA77
:1056700001200E4A7A442146FFF78AFAFF2252326D
:1056800006480749FEF7FEFE2046FFF78DFA70BD7B
:105690000148FFF75FFA70BD80200020B41F002092
:1056A000341E0020161400002A14000054140000B8
:1056B00049210180014878447047C04686140000A3
:1056C0000A210180014878447047C046C214000096
:1056D000B0B50C46D421022343508261C26111212E
:1056E00009014450016A8A4200D30A4693B2002558
:1056F00029462246FFF7E8F92846B0BDB0B50C466A
:10570000016A8A4200D30A4693B2002529462246FE
:10571000FFF7DAF92846B0BD10B500242146FFF79F
:10572000ECF9204610BD10B5D421042242500024CB
:10573000214622462346FFF7C7F9204610BD10B583
:10574000D42105224250002421462246FFF7D5F9F4
:10575000204610BD002243088B4274D303098B42BC
:105760005FD3030A8B4244D3030B8B4228D3030C31
:105770008B420DD3FF22090212BA030C8B4202D3D3
:105780001212090265D0030B8B4219D300E0090AFB
:10579000C30B8B4201D3CB03C01A5241830B8B4204
:1057A00001D38B03C01A5241430B8B4201D34B03ED
:1057B000C01A5241030B8B4201D30B03C01A524152
:1057C000C30A8B4201D3CB02C01A5241830A8B42D7
:1057D00001D38B02C01A5241430A8B4201D34B02C0
:1057E000C01A5241030A8B4201D30B02C01A524124
:1057F000CDD2C3098B4201D3CB01C01A52418309D8
:105800008B4201D38B01C01A524143098B4201D311
:105810004B01C01A524103098B4201D30B01C01A3C
:105820005241C3088B4201D3CB00C01A52418308B6
:105830008B4201D38B00C01A524143088B4201D3E3
:105840004B00C01A5241411A00D201465241104643
:105850007047FFE701B5002000F006F802BDC04622
:105860000029F7D076E770477047C046002B11D16A
:10587000002A0FD1002900D1002802D00021C943FD
:10588000081C07B4024802A14018029003BDC0469C
:10589000D9FFFFFF03B4684601B5029800F032F863
:1058A000019B9E4602B00CBC7047C046F0B54F4607
:1058B0004646C0B41604360C9946330005042C0C39
:1058C000070C150C63437E436F4365431C0CAD19F5
:1058D00064199C46A64203D980235B02984647443C
:1058E0006346250CEF191D044B464A4343432D0CD8
:1058F000240464199918C91920000CBC90469946D3
:10590000F0BDC046F0B54D46564644465F46F0B43D
:10591000924683B004000D0099468B422FD82CD0BC
:105920004946504600F0AEF829000600200000F07D
:10593000A9F8331A9846203B9B4600D574E053469D
:105940005A4693401F005346424693401E00AF42C2
:1059500029D826D05B46A41BBD41002B00DA79E094
:10596000002200230092019301235A4693400193A1
:10597000012342469340009319E08242D0D900228D
:105980000023009201930C9B002B01D01C605D60F2
:105990000098019903B03CBC90469946A246AB469C
:1059A000F0BDA342D6D900220023009201934346C2
:1059B000002BE8D0FB0772081A4346467B080EE02E
:1059C000AB4201D1A2420CD8A41A9D410120241956
:1059D0006D410021013E24184D41002E06D0AB42FE
:1059E000EED9013E24196D41002EF8D15B46009896
:1059F000019900196941002B22DB2B005A46D34044
:105A00002A004446E2401C005B461500002B2CDBBC
:105A100026009E40330026004746BE403200801AD2
:105A2000994100900191AEE7424620239B1A5246CD
:105A3000DA40414613004A468A4017001F4382E776
:105A4000424620239B1A2A0046469A402300F340F0
:105A50001343D5E74246202300219B1A00220091E0
:105A600001920122DA40019282E742462023260079
:105A70009B1ADE402F00B446974066463B003343F6
:105A8000C9E7C04610B5002903D100F007F820305F
:105A900002E0081C00F002F810BDC0461C210123E2
:105AA0001B04984201D3000C10391B0A984201D301
:105AB000000A08391B09984201D30009043902A2DF
:105AC000105C40187047C046040302020101010146
:105AD000000000000000000010B5002200F002F8F5
