:02000004C0D06A
:10000000F0B503AF8DB02F20C20062B62E4800219C
:1000100001F03EFD2D4C2E4E01E00B98306000218A
:10002000B022204601F034FD01F080FC30680B90D6
:1000300001AD284604F0BAFBA885356080B21028CF
:10004000EBD0002809D001A8002484850B983060EB
:1000500001F048FC20460DB0F0BD01F0D7FE1D4870
:1000600002F0C8FD807801280CD06C460120207079
:1000700000216170A070174802F0BCFD03222146E8
:1000800002F00AFE00252846294604F0E3F8124C47
:1000900060222046294601F0FBFC1048A064E06481
:1000A0000F4820652120C00054216052204603F0F3
:1000B00057F9084802F09EFD4178012004F0CAF883
:1000C00000F084FC01F040F9501D00203C18002095
:1000D000502000208053D0C074190020A0200020A0
:1000E000481F0020F0B503AFD9B01D4614460E4698
:1000F0000146A52E7ED230A8324601F0D3FC002264
:10010000002E09D00022D0B230A9085C002803D10B
:10011000521CD0B2B042F6D3029500947000019206
:10012000D1B2B142039006902DD203980690019C63
:1001300004960591E0B20021B0420FD204990D1A45
:1001400030A90E1800210902307808433A2104F042
:100150009DF930706D1E761C002DF4D130A8059AE3
:10016000825C2A487844405C0699491E0691C9B2CF
:1001700007AB5854601C002A00D02046C1B2049E30
:10018000B1420446D5D3069CE1B2039B99420DD2FD
:100190001F4878440078029D019E07AA515C814265
:1001A00006D1641CE1B29942F7D301E0029D019EA1
:1001B000300611D01748784400782546214632464B
:1001C000491ECBB207ACE054521EFF231A42F7D1AE
:1001D0002C46A41B039B029DE0B2191ACEB2B54275
:1001E0000DD307A909180098324601F05BFC304690
:1001F00059B0F0BD04480068022104F0E3FA024857
:100200000068032104F0DEFA50200020F0460000D0
:10021000C24600009E460000F0B503AF89B00F9CB7
:10022000256800238D4219D807920E9A4619566008
:100230001646AA1D22608A4210D808948418069691
:1002400005943461EE1D089C26603446825C314E74
:10025000012A01D9304602E08C4203D9184680B207
:1002600009B0F0BD039102193146069E7261024643
:100270002E4608360898049606600292125D0E46D5
:10028000481C0A2AEBD80398049981421846E6D8FC
:100290000299049C0819069A90610935089805602E
:1002A000095DB01C0A29DAD80598037868460699D2
:1002B000283101600899416002980399079A00F07B
:1002C0002BF80128CBD1069A106951690B78007878
:1002D000694638320A60089A4A6007990A180298F3
:1002E000039900F019F80128B9D1069E3246103260
:1002F00007CA1378097800786A46D8361660089DD0
:100300005560081807990A180298039900F004F834
:10031000A5E7C046016E0000F0B503AF89B00490B8
:100320000F9804680393002B009045D00E9801901D
:1003300000200690029108921678FF3670B20519D7
:100340000720020633061F48934238D88D42089A88
:1003500035D8059406980001002501990D500B1819
:100360005D601178002915D0059804990818079048
:1003700028462C460799095D72B2D2009140089A2E
:100380000D43C91708431D605860761E641C117820
:100390008C42EFDB05980D182C4620340948029951
:1003A0008C420CD8049840199860069B5B1C521C28
:1003B000039806938342BEDB00980460012080B25C
:1003C00009B0F0BD046E0000F0B503AF81B00021AC
:1003D00041600161416181618162C16201639F226B
:1003E000D64300968219DC23D150D8241151E02540
:1003F00051511036F6D10E46009A9F327243821840
:10040000D15011515151103E3246A032F4D101B0B9
:10041000F0BDF0B503AF85B003920D4606460A9CC9
:100420002046FFF7D1FF00200490372040023178AA
:1004300002290DD1012004900220206004A8694601
:100440000C604860002330462946039AFFF7E4FE1B
:1004500005B0F0BDB0B502AF202A21D90278412AFB
:100460001DD1047A7F22D2436D32D5B28022AC42B4
:1004700015D00024002B234601D101230B70C9188D
:10048000034648331D1B2D780D55641C202CF9D1D3
:100490002823C05CC00702D0C87F1043C877B0BD16
:1004A00002480068024904F08DF9C046502000203F
:1004B000ED600000F0B503AF9DB002910146500021
:1004C000114A7A44105A0BAD2880A81C20220192B0
:1004D00001F0E8FA222115AC2846224602F018FC69
:1004E00003AE20460199324602F012FC2846223023
:1004F0000422314601F0D6FA262134232846029AF6
:10050000FFF7F0FD1DB0F0BDCC430000F0B503AF28
:100510009DB002915100154A7A44515A0BAD298081
:100520004168083015AE324602F0F2FBAA1C2021C9
:100530000191304602F0ECFB22212846324602F0BF
:10054000E7FB03AC30460199224602F0E1FB284666
:1005500022300422214601F0A5FA26213423284620
:10056000029AFFF7BFFD1DB0F0BDC0467643000004
:10057000F0B503AF83B002920D460646012001900C
:10058000012D0BD13078302808D10020022B78D3F0
:10059000302002990870002048706BE0089CAC4243
:1005A00029D22A1BA91C002099426AD80021002ABE
:1005B0000BD0304600921146029B02781A70401C04
:1005C000491E5B1C0029F8D10099002C084603D075
:1005D0002E20029A5054481CA9424DD2029A121859
:1005E00073186E1A44191D781570521C5B1C761E08
:1005F000F9D1611A1FE0611BE21C00209A4240D829
:100600003020029A10702E2050700220002905D050
:10061000901C302204F07CF8A01C401B002D2BD035
:10062000029909182A4633780B70491C521E761C11
:10063000002AF8D14119029D00236B54884219D237
:100640002C5C002B024600D01A460023302C00D030
:100650001A46401C81421346F2D1002A0AD00020DB
:10066000A854A918C2438A5C491E2E2A019A07D1B0
:10067000087005E0019804E0019A0021029B1954DA
:10068000104603B0F0BD0000F0B503AF97B004937F
:1006900005920A460790104300210028039147D095
:1006A00000200124089405460990034616460A9343
:1006B0000A2220462946099B03F00EFF04460D46F8
:1006C00007988442089800D90998324695420899BB
:1006D00000D9099995420A9B00D008465B1C002866
:1006E000E4D1132B48D80021002B21D00293002005
:1006F000C64306920A2209920023089320462946FF
:1007000003F0CAFE04460D460798069922462B467A
:1007100003F0C2FE099A089B03F0BEFE302010438E
:1007200012A989194870761C0A98B042E2D1029940
:1007300012A8039A42540BAC2271134A0B92062260
:100740006B461A60221D1923FFF712FF204604F0A2
:100750004FF80499491E884205D20BA9059C2046F2
:1007600004F03EF802E00020059C2070204604F0D2
:100770003FF880B217B0F0BD02480068012104F0D4
:1007800021F8C0465020002046435420F0B503AF66
:1007900081B00D460446206D00260522314601F049
:1007A00077F9206D401D0C492A4601F07BF9206D38
:1007B00040197C21C9430D314171206D401986716A
:1007C000226D012069460860E81D83B2832120461E
:1007D00002F0EEFD01B0F0BDA0200020F0B503AFA7
:1007E00081B00F4C20700F4D284602F003FA01260D
:1007F0002146324602F050FA00242046214603F0FA
:1008000029FD284602F0F6F94178304603F022FD32
:10081000054979442046224601F012FF01B0F0BD9F
:10082000001800208053D0C09242000080B500AF75
:10083000064802F0DFF901780120002900D10846BE
:1008400003497944002201F0FBFE80BD8053D0C0F3
:100850000E420000F0B503AF81B0104E3070104D65
:10086000284602F0C7F9401C01243146224602F016
:1008700013FA00263046314603F0ECFC284602F01D
:10088000B9F94178204603F0E5FC06497944204651
:10089000324601F0D5FE01B0F0BDC046011800207F
:1008A0008053D0C01842000080B500AF064802F067
:1008B000A1F941780120002900D108460349794473
:1008C000002201F0BDFE80BD8053D0C03E4100003B
:1008D000F0B503AF81B005466878012400281FD029
:1008E000411E114A1268012400238A4200D01C468E
:1008F0008A4215D17D26310101280FD002280FD15F
:100900000721284601F038FCF60080190749884283
:1009100004D30721284601F02FFC811904484161C6
:10092000204601B0F0BDC04638180020B80B0000CA
:100930003C180020F0B503AF83B005466878012469
:10094000002834D0421E1D48016801240023914232
:1009500000D01C4691422AD17D23DE001B01019369
:10096000174B0293042A22D80096C0467A44127983
:10097000520097441612021902000721284601F07E
:10098000FBFB009E80190299884204D30721284668
:1009900001F0F2FB81190B4808E00B4A1278002A9B
:1009A00008D00848019901E00648029941612046B3
:1009B00003B0F0BD491C01600024F8E7381800209E
:1009C000B80B00003C1800207019002080B500AF63
:1009D00004490020087004497944024601F030FEC1
:1009E00080BDC0467119002090410000D0B502AF13
:1009F00000F028F80E4990220A54091800224A7083
:100A0000811C0C480078002803D00B48FFF7BEFE7D
:100A100003E089B2202001F01BFC08480024047088
:100A2000074979442046224601F00AFE2046D0BDFF
:100A3000A0200020822300207419002071190020BA
:100A400046410000F0B503AF81B0124C6268124E0F
:100A50003270701C2146083101F024F86568701965
:100A600034224270801C21464C3101F01BF8A12039
:100A7000215C28463630002907D0301881342022E6
:100A8000214601F00FF8563500E00546284601B032
:100A9000F0BDC046D4190020A0200020D0B502AF80
:100AA0000E4869210170852141700D4800780028A9
:100AB00004D00C480221FFF769FE03E02020022148
:100AC00001F0C6FB08480024047008497944204618
:100AD000224601F0B5FD2046D0BDC046A020002032
:100AE0008223002074190020711900209C4000000E
:100AF00080B500AF0649884205D00649884204D136
:100B0000FFF7CCFF01E0FFF771FF002080BDC0467A
:100B10000200008001000080F0B503AF9FB0334BAE
:100B20005A780021049168460160191D41240FAED6
:100B300020460394334602F069F9202205AD204691
:100B400031462B4602F002F940223046049E3146DF
:100B500000F09EFF6B20C000244B1858244923311D
:100B60006A462C33136050609160012405232846A7
:100B70003146224602F026F9064603981B492A46CA
:100B8000234602F001F928222846049D294600F058
:100B90007FFF300A21221649885422200E54134820
:100BA0000C462B46FFF756FC3046233080B290218E
:100BB00021543046243080B2255425360D48007823
:100BC000B1B2002803D00C48FFF7E0FD02E020207E
:100BD00001F03EFB0948002404700949794420468D
:100BE000224601F02DFD20461FB0F0BDD419002093
:100BF000A0200020822300207419002071190020F9
:100C00008C3F0000D0B502AF0E48692101708521EC
:100C100041700D480078002804D00C480221FFF7ED
:100C2000B5FD03E02020022101F012FB084800245A
:100C30000470084979442046224601F001FD20460F
:100C4000D0BDC046A02000208223002074190020BF
:100C500071190020343F000080B500AF064988427A
:100C600005D00649884204D1FFF7CCFF01E0FFF729
:100C700053FF002080BDC0460200008001000080BC
:100C8000B0B502AF05460F2028400024012813D03C
:100C9000022813D1002908D00B4802F013F968B2DA
:100CA000002809DA01F0DCFF06E041208100064857
:100CB000002202F041F904462046B0BD0348006816
:100CC000022103F07FFDC046A0200020502000201C
:100CD000F0B503AFADB01446621CD523DB01257817
:100CE0006C1EE4B20A2C00D3DCE0022800D3D3E06F
:100CF00006900591012900D9CEE033980490329BEB
:100D0000019311AB03952C4615782D0656783604C1
:100D10002E4395782D023543D6782E4340C3121DBD
:100D2000641EF1D1002605990129304600D10846FC
:100D300011AB1A7902920A46A12561494855084625
:100D40008130012A00D0304669460860412425AD33
:100D500020461946039A2B4602F058F820220392A7
:100D600007961BAE20462946334601F0EFFF0123CC
:100D7000059420465249324602F006F828223046B1
:100D8000079E314600F084FE28463146039A00F063
:100D90007FFE02230298842800D0334608AE212526
:100DA000474831462A460393FFF754FB444C083426
:100DB00020460799059A00F06BFE414845602046A1
:100DC00031462A4600F06EFE3D4804464C3421462A
:100DD000039AFFF79BFBFFF735FE0499086006981E
:100DE000002864D0374800250570684604603648FE
:100DF000352136A2342301F0ADFC36480560364873
:100E000002210160354C374878442060072060603B
:100E100035487844206135487844E06003202076E6
:100E2000E5612046183002F02FF8E06101F018F873
:100E3000A5602068002828D0E0692949884216D199
:100E400023E06068854220D202F05AF800281CD1C5
:100E5000A068E1683825684322681018002909D085
:100E60008847002806D1A068451CA5602068002896
:100E7000E7D10AE0012803D1A06845432068401962
:100E800001F038F9A068401CA060019A1068102198
:100E9000014311602DB0F0BD084800688033194649
:100EA00003F090FC05480068194603F08BFC0348EA
:100EB00000680921090303F085FCC046502000208A
:100EC000D4190020711900200218002020252E2A94
:100ED00073200000381800204C1D00203C18002012
:100EE000445010B0EC3D0000DBFCFFFFB5FAFFFF03
:100EF00080B500AF01F0FEF880BD000080B500AF06
:100F00000B4801F077FE017801200029024600D14C
:100F10000A4608490A7000224A7009228A70C8707D
:100F200003980421016004480068110303F04AFC9F
:100F30008053D0C0A020002050200020F0B503AF87
:100F400085B01446D522D60109221503AA4A0028E5
:100F50000395049600D1B6E002918F2800D011E1EC
:100F600037200601A54DA85B2818D72189000191DB
:100F7000401821461C46224600F094FDA85B031948
:100F8000AB530298002800D1E5E06B20C00029583F
:100F9000DD2080002858884200D206E1D922D40101
:100FA0002A462C32904200D906E1954A68460260F2
:100FB00001982A182C359BB22846FFF72AFA0146D9
:100FC000012900D0F4E08E4800690078002800D1A3
:100FD000F7E00A9803908A4D2835002403CD322388
:100FE000894A083DFFF750FB200185490818006B2E
:100FF000824E4C36002231460492FFF75BFA1035E0
:10100000641C7F48006900788442E7DB7C48006A02
:101010007E4A3223049C2146FFF736FB7C4D20227A
:101020002846214600F034FD05220292284631462A
:1010300000F038FD681D77A10326324600F032FD2E
:1010400008356E497C310422284600F02BFD724899
:101050000460724802990160714D744878442860B8
:101060000D20686072487844286172487844E860CE
:101070002E76EC612846183001F006FFE86100F09A
:10108000EFFEAC602868002875D0E86965498842A1
:1010900016D170E0686884426DD201F031FF0028FB
:1010A00069D1A868E968382460432A6810180029C3
:1010B00056D08847002853D1A868441CAC602868E3
:1010C0000028E7D157E002934E324C4826460024D0
:1010D000214600F0DDFC307848494870411EC9B215
:1010E0000A295DD20299491E89B201296ED9B278C6
:1010F00035466B781B02134302934B4A04928918BE
:101100008E1CE91C02463546A3003C48C3180E78E5
:1011100036064878000430438E7836020643C87895
:10112000304358600498C31C28461840061F091D08
:10113000641C9442E7D3412230480270049AAA18F2
:101140001A406B23DB00C250DD239C00029B03513D
:101150002C3000F0A7FC2B480068039903F032FB09
:10116000012803D1A86844432868001900F0C2FF91
:10117000A868401CA860039A106810210143116000
:1011800005B0F0BD2146802826D16B20C4001B4D40
:101190002859904226D94E321848002100F078FC98
:1011A00018480068049903F00DFB0498803001434F
:1011B0001448006803F006FB12480068214603F05B
:1011C00001FB10480068611C03F0FCFA0D48006840
:1011D000D721C90103F0F6FA0A4800680499803162
:1011E00003F0F0FA28182C301E46324600F05AFC64
:1011F000285980192851AEE72A030000D41900208D
:10120000501D002050200020EC1800203E19002026
:101210001E1900202E2E2E00381800204C1D0020F4
:101220003C180020445010B0FCFF0000203D00009E
:10123000EFFBFFFFC5F8FFFFF0B503AF91B00491DE
:1012400003903D4C20680F9005AE304603F0AEFA97
:101250000546B58526602646A8B200281AD0102873
:1012600050D005A8002181850F9830600F20000321
:101270002840290ACEB20921090388422FD0032130
:101280004903884225D12F20C2002D48002100F0BB
:10129000FFFB24E0294A1078E02838D15078022852
:1012A0000BD0042838D11379D17890786C46039DFF
:1012B0002560521DFFF742FE1CE0D17890786B4606
:1012C000039C1C60049C5C60521D0023FFF700FD22
:1012D00010E01C4805400D20C00205432E0A049A68
:1012E000106816490E541068081845701068801C64
:1012F0001060114E0F98306005A9898D002909D121
:1013000011B0F0BD0F983060102103F05BFA372068
:10131000410205A803F056FA062807D16846049949
:101320004160002001460346FFF7E8FD6D20010201
:1013300005A803F047FAC04650200020A020002056
:10134000501D0020FF070000F0B503AF91B000264C
:1013500010960F960E96314C20680DA90E800B90BA
:1013600001AD284603F022FAA885256081B2002944
:1013700019D0102949D001A98E850B9921600F2120
:101380000903014009221203914220D00322520393
:1013900091421FD10DA908802F20C20000212148B1
:1013A00000F076FB1DE00F98109000250F950E9829
:1013B0001099C0B289B200F04BFF10900E951098B2
:1013C000002827D00EA80FA9FFF736FF15E00DA9BA
:1013D000088006E0144908400D21C90201430DA808
:1013E00001800D98000A0F99104A50540D980F99DA
:1013F000511848700F98801C0F900B98206001A91D
:10140000898D0029A9D003F0DDF90B982060102107
:1014100003F0D8F92068024903F0D4F950200020E5
:1014200082690000501D0020FF070000A02000205E
:10143000F0B503AF85B0084E307801460C39074A45
:10144000092937D87944097949008F4409825CB465
:10145000B4B4B4B4B4ACC046C81E0020555010B0EB
:10146000FA4D012028760026EE612C4618342046DD
:1014700001F00AFDE861F649884200D112E2002835
:1014800000D10FE2F349884200D08BE10320287697
:10149000EE61204601F0F8FCE86100F0E1FCAE608E
:1014A0002868002800D1FDE1E869E949884200D0B8
:1014B0005AE1F7E105287ED1E44C01202076002591
:1014C000E56118342046049201F0DEFCDF4A014653
:1014D000D1610498814200D01CE103201076D561CF
:1014E0002046144601F0D0FCE06100F0B9FCA56094
:1014F00020680028264600D1D4E1F069F3498842EB
:1015000000D0CFE0CEE1F04D0120039028760020FE
:101510000490E8612C4618342046164601F0B4FCCD
:10152000E861B04200D0C0E0032028760026EE61DA
:10153000204601F0A9FCE86100F092FCAE6028684A
:10154000002800D1AEE1E869E049884200D08CE093
:10155000A8E1DD4D012028760026EE612C461834E6
:10156000204601F091FCE861D849884200D199E118
:10157000002800D196E1D349884200D02BE1032016
:101580002876EE61204601F07FFCE86100F068FCFF
:10159000AE602868002800D184E1E869CB49884220
:1015A00000D0FCE07EE1CD480078012803D1B0797D
:1015B000000700D47FE1C44E012030760025F5619C
:1015C000344618342046049201F05EFCF061049920
:1015D000884200D066E103203076F561204601F0B4
:1015E00053FCF06100F03CFCB5603068002800D18D
:1015F00058E1F069B54988421AD153E170688542D3
:1016000000D34FE101F07CFC002800D04AE1B06833
:10161000F1683824604332681018002900D1F7E0DF
:101620008847002800D0F3E0B068451CB5603068FA
:101630000028E3D136E16868864200D332E101F048
:101640005FFC002800D02DE1A868E96838246043D9
:101650002A681018002900D119E18847002800D015
:1016600015E1A868461CAE6028680028E3D119E19E
:101670007068854200D315E101F042FC002800D0DB
:1016800010E1B068F168382460433268101800290E
:1016900000D1BDE08847002800D0B9E0B068451C03
:1016A000B56030680028E3D1FCE06969002900D109
:1016B000F8E0642264290B4600D31346C91A696115
:1016C00000D0EFE08149884200D1EBE0002800D152
:1016D000E8E07F4801787F4C2068002903D000288B
:1016E00001D1039820607C490968002900D1D9E024
:1016F000401C02F0CBFE216000F0B2FB0498A86011
:101700002868002800D1CDE0E8697049884200D0FF
:10171000BAE0C7E01069002800D1C3E06B4A9142EB
:1017200000D1BFE0002900D1BCE0F178490800F009
:1017300053FDB7E06868864200D3B3E001F0E0FBF8
:10174000002800D0AEE0A868E968382460432A6821
:101750001018002900D19AE08847002800D096E0B0
:10176000A868461CAE6028680028E3D19AE0686843
:10177000864200D396E001F0C3FB002800D091E040
:10178000A868E968382460432A68101800297ED0C8
:10179000884700287BD1A868461CAE6028680028CE
:1017A000E5D17FE0A888049028680390444801466A
:1017B000CC798B7928464D790A79CE78C16868460C
:1017C0000660416012022A431B02234303980499D6
:1017D00000F0C0FB66E02868002830D0A86869687F
:1017E00088422CD201F08CFB002828D1A868E96837
:1017F000382460432A681018002915D0884700282B
:1018000012D1A868401CA86029680029E7D116E019
:10181000012803D1B06844433068001900F06AFC25
:10182000B068401CB0603DE0012803D1A868444383
:101830002868001900F05EFCA868401CA860686871
:10184000A96881422ED301F05BFB2BE03C180020FD
:10185000445010B0555010B068680499814221D2AC
:1018600001F04EFB00281DD1A868E96838246043C8
:101870002A68101800290AD08847002807D1A868CC
:10188000401C0490A86028680028E5D10AE00128DF
:1018900003D1A86844432868001900F02BFCA8680D
:1018A000401CA86001F02CFB002801D100F0ACF92D
:1018B000012005B0F0BD0A480068102102F082FF47
:1018C000C81E0020555010B03C180020445010B0E5
:1018D00071190020381800204C1D0020A82100207C
:1018E00050200020B0B502AF8CB00E4D28680A9091
:1018F0006C46204602F05AFFA0852C600A49084237
:1019000005D10020C04301F0A1FA6846808D0A9AF3
:101910002A60010401D10CB0B0BD81B2104602F0C2
:1019200051FFC04650200020FFFF00000148002169
:101930000160704750200020F0B503AF83B00292E1
:101940000C4601904A4DAC420FD0494E40253046DE
:10195000294602F0D7FE02984028024600D32A46C4
:101960003046214600F09EF8414DA878052800D960
:1019700076E0C0467844007940008744020C137139
:10198000711F0026AE716E712E71EE7040212846D7
:10199000019A90470BE0E81C042101F09BF94021DB
:1019A000284601E032484021019A904700263148FC
:1019B000002101603046C0B203B0F0BDE8782D4C84
:1019C0002168090A00268842F1D128792168C9B224
:1019D0008842ECD1284B0298C018051F20680028C7
:1019E0000ED0294619402548026891421E4600D96A
:1019F00005682A463240224800681D49491D21E0F9
:101A000001931B4988794979090201431D48016006
:101A10000168412292009142C9D8016817480160CB
:101A20001749194A0A601949029A55182946019E10
:101A300031400268914200D905682A4632400C487C
:101A4000C11D114800F02EF835400D4801684919B4
:101A500001600A480168491B01602068401C206041
:101A600006480168012002260029A4D19FE7C0464C
:101A70005420002094200020FFFF00009C20002024
:101A8000A421002098200020A0200020F9FF0100C0
:101A900080B500AF0B46002A03D011461A4602F06B
:101AA00037FE80BDB0B502AF88420DD9002A14D0F0
:101AB000491E5242401E0023DB431C4654430D5D29
:101AC0000555521CF9D108E0002A06D000239CB22B
:101AD0000D5D05555B1C521EF9D1B0BD01480021BA
:101AE0000160704794200020F0B503AF87B00193E8
:101AF00003920E460490002E42D0314D0020286003
:101B0000304931480860314C601D3B2105900291FD
:101B100002F0F8FD0520A0702868000AE07028682F
:101B20002071B1B228680028069109D03B290A46E5
:101B300000D3029A23480346196805981E460AE016
:101B4000300A6071A671392039290A4600D302464D
:101B50001C4E3168E01D0592FFF7A4FF184D306858
:101B60003146059E801908602868401C2860402185
:101B70002046049A90470698861B15480642C3D112
:101B80000F480024046080200199014201D001F037
:101B900067F8019880060FD40C4C40212046039A28
:101BA0009047C2B2402AF8D804982146FFF7C4FEF5
:101BB0000228F2D107480468A0B207B0F0BDC046C1
:101BC00094200020A4210020A020002054200020E8
:101BD000FFFF000098200020F0B503AF431E491E10
:101BE00052420020C443002A0CD0264656438D5D45
:101BF0009E5D521CAE42F6D00020C1430120AE4291
:101C000000D80846C0B2F0BD80B500AF01F078F949
:101C100000280BD10648602101700021417002228A
:101C20008270C1700171052101F04CF980BDC04680
:101C3000C81E0020D0B502AF1548C078401E072846
:101C400024D8C046784400794000874403181F1404
:101C50001F1F1F1C0F4C0121204601F078FF20465A
:101C600001F05EFF0C48007801280FD10B48006896
:101C7000102102F0A7FD074801F06CFFD0BD054818
:101C800001F06CFFD0BD034801F066FFD0BDC04637
:101C9000C81E00205C220020A82100205020002027
:101CA0007F2101400148405C7047C046A9210020C7
:101CB00080B500AF0F480179042908D0022911D05E
:101CC00001290ED1811D0D4801F059FE80BDC27859
:101CD0007F2111404279084B5A54821D074801F078
:101CE0007DFE80BDC2787F211140821D034801F036
:101CF000B6FE80BDC81E0020A92100205C22002065
:101D0000F0B503AF83B0019202465D1C002B00D1F9
:101D10001D460198FF2843D8254E50203070019C65
:101D2000E01C0091010A7170B070802002430292A1
:101D3000F2702020307174710621304601F0C2F833
:101D40000098214601F0BEF8002D0DD128E0002DAD
:101D500002D06C1E012D25D0152902D1B0790007C3
:101D600020D500F029F8254601F0CAF8002801D155
:101D7000FFF74AFF802100243046224601F0DCF8BC
:101D800031780628E3D11029E1D1F078029A904207
:101D9000DDD130790228DAD17079019A9042D6D11A
:101DA00003B0F0BD03480068102102F00BFDC046EF
:101DB000C81E00205020002080B500AF0D4882785A
:101DC0004178090211430078102808D00F280DD15E
:101DD000002004290DD1FFF72DFF012080BD002038
:101DE000062906D3FFF764FF012080BD0220FFF71C
:101DF0001FFB80BDC81E002080B500AF0A4601460B
:101E000082201423FFF77CFF80BD0000D0B502AF15
:101E1000072000F007FF0A480024047009480480E6
:101E2000094804800948048009480470FFF756FEF9
:101E3000084804600848046008480460D0BDC046F3
:101E4000AF210020B0210020B2210020B4210020C9
:101E5000A8210020B8210020BC210020C0210020A2
:101E60000148002101607047B8210020B0B502AFE1
:101E70000D460446206B00280CD000F0BBFE014646
:101E80002046884700F0B6FE0021002810D0012827
:101E900000D00446002D07D02046A8470021002886
:101EA00006D0012800D004462046FFF721F8012182
:101EB0000846B0BDB0B502AF8EB00C460546686BA3
:101EC00000280CD000F096FE01462846884700F016
:101ED00091FE0021002816D0012800D00546684652
:101EE00038222946FFF7DEFD686A0490A86A05904B
:101EF000002C04D02846A0470021002803D06846C3
:101F0000FEF7F6FF012108460EB0B0BDB0B502AF36
:101F10000D460446E06A00280CD000F06BFE014636
:101F20002046884700F066FE0021002810D00128D6
:101F300000D00446002D07D02046A84700210028E5
:101F400006D0012800D004462046FEF7D1FF01212B
:101F50000846B0BDF0B503AF87B002930392059178
:101F6000002976D004900D9801900C9800900026DE
:101F70000696344600F0C4FF002855D1382070433F
:101F8000049D2E18364B1A680121964200D00699FE
:101F900006912856002841DA2020355C0221715E26
:101FA0004A1B0398824239DC6918F2888918039821
:101FB000884233DA0421705E421B02998A422DDC8A
:101FC0004019318940180299814227DA18688642FF
:101FD00010D0186800280DD00198002805D0304690
:101FE000019988471E4B002818D018680199FFF7FF
:101FF0003DFF08E00098012809D002280ED13046A4
:102000000199FFF783FF164B002807D023E03046E5
:102010000199FFF74FFF124B00281FD1641CE6B255
:1020200005988642A6D300E00D4B0698000610D016
:10203000186800280DD000F063FF0949002808D176
:1020400008680199FFF712FF054D002801D0002014
:10205000286007B0F0BD00201860FAE71E60F8E7BE
:10206000B8210020F0B503AF8BB00C46014604AD9B
:102070001C2228460392FFF715FD2168E98062685B
:1020800002952A81A0681A4E65233546337092B2B4
:1020900042438BB25343D9084E1C0722134200D14E
:1020A0000E46314601910426864070181D30010A03
:1020B0006970A8700321284600F004FF0298039974
:1020C00000F000FFA06828700121284600F0FAFE09
:1020D000E06800F08FFDB1B200F0F4FE019885B227
:1020E000206900F087FD294600F0ECFE0BB0F0BD42
:1020F000C81E0020F0B503AF81B0044620787F26CB
:102100000640002E2ED0E06900281DD000F072FDA0
:102110000546052E02D1A07E002825D0284602F0D3
:1021200067FB064613486521017031461C310A0AD7
:1021300042708170032100F0C5FE1C21204600F092
:10214000C1FEB1B228460BE00A48652101700021AA
:1021500041701C258570032100F0B4FE20462946FD
:1021600000F0B0FE01B0F0BD20462946FFF77AFF2F
:10217000F8E7C046C81E002080B500AF0A46C16916
:1021800000F001F880BDF0B503AF81B016460446FB
:102190000025002C1CD02078072801D0022817D158
:1021A000084600F027FD002812D002F021FB46432C
:1021B000E08886420CD9311A7D2000014843A17E77
:1021C00002F0DEF8A17A4900C9B264224A43151828
:1021D000284601B0F0BD0000F0B503AF81B0044661
:1021E000002C2ED0184802688A4203D1174A13687F
:1021F0005B1C136006680E43144A1568002901D061
:10220000066005E00023036013600123DB071E4323
:102210000068884201D000201060082D0ED30321F1
:10222000284602F033F90120800730430029014697
:1022300000D03146002902DB084600E0304629463E
:10224000A04701B0F0BDC046BC210020C021002045
:10225000F0B503AF81B004460F20044206D02046FB
:10226000FEF70EFD0546A8B201B0F0BD10262640CF
:1022700000292AD0002E28D13D48007807280BD00D
:10228000002804D02046FEF7FBFC00280AD039487D
:102290000068092102F096FA3D4878440022202384
:1022A000FFF722FC0025324805703348058033488B
:1022B00005803348058033480570A006D3D4FFF766
:1022C000A3FC200601D500F0CBFC002E0CD160064B
:1022D00048D4274800210170274801802748018001
:1022E0002748018027480170284C244E08E0FFF75A
:1022F000DFFC3088002803D032E00220FFF798F896
:1023000000F0FEFD002801D1FFF77EFC80210025B2
:1023100020462A4600F010FEC11EA27863781B02F8
:102320001343994210D117490978002902D0FFF7C9
:1023300043FDE5E7217810290FD00F29DDD10428CE
:1023400002D1FFF777FCDBE70020094908700A4952
:10235000088030800A490880D2E70628C7D282E781
:10236000358880E705480088074945187BE7C0465F
:10237000AF21002050200020B0210020B2210020F9
:10238000B4210020A8210020FBFF0000C81E00206F
:102390005BFBFFFFF0B503AF83B006465D4C2546FF
:1023A0001435382228463146FFF77CFB2169A068A6
:1023B0000029029503D088470346A06803E01C214A
:1023C000414322685318002500280ED02269411E7F
:1023D000002A0DD0084601962E461D4690472B46F2
:1023E0003546019E0246A06806E028462A4603E0DC
:1023F0001C224A4321688A186168491E88420ED20D
:102400002169401C002906D00193154688472A46B9
:10241000019B054603E01C21414320684518707864
:1024200040280ADC202822DC102834D0202867D15C
:102430005969002000296BD151E0802822DC412815
:1024400033D042285CD159690020002960D1D96875
:1024500000295DD16268511E012A59D0A2688A42C2
:1024600056D0E968002953D12869206348E0212823
:1024700031D0222844D1194614315A690020002A4B
:102480002FD145E0822835D0812839D1A16800209C
:10249000002935D13CE0D9680020002938D02163DB
:1024A000587E00282CD0E0822AE0596900200029BB
:1024B0002ED1D96800292BD1A168002928D06168C4
:1024C000012925D0D168002922D1516900291FD1C5
:1024D0001069206314E059690020002918D01946BA
:1024E000103108682063187E002809D0E082082097
:1024F000A08505E06068A168421E0020914207D0D7
:10250000E268002A029803D0143418462146904706
:1025100003B0F0BDC4210020F0B503AF81B0054683
:102520003E4E3169B068002902D08847014603E079
:102530001C2141433068411801243948854215DD8A
:102540003848854218D0384885421DD037488542E2
:1025500060D10868002847D08C6800F04BFB01462A
:10256000F268204600F06CF8002453E030488542C1
:102570000AD02B4885424DD17168B0684A1E0024AC
:102580000121904205D345E00024E143B0680028D2
:1025900040D04018B060274800240460264DAC604D
:1025A0002868002836D0E8692449884232D00028BB
:1025B00030D000242046696888422BD200F0A0FC6D
:1025C000002827D1A868E968382670432A681018BF
:1025D000002914D08847002811D1A868401CA860A1
:1025E00029680029E7D115E04868002812D00C4678
:1025F00000F000FB0146A068884700240AE001289B
:1026000003D1A868464328688019FEF771FCA868C2
:10261000401CA860204601B0F0BDC046C421002087
:102620000200008002000040010000400300008022
:1026300001000080B82100203C180020445010B058
:10264000F0B503AF83B002920D46019038490020E7
:1026500000904860002D17D0394979441C24284641
:102660002246FFF7B9FA324900280DD0354E7E4494
:102670004868401C48606043281831462246FFF7EE
:10268000ABFA2B490028F3D1019A1046013005D04E
:1026900048689042009800D3104688600D6000257D
:1026A0000298C8600D61234C2748784420600920B7
:1026B000606026487844206125487844E060032023
:1026C0002076E5612046183000F0DEFBE0611A4913
:1026D0000D60A5602168002927D01849884216D1CD
:1026E00023E06068854220D200F00AFC00281CD15B
:1026F000A068E1683825684322681018002909D0CD
:102700008847002806D1A068451CA56020680028DD
:10271000E7D10AE0012803D1A068454320684019A9
:10272000FEF7E6FBA068401CA06003B0F0BDC04609
:10273000C42100203C180020B8210020445010B0D3
:10274000F22B0000DE2B0000AA29000061FEFFFF33
:10275000D7FCFFFF81B0F0B503AF94B016460D462D
:102760000E901993022D00D22AE20E98002800D173
:1027700026E2002E00D123E200210E9809912A467C
:10278000FFF786F919A80F903078002800D117E2DA
:102790000999C9436B1E08910A46099D03E0701907
:1027A0004078521E6D1CC0B2002801D02528F6D1F9
:1027B00005929D4200D31D460E9831462A461C467E
:1027C000FFF770F90B94631B0E984219002B00D190
:1027D000F6E17019715D252900D0ABE004930792F2
:1027E000401C002120220A920A22039202910691A3
:1027F0000D910B4602210C9106461A463178761C43
:102800000023622941DC08462538232800D994E0BA
:102810004000C04678448088400087442D018601EE
:102820008601860186015100860186012300580039
:102830008601240024002400240024002400240015
:102840002400240024008601860186018601860179
:102850008601860186018601860186018601860140
:1028600086016C00C9E730290A98034600D10B465F
:102870000D9C002C00D003460A20604340183038DD
:102880000D9030460A931346B4E76F2911DD703975
:10289000082900D949E149007944898849008F44D1
:1028A0005100440144012E004401590044014401F7
:1028B0005100632954D0642957D068291DD034E1D0
:1028C0003078732800D030E130460C9B0DE0307832
:1028D0002A2800D029E17178701C0123482904D0EE
:1028E000682902D0732900D01FE10F990A1D0F92A9
:1028F000096802917EE701200690102003900C9B4E
:102900000F98011D0F9103210A405B1C0168012AE9
:1029100000D1B8E0022A00D104E1032A304600D1F8
:1029200068E7089C2546049B481940786D1C0028E0
:10293000FAD1ABE006460E9209E1582900D0F4E046
:10294000012006900F98011D0F910268002005904C
:10295000102514E00F98011D0F91026800200CE073
:102960000F98011D0F91006887E00F98011D0F91CE
:102970000068C11742184A40C00F05900A2501247B
:1029800095420E9214D8012228460B9204462946FD
:1029900001F0F6FC0B99884209D1284660430D9955
:1029A000491E0D910E9988422246EED900E00C4650
:1029B0000C95254600200346C143059C002C00D100
:1029C00021460D980B9140180A99CAB2302A06D1B7
:1029D000002C04D010A92D230B7000240123811E8C
:1029E0000D290DD8411E0BD010A805941C4620437C
:1029F00001F08EFE0D980019059C0B994018431E9E
:102A00002946002C019603D010A82D22C2545B1C2D
:102A10000698002903D0002803D06CA002E01C46D1
:102A200016E06EA00D901C460E980E4601F0A8FC14
:102A30000C9D294601F02AFD0D98405C10A908550F
:102A40003046294601F09CFC641CB5420146EBD996
:102A5000049B9C42254600D31D4610A9079C204696
:102A60002A461E46FFF71EF8701B61190E91034699
:102A70000028019E6BD1A3E02520079908700498D7
:102A8000401E491C5FE0029D089C049B039810288F
:102A9000079861D1002D6AD00E9800190E900B9AFC
:102AA000A01A059B834200D803460C935C430A940A
:102AB000601C079000200E9C00910E940A9BE31866
:102AC0000D90095C0F20084009090C9CA418641C97
:102AD000022C75D3069C012C03D0002C08D13FA4F6
:102AE00000E03AA4C9B2615C1970C0B2205C5870B1
:102AF0000798904264D0921E0E9CA41C0D98401C16
:102B0000A8420099D9D30D9008990B98081A059BF3
:102B1000834200D803460846584320180E90981860
:102B2000431C38E00878002823D00520049D052D9B
:102B30002C4600D3044607982CA12246FEF7B2FF8C
:102B4000281B079909190E910346002838D03078C0
:102B50000028089934D01FE69D4200D31D462A461E
:102B60001C46FEF79FFF601B079949190FE00E9066
:102B7000EDE7049B029C9C4200D31C462021079851
:102B80002246FEF785FF0498001B079909190E914C
:102B90000346002814D00D98A842D8D9421B9A4267
:102BA00000D31A4620210E9D28460D921C46FEF7A2
:102BB0006FFF0D98241A2D180E952346002CC6D1B0
:102BC000002014B0F0BC02BC01B0084730313233F1
:102BD0003435363738394142434445463031323353
:102BE0003435363738396162636465664552524F11
:102BF0005200000080B500AF0449884204D3044964
:102C0000884201D200F006F880BDC0460000D0C066
:102C1000C053D0C07A460249C91C891A401A70476D
:102C2000152CD0C080B500AF84B00A4901910A4983
:102C30000A680292039001A8004601DF0046074897
:102C4000019A824201D104B080BD0868042101F0DC
:102C5000B9FDC0463701006050200020C601009039
:102C600080B500AF82B00948009009480168019121
:102C70006946084601DF01460649009A8A4201D1A9
:102C800002B080BD0068042101F09CFD00020060DC
:102C900050200020F1020090D0B502AF86B00A4B60
:102CA00001930A4B1C68029403AC07C401A80046B8
:102CB00001DF004606480199814201D106B0D0BD2E
:102CC0001868042101F07EFD7F0300605020002081
:102CD000BC03009080B500AF84B00A4A00920A4A53
:102CE00013680193029003916846004601DF004695
:102CF0000649009B8B4201D104B080BD10680421BD
:102D000001F060FD2C050060502000206705009058
:102D1000D0B502AF86B00A4B01930A4B1C680294EF
:102D200003AC07C401A8004601DF00460649019A2A
:102D30008A4201D106B0D0BD1868042101F042FDDD
:102D4000270F0060502000201E0F0090B0B502AF8A
:102D500086B00A4C00940A4C2568019502AD0FC557
:102D60006846004601DF00460649009A8A4201D1C2
:102D700006B0B0BD2068042101F024FDED290060FB
:102D800050200020AE290090B0B502AF86B00A4CAA
:102D900000940A4C2568019502AD0FC568460046AF
:102DA00001DF00460649009A8A4201D106B0B0BD53
:102DB0002068042101F006FD2E2A0060502000202A
:102DC000742A0090B0B502AF8AB00D4C01940D4C3E
:102DD0002568029503AD0FC50E9807900F980890CF
:102DE0001098099001A8004601DF00460649019AA3
:102DF0008A4201D10AB0B0BD2068042101F0E2FC92
:102E00005D310060502000205E310090B0B502AF0F
:102E100088B00B4C01940B4C2568029503AD0FC58F
:102E20000C98079001A8004601DF0046064801996A
:102E3000814201D108B0B0BD2068042101F0C2FC7C
:102E40002B510060502000207F51009080B500AFD2
:102E500084B00A4901910A490A680292039001A8C4
:102E6000004601DF00460748019A824201D104B0C2
:102E700080BD0868042101F0A5FCC046E15F006048
:102E8000502000206F5F009080B500AF84B00A49E9
:102E900001910A490A680292039001A8004601DFE5
:102EA0000046074A019B934201D104B080BD0868E7
:102EB000042101F087FCC0465861006050200020CA
:102EC0001F61009080B500AF84B00A4A00920A4AA0
:102ED00013680193029003916846004601DF0046A3
:102EE00006480099814201D104B080BD10680421D8
:102EF00001F068FC1C6A006050200020F36A00901A
:102F000080B500AF82B00948009009490868019077
:102F10006846004601DF0046064A009B934201D105
:102F200002B080BD0868042101F04CFCCF6B00604A
:102F3000502000207F6B0090D0B502AF86B00B4BC5
:102F400001930B4B1C68029403AC07C401A8004614
:102F500001DF00460749019A8A4202D180B206B0D9
:102F6000D0BD1868042101F02DFCC046D16C006072
:102F7000502000202B6C0090044800210170044870
:102F800001220270034801707047C04610220020E1
:102F90001122002012220020F0B503AF81B01446A8
:102FA0000D460646012C04D10B4800214022FEF7B5
:102FB0006FFD094831462A46FEF774FD074801783F
:102FC000002901D000210170012C03D102484021C9
:102FD000FEF712FF01B0F0BD1322002011220020E5
:102FE00003480178002901D1012101707047C046D2
:102FF0001222002080B500AF82B001228321049B01
:10300000402B04D16B461A60064A7A4403E06B46B3
:103010001A60034A7A44022300F0CAF902B080BD64
:103020005422000060220000F0B503AF89B00025F3
:10303000089507950E9E01228324402E08D86946E4
:103040000A60284A7A440223214600F0B1F943E09D
:1030500005960426314307293AD10292039404903D
:10306000402006931E5C002E0DD0069C4134E8B231
:10307000032101F00BFA605D18A2515C41406155DB
:103080006D1CAE42F3D145200699085C4630059A86
:103090008242049C0AD0684602990160124A7A442E
:1030A00002232046039900F083F9069941310C4828
:1030B0003246FEF7F7FC08A807A9FEF7BDF8102076
:1030C0000899014208D107992046FDF75FFB03E00C
:1030D0008A21034600F061FA09B0F0BD6D46770021
:1030E000A020002024220000CE21000080B500AFE7
:1030F00082B001228321049B002B05D06B461A600D
:10310000064A7A44022304E06B461A60044A7A4471
:10311000082300F04DF902B080BDC04666210000D2
:1031200060210000F0B503AF83B01E460D46044693
:10313000304600F07DFA0122012805D10B212046FE
:10314000334600F02AFA45E00192304600F060FA7A
:10315000012804D102A80421FFF7BCFD04E002A865
:1031600004223146FEF79EFC206D08222946FEF718
:1031700099FC206D083002A90422FEF793FC206D13
:1031800002210173206D00214173206D01228273A1
:10319000206DC173206D0174304600F039FA862528
:1031A000012807D128467930C1B204222046FEF713
:1031B0006FFC04E002A904222046FEF773FC012004
:1031C000E076226D68460199016011232046294668
:1031D00000F0EEF803B0F0BDF0B503AF87B0069095
:1031E000087900044B791C0204438B792343294D51
:1031F0005019083502462A408C7802944C78039482
:103200000C780126049683260596934203D0801CF1
:103210002840834217D1002C05D0684604990160EC
:103220001E4A7A4414E00398032818D002281FD0BD
:103230000128069826D19AB269460A6000210A46FA
:10324000FFF7D8FE09E0684604990160124A7A4403
:1032500002230698059900F0ABF807B0F0BD98B2CC
:1032600069460860002106980A46FFF73FFFF4E729
:1032700098B26A461060CB1D002206980299FFF7AB
:10328000D3FEEAE76946049A0A60054A7A440223B3
:10329000E0E7C046F7FF00001A20000054200000BD
:1032A000EC1F0000D0B502AF82B014468A784B788C
:1032B0001B0213430A78812A09D0832A12D0862A56
:1032C00026D1C91C00222346FFF72CFF20E0302224
:1032D0000024845401226C462260CA1C812100F023
:1032E00067F815E03022002484545C22825C002AB6
:1032F00006D001220274C91C1A46FFF76DFF07E0D1
:10330000027C002AF5D006210022034600F045F990
:1033100002B0D0BD80B500AF282101224254C17A4D
:10332000012914D13021425C01463031002A0ED0EF
:10333000426AC36A9A18C262FF23F6339A4206D3DE
:1033400000220A70031D0521012200F026F980BD2C
:10335000002181720174C27E002A00D0C1767047BC
:10336000084979444161084979447D22920001620B
:103370004262002181720174C27E002A00D0C176AF
:10338000018370473FFFFFFFA9FFFFFFD0B502AFEA
:10339000037B40200024012B00D02046824206D827
:1033A000084611461A46FFF7F7FDFFF719FED0BD94
:1033B000F0B503AF81B0069C012C01D103258572C5
:1033C000382501264655392500264655C263402238
:1033D000865242228352442281544521445400F0B3
:1033E00003F801B0F0BD0000F0B503AF8BB00546A7
:1033F0003920285C29465E310291294644310191E9
:103400002C464034294642310A91294639310491EB
:1034100003950994E97A04220023012900D01A4671
:10342000040603260123002C00D01E46164340222A
:10343000364C0129099B01D0029A1288951B1A88E3
:103440000A9B1B889A1AAA4200DC1546AA19069202
:103450000795254005950025012908940DD1039C69
:10346000E06C00214022FEF713FBE06C04252146AE
:103470002A46FEF717FB04980078010603D0C0B275
:10348000FF30039C0EE0039CE06C01990978AAB21E
:1034900081540120284385B2E26C0A994B78535538
:1034A000451C0878E16CAAB28854E16B00292546D6
:1034B000099C06D0E86C801922888918059AFEF7C5
:1034C000F1FA0898069901402A7BE86CFFF764FD41
:1034D0002088079941182180049A1078401C1070A8
:1034E00089B20A9A12888A4294D1FFF779FD38216D
:1034F000002068544521695C002905D0A872287411
:10350000E97E002900D0E8760BB0F0BDFFFF000097
:10351000F0B503AF83B01D4601920E46044600206D
:1035200000900290012D04D102A804223146FEF73A
:10353000B9FA2573FFF720FD5C20205C002807D036
:10354000A07AFE210140022902D1062100220DE0CD
:103550000420012D00D00098012201461143019B57
:103560008B4201D2852101E0305CC10902AB2046CB
:1035700000F013F8012D0ED13020205C25463035A7
:10358000002808D0211D02A80422FEF725FB0028F0
:1035900001D10098287003B0F0BDF0B503AF83B03F
:1035A0000093029201910446E06C002540222946D6
:1035B000FEF76EFAE07A01282E4605D1E06C04266B
:1035C00000993246FEF76EFAE06CF1B2BF22425427
:1035D00001203043C1B2E26C5554401CC0B2019B83
:1035E000190AE26C115403203043C1B2E26C535407
:1035F000401CC2B2E16C2046FFF7C8FE02980128C9
:1036000003D101212046FFF7A3FE03B0F0BD000067
:1036100080B500AF054979440422FEF7DDFA014682
:1036200001200022002900D0104680BD641C00004B
:1036300080B500AF054979440422FEF7CDFA014672
:1036400001200022002900D0104680BD481C000047
:103650000249002008600249086070475422002097
:1036600058220020D0B502AF06484F210170002437
:103670004470012181700221C1700421FFF722FCF6
:103680002046D0BDC81E0020F0B503AF83B001AD09
:103690004F262E7000246C700220A8700320E87062
:1036A0002C7105212846FFF70DFC2E706C7001204F
:1036B000A870E87004212846FFF704FC204603B0F8
:1036C000F0BDD0B502AF82B001A84F210170002437
:1036D0004470012181700221C1700421FFF7F2FBC7
:1036E000204602B0D0BD0000B0B502AF82B00F4896
:1036F000002404600E48046068464F25057044703D
:10370000052585700425C570012505714171032AC1
:1037100002D8D000074CC44068468471C3710821A8
:10372000FFF7D0FB002002B0B0BDC04654220020FD
:103730005822002001040302D0B502AF82B06846CF
:103740004F22027000244470052282700422C2704D
:103750000122027141718471C4710821FFF7B2FB2B
:10376000204602B0D0BD0000B0B502AF82B00D4619
:103770006846502101700024447003218170C57097
:103780004021017144710621FFF79CFB8020054216
:1037900001D1074800E0054801687F221540012259
:1037A000AA400A430260204602B0B0BD5422002065
:1037B00058220020F0B503AF83B00D4601A8502178
:1037C00001700024447003218170C5708026067149
:1037D00044710621FFF776FB354201D1074800E02E
:1037E000054801687F2215400122AA4091430160EB
:1037F000204603B0F0BDC0465422002058220020CD
:103800008020014201D0064800E0044800687F2281
:10381000114001228A400240D0B270475822002055
:1038200054220020D0B502AF82B068464F22027009
:1038300000244470022282700322C27001710521AB
:10384000FFF740FB204602B0D0BDB0B502AF82B05A
:103850001C461546684650220270E21C130A43704B
:103860008270C1702021017144710621FFF72AFB8B
:1038700028462146FFF726FB002002B0B0BDD0B598
:1038800002AF82B0684650230370002444700323C3
:103890008370C1703021017142710621FFF712FB64
:1038A000204602B0D0BDF0B503AF81B015460E463C
:1038B00004460220002C10D041208100204600F058
:1038C00021FF002E01D0F0202650DC2001212154C0
:1038D00025702046FFF7BCFE0020C0B201B0F0BD4D
:1038E000D0B502AF0446DC2001212154F420205839
:1038F000002806D04068FFF77DF90246217920466E
:1039000090472046FFF7DDFE2046FFF7ABFE002084
:10391000D0BD0222002902D0F42281500022D0B270
:10392000704780B500AFFFF7AFFE002080BDB0B597
:1039300002AF0C460546F420285800280CD0006839
:10394000FFF758F9024628462146904701460220D3
:10395000002900D10846B0BD0220B0BDB0B502AF0D
:103960000C460546F4202858002806D04068FFF78A
:1039700041F902462846214690470020B0BDB0B527
:1039800002AF04462546E835284600F04CFBD4201B
:1039900001212150EE20205AD8216050E820215CDE
:1039A0001F200840022808D001280BD000280ED183
:1039B0002046294600F0E6F80EE02046294600F0B1
:1039C000B8FA09E02046294600F08CFA04E080208D
:1039D00001402046FFF7C8FE0020B0BDF0B503AFA0
:1039E00081B015460E460446002E10D0F420205813
:1039F0008069002830D0DC21615C03292CD1FFF7DD
:103A0000F9F80346204631462A46984724E0D42058
:103A10002058032820D180202058E16F81420AD904
:103A2000091AE167814200D301468AB2204629463D
:103A300000F084FC10E0F42020580069002808D031
:103A4000DC21615C032904D1FFF7D4F8014620464C
:103A50008847204600F07AFC002001B0F0BDF0B5A8
:103A600003AF81B00D460446002D11D0F42020583C
:103A7000002852D0406900284FD0DC21615C032926
:103A80004BD1FFF7B7F8024620462946904744E05D
:103A9000D4202058022839D1E069256AA8420BD9E0
:103AA000401BE06101210A02A1584919A15082B2CC
:103AB000204600F034FC29E0A6693046294600F093
:103AC000E5FCAE420FD300290DD1D8202058254661
:103AD000D835864207D2002620463146324600F0CD
:103AE0001EFC2E6012E0F420205800280BD0C06885
:103AF000002808D0DC21615C032904D1FFF77AF8A3
:103B0000014620468847204600F02DFCE020205C3E
:103B1000E034012801D100202070002001B0F0BD68
:103B2000D0B502AF04468020402121502162DC2024
:103B300001212154F4202058002806D04068FFF7C6
:103B400059F802462179204690470020D0BD0174E3
:103B5000002070470020704700207047D0B502AFAA
:103B60000446DC20205C032809D1F4202058C069D9
:103B7000002804D0FFF73EF8014620468847002081
:103B8000D0BD0000D0B502AF04464878092810D84F
:103B9000784400794000874404080C150C19250C62
:103BA0001D21204600F02EF91FE0204600F069F9A3
:103BB0001BE080212046FFF7D7FD00212046FFF7BC
:103BC000D3FD12E0204600F045F90EE0204600F05B
:103BD0008DF80AE0204600F0F5F806E0204600F0F7
:103BE000B3F802E0204600F003F80020D0BD00004A
:103BF000B0B502AF82B00D4604466888010A4A1E7D
:103C000080210E2A3AD8C0467A441279520097444D
:103C100007240B35352B32353535353535351A001A
:103C2000F0202058006811E0C0B2052826D8C04610
:103C300078440079400087440245494D5155F020B1
:103C40002058406802E0F0202058C069FEF7D2FFFB
:103C50000246207C01A9904722E0F4202058217CD4
:103C6000002913D0C06A16E0207C002806D1F42079
:103C70002058406B0FE0207C002809D02046FFF739
:103C800073FD00212046FFF76FFD19E0806A02E016
:103C9000F4202058006BFEF7ADFF014601A88847CD
:103CA000014601A80288002A0AD0E888002807D027
:103CB000824200D3024601A80280204600F018FB91
:103CC00002B0B0BDF02020588068BFE7F020205837
:103CD000C068BBE7F02020580069B7E7F020205803
:103CE0004069B3E7F02020588069AFE7F0B503AF33
:103CF00081B00A4604469088802100280BD1D088E4
:103D0000002808D150887F260640DC20205C25460C
:103D1000DC35032808D12046FFF726FD0021204688
:103D2000FFF722FD01B0F0BDDE202654F1B220469F
:103D3000FFF778FD204600F009FB02200121002E4C
:103D400000D108462870EDE7F0B503AF81B0044616
:103D50008E788025022E1DD2DC20215C2046DC30AE
:103D6000032907D0022915D1002E26D06660032131
:103D7000017009E0002E16D0606886421DD0C1B2E5
:103D80002046FFF7EBFD666020463146FFF7CFFD8A
:103D9000022812D120462946FFF7E6FC00212046E2
:103DA000FFF7E2FC0CE0022101706660204631461C
:103DB000FFF7D4FD204600F0C9FA204600F0C6FA0D
:103DC00001B0F0BDD0B502AF0446C88880210128FB
:103DD0000AD1DC20205C03280ED0022804D1002068
:103DE000A0602146083108E02046FFF7BDFC002115
:103DF0002046FFF7B9FCD0BD211D0122204600F06E
:103E000077FAD0BDB0B502AF0446DC20205CFE21BD
:103E10000140022915D10120E060E4202158254607
:103E20000C350320002905D0204600F09CFAE168FB
:103E300002200843E06002222046294600F058FA9A
:103E4000B0BD80212046FFF78FFC00212046FFF700
:103E50008BFCB0BDB0B502AF0D46044668880128A2
:103E60000ED1E42001212150F42020588068FEF773
:103E7000C1FE0246204629469047204600F066FAD9
:103E8000B0BDB0B502AF0D460446DC20205CFE217B
:103E90000140022912D16888012817D1E4200021AD
:103EA0002150F42020588068FEF7A4FE02462046E8
:103EB00029469047204600F049FAB0BD80212046AF
:103EC000FFF752FC00212046FFF74EFCB0BDD0B5F5
:103ED00002AF04468021FFF747FC00212046FFF790
:103EE00043FCD0BDB0B502AF0D460446DC20205CDB
:103EF0008021032814D1A888FE220240012A0FD86D
:103F0000F42020588068FEF775FE024620462946B8
:103F10009047E88800280AD1204600F017FA06E00A
:103F20002046FFF721FC00212046FFF71DFC002062
:103F3000B0BDF0B503AF81B00E46044630786021C5
:103F40000140202909D1F42020588068FEF752FE54
:103F5000024620463146904762E0357970788021EC
:103F6000002812D0012819D0032859D1DC20205C68
:103F7000032817D1708800282DD1294380292AD001
:103F800020462946FFF7F0FB25E0DC20205C0328D3
:103F90002ED002280ED1680609D141E0DC20205C39
:103FA00003280FD0022805D12943802938D0204684
:103FB000294604E02046FFF7D7FB00212046FFF703
:103FC000D3FB2DE0708800282AD168060CD020464B
:103FD0002946FFF7EFFBF42020588068FEF70AFE21
:103FE0000246204631469047204600F0AFF917E0E0
:103FF00026461436204674300D4200D1064620462F
:104000002946FFF7FDFB0121002800D101467F2052
:1040100005402801315031180222204600F068F98D
:10402000002001B0F0BD0A7802704A7842708A78A8
:10403000CB781B02134343800A794B791B0213434D
:1040400083808A79C97909021143C1807047F0B52C
:1040500003AF83B00D46044602A80026068001A8DF
:104060000670297860200840002810D0202839D117
:10407000687801460A39022934D302281CD0032863
:104080001AD020462946FFF722FF02262AE0687848
:104090000B2814D00A280FD0062823D16888000ADC
:1040A000002621280FD022283246314617D102A8F7
:1040B000009000F08FF80AE001A901220FE02046ED
:1040C00000F044F90EE002A8009000F07BF8009B9D
:1040D00001461A88E888824200D302461A802046A8
:1040E00000F006F9F0B203B0F0BDF0B503AF81B057
:1040F00004468221022540262A463346FFF7F4FA79
:10410000204629462A463346FFF7EEFA204629463E
:104110003246FFF7B4FB002001B0F0BDD0B502AFCE
:1041200004468221FFF708FB02212046FFF704FB2B
:104130000020D0BD12200880014878447047C04656
:10414000D811000004200880014878447047C04618
:10415000461100000E200880014878447047C04690
:10416000281100000E200880014878447047C0469E
:10417000341100000A200880014878447047C04686
:104180001A1100000E200880014878447047C0468C
:10419000F81000000E200880014878447047C0469F
:1041A000E81000000A210180014878447047C046A9
:1041B0005E11000029210180014878447047C04603
:1041C0001611000009210180014878447047C0465B
:1041D0003211000022210180004870476023002036
:1041E000F0B503AF81B01446022540222946FFF7FF
:1041F00046FB114806782846FDF752FD0246002E80
:1042000005D00E4801232146FFF782F910E010483F
:1042100078442146FDF790FB022809D10848012186
:1042200001700848072101700748006807490880A5
:10423000002001B0F0BDC046822300207419002088
:10424000A8210020AF21002098200020B2210020CA
:10425000E5DBFFFFF0B503AF81B00D4604461C4E11
:104260002049794422223046FDF71CFC19481A499E
:10427000002D00D108467070000AB0700120002D9A
:1042800000D12846154908704120850014480021B6
:104290002A46FDF7FDFB002C15D0114C00262046C8
:1042A00031462A46FDF7F4FB0F4979442046324651
:1042B000FFF7F9FA0D4979442046FFF72AFB20461B
:1042C000FFF72FFB02E00648FFF70AFB01B0F0BD45
:1042D00060230020D0F10000A0FF00008223002016
:1042E0005C2200204A1000007A1000008E100000AE
:1042F000B0B502AF0C46D421022343508261C261A3
:10430000012109024450016A8A4200D30A4693B24D
:10431000002529462246FFF798FA2846B0BDB0B5D9
:1043200002AF0C46016A8A4200D30A4693B20025C6
:1043300029462246FFF789FA2846B0BDD0B502AF1C
:1043400000242146FFF79BFA2046D0BDD0B502AF2E
:10435000D421042242500024214622462346FFF75E
:1043600074FA2046D0BDD0B502AFD4210522425008
:10437000002421462246FFF782FA2046D0BD0000E5
:10438000002243088B4274D303098B425FD3030A94
:104390008B4244D3030B8B4228D3030C8B420DD3A7
:1043A000FF22090212BA030C8B4202D31212090235
:1043B00065D0030B8B4219D300E0090AC30B8B4273
:1043C00001D3CB03C01A5241830B8B4201D38B0321
:1043D000C01A5241430B8B4201D34B03C01A5241C6
:1043E000030B8B4201D30B03C01A5241C30A8B4209
:1043F00001D3CB02C01A5241830A8B4201D38B02F4
:10440000C01A5241430A8B4201D34B02C01A524197
:10441000030A8B4201D30B02C01A5241CDD2C30909
:104420008B4201D3CB01C01A524183098B4201D385
:104430008B01C01A524143098B4201D34B01C01A70
:10444000524103098B4201D30B01C01A5241C308E8
:104450008B4201D3CB00C01A524183088B4201D357
:104460008B00C01A524143088B4201D34B00C01A43
:104470005241411A00D20146524110467047FFE7AF
:1044800001B5002000F006F802BDC0460029F7D0B3
:1044900076E770477047C046002B11D1002A0FD134
:1044A000002900D1002802D00021C943081C07B40C
:1044B000024802A14018029003BDC046D9FFFFFF89
:1044C00003B4684601B5029800F032F8019B9E469D
:1044D00002B00CBC7047C046F0B54F464646C0B46B
:1044E0001604360C9946330005042C0C070C150CE9
:1044F00063437E436F4365431C0CAD1964199C46AE
:10450000A64203D980235B02984647446346250CA4
:10451000EF191D044B464A4343432D0C24046419F0
:104520009918C91920000CBC90469946F0BDC046A8
:10453000F0B54D46564644465F46F0B4924683B0C9
:1045400004000D0099468B422FD82CD04946504686
:1045500000F0AEF829000600200000F0A9F8331A98
:104560009846203B9B4600D574E053465A469340FC
:104570001F005346424693401E00AF4229D826D022
:104580005B46A41BBD41002B00DA79E0002200232A
:104590000092019301235A4693400193012342461E
:1045A0009340009319E08242D0D900220023009268
:1045B00001930C9B002B01D01C605D600098019959
:1045C00003B03CBC90469946A246AB46F0BDA34220
:1045D000D6D900220023009201934346002BE8D055
:1045E000FB0772081A4346467B080EE0AB4201D136
:1045F000A2420CD8A41A9D41012024196D4100212A
:10460000013E24184D41002E06D0AB42EED9013EAA
:1046100024196D41002EF8D15B46009801990019CC
:104620006941002B22DB2B005A46D3402A00444626
:10463000E2401C005B461500002B2CDB26009E4050
:10464000330026004746BE403200801A9941009050
:104650000191AEE7424620239B1A5246DA4041467A
:1046600013004A468A4017001F4382E74246202330
:104670009B1A2A0046469A402300F3401343D5E78D
:104680004246202300219B1A002200910192012220
:10469000DA40019282E74246202326009B1ADE4040
:1046A0002F00B446974066463B003343C9E7C046F7
:1046B00010B5002903D100F007F8203002E0081CF3
:1046C00000F002F810BDC0461C2101231B049842D3
:1046D00001D3000C10391B0A984201D3000A083993
:1046E0001B09984201D30009043902A2105C40184A
:1046F0007047C046040302020101010100000000EE
:104700000000000010B5002200F002F810BDC04605
:10471000130010B50A00190000F002F810BDC046E1
:1047200070B583073FD0541E002A3BD0CEB20300A1
:10473000032503E0621E002C34D0140001335A1EFE
:1047400016702B42F6D1032C24D9FF250D402A02E6
:1047500015432A0415430F2C11D92600103E3609A3
:10476000013636011A009B19156055609560D560B9
:1047700010329342F8D10F221440032C0AD9261F7D
:10478000B6080136B6001A009B1920C29342FCD12C
:1047900003221440002C05D0C9B21C191970013332
:1047A0009C42FBD170BD14000300CCE7F0C0414631
:1047B0004A4653465C466D4676467EC02838F0C869
:1047C0000020704710307CC890469946A246AB4600
:1047D000B54608C82838F0C8081C00D10120184781
:1047E000031C0A7801311A700133002AF9D170478D
:1047F00010B5830727D00378002B26D003000321B0
:1048000002E01A78002A1CD001330B42F9D1196852
:104810000F4A104C8A188A4322420FD10433196878
:104820000B4A8A188A43224208D104331968084A7D
:104830008A188A432242F1D000E001331A78002A14
:10484000FBD1181A10BD0300E1E70020FAE7C046CB
:10485000FFFEFEFE808080803132333435363738BB
:104860003941424344454647484A4B4C4D4E5051CE
:1048700052535455565758595A6162636465666776
:1048800068696A6B6D6E6F70717273747576777824
:10489000797A5FB16478592A5DB6000000000000A3
:1048A000FFFFFF00E001FEC1FD387F06DF81FFC48E
:1048B0007FF3FFBC1FE7E7F13FF807780000000037
:1048C0000E0000000E000000010000009C48D0C057
:1048D000A448D0C000000000FFFFFF00E001FEC1BF
:1048E000FF387006D8797E9E9FE7E7B901E6C0F1F0
:1048F0003FF80778000000000E0000000E000000E6
:1049000001000000D448D0C0DC48D0C00000000046
:10491000FFFFFF00E001FEC1F3F87C1EDE87FFC051
:104920007FF8EFBD87E7E1F13CF807780000000071
:104930000E0000000E000000010000000C49D0C075
:104940001449D0C04E6F0059657300436F6E747286
:1049500061637420646174610042726F7773657281
:1049600020737570706F7274004261636B005665DE
:104970007273696F6E00312E302E300055736520D2
:1049800077616C6C657420746F007669657720615F
:1049900063636F756E74730053657474696E6773C7
:1049A0000041626F75740051756974206170700008
:1049B000436F6E6669726D00616464726573730043
:1049C00041646472657373007472616E73616374C1
:1049D000696F6E005741524E494E47004461746101
:1049E0002070726573656E7400416D6F756E740032
:1049F0004D6178696D756D20666565730000000016
:104A0000000000005508D0C00000000000000000B9
:104A10004449D0C000000000000000000000000079
:104A20005508D0C001000000000000004749D0C078
:104A30000000000000000000000000000000000076
:104A40000000000000000000000000000000000066
:104A50000000000000000000DD07D0C000000000E2
:104A6000000000004449D0C0000000000000000029
:104A700000000000DD07D0C00100000000000000C1
:104A80004749D0C000000000000000000000000006
:104A90000000000000000000000000000000000016
:104AA0000000000000000000000000002D08D0C041
:104AB00000000000000000004B49D0C000000000D2
:104AC0000000000000000000A908D0C000000000A5
:104AD000000000005949D0C00000000000000000A4
:104AE0006C4BD0C00000000001000000C048D0C0E6
:104AF0006949D0C0000000003D280000000000000F
:104B000000000000000000000000000000000000A5
:104B10000000000000000000000000000000000095
:104B200000000000000000006E49D0C07649D0C0EF
:104B3000000000006C4BD0C000000000020000002C
:104B4000C048D0C06949D0C0000000003D28000026
:104B50000000000000000000000000000000000055
:104B60000000000000000000000000000000000045
:104B700000000000000000003049D0C07C49D0C0D7
:104B80008A49D0C0210C0000A84AD0C00000000013
:104B900000000000000000009849D0C000000000A4
:104BA00000000000184BD0C0000000000000000012
:104BB00000000000A149D0C000000000000000007B
:104BC000000000004D2ED0C000000000F848D0C00A
:104BD000A749D0C000000000321D00000000000006
:104BE00000000000000000000000000000000000C5
:104BF0000000000000000000030000000000800032
:104C0000200000000100000000000000FFFFFF0086
:104C10000000000000000000000000000000000094
:104C20000000000000000000000000000000000084
:104C3000050003000C000700070000000000000052
:104C4000FFFFFF0000000000000007000000000060
:104C50000000000000000000000000000000000054
:104C60000000000000000000050075000D000800B5
:104C70000600000000000000FFFFFF000000000031
:104C8000000006000000000000000000000000001E
:104C90000000000000000000000000000000000014
:104CA000070100000C0080000C0000000000000064
:104CB000FFFFFF000000000008800000B049D0C0E6
:104CC00000000000000000000000000000000000E4
:104CD0000000000000000000070100001A00800032
:104CE0000C00000000000000FFFFFF0000000000BB
:104CF00008800000B849D0C000000000000000009B
:104D000000000000000000000000000000000000A3
:104D1000070200000C0080000C00000000000000F2
:104D2000FFFFFF00000000000A800000C049D0C063
:104D30000000000000000000000000000000000073
:104D40000000000000000000070217001A005200D7
:104D50000C008A0000000000FFFFFF0000000000C0
:104D600008801A0002180020000000000000000067
:104D70000000000000000000000000000000000033
:104D8000030000000000800020000000010000007F
:104D900000000000FFFFFF00000000000000000016
:104DA0000000000000000000000000000000000003
:104DB0000000000000000000050003000C000700D8
:104DC0000700000000000000FFFFFF0000000000DF
:104DD00000000700000000000000000000000000CC
:104DE00000000000000000000000000000000000C3
:104DF000050075000D00080006000000000000001E
:104E0000FFFFFF000000000000000600000000009F
:104E10000000000000000000000000000000000092
:104E20000000000000000000070100000C008000EE
:104E30002000000000000000FFFFFF000000000055
:104E400008800000B049D0C0000000000000000051
:104E50000000000000000000000000000000000052
:104E6000070100001A008000200000000000000080
:104E7000FFFFFF000000000008800000C849D0C00C
:104E80000000000000000000000000000000000022
:104E90000000000000000000070200000C0080007D
:104EA0002000000000000000FFFFFF0000000000E5
:104EB0000A800000D449D0C00000000000000000BB
:104EC00000000000000000000000000000000000E2
:104ED000070217001A0052000C000000000000003A
:104EE000FFFFFF000000000008800000DC49D0C088
:104EF00000000000000000000000000000000000B2
:104F00000000000000000000070300000C0080000B
:104F10002000000000000000FFFFFF000000000074
:104F20000A800000E949D0C0000000000000000035
:104F30000000000000000000000000000000000071
:104F4000070317001A0052000C008A00000000003E
:104F5000FFFFFF000000000008801A00EC1800208E
:104F60000000000000000000000000000000000041
:104F70000000000000000000070400000C0080009A
:104F80002000000000000000FFFFFF000000000004
:104F90000A800000C049D0C00000000000000000EE
:104FA0000000000000000000000000000000000001
:104FB000070410001A0060000C0000000000000050
:104FC000FFFFFF0000000000088000001E19002005
:104FD00000000000000000000000000000000000D1
:104FE0000000000000000000070500000C00800029
:104FF0002000000000000000FFFFFF000000000094
:105000000A800000F049D0C000000000000000004D
:105010000000000000000000000000000000000090
:10502000070517001A0052000C008A00000000005B
:10503000FFFFFF000000000008801A003E1900205A
:105040000000000000000000000000000000000060
:10505000000000000000000003800000000080004D
:10506000200000000100000000000000FFFFFF0022
:105070000000000000000000000000000000000030
:105080000000000000000000000000000000000020
:10509000058103000E00070004000000000000006E
:1050A000FFFFFF000000000000000B0000000000F8
:1050B00000000000000000000000000000000000F0
:1050C0000000000000000000058276000E000700CE
:1050D0000400000000000000FFFFFF0000000000CF
:1050E00000000C00000000000000000000000000B4
:1050F00000000000000000000000000000000000B0
:1051000007410E00030064000C00000000000000D6
:10511000FFFFFF00000000000A8000000000000008
:10512000000000000000000000000000000000007F
:10513000000000000000000007420E002300640091
:105140000C00000000000000FFFFFF000000000056
:105150000A800000000000000000000000000000C5
:10516000000000000000000000000000000000003F
:1051700005100E0009000000000000000000000003
:10518000FFFFFF0000000000000000000000000022
:10519000000000000000000000000000000000000F
:1051A000000000000000000007200E001300640053
:1051B0000C00000000000000FFFFFF0000000000E6
:1051C0000880000000000000000000000000000057
:1051D00000000000000000000000000000000000CF
:1051E00007210E000C0064000C000000000000000D
:1051F000FFFFFF000000000008800000000000002A
:10520000000000000000000000000000000000009E
:10521000000000000000000007220E001A006400D9
:105220000C00000000000000FFFFFF000000000075
:1052300008800000000000000000000000000000E6
:10524000000000000000000000000000000000005E
:10525000000000000000000000000000000000004E
:1052600000000000000000000000000067006F0068
:105270006A805532465F563290006E006D00FFFF27
:10528000FFFF000000000E034E0061006E006F0083
:1052900020005300040309040A03300030003000EA
:1052A00031000E034C006500640067006500720069
:1052B00006D0F10901A1010903150026FF007508B8
:1052C000954081080904150026FF00750895409156
:1052D00008C0000009022900010102C032090400CF
:1052E000000203000002092111010001222200072F
:1052F0000582034000010705020340000100000091
:105300000921110100012222000000000A0600020A
:105310000000004001001201000200000040972C34
:1053200001000002010203013541D0C04541D0C057
:105330006541D0C05541D0C07541D0C08541D0C075
:105340009541D0C000000000EB40D0C01D41D0C04E
:105350004F40D0C00000000000000000000000002E
:10536000E141D0C00000000000000000000000008B
:10537000B541D0C0B541D0C0B541D0C0A541D0C025
:10538000000000000000000000000000000000001D
:10539000000000000000000000000000000000000D
:1053A00000000000000000000000000000000000FD
:1053B00000000000000000000000000000000000ED
:04000005C0D0000166
:00000001FF
