:02000004C0D06A
:10000000F0B595B062B603F0B9FC2B4E03252F0274
:100010003A46603200242648214603F05FFD254819
:1000200021463A4603F05AFDB0223046214603F0FD
:1000300055FD0AAF384606F0DBFF388587B2002F42
:100040000CD00AA8048503F00DFE03F09AFC102FD3
:10005000DCD003F06FFC002015B0F0BD0AA803F05F
:1000600090FC03F03BFF1648784404F0C1FE807812
:10007000012810D001AE0120B070354300212022AC
:10008000284603F02BFD0F48784404F0B1FE2322EC
:10009000314604F0EFFE204606F0B4FC012006F0E5
:1000A000B1FC0648047001F0CFFC03F0E7F8C0464D
:1000B000C01C0020B81900203C18002000180020A7
:1000C00014820000F4810000F0B5D9B01D4614463A
:1000D0000F460146A52F79D230A83A4603F007FD16
:1000E0000022002F09D00022D0B230A9085C0028DD
:1000F00003D1521CD0B2B842F6D3049501947800D3
:100100000392D5B2BD42029004462AD2029C039EBD
:1001100005970694F0B20021B8420FD205990F1A44
:1001200030A90C1800210902207808433A2106F072
:100130008DFD20707F1E641C002FF4D130A8425D1D
:1001400025487844405C069C641EE1B207AB5854D5
:10015000701C002A00D03046C5B2059FBD4206463D
:10016000D7D3E1B2029FB9420DD21C48784400783F
:10017000049B039E07AA515C814206D1641CE1B234
:10018000B942F7D301E0049B039E300610D0144817
:1001900078440078254621463246491ECBB207AC4A
:1001A000E054521EFF231A42F7D12C46A41B049B95
:1001B000E0B2391ACEB2B3420BD307A9091801989D
:1001C000324603F094FC304659B0F0BD022003F0F3
:1001D00042FD032003F03FFD627000003870000014
:1001E00014700000F0B51D6800248D4223D8461914
:1001F0005660AF1D1F602E4626368E421BD8C7198B
:1002000097601E602F4646378F4214D88619D660F5
:100210001F602E4666368E420DD8C71917611E60C4
:100220008E4208D8805D107567351D600124034833
:100230008D4200D00446A0B2F0BDC046126E000050
:10024000F0B583B000920D46064601AF00243C7025
:100250003A4601F009F93A78029201433720400208
:10026000002906D1009A147002AB30462946FFF7E8
:10027000B9FF03B0F0BD70B514460D460646002028
:10028000A0612070201D112106F01CFE3046294679
:100290002246FFF7D5FF70BDF0B583B001920C4642
:1002A000064602AF00253D703A4601F0DDF80143F5
:1002B00037204002002901D0054616E03978019B1D
:1002C0001D70A14211D872185A608A1DA2420CD822
:1002D000B2189A600A462632A24206D8B25C1A7355
:1002E000273111300125A142E6D1A8B203B0F0BDFB
:1002F00080B5002313615360936013731370FFF78D
:10030000CBFF80BDF0B58FB0076846680E24E4438C
:1003100097420E940993089600D30CE2149D06951B
:100320001B19DC1C02940E330393CB1C01930D901C
:100330000B920C91CFE07C1C01E00B5D641CD8B2E9
:100340001F280DDD0246203A1A2A04D801259540BF
:10035000F54A154217D15D2815D07D2807D112E046
:100360000D2804D801228240F04802420BD1203BE4
:10037000D8B25E2800D9FFE10D9804600B9A944230
:10038000DBD3079603E00796641E0D980B9A099B32
:10039000002B4CD00A970699089A8A4200D3F7E1BD
:1003A000511C0E4641601101099A53180D980E997F
:1003B0000E31002559609960DD601F460C371A1D0B
:1003C00019460831002B00D1E2E1089204221A708C
:1003D0000D980A9A089B1A600C603D60099B0B9A65
:1003E000354625E0012002227D2B00D010460E9BD1
:1003F000E25C44311C460D346B1E8242079E0D9810
:1004000000D0C2E10E9A0E3282600A98421C0A6045
:100410003968013102D07968013151D00E99090152
:100420007F18E037591E002B0B46F1DC6EE0089D6B
:10043000641E0460079E761C002B0A943ED08168DF
:100440000A46013204D009015918CA68521CCA6010
:1004500008955BE00999002935D00699089A8A42E7
:1004600000D399E1511C059141601101099A54187A
:100470000D980E990E3100256160A160E560274658
:100480000C37221D21460831002C00D184E116468C
:1004900003222270009A32600B603D60079E761C3A
:1004A00081680A46013205D0090109984118CA68D5
:1004B000521CCA600A930598089027E0089527E027
:1004C0000D98836023E0079E761C0A9320E0491E66
:1004D0000D9881601BE0CB5D2B2B0BDD5C2B0A970D
:1004E0001DDC2C2B00D1E9E03A2B00D118E15B2B6D
:1004F00048D020E718460938192800D918E1012505
:100500002A468240A64C22426FD00A970D980B9A39
:100510000A9F7F1C076097420C99DCD30BE15D2B8F
:1005200004D07B2B2ED07D2B00D004E70999002925
:10053000EED007960898411E002901460E9E0398AA
:1005400018DB089D2901029A571829014418B100A7
:10055000611889190A6C013203D04A6C013200D14A
:1005600040E70E9E31017F18E037691EAA1E002A5F
:100570000D46EADA34460D340029079E0D980B9A91
:10058000C6D102E1761C09990029C1D00E9C0E3417
:100590000699089A8A4200D3F7E008994D1C4560F5
:1005A0000901099A51180E9C0E3400224C608C608F
:1005B000CA600D980F1D002900D1E6E0826814463C
:1005C000013405D01201099CA218D468641CD460BF
:1005D000012202247B2B00D022460A700A98386040
:1005E0000D9808998160089591E719280D980B9A44
:1005F00000D09DE0049507963E46791C016000916D
:10060000914200D3B4E0009B35462F460C99C95C5B
:100610005C2907D0002900D1AAE0222900D119E7DE
:100620001D4612E0B91C91421D460ED201600C9B82
:100630005B5C1C465C3C192C33D8049AA240594D93
:100640002A4207D00D460D980B9A6B1C036093420B
:10065000DBD38DE0192C0D980B9A22D1FA1C026085
:100660000198C019059000257919CB1C0B9883427D
:1006700020D20598445D002C1BD02346303BDBB2D2
:100680000A2B06D32346413B062B02D3613C062CA2
:1006900077D2091D0D9801606D1C521C042DE3DBFF
:1006A00008E0222B03D02F2B0D46CED06AE00D465A
:1006B000CBE71A46551E0D980560C5E7099B002B30
:1006C00000D125E781680A46013200D11EE7090101
:1006D000595C491EC9B202290D980B9A00D217E73E
:1006E000089B591E002900DA12E71A4603981146A2
:1006F0000A0183180E9A9A5C521ED2B2012A0AD8B5
:100700000E9CA2009A181219136C013303D0526C7C
:10071000013200D1DBE64A1E891E0029E7DAF5E640
:100720000899491E8160F3E60110000401260000CB
:10073000002B00D0FFE5099A002A17D00899481E1F
:10074000002813DB090151180E9A8918C91C0A6880
:10075000013204D00E9C0C344A68013215D00E9A36
:1007600012018918E031401E0028F0DA34460CE00E
:1007700006600E9C0C3408E00E9C0D340D9807604A
:1007800003E00D9806600E9C0D3420460FB0F0BDBE
:100790000E9C0E340A9FF2E706600E9C0E34F4E7BE
:1007A0001300800041044401F0B585B0039200902D
:1007B000056805208D4250D029780A2001294CD1A6
:1007C0000A9E0720C04304902835284878440068D2
:1007D00002900024039801961CE0049880002A18D7
:1007E000D3681069C71A0E20029EB74235D104980B
:1007F0002F5C0C20042F30D10398C3180901019EEF
:1008000071188B62D369C2184A622A68D21A0A62C6
:100810002035641C7474049A110169188F1870379C
:1008200039460FA2064600F023F800280DD03046C6
:1008300039460CA200F01CF8002806D03046394694
:1008400009A200F015F8002804D1E1B20B200A2912
:10085000C3D902E000980760002005B0F0BDC04693
:10086000464131004641320046413300346A0000BF
:1008700070B514460A78032A12D14A688968851827
:100880008E1A204606F0D6FB864200D3064628463E
:100890002146324606F002FC01460020002901D024
:1008A0000020C04370BD0000F0B583B01446019035
:1008B000066805208E423AD031780620012936D1CB
:1008C000317C10360720032931D1089F1C48784419
:1008D0000068029000250CE07068B168091A0E20CB
:1008E000029A914223D1317C082004291FD16D1C2A
:1008F00020363D74204631460EA2FFF7B9FF00288E
:100900000DD0204631460CA2FFF7B2FF002806D0DA
:100910002046314609A2FFF7ABFF002804D1E9B217
:1009200009200A29D8D902E001980660002003B006
:10093000F0BDC046464131004641320046413300D9
:1009400032690000F0B585B01446024604910520D6
:10095000012A44DB0B78012B41D10F461037049755
:10096000521E1301CD18012A39D00020022A36DB8D
:1009700001900A9802901B4E7E441B4878440390D5
:100980003878032829D120463946324600F02EF81F
:10099000002811D020463946039A00F027F8103776
:1009A0000497002814D168460299016004A82946DA
:1009B0002246FFF7F9FE09E01037049768460299CE
:1009C000016004A829462246FFF76EFF002806D1E1
:1009D000049FAF42D4D3019801E0E81B001105B099
:1009E000F0BDC046776800007A68000070B5144614
:1009F0000E4605463078032810D1204606F01AFB33
:100A000002467068B168091A8A4207D1281821463F
:100A100006F044FB01460020002901D00020C0431D
:100A200070BD0000F0B58BB016460D461946C031BA
:100A30001022002E38D0029303AB07C3771E002488
:100A400028190790285D641C7B2829D1B44227D23D
:100A5000394620462A5C093A172A09D801239340CF
:100A60002B4A134204D0491E401CB042F2D317E077
:100A70000529F8D928180622069026A106F00EFBB3
:100A8000002814D00622069824A106F007FB0028AF
:100A90000DD00622069823A106F000FB002806D000
:100AA0007F1EB442CCD3059A10460BB0F0BD002493
:100AB00008940994E0430A902A206946086008A82F
:100AC000079F39463246049D2B46FFF71BFC102238
:100AD0000028E9DB0F220028E6D029780129E3D19C
:100AE0000399012909D000290FD16946029A0A60A9
:100AF00029463A46FFF726FF07E06946029A0A6050
:100B000029463A46334600F011F82246CCE7C04663
:100B10001F00800022696E7075740000226F75746A
:100B200070750000226D657461640000F0B585B0D9
:100B30001446024604910520012A64DB0B78012B40
:100B400061D10F4610370497521E1301CD18012AA8
:100B500059D00020022A56DB01900A9802902E4EAE
:100B60007E442E48784403903978042003294AD1E2
:100B7000204639463246FFF739FF002828D0204664
:100B80003946039AFFF732FF00282CD02046394619
:100B90001EA2FFF72BFF39461031049100282ED1F9
:100BA000A9422CD87969B869814228DA0321C9435E
:100BB00024377B183A461032AB4203D83B68834255
:100BC0001746F6DB0801101840183030049016E084
:100BD0001037049768460299016004A82946224606
:100BE00000F080F809E01037049768460299016028
:100BF00004A82946224600F013F8002803D1049FD8
:100C0000AF42B1D3019805B0F0BDC0466D657461C7
:100C100064617461000000008F660000926600004D
:100C2000F0B585B014460E46019007680520B7421E
:100C30004ED039780A2001294AD10A9B28487844A5
:100C40000068039010370025029322E07A68B868A4
:100C5000831A0E202546039CA3422C4638D13B7CA8
:100C60000C20022B34D1A0180901029B591888626C
:100C70007A69A0184862B869821A0A6239460F4632
:100C80001037B74203D8496981423946F7DB049DE2
:100C90006D1C5D74204639460EA2FFF7E9FD002861
:100CA0000DD0204639460CA2FFF7E2FD002806D001
:100CB0002046394609A2FFF7DBFD002805D104953F
:100CC000E9B20B200A29C1D902E00198076000208F
:100CD00005B0F0BD46413100464132004641330087
:100CE000C2650000F0B583B014460E460090076858
:100CF0000520B74245D039780620012941D1397CF9
:100D00001037072003293CD10898029021487844E5
:100D100000680190002515E07868B968091A0E206E
:100D2000019A91422DD1397C0820022929D1B86934
:100D300039460F461037B74203D8496981423946D0
:100D4000F7DB6D1C02980574204639460EA2FFF7AA
:100D50008FFD00280DD0204639460CA2FFF788FDF4
:100D6000002806D02046394609A2FFF781FD002859
:100D700004D1E9B209200A29CED902E0009807601F
:100D8000002003B0F0BDC04646413100464132006C
:100D900046413300F2640000F0B581B01C461546B0
:100DA0000E460746204600F002F9384631462A46EC
:100DB0002346FFF737FE01B0F0BD0000F0B58BB061
:100DC0001F4614460D46064639680023A94212D82C
:100DD00070186060881D3860A8420CD8325C059499
:100DE0002274C81D3860354C0A2A01D9204603E018
:100DF0000494A84203D9184680B20BB0F0BD345C0D
:100E00000598447408460830039038600498401CE4
:100E10000A2CF1D80398A8421846EDD80398335C01
:100E200005988374093139600498801C0A2BE3D833
:100E30000023099308936846476008A9016030467B
:100E4000294600F03DF80128D6D1002007900390F4
:100E50000690059B5A7C6846476006A901602033CE
:100E60003046294600F02CF80128C5D1059B9A7C14
:100E70006846476006A90160C0333046294600F045
:100E80001FF80128B8D10699089A01208A4206461F
:100E900000D9039E079D099BAB42049C00D903988F
:100EA000AB4200D00646E01D002EA5D1501AAB4142
:100EB00005998861CB6101209EE7C046016E000064
:100EC000F0B58BB01D460991079001200592002ACC
:100ED00048D00090119F1098049028460830019047
:100EE000396800262C460696039502970AAA0698AA
:100EF000107007984018099B591A0823082900DB2D
:100F0000194600F0B1FA002D01D003C4083C089442
:100F10003A680AAB1B785BB2D3183B60C7430F43F8
:100F2000124DEA1C002F1ED0049C84CC083C1018E3
:100F30004F4181C419462031099881422A4612D86E
:100F4000039D002D04D00798C0183201019B9850D2
:100F5000029F3960089C1034761C05988642C5DBD8
:100F6000009A00E0024610460BB0F0BD046E00008F
:100F7000F0B583B014460D46064601AF0020387028
:100F800030463A4600F070FA024638780290022362
:100F90005A400A4337204002002A06D1237002AB90
:100FA000304629462246FFF709FF03B0F0BDF0B5F1
:100FB00081B00446201D0F2105F084FF9F20C0430F
:100FC0000646A719C42100227A50C023FA50C8252A
:100FD0007A511036F5D1164607469F377743E71901
:100FE0007A50FA507A51103E3746A037F4D101B00A
:100FF000F0BDF0B583B0144602910190201D0F2181
:1010000005F060FF9F20C04305466619C4210022F9
:101010007250C023F250C827F2511035F5D1154651
:1010200006469F366E43A6197250F250F251103D9B
:101030002E46A036F4D1019802992246FFF798FF78
:1010400003B0F0BDB0B503461F2A28D9187841284F
:1010500008D021281FD1481C09332022194602F04C
:1010600046FDB0BD1A7A7F20C0436D30C4B28020E7
:10107000A24210D01A4648320024151B2D780D5577
:10108000641C202CF9D128229A5CD20702D0CA7F96
:101090000243CA77B0BDD520C00102F0DCFD014893
:1010A00002F0D9FDED600000F0B581B00346202AC2
:1010B00031D9012008701878412808D0212826D17C
:1010C000481C09332022194602F011FD1DE01A7A4E
:1010D0007F20C0436D30C4B28020A24217D01A4690
:1010E00048320024E443254626466E4357197F784C
:1010F0008F556D1E2E462136F6D128229A5CD207D6
:1011000003D020228B5C03438B5401B0F0BDD5206B
:10111000C00102F0A0FD014802F09DFDED6000005D
:10112000F0B59BB000910146042A26D25000154A22
:101130007A44105A09AD2880A81C2026324602F0B5
:10114000D6FC222113AF28463A46334603F0F2FE7E
:1011500001AC384631462246334603F0EBFE2846C2
:1011600022300422214602F0C2FC262134232846E4
:10117000009AFEF7A9FF1BB0F0BD014802F06BFD1D
:1011800002940000D4600000F0B59DB0064605242E
:101190000220042A00D00446002A019109D0042A22
:1011A00021D1E5B20AA82C4979442A4602F09FFCD5
:1011B00021E0500027497944085A0AA90091088083
:1011C0007168083615AF202530463A462B4603F0A5
:1011D000B1FE022200980243384629462B4603F00E
:1011E000A9FEE5B20FE02FD250001C497944085AFD
:1011F0000AA90880E5B20AA8401972680836314683
:1012000002F075FC15AF2024294621430AAE304672
:101210003A46234603F08EFE384602AF21463A4650
:10122000234603F087FE701920300422394602F06D
:101230005EFC28462430C1B23235EBB23046019A0A
:10124000FEF742FF1DB0F0BD014802F004FDC046AC
:10125000029400004E60000064600000186000000E
:10126000F0B583B014460D46064601200290012DCC
:101270000AD13078302807D10020022B71D33020DA
:1012800020700020607066E0089FAF4227D2EA1B02
:10129000A91C0020994264D80021002A0BD03046B6
:1012A00001921146234602781A70401C491E5B1CAD
:1012B0000029F8D10199002F084602D02E20605451
:1012C000481CA94249D2221873186E1A45191F7872
:1012D0001770521C5B1C761EF9D1691A1DE0791B30
:1012E000FA1C00209A423CD8302020702E206070DA
:1012F0000220002905D0A01C302205F0EDFDB81C0D
:10130000401B002D29D021182A4633780B70491C28
:10131000521E761C002AF8D14119002363548842DA
:1013200019D2255C002B024600D01A460023302D2E
:1013300000D01A46401C81421346F2D1002A0AD03E
:101340000020A054A118C2438A5C491E2E2A029A8A
:1013500006D1087004E0029803E0029A00212154AB
:10136000104603B0F0BD0000F0B595B002930392B3
:101370000790084300270028019746D00023012545
:1013800008951C461E460F460A22284621461C4642
:1013900005F082FC234605460C46079885420898CE
:1013A00000D9184639468C42089A00D91A468C4210
:1013B00000D010463246561C0028E4D1132E4CD8DB
:1013C0000027002E21D00020C743059104920A2255
:1013D0000892002306932846214605F03DFC054669
:1013E0000C46079805992A46234605F035FC089ACD
:1013F000069B05F031FC3020104310A9C919487034
:101400007F1C0498B842E2D1374610AD0198E855E8
:1014100009AC13A10422204602F069FB08206946AA
:101420000860221D192328463946FFF719FF204678
:1014300005F000FE0299491E884205D209A9039CC5
:10144000204605F0EFFD02E00020039C20702046BE
:1014500005F0F0FD80B215B0F0BD012002F0FBFBFD
:101460004643542000000000F0B581B000910446CE
:101470000021C843002C17D0002A15D00025157074
:1014800028462946EEB2A75D6D1C1570430EC901B2
:1014900019437F233B40C0011843EBB2009FBB427E
:1014A00002D2A357002BEDDB01B0F0BD80B504499B
:1014B0000020087003497944024603F0F3F980BD27
:1014C000001800203261000080B50548012101703C
:1014D000044979440020024603F0E4F980BDC04687
:1014E00000180020C260000070B50546687801242D
:1014F00000281FD0411E104A1268012400238A428E
:1015000000D01C468A4215D17D26310101280FD01A
:1015100002280FD10721284602F09AFEF600801912
:101520000649884204D30721284602F091FE81191A
:1015300003484161204670BD38180020B80B0000F8
:101540003C180020F0B585B00446607801250028DD
:1015500000D185E17D210491CE00C34F3968421E40
:10156000012591420CD0012200230128154600D804
:101570001D46002900D10A461540002D00D16FE11B
:10158000122807D0022805D0012800D068E1BF4802
:10159000466165E1B54D38222846214602F0A7FA9A
:1015A0003868421E002380210A2803910CDD0F2891
:1015B0001CDD122835DC102800D1B0E0112857D0EE
:1015C000122800D1B1E039E1052821DC022838DDFC
:1015D000032854D0042854D0052800D02EE1A44874
:1015E000406801270422002851D0C1E00C282EDDDC
:1015F0000D2859D00E2800D18BE00F2800D01DE116
:101600009B48806906270E22002800D0B0E086E0C3
:10161000072821DD082840D009284CD00A2850D0BE
:101620000CE1132854D0142800D184E0152800D0F0
:1016300004E18F48406A09271422002800D097E06F
:10164000FCE001284BD0022818467AD0F6E00B289F
:1016500053D00C2857D0F1E0062818D0072800D026
:10166000ECE08348806802270622002815D07FE03E
:101670007F48C06907271022002879D155E01F460E
:1016800076E07B48416801200322002959D178483F
:10169000816802200522002953D17548C1680320C2
:1016A000072200294DD10CE07148406905270C2222
:1016B00000285DD12DE06E48C0680327082200286D
:1016C00056D16B48016904200922002939D11AE05A
:1016D0006748006A08271222002849D12BE00293AC
:1016E000644805F0A7FC0022002800D09CE00220FE
:1016F000386000200122029B23E05D480069042736
:101700000A22002834D15A48416905200B220029B9
:1017100017D15748816906200D22002911D154485C
:10172000C16907200F2200290BD15148016A082006
:101730001122002905D14E48416A092013220029AF
:101740007CD01F4615468100494A5358002B0ED0C5
:101750004949085C0399884226D118681F221F282E
:1017600000D81A685968454805F0E4FC5AE02A4652
:101770000296BD003E4E7059002813D00192404899
:101780000021352202F0AAF93B48C15DC019725907
:101790009368039A914213D139483422194605F0CF
:1017A000C9FC12E0029E3EE0586819680143002916
:1017B0002BD059681868314A2023FFF7D5FD31E056
:1017C00002782F491846FFF7ABFC284D2D4F00211A
:1017D0002022384602F082F90A223846284E314645
:1017E00002F085F938460A3027A1022202F07FF97B
:1017F000304605F01FFC3018011F0C370422384614
:1018000002F075F9019A029E0EE01C480021417118
:10181000302101712021C170542181704321417018
:10182000462101702A46114DD00019497944081803
:10183000617889083C220A408058E8610B4D0721F5
:10184000284602F005FD80198108049880007D2952
:1018500004D30648072102F0FBFC80190B494861BC
:10186000284605B0F0BDC046381800204C190020AD
:1018700084190020EC180020AC190020FC1800206E
:10188000011800201C1900202E2E00003C180020FA
:10189000D05F0000F0B581B00546204800780024F4
:1018A000002802D0204601B0F0BD6878012400284D
:1018B000F8D0431E1A490A68012400269A4200D033
:1018C00034469A42EED17D23DE001B01154F0228DB
:1018D00014DD032803D004280DD00528E2D1072108
:1018E000284602F0B5FC8019B84204D307212846E7
:1018F00002F0AEFC87190C484761D3E7012805D0F8
:101900000228CFD109480078002802D00648436158
:10191000C8E7501C08600024C4E7C0460018002037
:1019200038180020B80B00003C180020B619002021
:10193000F0B581B0054668780124002832D0431EF6
:101940001A490A68012400269A4200D034469A4275
:1019500028D17D23DE001B01154F022814DD03284A
:1019600003D004280DD005281CD10721284602F0F9
:101970006FFC8019B84204D30721284602F068FCA6
:1019800087190C4847610DE0012805D0022809D1CC
:1019900009480078002802D00648436102E0501C44
:1019A00008600024204601B0F0BDC0463818002071
:1019B000B80B00003C180020B6190020F0B581B02B
:1019C000054668780124002832D0431E1A490A6867
:1019D000012400269A4200D034469A4228D17D2321
:1019E000DE001B01154F022814DD032803D0042854
:1019F0000DD005281CD10721284602F029FC8019AA
:101A0000B84204D30721284602F022FC87190C486B
:101A100047610DE0012805D0022809D10948007866
:101A2000002802D00648436102E0501C08600024F0
:101A3000204601B0F0BDC04638180020B80B0000A9
:101A40003C180020B619002080B50848002101701C
:101A500007480078002802D00649794401E0064989
:101A600079440020024602F01DFF80BDB719002016
:101A7000001800203A5B0000885B000010B500F001
:101A800011F8074990220A54091800244C70801C50
:101A900081B2202002F066FCFFF7D6FF204610BD81
:101AA000AC200020F0B581B0204C6268204F3A7025
:101AB000781C2146083102F01AF865687E194C340A
:101AC000204605F0B7FA7070AE1CBD19204605F02F
:101AD000B1FA02462846214602F009F8204605F0F0
:101AE000A9FA8419114EA420305C00280AD01048AD
:101AF0000546281931468431202201F0F8FF2034B0
:101B0000294600E00A49A520305C00280AD00D19BA
:101B10000848784403F06CF9C11C2022284601F0E3
:101B2000E6FF2034204601B0F0BDC046B8190020C1
:101B3000AC2000206A67000080B50B4988420ED0B7
:101B40000A4988420DD10A486921017085214170F6
:101B50002020022102F006FCFFF776FF01E0FFF7EC
:101B60008DFF002080BDC046020000800100008083
:101B7000AC200020F0B5A5B03A4F7A780024684632
:101B80000460391D212015AE0A90334603F06CFA2B
:101B9000412020220BAD089031462B4603F0F8F986
:101BA000402130460E462146324601F097FF1F2065
:101BB000000139582C4800786A46546197235B002D
:101BC00013612A4B2333D36094605460802800D083
:101BD0000E46099616600B2189017B1839462C3177
:101BE000802800D00B460127052228463946079356
:101BF00003F0FEF9064608981A492A463B4603F0C8
:101C0000DFF928222846214601F068FF300A0A9AA7
:101C10001649885422200E541248FFF745FA2336FD
:101C2000114800788027124D802809D1304628407D
:101C30000E4908180799099A01F059FF09983618B2
:101C400030462840103709490F54701C28400C5466
:101C5000B01C81B2202002F085FBFFF7F5FE204684
:101C600025B0F0BDB8190020AC190020AC20002030
:101C7000FFFF0000F0B5A3B02C4B5A780024684653
:101C80000460191D1D462120089013AE334603F051
:101C9000EBF9412006902022079209AF31463B46DE
:101CA00003F076F940223046214601F017FF1F204D
:101CB0000001285869464C61FF2230320A611C4AF3
:101CC0002232CA608C6011C12B462C3301250522BB
:101CD0003846294603F08CF90646069813493A46D9
:101CE0002B4603F06DF928223846214601F0F6FE16
:101CF000300A079D0E49485508980E540B480F4668
:101D00002A46FFF79FF93046223080B2902139549D
:101D10003046233080B23C542436B1B2284602F01B
:101D200021FBFFF791FE204623B0F0BDB81900203B
:101D3000AC200020F0B5A5B0344B5A78002468469A
:101D40000460191D1F462120089015AE334603F08C
:101D50008BF941200690202209920BAD31462B468B
:101D600003F016F940223046214601F0B7FE1F204D
:101D7000000107903E46305869464C61FF223032E0
:101D80000A61234A2232CA600A948C6011C12C363F
:101D90000124052228462146334603F029F9074647
:101DA00006981A492A46234603F00AF928222846AB
:101DB0000A9901F093FE380A099A1549885408983F
:101DC0000F5412480C46FFF73DF93846223080B2D6
:101DD000079D0E494A5922542337B8B2201831467C
:101DE00001F085FE09484059C01981B29022625421
:101DF000411C89B20A9D6554801C81B2099802F089
:101E0000B1FAFFF721FE284625B0F0BDB819002031
:101E1000AC200020B0B58AB001AD0120A87003202D
:101E200028430D492024224601F061FE0C487844E5
:101E300002F0DEFF2322294603F01CF80748902118
:101E40000170002545700221204602F08BFAFFF751
:101E5000FBFD28460AB0B0BDB8190020AC20002018
:101E60004E64000080B50B4988420ED00A49884272
:101E70000DD10A486921017085214170202002217D
:101E800002F070FAFFF7E0FD01E0FFF773FE0020BB
:101E900080BDC0460200008001000080AC20002010
:101EA00080B50B4988420ED00A4988420DD10A48B4
:101EB00069210170852141702020022102F052FA2F
:101EC000FFF7C2FD01E0FFF7D5FE002080BDC04650
:101ED0000200008001000080AC20002080B50D4988
:101EE0000978002903D0FFF725FF002080BD0A49AB
:101EF0008842F8D009498842F7D109486921017020
:101F0000852141702020022102F02CFAFFF79CFD70
:101F1000EBE7C046001800200200008001000080AE
:101F2000AC20002080B50B4988420ED00A49884277
:101F30000DD10A48692101708521417020200221BC
:101F400002F010FAFFF780FD01E0FFF763FF0020C9
:101F500080BDC0460200008001000080AC2000204F
:101F6000B0B50546072028400024012813D00228D8
:101F700013D1002908D00A4803F0E8F868B2002815
:101F800009DA02F063FF06E0FF2152310448002223
:101F900003F008F904462046B0BD022001F05BFEC4
:101FA000AC200020F0B5AFB00C460346511CD52044
:101FB000C0011678721ED2B20A2A00D309E1022BA0
:101FC00000D303E1012C00D900E108933598029079
:101FD0003498059013A832460B781B064D782D04D3
:101FE0001D438B781B022B43CD781D4320C0091D58
:101FF000521EF1D1149806900320049002027A48F0
:102000000025294601F06AFD012C099500D12546DD
:10201000A421754A555410468430012C00D00998EB
:1020200069460860212013A927AD039032462B464C
:1020300003F01AF8412420271DAE204629463A46CF
:10204000334602F0A5FF0123204667493246079335
:1020500002F0B6FF28223046099E314601F03EFDCF
:10206000284631463C463A4601F038FD5F49042097
:10207000069A8A42114600D03046C9B20227842906
:1020800000D00746002F17D0022F01D0042F29D1EE
:102090000AAD554E3046294626463246FEF7D2FF57
:1020A000514C083400214122204601F017FD4E48D2
:1020B00046602046294612E00AAC4B4E3046214687
:1020C000039E3246FEF7F0FF474D083500214122BE
:1020D000284601F003FD4448466028462146324622
:1020E00001F005FD0021042F079A00D00A46A52023
:1020F0003D4D2A542C464C3438262046324601F0B9
:10210000EDFCFAB228462146FFF73EF80898002871
:1021100061D03748002505706846046037233420B5
:10212000042F00D003463348352133A202F04AFC85
:1021300033480560334802210160334C3448784409
:10214000206007206060334878442061324878443A
:10215000E06004982076E5612046183002F0B2FF76
:10216000E06102F02DFC01F0DDFE01F0E1FEA56072
:102170002068002823D0E069244988421DD11EE050
:10218000606885421BD202F0F7FF002817D1A068D3
:10219000E168704322681018002902D0884700289F
:1021A00007D0012803D1A06870432168081802F005
:1021B0000DF8A068451CA56020680028E0D1059AAC
:1021C00010681021014311602FB0F0BD803001F084
:1021D00042FD01F040FDFFF765FC0299086009200F
:1021E000000301F038FDC046B81900201901008035
:1021F000B71900200118002020252E2A7320000086
:1022000038180020B81C00203C180020445010B0A2
:1022100036550000EDF9FFFF97F3FFFF80B501F0A1
:10222000D5FF80BDF0B583B00220C54300260998D4
:1022300001901148784402902C46A71C6F430298E5
:1022400002F0D6FDC05D86196D1E28462330F4D1FC
:102250000120002E014600D13146064A117050700F
:1022600003219170D07004200199086009200003B7
:1022700001F0F1FCAC20002048600000F0B587B010
:102280001E4606920D9B00241C6003252A02D527BA
:10229000FF018028049303950591029744D00028FC
:1022A00000D024E101949F4F00253846294601F0D3
:1022B00015FC06990C787C70601EC0B20A2800D309
:1022C0002CE1701E491C984B0693AE00BE193B468C
:1022D0000F783F064A7812043A438F783F0217433B
:1022E000CA783A431F46726080B2069BC018091D27
:1022F0006D1CA542E9DB069AD21C02401F231B017C
:10230000FA50E1235B0080B2984200D9FAE03846E7
:102310002C3001F0ECFB387A83280599019C00D021
:10232000FCE00120387017E07E4D2878012800D0AD
:10233000ECE01F200701E8598119FF23C4339942BB
:1023400000D3E7E028182C300699324601F0CFFB85
:10235000E8598019E8510599002900D1CBE071486E
:1023600004701F21090141582C30704AFEF741FECC
:10237000012800D0C1E06D48017C6D48002900D1E2
:10238000BBE06A490A46517C927C51180B2900D364
:10239000B5E06848202521462A4601F09FFB6648A3
:1023A00021462A4601F09AFB6448282104F08AFD60
:1023B000634D022005902860624804605B48064631
:1023C000F169B069604A10230693FEF7CDFF707C77
:1023D000002814D0554820302968891C00225B4B06
:1023E00014461A55A6002F46544DA8513D46296063
:1023F0001030891C641C4D4E767CB442F1DB4F4A90
:102400004A48807C0028059F13D050480019A1003D
:102410005118464AC0322B689B1C00240755A60061
:102420008A512B6010329B1C641C404EB67CB44217
:10243000F4DB0C9C46480025C5716D218171722129
:102440004171692101716621C1706E2181706F2116
:102450004170432101703F4E40487844306007206E
:1024600070603F48784430613E487844F06003989B
:102470003076F5613046183002F024FEF06102F04B
:102480009FFA01F04FFD01F053FDB5603068002860
:10249000049F24D0F069304988421ED11FE0706843
:1024A00085421CD202F068FE002818D1B068F1689D
:1024B0003825684332681018002902D08847002860
:1024C00007D0012803D1B06845433068401901F0B6
:1024D0007DFEB068451CB56030680028DFD12068FB
:1024E0000699084320600020386007B0F0BD8037AF
:1024F000384601F0B0FB0920000301F0ACFB0F30BF
:1025000001F0A9FB0298001D01F0A5FB02988030A4
:1025100001F0A1FB0348002101F0E0FA029801F06C
:102520009AFBC046B8190020FCFF0000C01C002028
:10253000016E00001C190020FC18002084190020E6
:10254000B81C002038180020EC180020AC1900201E
:102550003C1900203C180020445010B04A540000A0
:10256000FDF9FFFFD7F0FFFFF0B581B0202B5CD164
:10257000079D069E2F4820241146224601F0B7FAF7
:102580002D482EA2214602F01DFA30480027076090
:102590002F4807602F4C3148784420600520606048
:1025A0002F48784420612F487844E060032020764B
:1025B000E7612046183002F085FDE06102F000FA84
:1025C00001F0B0FC01F0B4FCA7602068002824D022
:1025D000E069214988421ED11FE0606887421CD211
:1025E00002F0CAFD002818D1A068E16838277843B6
:1025F00022681018002902D08847002807D0012837
:1026000003D1A06847432068C01901F0DFFDA0682E
:10261000471CA76020680028DFD1306810210143E3
:1026200031600020286001B0F0BDD520C00101F06C
:1026300012FBC046B81900201C19002053746F7299
:102640006520436861696E2049443F00B81C002042
:10265000381800203C180020445010B0C456000028
:102660007FF9FFFF11F4FFFFF0B585B01F46154657
:102670000E46032102910A02D521C9010191802849
:1026800004963ED00395002800D0B8E0634D0024A6
:102690002846214601F022FA039800786870411E0E
:1026A000C9B20A2900D3B6E07F1E5D490F4200D1AE
:1026B000B1E00399491C5B4AA300584DEB180D7813
:1026C0002D064E7836042E438D782D023543CE7874
:1026D0002E435E60BBB29F18091D641C8442EBDB75
:1026E0004E480446A068504B9842204600D092E0E5
:1026F00004230370D21C17402C303A4601F0F7F93E
:1027000013E0464C2078042879D11F200601A059F7
:10271000C119FF23C433994279D220182C3029469D
:102720003A4601F0E4F9A059C719049A1F200101A3
:102730003A484750002A66D00B9C002505703B485C
:102740002021404A7A4402F03DF939480560394871
:10275000056039480078002802D0FFF7EBFA4BE01B
:102760000A980490354F38487844386005207860DE
:1027700036487844386136487844F86002983876AC
:10278000FD613846183002F09DFCF86102F018F93E
:1027900001F0C8FB01F0CCFBBD603868002826D0F2
:1027A000F8692749884222D0002820D02846796835
:1027B00088421CD202F0E0FC002818D1B868F96801
:1027C000382670433A681018002902D0884700283C
:1027D00007D0012803D1B86846433868801901F052
:1027E000F5FCB868401CB86039680029DFD1049A4C
:1027F0001068102101431160256005B0F0BD0198FB
:10280000803001F028FA0920000301F024FA03487F
:10281000002101F063F9019801F01DFAB8190020B8
:10282000FFFF0000FCFF0000190100801C190020C0
:10283000B81C002038180020001800203C18002088
:10284000445010B0974D0000C45200002BF7FFFF1A
:10285000B5F1FFFFF0B5D7B01C461546089127210A
:10286000CA006B210B028028069352D0002800D0AA
:1028700063E1B94F002638463146059201F02EF942
:1028800009A82022314601F029F92A78BA70511E90
:10289000C9B20A2900D35AE1641E6D1CAF48B100C9
:1028A000AD4B591817462A7812066B781B04134350
:1028B000AA7812021A43EB7813433A464B60A1B24E
:1028C0000C182D1D761C9642E9DB04900121089816
:1028D00003910840A04E707009A8002120220791A2
:1028E000029201F0FBF8B0689D49884230D09D49C2
:1028F00088423CD109AE9CA10222304601F0F7F893
:10290000AA49794411223046934E01F0F0F8132081
:102910002CE091480178032900D00EE11746089970
:102920004A08012111404278012A04D140226B4615
:102930000646F83603E020226B46064698361E60AF
:102940005A602C302A46234602F0C2FA3A4651E039
:1029500009AE86A10322304601F0C9F898497944AE
:10296000112230467C4E01F0C2F814200790707896
:10297000012819D137462C36304602F0F3FA079B6E
:10298000002B0AD0402069463A46F8320A60486077
:10299000002109AA304602F09BFA402069463A46D7
:1029A000F8320A60486016E02C36304602F0ACFA85
:1029B000079B002B029F08D068466749983182C068
:1029C000002109AA304602F083FA684662490A46A5
:1029D000983182C01746089841080398014004982E
:1029E000C01C044030462A46234602F071FA0320F8
:1029F0003870059A0898800700D4A1E009AD564CBC
:102A00002846214601F073F80326320200212046B1
:102A100001F064F8A8786070201D291D282201F0BB
:102A200066F86878012807D11F2000014022225053
:102A30002C3409A9F83106E01F2000012022225081
:102A40002C3409A99831204601F051F80B984449DB
:102A500088420AD0434988420BD04549884273D105
:102A600044482021524A7A4406E04248202146A2A6
:102A700002E04048202140A201F0A4FF5D9C4648AE
:102A8000002505604548056039480B99814206D10B
:102A900043480078002802D0FFF74CF94AE0089438
:102AA0005C9F404C43487844206005206060424869
:102AB0007844206141487844E0602676E56120460C
:102AC000183002F0FFFAE06101F07AFF01F02AFA13
:102AD00001F02EFAA5602068002826D0E06932496E
:102AE000884222D0002820D02846616888421CD223
:102AF00002F042FB002818D1A068E1683826704334
:102B000022681018002902D08847002807D0012821
:102B100003D1A06846432068801901F057FBA068E4
:102B2000401CA06021680029DFD1386810210143D2
:102B30003960089C256057B0F0BD184601F08BF84D
:102B40000920000301F087F8069801F084F8069840
:102B5000803801F080F8C046B8190020FCFF000062
:102B600083000080840000804543000046435400F9
:102B7000190100801C1900205369676E20772F45CA
:102B800043204164647200005369676E20772F46CA
:102B90004354204164647200B81C0020381800209F
:102BA000001800203C180020445010B0DC48000001
:102BB000754A00009E50000029F4FFFFDBEDFFFF87
:102BC00080480000F0B589B01C460692F02303400F
:102BD0000F26064003221502D520C001802B049247
:102BE00007900591089603955ED0002B00D01DE15B
:102BF0009D4F0026384631462A4600F06FFF60356B
:102C00009A4831462A4600F069FF069A1078787093
:102C1000411EC9B20A2900D310E1651E541C944F0D
:102C2000B100914A51182278120663781B041343AD
:102C3000A27812021A43E37813434B60A9B2CD196C
:102C4000241D761C8642EBDB7D20800086490E46E3
:102C50003018069002F086F9402069460B22920156
:102C6000B2180A60486000210898012800D1014686
:102C7000FE1C2E4006982246334602F029F91F20FA
:102C80000001794F3E50E1204000A9B2814200D9B5
:102C9000CFE038462C302146324600F028FF042091
:102CA0003870079D05982BE06F4D2978042900D0D6
:102CB000BCE0402069460B229201AA180A604860D5
:102CC0000021012E00D131467D2080002818069F6A
:102CD0003A46234602F0FCF81F200601A8590119C4
:102CE000FF22C432914200D3A3E028182C30394689
:102CF000224600F0FCFEA8590019A8510598079D2E
:102D00000899002900D19CE01F210A0156498A58E0
:102D10002C31564C2346FEF73FF8002800D094E0B3
:102D2000207C002800D196E0607C0B2800D396E040
:102D30005048002520262946324600F0CFFE4E4856
:102D40002946324600F0CAFE4C4E2821304604F097
:102D5000B9F84B48022101604A4901220A604A49F8
:102D60000D70617C00290ED0214620310422474B92
:102D700080275F55AF00F15102601031921C6D1C2D
:102D8000677CBD42F4DB0F9C0E9D414841A10C22A3
:102D900004F09EF8424E444878443060072070604A
:102DA00042487844306142487844F0600498307674
:102DB0000027F7613046183002F084F9F06101F025
:102DC000FFFD01F0AFF801F0B3F8B76030680028FC
:102DD00024D0F069334988421ED11FE070688742D1
:102DE0001CD202F0C9F9002818D1B068F168382760
:102DF000784332681018002902D08847002807D08D
:102E0000012803D1B06847433068C01901F0DEF9EA
:102E1000B068471CB76030680028DFD128681021EF
:102E2000014329600020206009B0F0BD803000F02F
:102E300012FF0D480021039A00F050FE079800F0A1
:102E40000AFF0920000300F006FF37214902C0B243
:102E5000084300F000FF8235284600F0FCFE833571
:102E6000284600F0F8FEC046B8190020C01C00201B
:102E7000FCFF00001C190020FC1800208419002011
:102E8000B81C002038180020EC180020AC190020D5
:102E90003C190020436F6E6669726D2046415400F4
:102EA0003C180020445010B00C4B0000BFF0FFFF56
:102EB00099E7FFFFF0B58DB01F461546139B002222
:102EC00003921A6003242202D526F6018028029379
:102ED00001940491009643D0002800D0CDE0724EBA
:102EE00000243046214600F0F9FD2A787270501E09
:102EF000C0B20A2800D3D4E0781E691C6B4B05933E
:102F0000A50075190F783F06134632464E783604F1
:102F10003E438F783F023743CE783E436E6016467D
:102F20001A4680B2059BC018091D641C9442E7DB59
:102F3000059AD21C02401F231B01F250E1235B00C3
:102F400080B2984200D9A0E030462C3000F0CFFD8E
:102F5000307A8428049900D0A3E00220307017E072
:102F6000514C2078022800D093E01F200601A05980
:102F7000C119FF23C433994200D38EE020182C30AE
:102F800029463A4600F0B3FDA059C019A051049952
:102F90000220014275D04448039A0270C9070CD13F
:102FA0001F21090141582C3006AAFDF7A1F901287B
:102FB00069D13F48202142A20BE01F21090141585D
:102FC0002C3006AAFDF757F901285CD1384820219A
:102FD00038A201F0F7FC129C3C48002606603C48F1
:102FE00006603C4D3D4878442860052068603C48B8
:102FF000784428613B487844E86001982876EE617F
:103000002846183002F05EF8E86101F0D9FC00F0C3
:1030100089FF00F08DFFAE602868002824D0E869A1
:103020002D4988421ED11FE0686886421CD202F0FA
:10303000A3F8002818D1A868E968382670432A68E0
:103040001018002902D08847002807D0012803D192
:10305000A86846432868801901F0B8F8A868461C9B
:10306000AE6028680028DFD120681021014321606C
:103070000020029908600DB0F0BD8036304600F0A7
:10308000EAFD0920000300F0E6FD0098001D00F0B5
:10309000E2FD0098803000F0DEFD0348002100F0E2
:1030A0001DFD009800F0D7FDB8190020FCFF0000BE
:1030B0001C1900205369676E20436861696E3F00E8
:1030C0005369676E20456E7472793F00B81C00200A
:1030D000381800203C180020445010B05E4B00000F
:1030E000E9EEFFFF9BE8FFFFF0B58DB00C4605460B
:1030F00002AF384603F07CFF06463E85B0B200289A
:1031000019D0102800D19BE002A8002101850F20D2
:1031100000033040310ACDB20921090388423FD073
:1031200003214903884235D11B2042015148002127
:1031300000F0D4FC34E002A800F023FC4C4A1078E4
:10314000E02800D082E05078801E0121C841082884
:1031500010DD0A283CDC092854D00A2800D082E07F
:103160001379D17890786E4635607460521DFFF700
:103170007BFA1EE0012839DC00284DD0012872D1ED
:103180001379D17890786E4635607460521DFFF7E0
:1031900075F80EE0384806400D20C0020643350A97
:1031A000206833490D542068081846702068801C38
:1031B000206000F055FD02A9884203D100F052FDC5
:1031C00000F0DFFB02A8008D002841D10DB0F0BD5A
:1031D0000B282BD00F2846D11379D17890786E46E2
:1031E00035607460521DFFF7EDFCE2E7082831D12D
:1031F0001379D17890786E4635607460521DFFF770
:1032000059FED6E71379D17890786E4635607460B0
:10321000521DFFF71FFBCCE7D17890786B461D60FD
:103220005C60521D0023FEF7BDFEC2E713796846BD
:1032300005604460521D00200146FFF795F9B8E78C
:1032400002A800210185102000F005FD3720400272
:1032500000F001FD022806D16846446000200146C6
:103260000346FEF7DFFF6D20000200F0F4FCC046CD
:10327000AC200020C01C0020FF070000F0B58FB07C
:1032800000260E960D960C96364F344C0BA80680F1
:103290006D46284603F0ACFE288581B2002917D080
:1032A000102950D069460E850F21090301400922DB
:1032B0001203914223D003225203914222D10BA93F
:1032C00008801B2042010021204600F007FC20E07E
:1032D000684600F056FB0D980E9000250D950C9851
:1032E0000E99C0B289B201F03DF80E900C950E987F
:1032F00000282DD00CA80DA9FFF7F6FE14E00BA9AD
:10330000088006E0164908400D21C90201430BA8B8
:1033100001800B98000A0D9978540B980D99791833
:1033200048700D98801C0D9000F09AFC6946884208
:1033300003D100F097FC00F024FB6846008D0028C4
:10334000A4D000F088FC68460685102000F083FCBD
:10335000014800F080FCC04682690000C01C0020CB
:10336000FF070000AC200020F0B585B0F04D2878B4
:10337000F04F0C2810DD0D287BD00E2800D1B8E0CE
:10338000152835D1EC480078012831D1A8790007FB
:103390002ED4102000F05FFC052800D1EBE00C28B3
:1033A00026D1F94C012020760026E661204618300F
:1033B00001F088FEE06101F003FBE069F349884217
:1033C00000D150E2002800D14DE2EE49884200D001
:1033D000DEE100F0A7FD00F0ABFDA660206800284C
:1033E00000D140E2E069E949884200D031E13AE2A7
:1033F000E54C012020760025E5612046183001F0DB
:1034000061FEE06101F0DCFAE069B84200D0D8E08A
:1034100000F088FD00F08CFDA5602068002800D138
:1034200021E2E069D949884220D11CE260688542E6
:1034300000D318E201F0A0FE002800D013E2A0683B
:10344000E1683825684322681018002902D08847AF
:10345000002807D0012803D1A068454320684019FF
:1034600000F0B4FEA068451CA56020680028DDD1EE
:10347000F9E1C54C012020760025E5612046183091
:1034800001F020FEE06101F09BFAE069BF4988424B
:1034900000D1E8E1BB49884200D13BE1002800D1DE
:1034A000E1E12068002800D1D7E1A0686168884286
:1034B00000D3D2E101F060FE002800D0CDE1A06889
:1034C000E1683825684322681018002902D088472F
:1034D000002807D0012803D1A0684543206840197F
:1034E00000F074FEA068401CA06021680029DDD1B6
:1034F000B3E1A54C012525760026E661204618306B
:1035000001F0E0FDE06101F05BFAE369BB4200D04D
:10351000C5E000F007FD00F00BFD0020A060216871
:10352000002900D19FE1E169984A914220D19AE1B6
:103530006168884200D396E101F01EFE002800D0A9
:1035400091E1A068E16838256843226810180029D5
:1035500002D08847002807D0012803D1A06845433E
:103560002068401900F032FEA068401CA06021686D
:103570000029DDD177E1EA4C012020760026E661C2
:103580002046183001F09EFDE06101F019FAE06973
:10359000E449884200D166E1002800D163E1DF49B7
:1035A000884200D02EE100F0BDFC00F0C1FCA66016
:1035B0002068002800D156E1E069DA4988426BD1E1
:1035C00051E12068002800D147E1A0686168884285
:1035D00000D342E101F0D0FD002800D03DE1A06819
:1035E000E1683825684322681018002902D088470E
:1035F000002807D0012803D1A0684543206840195E
:1036000000F0E4FDA068401CA06021680029DDD125
:1036100023E16068864200D325E101F0ADFD00287A
:1036200000D020E1A068E1683825684322681018BE
:10363000002902D08847002807D0012803D1A068BC
:1036400045432068401900F0C1FDA068461CA660F3
:1036500020680028DDD106E16068864200D302E1DF
:1036600001F08AFD002800D0FDE0A068E16838255F
:10367000684322681018002902D08847002807D024
:10368000012803D1A06845432068401900F09EFD41
:10369000A068461CA66020680028DDD1E3E06069D0
:1036A000002808D064216428024600D30A46801A04
:1036B000606100D1E0E09B48834200D1D3E0002B61
:1036C00000D1D0E02068002800D1C6E0A068616881
:1036D000884200D3C1E001F04FFD002800D0BCE0DB
:1036E000A068E1683825684322681018002902D0D4
:1036F0008847002807D0012803D1A06845432068E7
:10370000401900F063FDA068401CA06021680029FA
:10371000DDD1A2E000F006FC00F00AFCA560206804
:10372000002800D19FE0E0697E49884226D19AE0D6
:1037300020200020555010B00822002060688542EB
:1037400000D390E001F018FD002800D08BE0A068C5
:10375000E1683825684322681018002902D088479C
:10376000002807D0012803D1A068454320684019EC
:1037700000F02CFDA068451CA56020680028DDD164
:1037800071E0C046555010B03C180020445010B0B5
:10379000A088049020680390EE79AB796F792A793C
:1037A000ED78E16868460560416012023A431B0209
:1037B00033430398049900F03BFC206800284CD068
:1037C000A0686168884248D201F0D6FC002844D144
:1037D000A068E1683825684322681018002902D0E3
:1037E0008847002807D0012803D1A06845432068F6
:1037F000401900F0EBFCA068401CA0602168002983
:10380000DFD12AE02069002803D0E978490800F0D8
:103810004BFD2068002820D0A068616888421CD237
:1038200001F0AAFC002818D1A068E1683825684397
:1038300022681018002902D08847002807D00128E4
:1038400003D1A06845432068401900F0BFFCA06880
:10385000401CA06021680029DFD16068A168814216
:1038600001D301F089FC01F087FC002801D100F0B0
:10387000FFF9012005B0F0BD2A488342F3D0002BA8
:10388000F1D029480178294A1068002903D000287E
:1038900001D11560284626490968002900D10AE7A8
:1038A000401C1F46154603F0D1F9296000F03AFB91
:1038B00000F03EFB3B46A6602068002800D1FAE6F7
:1038C000E0691849884200D1F5E6002800D1F2E607
:1038D0006068864200D3EEE601F04EFC3B460028CD
:1038E00000D0E8E6A068E16838256843226810182F
:1038F000002902D08847002807D0012803D1A068FA
:1039000045432068401900F061FCA068461CA66091
:10391000206800283B46DBD1CDE6C046555010B0AC
:103920003C180020445010B0B7190020381800206F
:10393000B81C002010B58CB001AC204603F058FB39
:1039400020850D49084206D101A800F01AF8002090
:10395000C04301F0A1FB00F083F901A9884203D123
:1039600000F080F900F00DF801A8008D002801D1C9
:103970000CB010BD00F06FF9FFFF00000020814681
:103980007047814670470000F0B581B000920F4645
:103990000546494B9F420FD0474C402620463146B2
:1039A00003F090FA00984028024600D332462046A1
:1039B000394600F09CF8404B987801280BDC002831
:1039C0002BD0012869D1D81C04211C4601F068FACB
:1039D000402120462CE0022828D005285DD1187906
:1039E000D97809020143354A1068002481425AD12E
:1039F000334E00988019071F106800281BD014460A
:103A0000394631402F480268914200D907683A464A
:103A100032402D480068591D31E000249C715C71D2
:103A20001C71DC7040211846A8473CE02248402128
:103A3000A847002437E098795979090201432348BF
:103A4000016001684908A8292DD8144601681D485D
:103A500001601D491E4A0A6059781A7812020A4309
:103A60001C490A601C49009A5718394631400268BF
:103A7000914200D907683A463240D91D144800F0F7
:103A800036F8374010480168C91901600D480168CF
:103A9000C91B01602068401C20600A4801680120A1
:103AA0000224002905D10548002101600648016073
:103AB0002046C0B201B0F0BDC0220020A0200020EE
:103AC000FFFF0000A820002000220020A4200020EA
:103AD000AC20002004220020F9FF010080B50B4635
:103AE000002A03D011461A4603F0F6F980BDB0B59E
:103AF00088420DD9002A14D0491E5242401E00238C
:103B0000DB431C4654430D5D0555521CF9D108E0BA
:103B1000002A06D000239CB20D5D05555B1C521E89
:103B2000F9D1B0BD02480021016002480160704730
:103B3000A020002000220020F0B581B0274A15689F
:103B4000002D49D026490968002920D00090254C35
:103B5000671D39263846314603F0B4F9204A224819
:103B60000168090A2170006860700520A0701F4973
:103B70000868000AE0700868207109681068002968
:103B80000CD03B263B2800D8166838460FE0174873
:103B9000002101601160164801701DE0392800D82D
:103BA00016681068000A60711068A071E01D29464F
:103BB0003246FFF79CFF0A4B009A084908688019B3
:103BC00008601868801B1860084801460868401C97
:103BD000086004484021904701B0F0BD0022002059
:103BE000A8200020C022002004220020A0200020C5
:103BF0001C22002080B500290BD0064A0023136048
:103C0000054A064B1360064A1160064A1160FFF729
:103C100093FF80BDA020002000220020AC200020C7
:103C2000A8200020A420002070B5431E491E524247
:103C30000020C443002A0CD0264656438D5D9E5D6D
:103C4000521CAE42F6D00020C1430120AE4200D843
:103C50000846C0B270BD80B50146484603F0D4F9AD
:103C60004846704700204946002900D048697047FF
:103C700080B501F081FA00280BD10648602101705F
:103C80000021417002228270C1700171052101F092
:103C90005DFA80BD2020002010B51948C0780328A7
:103CA00007DC01280DD0022826D1164802F034FA8C
:103CB00010BD04281DD008281ED1124802F02AFA8F
:103CC00010BD104C0121204602F01FFA204602F0E0
:103CD000FCF90D48007800280FD10C48002406227A
:103CE0002146FFF7FBFE0A480C222146FFF7F6FEAD
:103CF00010BD044802F00CFA10BD1020FFF7ABFF16
:103D00002020002008230020082200200922002073
:103D1000102200207F2101400148405C7047C046CE
:103D20000922002010B515480179042917D002296D
:103D300006D0012920D1811D124802F0C8F810BD1B
:103D4000C2787F211140052916D8C9B24A000E4B0E
:103D500000249C52821D0B4802F041F910BDC2782C
:103D60007F211140052907D84279C9B2044B5A5422
:103D7000821D044802F0D9F810BDC0462020002062
:103D800009220020082300201022002070B51546CB
:103D90000E460446FF2D1AD80D4850210170E91C2B
:103DA0000A0A4270817080212143C1702021017173
:103DB0004571062101F0CAF93046294601F0C6F9DD
:103DC0007F20204040007D210901024A115270BD30
:103DD000202000201022002080B50A4601468220C3
:103DE0001423FFF7D3FF80BD80B50A460146832028
:103DF0001423FFF7CBFF80BD80B50D480178002963
:103E000015D10C4906220A700A2101700A488278ED
:103E1000417809021143FF225232914200D31146E8
:103E2000064A11801288C11C0548FFF760FE80BD5C
:103E30001C22002008220020202000201E2200201A
:103E4000AC200020B0B520488278417809021143A7
:103E500000780F2809DC0E280ED00F2823D100206F
:103E600001292AD1FFF718FF26E010281FD01628B5
:103E700019D1FFF7C1FF1FE01448016864310160E8
:103E8000002013490A1A5389002B09D06424642B9B
:103E90001D4600D325465B1B53810E4A13420DD0AD
:103EA000801C0C28EED10220FFF75EFAB0BD002086
:103EB000032902D3FFF736FF0120B0BD06480021D9
:103EC00001701020FFF7C7FE2020002020220020D4
:103ED00010220020FFFF00001C22002010B5092046
:103EE00000F09EFF08480024047008480480084839
:103EF000047008480460FFF715FE0748046007488F
:103F000004600748046010BD1C2200201E2200200F
:103F10000822002020220020242200202822002025
:103F20002C2200200148002101607047242200203B
:103F300002480021016002480160704728220020E9
:103F40002C220020B0B50D460446206B00280CD072
:103F500000F04EFF01462046884700F049FF00214F
:103F6000002810D0012800D00446002D07D020469C
:103F7000A8470021002806D0012800D0044620468A
:103F8000FEF74CF901210846B0BDB0B58EB00D4624
:103F90000446606B00280CD000F02AFF0146204642
:103FA000884700F025FF002100281BD0012800D001
:103FB0000446002D08D02046A8476C460021002862
:103FC00010D0012800D004466D46382228462146EC
:103FD000FFF78DFD606A0490A06A05902846FEF701
:103FE0001DF9012108460EB0B0BDB0B50D4604461E
:103FF000E06A00280CD000F0FBFE0146204688470E
:1040000000F0F6FE0021002810D0012800D0044660
:10401000002D07D02046A8470021002806D00128FF
:1040200000D004462046FEF7F9F801210846B0BD4D
:10403000F0B587B0029303920591002977D00490E0
:104040000D9801900C98009000253C4B06952F464A
:104050001E4601F091F8002855D138206843049C91
:10406000251833461A680121954200D00699069119
:104070002056002841DA2020285C0221695E0A1AB5
:10408000039CA24239DC4118EA888918039A8A42C3
:1040900033DA04216C5E221A02998A422DDC201840
:1040A000298940180299814227DA1868854210D080
:1040B000186800280DD00198002805D028460199DD
:1040C00088473346002818D018680199FFF73AFF4F
:1040D00008E00098012809D002280ED1284601994D
:1040E000FFF783FF3346002807D022E028460199D6
:1040F000FFF74BFF334600281ED17F1CFDB2059809
:104100008542A5D300E03346069800060FD0186814
:1041100000280CD001F030F83146002807D108689B
:104120000199FFF70FFF002801D00020306007B091
:10413000F0BD00201860FAE71D60F8E72422002097
:10414000F0B589B00C46014602AD1C22284601920A
:10415000FFF7CDFC2168E98062682A81A0681A4FC8
:1041600065233B7092B242438BB25343D9084E1C35
:104170000722134200D10E463146009104268640A4
:1041800070181D30010A7970B8700321384600F0AC
:10419000DDFF2846019900F0D9FFA06838700121A1
:1041A000384600F0D3FFE06800F022FEB1B200F024
:1041B000CDFF009885B2206900F01AFE294600F074
:1041C000C5FF09B0F0BDC0462020002070B50446F0
:1041D00020787F26064000F0CFFF002830D1002E47
:1041E0002ED0E06900281DD000F002FE0546052E05
:1041F00002D1A07E002824D0284602F01BFF0646EC
:1042000012486521017031461C310A0A42708170E2
:10421000032100F09BFF1C21204600F097FFB1B264
:1042200028460BE0094865210170002141701C25DA
:104230008570032100F08AFF2046294600F086FFA2
:1042400070BD20462946FFF77BFF70BD202000206F
:1042500080B50A46C16900F001F880BD70B5164608
:1042600004460025002C1CD02078072801D0022805
:1042700017D1084600F0BCFD002812D002F0DAFE8B
:104280004643E08886420CD9311A7D20000148431C
:10429000A17E02F055FCA17A4900C9B264224A43CA
:1042A0001518284670BD0000F0B581B00446002CFA
:1042B0002BD0174802688A4203D1164A13685B1C48
:1042C000136006680E43134A1568134F002901D086
:1042D000066004E00023036013607B1C1E4300683B
:1042E000884201D000201060082D0BD303212846FE
:1042F00002F0ACFC012080073043002900D030469A
:10430000384000E030462946A04701B0F0BDC04625
:10431000282200202C220020FFFFFF7FF0B581B073
:104320000F4E01243470B11CFF2750377A1C2046F1
:1043300000F0F4FE054675707A1B7719F91C02200F
:1043400000F0ECFEB8702D187619F47000F0D0FE75
:104350003071902070710020B071E81D01B0F0BD87
:10436000AC200020F0B587B006460720064206D0F4
:104370003746F8B2FDF7F4FD80B207B0F0BD029009
:104380008D480090832003908C4C8F4D374611E070
:1043900003980D308D4908704E70069A174302211C
:1043A000029802423E4605D0E3E7FFF7B7FF014619
:1043B000304637461023334088B20028069600D195
:1043C000A7E0002B00D0A4E005907D20000122682A
:1043D00016187B4800780928049340DC072848D049
:1043E000092864D10021774F3846019101F0C4FBC0
:1043F00010E0FFF73DFC80210022284600F0D2FEAD
:104400002068B04200D3CDE0FFF71CFD00F0B4FE01
:104410000028F0D1384601F0DDF80028E9D0059AEF
:10442000D71D7808A92800D3C2E003980D3067494A
:1044300088548818019B43700098001D921C02400C
:10444000481DFFF754FB052260480199FFF746FB22
:10445000BBB25C4803995D4A01F0A1FB40E00A2829
:104460000DD00B28059925D161487844FFF7C2FB90
:1044700036E05E4878440599FFF7BCFB30E05448CD
:1044800008404008A928059F00D391E053202870D8
:10449000380A6870A9700321284600F057FE4B487F
:1044A000394600F053FE00204549087018E0002806
:1044B00005997AD0F8B2FDF753FD002810D074E0CA
:1044C000FFF7D6FB80210022284600F06BFE206813
:1044D000B04267D2FFF7B6FC00F04EFE0028F1D1E3
:1044E000374800780028EBD1002035490870394959
:1044F000087039490880069EB10600D53CE7FFF7F1
:10450000B7FB3006049B04D501201F4600F0C4FD14
:104510003B46002B06D170063FD400202849087086
:104520002C49087000202C49088000F025FE002846
:1045300001D1FFF79DFB80270026284639463246E9
:1045400000F030FE022806D8A9786A7812020A43E1
:10455000C01E90420AD1FFF775FC19480078002868
:10456000E3D01D4800880028DFD003E00020144974
:104570000870D8E70422154818A1FFF755FB00285A
:1045800000D112E70422114816A1FFF74DFB0028C5
:1045900000D1FDE610480088EEE60F48008800993B
:1045A0004018E9E61020FFF756FB0920FFF753FB00
:1045B0000220FFF750FBC046FBFF00002022002036
:1045C0001C2200203022002020200020AC200020CF
:1045D000FEFF0000082200201E220020B001000083
:1045E00000000000B0A700000000000061F9FFFF1C
:1045F0007BF9FFFFF0B581B007465F4C25461435C7
:10460000382228463946FFF772FA2169A068002946
:1046100003D088470346A06803E01C214143226879
:1046200053180026002810D02269411E002A0FD0FE
:104630000846009737462E461D4690472B4635467E
:104640003E46009F0246A06806E03046324603E040
:104650001C224A4321688A186168491E884210D288
:104660002169401C002908D000951D461646884740
:1046700032462B46009D064603E01C21414320683C
:104680004618787840280ADC202822DC102834D00C
:10469000202867D15969002000296BD151E080287A
:1046A00022DC412833D042285CD1596900200029FE
:1046B00060D1D96800295DD16268511E012A59D0A4
:1046C000A2688A4256D0F168002953D1306920632C
:1046D00048E0212831D0222844D1194614315A69A2
:1046E0000020002A2FD145E0822835D0812839D1F9
:1046F000A1680020002935D13CE0D96800200029BC
:1047000038D02163587E00282CD0E0822AE05969F5
:10471000002000292ED1D96800292BD1A1680029B9
:1047200028D06168012925D0D168002922D151699A
:1047300000291FD11069206314E059690020002965
:1047400018D01946103108682063187E002809D057
:10475000E0820820A08505E06068A168421E002074
:10476000914207D0E268002A284603D01434184644
:104770002146904701B0F0BD74220020F0B581B011
:1047800005463D4F3969B868002902D0884706467A
:1047900003E01C214143386846180124374885420C
:1047A00014DD3748854217D0364885421CD036483C
:1047B00085425ED13068002852D0B46800F018FB02
:1047C0000146FA68204600F06DF851E02F48854216
:1047D0000AD02A4885424CD17968B8684A1E00241C
:1047E0000121904205D344E00024E143B868002849
:1047F0003FD04018B8602648002404602548046073
:1048000025480460254DAC602868002831D0E8694F
:10481000234988422DD000282BD0002420466968E7
:10482000884226D200F0A8FC002822D1A868E968B6
:10483000382670432A681018002902D088470028BB
:1048400007D0012803D1A868464328688019FDF7DE
:10485000E5FCA868401CA86029680029DFD108E0B1
:104860007068002805D000F0C3FA0146B068884798
:104870000024204601B0F0BD742200200200008018
:1048800002000040010000400300008001000080A1
:1048900024220020282200202C2200203C18002066
:1048A000445010B0F0B583B002920D460190394EDD
:1048B000002000907060002D15D03C4979441C27E1
:1048C00028463A46FFF7B0F900280CD0384C7C4413
:1048D0007068401C70607843281821463A46FFF7FC
:1048E000A3F90028F4D101990846013005D0706879
:1048F0008842009800D30846B060356000250298D1
:10490000F0603561244C2B487844206009206060B9
:1049100029487844206129487844E06003202076C3
:10492000E5612046183000F0CDFBE06100F048F86A
:104930001A4805601A4805601A480560A560206895
:10494000002824D0E069184988421ED11FE0606821
:1049500085421CD200F010FC002818D1A068E16844
:104960003825684322681018002902D0884700289B
:1049700007D0012803D1A068454320684019FDF7FE
:104980004DFCA068451CA56020680028DFD103B05D
:10499000F0BDC046742200203C18002024220020D4
:1049A000282200202C220020445010B0B0360000F5
:1049B0009E3600006C34000067FEFFFFD9FCFFFF4D
:1049C0007047000081B0F0B590B016460C460A90D2
:1049D0001593022C00D2F0E10A98002800D1ECE1F6
:1049E000002E00D1E9E100210A9807912246FFF745
:1049F00075F815A80B903078002800D1DDE10799F3
:104A0000C943651E0591BDE13019315D25290BD1E2
:104A100003930292431C0020202108910A21019156
:104A200000900490099056E006460A921EE1334633
:104A300008464BE0472B13DC194630390A2934D29B
:104A4000302B089900D11946099D002D00D00899F6
:104A50000A226A43D218303A0992334608913AE062
:104A6000672B04DD722B09DD732B46D10AE0622B24
:104A700048DC482B55D10122049201E0682B56D125
:104A8000102201920B9A131D0B93032318404D1C07
:104A90001168012800D1CEE0022800D1D0E003281F
:104AA00033462846069D16D0E7E02E2B00D0CAE0FC
:104AB00030782A2800D0C6E07178731C012048297C
:104AC00004D0682902D0732900D0BCE00B990A1DDC
:104AD0000B920968009102211E463378761C002251
:104AE0002D2BA7DC1046F8D0252B2AD02A2B00D05E
:104AF000A9E0307873289AD0A5E0752B23D0782BC5
:104B000018D0A0E0632B00D18BE0642B00D09AE09A
:104B10000B98011D0B910068C11742184A40C00F45
:104B200016E0582B00D08EE00120049002E0702B9C
:104B300000D088E00B98011D0B9102680020102521
:104B400007E0252071E00B98011D0B910268002001
:104B50000A25069001270A92954212D80124284678
:104B60000746294601F0ECFFA04209D128467843C8
:104B70000999491E09910A9988423C46F0D900E0FA
:104B800027460024E143069B002B00D119460998D3
:104B9000019140180899CAB2302A06D1002B04D0DE
:104BA0000CA92D230B7000230124811E0D290CD884
:104BB000411E0AD00CA82043069302F08DF9069BF3
:104BC0000998001901994018441E002B03D00CA825
:104BD0002D210155641C0498002F18D0002801D005
:104BE00079A000E07CA009900A98394601F0A8FF5E
:104BF000294602F02BF80998405C0CA90855384664
:104C0000294601F09DFF641CBD420746ECD9039B79
:104C10009C4200D31C460CA9029D284622461F46F2
:104C20001BE00B98011D0B91006802990870039816
:104C3000401E491C15E0009C059A039B069D24E03C
:104C40000878002875D00520039F052F3C4600D327
:104C50000446029D284664A12246FEF748FF381B01
:104C600029190A910346002800D1A6E030780028CF
:104C700005991D4600D085E09FE0059A1446039BE8
:104C800008194078641C0028FAD10198102802986D
:104C900044D1002C74D008910A988318501B874285
:104CA000394600D8014603914A430292501C0190B4
:104CB00000202A460A9302995B1809900899085C1B
:104CC0000F250540000903998918491C022974D34E
:104CD0000499012903D0002908D13FA100E03AA19D
:104CE000C0B2085C1870E8B2085C58700198904235
:104CF00063D0921E0A9B9B1C0998401CA042D9D3EA
:104D0000099005990698081A874200D80746084670
:104D1000784318180A90B818431C1CE09C4200D332
:104D20001C46224605461F46FEF7E1FE381B2919A0
:104D30000DE0039B009F9F4200D31F462021029D50
:104D400028463A46FEF7CAFE0398C01BE9190A91A5
:104D50000346002831D00998A04287D9041B1D467C
:104D6000AC4200D32C4620210A9F38462246FEF74B
:104D7000B5FE2D1B3F190A972B46002D1DD075E758
:104D80000A9073E70F46079C03E0301940787F1EB6
:104D9000641CC0B2002801D02528F6D1AC4200D353
:104DA0002C460A9831462246FEF7A1FE06952B1B9B
:104DB0000A980219002B00D026E6002010B0F0BCA3
:104DC00002BC01B00847C046303132333435363783
:104DD0003839414243444546303132333435363731
:104DE00038396162636465664552524F5200000073
:104DF00080B50449884204D30349884201D200F0B7
:104E000005F880BD0000D0C0C082D0C07A460249FB
:104E1000C91C891A401A70470D4ED0C001DF704777
:104E200080B582B0009007486946FFF7F7FF01AAF6
:104E300011600549884201D102B080BD0420FEF70F
:104E40000AFFC04637010060C601009080B582B0FD
:104E5000064801A9FFF7E2FF6A461160044988424B
:104E600001D102B080BD0420FEF7F5FE0002006013
:104E7000F102009080B584B000AB07C306486946D4
:104E8000FFF7CCFF03AA11600449884201D104B0A6
:104E900080BD0420FEF7DFFE7F030060BC030090AE
:104EA00080B584B001900291074801A9FFF7B6FFD1
:104EB00003AA11600549884202D1039804B080BD5D
:104EC0000420FEF7C8FEC0462C0500606705009070
:104ED00080B588B001AF0FC70A9805900B9806906F
:104EE000074801A9FFF79AFF07AA11600549884200
:104EF00002D1079808B080BD0420FEF7ACFEC04682
:104F00003B070060AD07009080B582B00090074875
:104F10006946FFF783FF01AA11600549884202D163
:104F2000019802B080BD0420FEF795FEDB0A006008
:104F3000640A009080B586B001AF0FC7074801A989
:104F4000FFF76CFF05AA11600549884202D1059858
:104F500006B080BD0420FEF77EFEC0462C0B00602C
:104F6000A00B009080B582B0009007486946FFF71B
:104F700055FF01AA11600549884202D1019802B08B
:104F800080BD0420FEF767FEC10D0060EE0D0090AD
:104F900080B586B001AF0FC7074801A9FFF73EFFF4
:104FA00005AA11600549884202D1059806B080BD66
:104FB0000420FEF750FEC046EA2E0060632E0090EB
:104FC00080B586B001AF0FC7074801A9FFF726FFDC
:104FD00005AA11600549884202D1059806B080BD36
:104FE0000420FEF738FEC0462E2F0060742F00907C
:104FF00080B58CB001AF0FC70E9805900F98069042
:1050000010980790119808901298099013980A9098
:10501000074801A9FFF702FF0BAA11600549884262
:1050200002D10B980CB080BD0420FEF714FEC046E0
:105030003B360060F636009080B584B000AB07C305
:1050400007486946FFF7EAFE03AA1160054988424E
:1050500003D103A8008804B080BD0420FEF7FBFD47
:105060009E3C0060B93C009080B586B000AF0FC791
:105070000898049006486946FFF7D0FE05AA11601B
:105080000449884201D106B080BD0420FEF7E3FD4B
:10509000BA5300601E53009080B582B0009007485C
:1050A0006946FFF7BBFE01AA11600549884201D19C
:1050B00002B080BD0420FEF7CEFDC046E162006074
:1050C0006F62009080B582B0009007486946FFF794
:1050D000A5FE01AA11600549884202D1019802B0DB
:1050E00080BD0420FEF7B7FD586400601F64009087
:1050F00080B582B0074801A9FFF790FE6A461160AB
:105100000549884202D1009802B080BD0420FEF714
:10511000A2FDC0466E6800607F68009080B584B0D4
:1051200000AB07C307486946FFF778FE03AA116082
:105130000549884202D1039804B080BD0420FEF7DF
:105140008AFDC046D47000608770009080B584B03E
:1051500001900291064801A9FFF760FE03AA1160C1
:105160000449884201D104B080BD0420FEF773FDDC
:105170001C720060F372009080B582B0074801A9EC
:10518000FFF74CFE6A4611600549884202D100983B
:1051900002B080BD0420FEF75EFDC046CF73006004
:1051A0007F73009080B584B000AB07C307486946A1
:1051B000FFF734FE03AA11600549884203D103A812
:1051C000008804B080BD0420FEF745FDD174006066
:1051D0002B740090F0B585B0344A12788324002AED
:1051E00002D03B4A7A4409E00A9A452A02D8394A51
:1051F0007A4403E0072907D1374A7A44022321463B
:1052000000F0CDFC05B0F0BD029201940390402067
:1052100004931F5C002F18D0052F049E07D1304641
:10522000413023A10522FEF7FFFC00282CD0413697
:10523000002422A5E0B2032101F008FD305D695C85
:1052400041403155641CA742F4D145200499085CC3
:105250004630029A824211D1413117483A46FEF750
:1052600046FC1948078019480721017009200F4999
:1052700008700121039800F07FFCC3E7174A7A44C5
:10528000022303980199BBE70B4E03223270701C76
:105290000AA1FEF72CFC301D09A10422FEF727FC11
:1052A0003078431D039801993246A9E71C2200205B
:1052B000F1D0000000000000AC2000205446410066
:1052C00090009000000000001E2200200822002014
:1052D000A62D00009C2D0000942D0000122D000032
:1052E000F0B581B01D460E460446284600F034FC59
:1052F000012804D168460421FFF7D2FD04E0684686
:1053000004222946FEF7F3FB174F082238463146A0
:10531000FEF7EDFB3846083069460422FEF7E7FB4E
:1053200002203873002078730121B973F873387440
:10533000284600F011FC0146201D8625012906D1D2
:1053400029467931C9B20422FEF7C8FB03E0694659
:105350000422FEF7CCFB044A11232046294600F024
:105360001EFC01B0F0BDC046AC200020F0B585B0F9
:1053700015460C460490A07961790E020643A07888
:10538000029061782778093A90B2832303931F4BE8
:10539000864203D0ED1F2B409E421BD13246002F88
:1053A00008D01B4A7A4402230498039900F0F7FBC3
:1053B00005B0F0BD022917DC012920D002291BD13C
:1053C00090B269460860E31D002204980299FFF735
:1053D00001FFEDE7D0B28642E1D0E8B286422A462C
:1053E000DDD00C4A7A44DEE703290BD0C12903D172
:1053F000094A7A440423D7E70A4A7A44D3E7074A9A
:105400007A44D0E7064A7A440823CDE7FFFF00003C
:10541000FA2B0000A82B0000A82B0000882B00000E
:105420008C2B0000A62B000080B5C1698A784B78D0
:105430001B0213430A78812A09D0832A0CD0862ABA
:105440000ED1C91C031D0022FFF74AFF80BDCA1CF4
:10545000812100F0A4FB80BDC91C1A46FFF786FF1E
:1054600080BD000070B50D460146012A11D1094CDE
:1054700020462A46FEF73BFB60194026721B00259A
:105480002946FEF72BFB8120214632462B46FEF7AC
:105490007DFC70BDC0220020C16002820022C28259
:1054A00082762B23C2542A23C2548284C1610262B1
:1054B00070470000F0B583B00D4604462A20215CF9
:1054C00020462A30012949D000293AD12B21002237
:1054D000625426462B362021625CD21ED2B2274669
:1054E0002037012A3DD8228BE38A9A423BD90426F1
:1054F0000020012D00D0064601960290A07E0326D2
:10550000012700973746002800D0009F019E3743AF
:105510004026012D00D00E46F61BD11AB14200DC08
:105520000E46F1190191012D06D1211D28480422B2
:105530000292FEF7DCFAA07E002821D0FF3002990B
:105540002BE02521615C062908D12B21625C002318
:10555000635426462B36002A03D1BCE72B200021BA
:10556000215403B0F0BDFCD10021E182A17631705D
:105570000170B9803960E068E06114480170F0E7BB
:105580004020205C029B99B2114A505401201843DC
:1055900081B2637E5354411C207E89B20C4B585417
:1055A000E169002905D0B2B2D819E38AC918FEF71B
:1055B0009EFAE08A8019E082A07E401CA0760198C5
:1055C00081B203482A46FFF74DFFCAE71C2200209C
:1055D000C022002001462A200A5C0120002A10D0A7
:1055E000012A01D10020704725200A5C0020062AEC
:1055F00007D12B200A5C01200021002A01D0084697
:1056000070477047B0B52B2101244454011D0B4D48
:1056100004222846FEF76BFA832028710020687167
:105620000220A8716920E8717C20C043801C287288
:10563000092128462246FFF715FFB0BDC0220020F1
:10564000B0B52B2101244454011D084D04222846E5
:10565000FEF74DFA8820287100206871A871072193
:1056600028462246FFF7FEFEB0BDC046C0220020FD
:10567000F0B585B004462520235C27462537002059
:10568000052B19D0049008784B781B0203438878C7
:10569000CE78360206433004184323796679360201
:1056A0001E43A379E5792D021D432B043343834226
:1056B00004D005203870049805B0F0BD0E790D1D9A
:1056C000608C01230393314B00281ED002932423C6
:1056D000E55C23462433AE42EBD1258B0095751C47
:1056E0001D70009B1E1A531F05250195B34200DB58
:1056F0000190B34200DB009A019BD31A1818608412
:10570000029A1A40208D491D28E07C20C043401D8C
:10571000C0B20290832001900298864203D12046B5
:10572000FFF78EFF30E0029588794979090201433D
:10573000C91C08461D461840019B9E42B9D1238BC7
:1057400089B28B42B5D1111F814200DB01466184D1
:1057500024220020A0542A460A400299FFF76CFC3C
:105760002085218B628C8A420ED3E18C8842A0D1A5
:1057700006203870002565842A20205C012803D18A
:105780002046FFF73FFF3D70039895E7FFFF0000BD
:10579000F0B58BB0044623722020205C27462037CA
:1057A000852503280ED009910A922A21615C26469C
:1057B0002A36002913D0204609990A9AFFF758FF84
:1057C000002873D1DF4806210172042139700021BD
:1057D000A1760830E061E182012020835FE00428A7
:1057E00009D10020E082A0762B2160543070B8806F
:1057F0003860E068E061042100200893012B00D0AC
:10580000014601230A461A430A9890423DD3049266
:105810000898012805910695079307D1201D0422B9
:105820000999FEF764F90599079B069DE08AC64A27
:1058300000280FD00898012822D120461230211DBF
:1058400015460422FEF7F0F905992A46079B069DA6
:10585000002815D003260846039630430E460A99C1
:10586000814212D309998819029088570E46294619
:105870007A3149B2884237DDB2480421017207E02B
:10588000022008430A99814212D2AE4805720421CF
:1058900039700021A1760830E061E18223833A3536
:1058A00040202554217A2046FFF704FE0BB0F0BDBE
:1058B0002120205C089988424BD13878012854D1A6
:1058C00003920898012800D083E0211D042509983F
:1058D0002A461E46FEF7A8F93346002879D0994893
:1058E000062101723D70F4E0089B012B16D1387837
:1058F00001281FD1201D2146123115460422019096
:10590000FEF792F92A46089B069D002806D00298C9
:105910000078691CC9B2884200D0F4E038780128C8
:1059200008D1012B00D080E002980078691CC9B230
:1059300088427AD1049970184078715C0902014359
:10594000208AC01E81421EDD7E4803990172042117
:105950006EE0284608307B49087204203870002029
:10596000A0760831E161E08298E70898012883D1A8
:105970000020E082A0762B2160543070B88038601F
:10598000E068E06192E7029800788128079B04D0E4
:10599000862859D0832800D0ACE00991039208985A
:1059A00001285FD1261D69497944042530462A46DD
:1059B000FEF73AF9002807D06549794404223046B9
:1059C000FEF732F900284DD15E480B2101723D707F
:1059D000B0E00598099A1118105CA27E90422FD170
:1059E0000A98049A851AE08A228B121A954200DBE3
:1059F0001546039E2E40E2691018491C3246FEF7F8
:105A000076F80898012807D1E08AE1690918E08C46
:105A10003246FFF711FBE084E08A4019E082A07E65
:105A2000401CA076079B089D45E046480421017272
:105A300039700021A1760830E061E1820798CCE658
:105A400040480421017243E00898012852D109918D
:105A50000392201D3F49794404263246FEF7E4F8BC
:105A6000002863D00A980599461A0998C01C8642F6
:105A7000039D00DB06460A903540E06902992A46FC
:105A8000FEF735F8089B012B06D1E16900202A4674
:105A9000FFF7D2FA089BE084E6820A98208321204F
:105AA00023540020A07620461230211D04221D46DA
:105AB000FEF71DF8079BE08A012D01D1218B13E031
:105AC000218BCA1C90420FD91E4803210172042168
:105AD00039700021A1760830E061E18223830699C4
